:020000040800F2
:10000000B006002049020008170900080F0900087F
:1000100013090008B7060008D90A0008000000000C
:100020000000000000000000000000005709000868
:10003000BB060008000000002D0900086D0A00083A
:1000400063020008630200086302000863020008FC
:1000500063020008630200086302000863020008EC
:1000600063020008630200086302000863020008DC
:1000700063020008630200086302000863020008CC
:1000800063020008630200086302000863020008BC
:1000900063020008630200086302000863020008AC
:1000A000630200086302000863020008630200089C
:1000B000630200086302000863020008630200088C
:1000C000630200086302000863020008630200087C
:1000D000630200086302000863020008630200086C
:1000E000630200086302000863020008630200085C
:1000F000630200086302000863020008630200084C
:10010000630200086302000863020008630200083B
:10011000630200086302000863020008630200082B
:10012000630200086302000863020008630200081B
:10013000630200086302000863020008630200080B
:1001400063020008630200086302000863020008FB
:1001500063020008630200086302000863020008EB
:1001600063020008630200086302000863020008DB
:1001700063020008630200086302000863020008CB
:10018000630200086302000800F002F800F044F87F
:100190000AA090E8000C82448344AAF10107DA45E2
:1001A00001D100F039F8AFF2090EBAE80F0013F0F0
:1001B000010F18BFFB1A43F0010318471814000081
:1001C00038140000103A24BF78C878C1FAD8520712
:1001D00024BF30C830C144BF04680C6070470000C1
:1001E0000023002400250026103A28BF78C1FBD840
:1001F000520728BF30C148BF0B607047642900F028
:10020000A780632900F01182002070471FB501F01C
:10021000DBF91FBD10B510BD00F013FA1146FFF752
:10022000F5FF00F0A1FF00F031FA03B4FFF7F2FF91
:1002300003BC00F039FA000030BF72B6704762B6F6
:10024000704780F30888704709488047094800478D
:10025000FEE7FEE7FEE7FEE7FEE7FEE7FEE7FEE776
:10026000FEE7FEE704480549054A064B70470000D3
:10027000710A000889010008B0000020B0060020C3
:10028000B0020020B00200200FB41CB5074B06AA34
:100290007B4469460090059800F0A5F90020694666
:1002A00000F0B4F91CBC5DF814FB000079030000F9
:1002B00070B5044685690068C10601D5302600E0A6
:1002C0002026C00707D070BDD4E9012130469047F1
:1002D000206A401C20626D1EF6D570BD70B50446C4
:1002E00085690078C00707D170BDD4E901212020BD
:1002F0009047206A401C20626D1EF6D570BD70B517
:100300000C460546012A05D02878800600D5EA6902
:10031000002302E0012305E05B1C934202D2E05C73
:100320000028F9D1A869E618C01AA861286A1844FB
:1003300028622846FFF7BCFF04E0D5E9012114F844
:10034000010B9047B442F8D32846FFF7C7FF70BDB2
:100350002DE9F0410646002410687529314616A59E
:1003600010D0AFF30080002802DA404213A507E066
:1003700031688A0701D512A502E0490704D511A505
:10038000012401E0AFF3008000210A2206F12407D6
:1003900009E0B0FBF2FCB0FBF2F302FB1C003030D2
:1003A00078541846491C0028F3D123462A46304683
:1003B000BDE8F04100F0B9B8000000002D000000D9
:1003C0002B000000200000002DE9F0474FF0000A4C
:1003D00089460446C0F820A02046E16888470028E6
:1003E00076D0252806D0D4E901219047206A401C08
:1003F0002062F1E7E168204600258847C4F81CA088
:1004000006460027C4F818A02A2E09D0304600F06E
:1004100065FB38B304EB8708303EC8F8186019E074
:1004200059F8041B204604EB87029161E168884774
:10043000012F064618D1E069002820DA25F02005B2
:100440001DE0D8F8180000EB800006EB40003038C3
:10045000C8F818002046E1688847064600F03EFBD1
:100460000028EED1012F0AD02E2E08D12046E168B7
:1004700088477F1C0646022F45F02005C4DBA06993
:10048000002803DA404245F00105A061E80701D0E9
:1004900025F01005B6B1A6F14100192802D8203682
:1004A00045F400654A463146204625604D46FFF733
:1004B000A5FE58B1012806D0ED1D25F0070000F17A
:1004C000080989E704E005F1040985E730468AE771
:1004D000206ABDE8F0874FF0000200B5134694464D
:1004E0009646203922BFA0E80C50A0E80C50B1F18C
:1004F0002001BFF4F7AF090728BFA0E80C5048BFA0
:100500000CC05DF804EB890028BF40F8042B08BF3D
:10051000704748BF20F8022B11F0804F18BF00F839
:10052000012B70477047704770472DE9F0470D4623
:1005300099469246044600F124080168880604D5CD
:10054000E06921F01001216000E00120A84201DDF6
:10055000471B00E00027A1697A1902EB0900081A7D
:10056000A0612078C00602D42046FFF7A1FE002635
:1005700008E0D4E901211AF806009047206A401CDF
:10058000761C20624E45F4DB2078C0060AD5204652
:10059000FFF78EFE06E0D4E9012130209047206A63
:1005A000401C2062381EA7F10107F4DC07E0D4E903
:1005B000012118F805009047206A401C2062281E7F
:1005C000A5F10105F3DC2046FFF788FE2078000640
:1005D00002D50220BDE8F0870120FBE701694A1C33
:1005E00002610878704700B58FB0CDE90131002174
:1005F000059105497944CDE9031011466846FFF796
:10060000E3FE0FB000BD0000E5FFFFFF0A6802F83F
:10061000010B0A60704710B5436913B1AFF3008056
:1006200001E0FFF76CFE012010BD127800F12401FB
:100630000A7000224A700122EDE711684FF0FF3284
:10064000E9E7754600F02CF8AE46050069465346CA
:1006500020F00700854618B020B5FFF703FEBDE87F
:1006600020404FF000064FF000074FF000084FF019
:10067000000B21F00701AC46ACE8C009ACE8C009AA
:10068000ACE8C009ACE8C0098D46704710B5044617
:10069000AFF300802046BDE81040FFF7C6BD000064
:1006A000004870474C00002001491820ABBEFEE70F
:1006B00026000200704700BFFEE7704730B10749CF
:1006C000096841F48061054A116005E00349096841
:1006D00021F48061014A116070470000003C024033
:1006E00070B504460A460026092502B909E0012A28
:1006F00001D1160205E0022A01D1160201E04FF4F1
:10070000407600F09DF80546092D28D1154800686F
:1007100020F44070134908600846006830430860C0
:100720000846006820F0F80008600846006844F0B9
:10073000020108430B4908600846006840F4803015
:10074000086000F07DF805460648006820F00200C9
:10075000044908600846006820F0F8000860284650
:1007600070BD0000103C024009201349096801F4E3
:100770008031B1F5803F01D101201CE00E490968AC
:1007800001F0100109B1062015E00B49096801F4D8
:10079000807109B102200EE00749096801F0EF01FC
:1007A00009B1072007E00449096801F0020109B115
:1007B000082000E0092070470C3C02400348006814
:1007C00040F000400149086070470000103C0240C2
:1007D00030B502460C46092500F032F80546092DD1
:1007E00017D10D48006820F440700B490860084696
:1007F000006808600846006840F001000860147056
:1008000000F01EF805460448006820F00100024987
:100810000860284630BD0000103C024005480068D2
:1008200000F0004028B1044802490C390860034830
:1008300008607047103C024023016745AB89EFCD4B
:1008400008B509200090FFF78FFF009002E0FFF746
:100850008BFF00909DF800000128F8D09DF8000063
:1008600008BDF0B50A4600210023002400BF3DE08A
:10087000012505FA01F3156805EA03049C4234D109
:1008800005684F000326BE40B543056015794E004C
:10089000B5400668354305601579012D02D01579FC
:1008A000022D16D185684F000326BE40B5438560F2
:1008B00055794E00B5408668354385604568012608
:1008C0008E40B5434560456896798E40B6B2354353
:1008D0004560C5684F000326BE40B543C560D57965
:1008E0004E00B540C6683543C560491C1029BFD3CA
:1008F000F0BD0246002013690B400BB1012000E05F
:10090000002070470AB1018300E04183704700BFB7
:10091000FEE700BFFEE7704702490143024A11604B
:10092000704700000000FA050CED00E07047000081
:1009300029B1064A12680243044B1A6004E0034AD4
:1009400012688243014B1A60704700003038024041
:1009500001460878704770470CB500200190009060
:100960003448006840F480303249086000BF3148A4
:10097000006800F4003000900198401C019000983D
:1009800018B90198B0F5A04FF1D12A48006800F4D9
:10099000003010B10120009001E00020009000988C
:1009A000012846D123484030006840F0805021495A
:1009B000403108602048006840F440401E4908600B
:1009C0001C48083000681B49083108600846006868
:1009D00040F4004008600846006840F4A0500860F9
:1009E0001648091F0860081F006840F08070091F42
:1009F000086000BF0F48006800F000700028F9D0C0
:100A000040F205700E4908600A480830006820F07E
:100A100003000849083108600846006840F00200F9
:100A2000086000BF03480830006800F00C00082888
:100A3000F8D10CBD00380240007000400854400757
:100A4000003C0240042808D14FF0E021096941F040
:100A500004014FF0E022116107E04FF0E021096945
:100A600021F004014FF0E02211617047704700004F
:100A700010B51548006840F4700013490860134829
:100A8000006840F001001149086000200F4908315A
:100A900008600E4800680E4908400C4908600D487F
:100AA000091D0860081F006820F48020091F0860E5
:100AB000002006490C310860FFF74EFF4FF0006040
:100AC00001498039086010BD88ED00E0003802401F
:100AD000FFFFF6FE1030002400BFFEE730380A2882
:100AE00001D20120704700207047000038B5002473
:100AF00007E00F496018FFF72BFF0DF80400601C9A
:100B0000C4B2042CF5DB9DF800004A2807D19DF8FB
:100B10000100532803D19DF80200032804D00020CF
:100B200000F00CFD002038BD9DF80300FBE700003D
:100B300000FF070870B500224FF400711348FFF75B
:100B4000E1FE012211031148FFF7DCFE002415E04D
:100B500004F1B001C8B200F0CDFB102000F0CAFBD8
:100B6000002000F0C7FB002504E0002000F0FCFBA3
:100B7000681CC5B2842DF8DB601CC4B2092CE7DB0D
:100B8000012251020148FFF7BDFE70BD0010024076
:100B900010B504466FF00400FFF754FFE11704EBB3
:100BA0005171C1F3C701074A11701046007800EB7C
:100BB0004001C1EBC0104FF6FF7101EAC0000249CD
:100BC000088010BD040000200600002070B5044617
:100BD0004FF4077094FBF0F0C6B24FF4077094FB2B
:100BE000F0F100FB114085B205E04FF4077000F012
:100BF0002FF8701EC6B2002EF7D115B1284600F0AE
:100C000027F870BD0146114A12784A434FF0E0239D
:100C10005A6100229A611A46126942F001021A6171
:100C200000BF4FF0E022106900F001021AB100F499
:100C30008032002AF5D04FF0E022126922F0010242
:100C40004FF0E0231A6100229A61704704000020EF
:100C50000146114A12884A434FF0E0235A610022AC
:100C60009A611A46126942F001021A6100BF4FF000
:100C7000E022106900F001021AB100F48032002A6B
:100C8000F5D04FF0E022126922F001024FF0E0238C
:100C90001A6100229A617047060000202DE9F04F8A
:100CA0008DB083460E4615461F4600243A4631460F
:100CB000584600F0FBFAABE0285DB02838DB285D31
:100CC000F72835DC601C285CA12831DB285DB038B2
:100CD0005E2110FB01F052490860601C285C00F2A4
:100CE000AD20096808444E49086008460068400184
:100CF000086008460068C0F3074808460088C0F34B
:100D00000729084690F800A0202005AB5246494626
:100D10000090404600F01EF93B4605AA3146584671
:100D200000F082F8A01CC4B206F11000C6B26FE059
:100D3000285DA12837DB285DA32834DC601C285CF3
:100D4000A12830DB285DA1385E2110FB01F0344979
:100D50000860601C285CA1380968084430490860B4
:100D6000084600684001086008460068C0F307486C
:100D700008460088C0F30729084690F800A0202004
:100D800005AB524649460090404600F0E3F83B462A
:100D900005AA3146584600F047F8A01CC4B206F137
:100DA0001000C6B234E0285D20282FDB285D7E28A5
:100DB0002CDC285D20381A490860084600680001CC
:100DC0000860084600681749084415490860084645
:100DD0000068C0F3074808460088C0F307290846A2
:100DE00090F800A0102001AB5246494600904046C2
:100DF00000F0B0F83B4601AA3146584600F04EF8E4
:100E0000601CC4B206F10800C6B201E0601CC4B2A6
:100E1000285D00283FF750AF0DB0BDE8F08F00000F
:100E20004800002080CF03002DE9F047074689469F
:100E300014461D4600224FF400711748FFF762FD6B
:100E4000012211031448FFF75DFD00261AE0B819CE
:100E5000494600F075F94FF000080EE01DB9207802
:100E600000F082FA04E0012D02D1207800F0B6FAF9
:100E7000641C08F1010000F0FF08B8F1100FEDDB71
:100E8000701CC6B2022EE2DB012251020248FFF7BB
:100E900039FDBDE8F0870000001002402DE9F04761
:100EA0000746894614461D4600224FF40071144837
:100EB000FFF728FD00261AE0B819494600F040F96E
:100EC0004FF000080EE01DB9207800F04DFA04E064
:100ED000012D02D1207800F081FA641C08F1010094
:100EE00000F0FF08B8F1080FEDDB701CC6B2022E4F
:100EF000E2DB012251020248FFF704FDBDE8F08762
:100F00000010024070B50024012251031048FFF781
:100F1000F9FC002518E000224FF400510C48FFF7BF
:100F2000F1FC6006040E4FF480410948FFF7E1FC34
:100F300010B1601CC4B200E0E4B2012251030448C5
:100F4000FFF7E0FC681CC5B2082DE4DB204670BD4D
:100F5000001002402DE9F04780460D4616461F4618
:100F6000DDF8209000224FF480511548FFF7CAFCAD
:100F7000012251021248FFF7C5FC00224FF4005134
:100F80000F48FFF7BFFC032000F068F9404600F06F
:100F900065F9284600F062F9304600F05FF9002458
:100FA00004E0FFF7AFFF3855601CC4B24C45F8DBD6
:100FB000012211030248FFF7A5FCBDE8F0870000FD
:100FC0000010024010B50446206807490840B0F1FF
:100FD000005F08D16068054908602068FFF731F9B3
:100FE00002480068804710BD0000FE2F000000206E
:100FF0001CB501210220FFF79BFC4FF480400090BC
:1010000001208DF8040000208DF8060003208DF8E3
:10101000050069460348FFF724FC012002490860E7
:101020001CBD000000040240B88240421CB50121F2
:101030001020FFF77DFC01208DF8040000208DF8C2
:1010400006004BF68070009001208DF8070002200A
:101050008DF8050069460D48FFF703FC00208DF868
:1010600004008DF806004FF48040009001208DF8B8
:10107000070002208DF8050069460448FFF7F1FBE0
:1010800000F006F8FFF7B4FF1CBD0000001002409E
:1010900010B56420FFF79AFD00224FF40071274835
:1010A000FFF730FC012211032448FFF72BFC00223C
:1010B0004FF480612148FFF725FC1420FFF786FDDF
:1010C000012291021D48FFF71DFC1420FFF77EFD51
:1010D000E22000F00FF90520FFF778FD2C2000F04A
:1010E00009F90520FFF772FD2E2000F003F9052015
:1010F000FFF76CFD2F2000F0FDF80520FFF766FDDF
:10110000242000F0F7F8812000F0F4F82A2000F005
:10111000F1F8A22000F0EEF8C82000F0EBF8A020D3
:1011200000F0E8F8602000F0E5F8AF2000F0E2F809
:10113000012251020148FFF7E5FB10BD00100240FB
:1011400070B505460C4600BF05F1AF01C8B200F00E
:10115000D1F8C4F3031101F1100000F0CBF804F052
:101160000F0000F0C7F870BD4FF4A060FFF7D4FB8C
:10117000A820FFF70DFDFFF759FFFFF7DBFC002369
:1011800025A201210320FFF789FDFFF7AFFC0446EC
:10119000002C37D0002324A201210846FFF77EFD52
:1011A000002324A201210320FFF778FD002324A2BD
:1011B00001210520FFF772FD00F04AF9002000F040
:1011C000BDF94FF4FA70FFF701FD00BF00BF00BF8B
:1011D00000BF00BFBFF34F8F00BF00BF00BF1C4860
:1011E000006800F4E0601B490843401C184908608F
:1011F00000BF00BF00BFBFF34F8F00BF00BF00BFE5
:1012000000BFFEE740F6B830FFF7E0FC1248FFF7FA
:10121000D9FE00BFFEE7000020202020BEA9CBAEF3
:10122000BFC6BCBC00000000B3CCD0F2C9FDBCB648
:10123000D6D00000C7EBCEF0B2D9D7F721210000FD
:10124000C9FDBCB6BDF8B6C83A2020302500000064
:101250000CED00E00000FA050080000870B50446BF
:1012600000251DE004F0800028B10122D1030E48C2
:10127000FFF748FB05E000224FF400410A48FFF762
:1012800041FB6006040E00224FF400510648FFF7B0
:1012900039FB012251030448FFF734FB681CC5B237
:1012A000082DDFDB70BD0000001002402DE9F04189
:1012B0000646884614460027002500BF15E0701931
:1012C0004146FFF73DFF00270BE01CB9002000F06E
:1012D0004BF804E0012C02D1002000F07FF8781CCC
:1012E000C7B2802FF1DB681CC5B2022DE7DBBDE879
:1012F000F081000070B5044600224FF400711948D7
:10130000FFF700FB00224FF400611648FFF7FAFADE
:1013100000251FE0002280211248FFF7F3FA04F0B5
:10132000800028B1012211020E48FFF7EBFA05E018
:1013300000224FF480710B48FFF7E4FA012280216C
:101340000848FFF7DFFA0120FFF75CFC6006040E97
:10135000681CC5B2082DDDDB012251020148FFF7F0
:10136000D1FA70BD0010024070B5044600224FF45F
:1013700000711948FFF7C6FA0122D1021648FFF79B
:10138000C1FA00251FE0002280211348FFF7BAFAB6
:1013900004F0800028B1012211020F48FFF7B2FAD1
:1013A00005E000224FF480710B48FFF7ABFA0122F1
:1013B00080210948FFF7A6FA0120FFF723FC600609
:1013C000040E681CC5B2082DDDDB01225102024863
:1013D000FFF798FA70BD00000010024070B5044697
:1013E00000224FF400711948FFF78CFA0122D10254
:1013F0001648FFF787FA00251FE0002280211348D6
:10140000FFF780FA04F0800030B100224FF48071C1
:101410000E48FFF777FA04E0012211020B48FFF7AC
:1014200071FA012280210948FFF76CFA0120FFF7C9
:10143000E9FB6006040E681CC5B2082DDDDB012245
:1014400051020248FFF75EFA70BD00000010024032
:101450002DE9F04786B04FF420396420B9FBF0F055
:10146000471C142101A8FFF736F84FF00908FFF7D1
:10147000D5F90020FFF722F900241BE002211020FB
:10148000FFF72EF9804602211820FFF729F9804640
:1014900002212020FFF724F9804602212820FFF7AF
:1014A0001FF98046B8F1090F00D105E00A20FFF7C7
:1014B0008DFB641C032CE1D300BFB8F1090F08D0E9
:1014C0000120FFF7FBF8FFF779F9012006B0BDE82E
:1014D000F08700241DE000250CE004FB07561149AD
:1014E0007018FFF735FA82460F4970185146FFF71A
:1014F0006FF96D1CBD42F0D32523621C0BA101A81E
:10150000FEF7C2FE002301AA01210520FFF7C6FB5A
:10151000641C642CDFD30120FFF7D0F8FFF74EF9ED
:101520000020D3E70000040800800008C9FDBCB615
:10153000BDF8B6C83A25336425630000F8B5054602
:1015400009261FA00068009015B1012D00D00025CC
:10155000FFF764F90020FFF7B1F800240CE0022146
:101560003820FFF7BDF80646092E00D106E00A2014
:10157000FFF72CFB601CC4B2032CF0DB00BF092E6C
:1015800006D00120FFF79AF8FFF718F90020F8BD00
:10159000002407E01DF804100A4AA018FFF718F904
:1015A000601CC4B2032CF5DB29460648C01CFFF7BB
:1015B0000FF90120FFF782F8FFF700F90120E6E7B5
:1015C0004A53030000FF07084FF04070E1EE100A95
:1015D00070470000F4150008000000204C000000D7
:1015E000C4010008401600084C00002064060000FA
:1015F000E0010008000000000000000000FE824240
:10160000A29E8A82868AB26202FE0000007F40406B
:101610007F40404040407F40407F0000808080BF4E
:10162000A5A5A53FA5A5A5BF808080007F24243F58
:1016300024247F007F24243F24247F000000000016
:040000050800018965
:00000001FF
