:020000040800F2
:10800000A07500204D860108E18B0008E38B000875
:10801000E78B0008EB8B0008EF8B000800000000E6
:10802000000000000000000000000000F38B0008CA
:10803000F58B000800000000F78B0008F98B0008A2
:108040006786010867860108678601086786010858
:108050006786010867860108678601086786010848
:108060006786010867860108678601086786010838
:108070006786010867860108678601086786010828
:108080006786010867860108678601086786010818
:108090006786010867860108678601086786010808
:1080A00067860108678601086786010867860108F8
:1080B000799E0008BD9E0008FF9E000867860108A3
:1080C00067860108678601086786010867860108D8
:1080D00067860108BD8D0008F7850108591501085C
:1080E00067860108678601086786010867860108B8
:1080F00067860108678601086786010867860108A8
:1081000067860108853E01086786010867860108C1
:1081100067860108678601086786010863160108FB
:108120006786010867860108678601086786010877
:108130006786010867860108678601086786010867
:108140006786010867860108678601086786010857
:108150006786010867860108678601086786010847
:108160006786010867860108678601086786010837
:108170006786010867860108678601086786010827
:10818000678601086786010800F002F800F075F8BC
:108190000AA090E8000C82448344AAF10107DA4562
:1081A00001D100F06AF8AFF2090EBAE80F0013F03F
:1081B000010F18BFFB1A43F0010318478884010020
:1081C000A88401000A444FF0000C10F8013B13F0A2
:1081D000070408BF10F8014B1D1108BF10F8015B20
:1081E000641E05D010F8016B641E01F8016BF9D113
:1081F00013F0080F1EBF10F8014BAD1C0C1B09D16A
:108200006D1E58BF01F801CBFAD505E014F8016BDB
:1082100001F8016B6D1EF9D59142D6D3704700006D
:108220000023002400250026103A28BF78C1FBD87F
:10823000520728BF30C148BF0B607047662917F04E
:10824000EE87642914F03680752914F0338078297C
:1082500014F06C80732914F08884002070471FB5D7
:1082600017F0D3FF14F098FC04000020002117F051
:10827000FDF8E0601FBD10B510BD14F095FD11466E
:10828000FFF7EDFF00F0E0FA14F0B3FD03B4FFF7E1
:10829000F2FF03BC10F036F930BF72B6704762B619
:1082A000704780F308887047FD48007820B1FD4A88
:1082B000FD49FE480FF0B8FB642010F003F90120DF
:1082C000FB4908604FF47A7010F0FCF800BF00BF63
:1082D00000BF00BF00BFBFF34F8F00BF00BF00BF94
:1082E000F448006800F4E060F3490843001DF149D8
:1082F000086000BF00BF00BFBFF34F8F00BF00BFCB
:1083000000BF00BFFEE70120E84908700121E748EF
:1083100081720120E54908720121E44841723C2143
:10832000C18100228261C2610220DF4908704FF4DE
:108330006161DD48C163DA2181775F21C177432123
:1083400080F820106B2180F8211045F6F7714184E8
:10835000002141760320D44908760121D248C17614
:108360004FF461610167DA2180F852105F2180F8D3
:108370005310432180F854106B2180F8551042F2BD
:108380002C31A0F85610002180F84D10032180F800
:108390004C10012180F84F1041F23420C24948604E
:1083A00045F278600881DA2048745F21BE48817404
:1083B0004321C1746B21017540F62B10BA49C88264
:1083C000704710B5002404E00020BC490855601C2B
:1083D00084B2B4F5007FF7DBE8220021B7480BF048
:1083E000D3FD10BD10B5002401224FF44831B3482D
:1083F0000BF07EFD00BF06E0B048015DA948001DFE
:108400000155601CC4B2082CF6DB10BD10B5002469
:108410000020A34908700BE00AF020FD18B90120E4
:108420009F49087006E0C82010F04CF8601CC4B2E8
:10843000032CF1DB00BF9A48007820B9A0480078EF
:10844000401C9F49087010BD10B59548007820B1B8
:10845000944A954995480FF0E7FA10BD10B52DEDF7
:108460000A8B052101200DF07DF808EE100AB8EE08
:10847000480A10EE100A17F057FE41EC1C0B9FED56
:10848000910B53EC102B17F059FB41EC1B0B9FED9C
:108490008F0B53EC102B17F051FB41EC1A0B9FED97
:1084A0008D0B53EC102B17F0F1F841EC190B16F073
:1084B000FFFF08EE900AB2EE040A28EE800ABCEE36
:1084C000C00A10EE100A7749C870BDEC0A8B10BDC7
:1084D000F0B52DED028B85B005460E4600200090CC
:1084E000052E03DA05B0BDEC028BF0BDFF227B4800
:1084F00001787B4804F09EF8012800D0F2E7287844
:1085000008284CD10821BDF80020501C80B20090F2
:1085100001A881540321BDF80020501C80B20090B6
:1085200001A881540221BDF80020501C80B20090A7
:1085300001A881545D4890ED2A1BB0EE410AF0EE8F
:10854000610A9FED681B53EC112B51EC100B17F0D7
:10855000F5FA41EC180B17F05DFA84B22246694631
:1085600001A805F0F5FEBDF8001001A804F02CF8F4
:108570000446BDF80020501C80B2009001A884542D
:10858000210ABDF80020501C80B2009001A881543F
:10859000BDF80000C1B201A800F0B5FB4EE028789C
:1085A00009284BD10921BDF80020501C80B2009051
:1085B00001A881540321BDF80020501C80B2009016
:1085C00001A881540421BDF80020501C80B2009005
:1085D00001A88154354890ED281BB0EE410AF0EE19
:1085E000610A9FED401B53EC112B51EC100B17F05F
:1085F000A5FA41EC180B17F00DFA07463A46694602
:1086000001A805F0B8FEBDF8001001A803F0DCFFDA
:108610000446BDF80020501C80B2009001A884548C
:10862000210ABDF80020501C80B2009001A881549E
:10863000BDF80000C1B201A800F065FB2B48D0E9ED
:1086400004102A4AC2E90A1000BF4BE770B5A0B077
:1086500000260024002521480078052804DA00209F
:108660001E49087020B070BD7FE01D48005D0828DD
:1086700003D01B48005D092841D10026254609E0AA
:10868000601917490A5C3046711C8EB20DF8002043
:10869000681C85B204F108008542F1DB314627E011
:1086A00001000020280A0020B801002070030020EB
:1086B000840242420CED00E00000FA05480A002066
:1086C000050000206666666666660A4000000000D7
:1086D00000A0604000000000008000412800002051
:1086E000480C00200000000000408F408001002066
:1086F0006846FFF7EDFE04F1080084B230E0A649B9
:10870000601C085C032803D0601C085C042826D188
:10871000A149A01C085C642800DDA3E700262546CB
:1087200009E060199C490A5C3046711C8EB20DF854
:108730000020681C85B29849A01C085C2044401D9C
:10874000A842EEDC95484278314668460EF0FBF8C8
:108750009149A01C085C401D204484B200E005E063
:108760008F480078844200DB00E07EE700BF0020F5
:108770008B49087000BF75E701B59DF8000013280C
:108780002DD00EDC10282ED006DC01281ED00228A9
:108790001FD003283AD11FE0112823D0122835D149
:1087A0000EE0302824D006DC142824D0152825D04B
:1087B00020282BD107E0402823D0502826D122E0C2
:1087C00003F016F823E003F0DFFE20E003F0FEFCE8
:1087D0001DE008F09EFE1AE0FFF738FF17E00CF0EE
:1087E0001BFA14E013E09DF801000DF08FFA0EE083
:1087F00008F028FE0BE0FFF709FE08E0FFF724FE73
:1088000005E0FFF751FDFFF729FE00E000BF00BFC4
:1088100008BD1CB50121102010F0CCFA40200090BA
:1088200001208DF804008DF8060003208DF8050066
:1088300001208DF8070069465A4810F01DF84021C4
:10884000584810F097F81CBD08B500BF5648574966
:1088500008604FF4A0600FF019FFA8200FF0D0FDC2
:108860004FF4165000F0CAF94FF4E1300FF059FE02
:108870004FF4165005F03CFF4D4805F074F8FFF733
:10888000C8FF42F2CF0140F2E73000F0FBFF42F2B6
:10889000CF01632000F09BFF42F2CF0142F20F7044
:1088A00000F0C1FF42F2CF01632008F07DFE00F02E
:1088B000CCFB00F00DFCFFF7A9FD40F2E2410620E1
:1088C00003F050FE00F020FF01F01FF8394804F0DB
:1088D0000EF8394804F0B5FF384804F0EBFF2F4894
:1088E00005F037F808F0DFFE0121354810F016FFDB
:1088F00001F03DFC00203349086002F0B4FF00F0B5
:1089000097FE0CF0CDFD03202C4908702E4800780E
:1089100068B10A46284927480EF0CAFB48B9FFF754
:10892000F2FC264A244923480FF07EF801E0FFF7C5
:10893000EAFC30E0002000F090FE044614B120462E
:108940000CF06FFD684609F0FDFB10B10098FFF7D1
:1089500013FF12480078D8B91C48D0E904100F4B17
:10896000D3E90223891A60EB0300491E70F100006D
:108970000ED3684609F06FFC50B19DF8010007491D
:1089800048700020C87088709DF801000DF0BEF995
:108990000A200FF097FDCDE7480C0020380A002090
:1089A00028000020001002400080000808ED00E0D0
:1089B0007809002070030020B8010020280A002058
:1089C0000008004084024242010000208001002093
:1089D0000CB50020019000907648006840F480308B
:1089E0007449086000BF7348006800F400300090CC
:1089F0000198401C0190009818B90198B0F5A04F5B
:108A0000F1D16C48006800F4003010B101200090F2
:108A100001E0002000900098012846D165484030D0
:108A2000006840F080506349403108606248006847
:108A300040F44040604908605E48083000685D4985
:108A4000083108600846006840F4004008600846A5
:108A5000006840F4A05008605848091F0860081FCB
:108A6000006840F08070091F086000BF514800682E
:108A700000F000700028F9D040F2057050490860FD
:108A80004C480830006820F003004A49083108606B
:108A90000846006840F00200086000BF4548083002
:108AA000006800F00C000828F8D10CBD10B545484E
:108AB000006840F47000434908603E48006840F098
:108AC00001003C49086000203A49083108603948F3
:108AD00000683D490840374908603C48091D086066
:108AE000081F006820F48020091F08600020314919
:108AF0000C310860FFF76CFF4FF00060314980399E
:108B0000086010BD70B5002000220223002402215D
:108B1000284D08352D6805F00C0020B1042806D03A
:108B2000082834D107E02A4D2A4E356033E02A4D1B
:108B3000284E35602FE01F4D2D1D2D68C5F3805444
:108B40001C4D2D1D2D6805F03F0154B1224DB5FB84
:108B5000F1F5184E361D3668C6F3881605FB06F289
:108B600009E01B4DB5FBF1F5124E361D3668C6F314
:108B7000881605FB06F20F4D2D1D2D68C5F3014526
:108B80006D1C6B00B2FBF3F5124E356003E0104D27
:108B9000104E356000BF00BF064D08352D68C5F387
:108BA00003150E4E705D0B4D2D68C540094E3560A6
:108BB00070BD0000003802400070004008544007BB
:108BC000003C024088ED00E0FFFFF6FE103000247C
:108BD0000024F4001400002000127A001800002085
:108BE000704700BFFEE700BFFEE700BFFEE700BF23
:108BF000FEE77047704770477047000010B588B0B7
:108C000004460121084610F0D5F80121102010F08B
:108C10002BF90722092179480FF0B9FE07220A2112
:108C200076480FF0B4FE4FF4C060069002208DF835
:108C30001C0003208DF81D0000208DF81E0001206F
:108C40008DF81F0006A96D480FF016FE4FF48070D6
:108C5000069001208DF81C0003208DF81D000020D7
:108C60008DF81E0001208DF81F0006A963480FF043
:108C700003FE4FF40060069001208DF81C000320D5
:108C80008DF81D0000208DF81E0001208DF81F00BA
:108C900006A95A480FF0F0FD02940020ADF80C0030
:108CA000ADF80E00ADF81000ADF814000C20ADF8D2
:108CB000120002A9524810F038FA0121504810F071
:108CC000BCFA40214E4810F0A0FB012240F2255191
:108CD0004B4810F068FB25208DF8040003208DF828
:108CE00005008DF8060001208DF8070001A80FF09F
:108CF000D2FC0020434908604349C1F8AC02434913
:108D0000087008B010BD70B505460E4601203D49FB
:108D1000086000240CE000BF4021394810F068FBD7
:108D20000028F9D0295D364810F0B2FA601CC4B2B0
:108D3000B442F0DB00BF4021314810F059FB00285D
:108D4000F9D00020324908702E49086070BD2DE925
:108D5000F04107460D462E48067800240020287072
:108D60000A200FF0AFFB2A48007886420FD176B177
:108D700000BF04E02748005D3855601CC4B2B4420F
:108D8000F8DB234800782870002021490870BDE8EE
:108D9000F08110B1012800D070471C49087020B93B
:108DA0000021184A0C32116003E00121154A0C32EF
:108DB00011600021164A117000BFEDE710B540F2B6
:108DC00025510F4810F02AFBB8B10121124810F0CC
:108DD000A5FC002011490870094810F05DFAC4B2E2
:108DE0000B480078402808DA0A48094909784454B1
:108DF00007480078401C0649087010BD000002407A
:108E000000100140A0024042000040420400002047
:108E100028000020480C00200004004070000020C2
:108E200070B5044600224FF40071FE480FF0A4FD17
:108E300000224FF40061FB480FF09EFD00251FE06B
:108E400000228021F7480FF097FD04F0800028B140
:108E500001221102F3480FF08FFD05E000224FF4CC
:108E60008071F0480FF088FD01228021ED480FF05D
:108E700083FD01200FF0DEFA6006040E681CC5B207
:108E8000082DDDDB01225102E6480FF075FD70BDB3
:108E900070B5044600224FF40071E2480FF06CFDFB
:108EA0000122D102DF480FF067FD00251FE00022FC
:108EB0008021DC480FF060FD04F0800028B1012221
:108EC0001102D8480FF058FD05E000224FF48071E0
:108ED000D4480FF051FD01228021D2480FF04CFD03
:108EE00001200FF0A7FA6006040E681CC5B2082D19
:108EF000DDDB01225102CB480FF03EFD70BD70B5A5
:108F0000044600224FF40071C6480FF035FD0122DF
:108F1000D102C4480FF030FD00251FE0002280215F
:108F2000C0480FF029FD04F0800030B100224FF45A
:108F30008071BC480FF020FD04E001221102B94805
:108F40000FF01AFD01228021B6480FF015FD012017
:108F50000FF070FA6006040E681CC5B2082DDDDB48
:108F600001225102AF480FF007FD70BD10B564201B
:108F70000FF0A8FA00224FF40071AA480FF0FCFC91
:108F800001221103A7480FF0F7FC00224FF4806183
:108F9000A4480FF0F1FC14200FF094FA0122910282
:108FA000A0480FF0E9FC14200FF08CFAE220FFF744
:108FB00037FF05200FF086FA2C20FFF731FF052040
:108FC0000FF080FA2E20FFF72BFF05200FF07AFA22
:108FD0002F20FFF725FF05200FF074FA2420FFF75C
:108FE0001FFF8120FFF71CFF2A20FFF719FFA22097
:108FF000FFF716FFC820FFF713FFA020FFF710FFB1
:109000006020FFF70DFFAF20FFF70AFF012251029A
:1090100084480FF0B1FC10BD1CB5012102200FF0F7
:10902000C9FE4FF48040009001208DF8040000201C
:109030008DF8060003208DF8050069467A480FF088
:109040001BFC0120794908601CBD1CB501211020C2
:109050000FF0B0FE01208DF8040000208DF806000E
:109060004BF68070009001208DF8070002208DF8EB
:10907000050069466B480FF0FFFB00208DF80400E7
:109080008DF806004FF48040009001208DF8070015
:1090900002208DF80500694662480FF0EDFBFFF7EE
:1090A00065FFFFF7B9FF1CBD70B505460C4600BF54
:1090B00005F1AF01C8B2FFF7B3FEC4F3031101F12C
:1090C0001000FFF7ADFE04F00F00FFF7A9FE70BD22
:1090D00070B500224FF4007152480FF04DFC012290
:1090E000110350480FF048FC002415E004F1B001D2
:1090F000C8B2FFF795FE1020FFF792FE0020FFF7A1
:109100008FFE002504E00020FFF7C2FE681CC5B2F8
:10911000842DF8DB601CC4B2092CE7DB012251026C
:1091200040480FF029FC70BD01204049086070479D
:1091300000203E49086070472DE9F0410646884608
:1091400014460027002500BF15E070194146FFF7BF
:10915000ABFF00270BE01CB90020FFF799FE04E0ED
:10916000012C02D10020FFF7CAFE781CC7B2802F65
:10917000F1DB681CC5B2022DE7DBBDE8F08170B5FC
:10918000044600224FF4007126480FF0F5FB00253D
:109190000FE00121681CFFF787FF002605E020781B
:1091A000FFF776FE641C701CC6B2802EF7DB681CCD
:1091B000C5B2082DEDDB012251021A480FF0DCFB8D
:1091C00070BD2DE9F0470746894614461D4600222A
:1091D0004FF4007113480FF0CFFB01221103114827
:1091E0000FF0CAFB00261AE0B8194946FFF75CFFEA
:1091F0004FF000080EE01DB92078FFF749FE04E0AB
:10920000012D02D12078FFF77AFE641C08F10100DD
:1092100000F0FF08B8F1100FEDDB701CC6B2022E93
:10922000E2DB05E00010024000040240B882404248
:1092300001225102FA480FF09FFBBDE8F0872DE9AB
:10924000F0470746894614461D4600224FF4007138
:10925000F3480FF091FB00261AE0B8194946FFF7D2
:1092600023FF4FF000080EE01DB92078FFF710FE35
:1092700004E0012D02D12078FFF741FE641C08F1C3
:10928000010000F0FF08B8F1080FEDDB701CC6B25A
:10929000022EE2DB01225102E1480FF06DFBBDE836
:1092A000F0872DE9F05F07460D4614461E4607F18C
:1092B000AF0000F0FF0900224FF40071D8480FF012
:1092C0005BFB05F00F00401E00F0FF0AC5F3031022
:1092D00000F1100B4846FFF7A3FD5846FFF7A0FD2D
:1092E0005046FFF79DFD4FF000080CE01EB92078B6
:1092F000FFF7CEFD04E0012E02D12078FFF7FFFD3D
:10930000641C08F10108B8F1060FEFD301225102E5
:10931000C3480FF031FBBDE8F09F70B5044600254F
:109320001DE004F0800028B10122D103BC480FF0F9
:1093300023FB05E000224FF40041B9480FF01CFB6D
:109340006006040E00224FF40051B5480FF014FBE4
:1093500001225103B2480FF00FFB681CC5B2082D63
:10936000DFDB70BD70B5002401225103AC480FF063
:1093700003FB002518E000224FF40051A8480FF02D
:10938000FBFA6006040E4FF48041A5480FF0D6FAB0
:1093900010B1601CC4B200E0E4B201225103A04845
:1093A0000FF0EAFA681CC5B2082DE4DB204670BD58
:1093B0002DE9F04780460D4616461F46DDF8209001
:1093C00000224FF4805196480FF0D6FA0122510244
:1093D00093480FF0D1FA00224FF4005190480FF05B
:1093E000CBFA0320FFF799FF4046FFF796FF284688
:1093F000FFF793FF3046FFF790FF002404E0FFF7EC
:10940000B1FF3855601CC4B24C45F8DB0122110392
:1094100083480FF0B1FABDE8F0872DE9F04F8DB029
:1094200083460E4615461F4600243A4631465846A6
:10943000FFF782FEABE0285DB02838DB285DF72817
:1094400035DC601C285CA12831DB285DB0385E214A
:1094500010FB01F073490860601C285C00F2AD202D
:10946000096808446F4908600846006840010860C0
:1094700008460068C0F3074808460088C0F307297B
:10948000084690F800A0202005AB524649460090BF
:109490004046FFF78DFF3B4605AA31465846FFF789
:1094A00090FEA01CC4B206F11000C6B26FE0285DA9
:1094B000A12837DB285DA32834DC601C285CA128A8
:1094C00030DB285DA1385E2110FB01F055490860B2
:1094D000601C285CA13809680844524908600846A5
:1094E00000684001086008460068C0F30748084665
:1094F0000088C0F30729084690F800A0202005AB9B
:109500005246494600904046FFF752FF3B4605AAA7
:1095100031465846FFF755FEA01CC4B206F11000B4
:10952000C6B234E0285D20282FDB285D7E282CDCA5
:10953000285D20383B490860084600680001086043
:1095400008460068384908443649086008460068FB
:10955000C0F3074808460088C0F30729084690F87A
:1095600000A0102001AB5246494600904046FFF74C
:109570001FFF3B4601AA31465846FFF760FE601CBC
:10958000C4B206F10800C6B201E0601CC4B2285D96
:1095900000283FF750AF0DB0BDE8F08F2DE9FE4F2A
:1095A00082460E4615469B46002433E0285D20285F
:1095B0002EDB285D7E282BDC285D203819490860C9
:1095C00008460068C000086008460068174908445B
:1095D0001449086008460068C0F307470846008839
:1095E000C0F30728084690F80090082001AB4A46CF
:1095F000414600903846FFF7DBFE5B4601AA314644
:109600005046FFF74EFE601CC4B2B01DC6B201E06A
:10961000601CC4B2285D0028C8DCBDE8FE8F0000D5
:10962000001002406C00002080CF0300C0BF030088
:109630001CB5012110200FF0BDFB3C200090002044
:109640008DF8040003208DF8050001208DF8070037
:1096500069462C480FF010F91CBD70B50546002472
:10966000042128480FF06AF970B914200EF02AFF7F
:1096700000BF042123480FF061F90028F9D014201D
:109680000EF020FF01243AE008211E480FF056F9A1
:1096900070B914200EF016FF00BF082119480FF012
:1096A0004DF90028F9D014200EF00CFF022426E01A
:1096B000102114480FF042F970B914200EF002FF87
:1096C00000BF10210F480FF039F90028F9D01420FD
:1096D0000EF0F8FE032412E020210A480FF02EF9C4
:1096E00068B914200EF0EEFE00BF202105480FF0EF
:1096F00025F90028F9D014200EF0E4FE04242046B9
:1097000070BD00000010024000B585B001210807BF
:109710000FF099FB012011F046FF002011F042FEEE
:1097200049F6991188424DD001200FF0E0F900BFB1
:1097300041200FF095F90028FAD04FF480700FF017
:10974000D7FA01200FF0EFFA11F06EF8002011F0B7
:1097500068F911F097F8002002907F200390FF2015
:10976000049002A811F027F901208DF806001B20B3
:109770008DF805000F208DF8040000208DF80700FB
:1097800001A911F0B3F90F208DF802000B208DF81C
:10979000010003208DF8000017208DF803006946B2
:1097A000002011F041FA11F0FDF849F6991100205E
:1097B00011F0EBFD012011F034F949F69911002068
:1097C00011F0E3FD002011F0EEFE05B000BD7FB505
:1097D00005460C46012102200FF035FB0295ADF83D
:1097E00004400020ADF80600ADF80C0001A9FE48C9
:1097F0000FF00BFF01221146FB4810F0A7FB0021E0
:10980000F9480FF08BFF1D208DF8000001208DF826
:10981000010003208DF8020001208DF80300684646
:109820000EF039FF7FBD7FB505460C4601210420AF
:109830000FF009FB0295ADF804400020ADF80600DA
:10984000ADF80C0001A9E9480FF0DFFE0122114636
:10985000E64810F07BFB0021E4480FF05FFF1E207C
:109860008DF8000001208DF8010003208DF8020022
:1098700001208DF8030068460EF00DFF0020DC4942
:1098800008707FBD7FB505460C46012108460FF0E4
:10989000DAFA0295ADF804400020ADF80600ADF804
:1098A0000C0001A94FF080400FF0AFFE01221146DD
:1098B000900710F04BFB00214FF080400FF02EFF7F
:1098C0001C208DF8000001208DF8010003208DF888
:1098D000020001208DF8030068460EF0DCFE7FBD1B
:1098E000014601F0030028B96420B1FBF0F200FB4F
:1098F000121030B94FF4C870B1FBF0F200FB121037
:1099000008B9012070470020FCE70020B949086031
:1099100008714871C871087248720021B54A116116
:1099200051619161D161116251629162D1620120F4
:10993000114681F8300070473EB5AE48D0E90420AA
:10994000521C40F10000AB49C1E90420084690F8E0
:10995000300001280CD0D1E904414FF461620023AA
:10996000204612F0C0FB00214A404B401A430ED162
:10997000A14890F82000012809D103208DF80800A3
:10998000029808F03FFC02209A4981F8300001A9B2
:10999000002011F015F99DF804009649C8719DF852
:1099A000050008729DF8060048726946002011F013
:1099B000A1F99DF8030000F5FA608E4908609DF852
:1099C000010008719DF8020048719DF8000088713F
:1099D0003EBD2DE9F0418748C0794FF4616110FB2D
:1099E00001F08449097AC1EB011100EB8100814942
:1099F000497A0844C6170546002439E07D48D0E975
:109A0000043004EB840101EBC4027C4901EB8201C8
:109A1000C96A5B1A60F1000014229A1A70F1000002
:109A20001BD304EB840000EBC401744800EB8100FD
:109A3000476A3A4600232846314612F054FB511F2C
:109A400073F1000309D2012104EB840000EBC4028E
:109A50006A4800EB8200417108E0002104EB8400B9
:109A600000EBC402654800EB82004171601CC4B287
:109A7000624818380078A042C0DC0020BDE8F081C0
:109A80007CB5FFF7A6FF0024F9E004EB840000EBAF
:109A9000C4015A4800EB8100407900286AD004EBE9
:109AA000840101EBC401564A02EB4110514B554A67
:109AB00052491839009404F04AFD5348007848B1DF
:109AC00004EB840101EBC4014D4A02EB4110214635
:109AD0000EF00DFC4748006904EB840101EBC40261
:109AE000464901EB8201C862434890F8200068B300
:109AF000414890F822000C2828DB3F4890F82200CB
:109B00001F2823DC04EB840000EBC4013B4800EB7E
:109B10008100007F012803D104208DF8040010E0AB
:109B200004EB840000EBC401344800EB8100007FAB
:109B3000022803D106208DF8040002E004208DF8ED
:109B400004008DF80540019808F05CFB2948006985
:109B500004EB840101EBC402284901EB8201886215
:109B6000002104EB840000EBC402244800EB8200D7
:109B7000417182E004EB840000EBC4011F4800EB5C
:109B80008100806A00211B4BD3E90423801A99418C
:109B900073D21848D0E9043104EB840000EBC4020E
:109BA000164800EB8200806A1A1A61F100013C3A03
:109BB00071F1000161D31448007838B30E4890F871
:109BC0002000C8B30C4890F822000C284BDB0A4850
:109BD00090F822001F2846DC04EB840000EBC4014F
:109BE000064800EB810012E000040040000800403D
:109BF000720000208001002058010020D0010020C8
:109C0000C80C0020700300200100002035E0008E09
:109C1000052828DA20460EF0DDFA68B104EB84004E
:109C200000EBC401FE4800EB8100007F012804D155
:109C300004208DF8040011E015E004EB840000EB33
:109C4000C401F74800EB8100007F022803D1062001
:109C50008DF8040002E004208DF804008DF8054022
:109C6000019808F0CFFAEF48006904EB840101EB9A
:109C7000C402EB4901EB82018862601CC4B2E8486F
:109C800018380078A0423FF700AF7CBD38B50024FB
:109C900075E004EB4401E44800EB811000780128F2
:109CA00009D104EB4401E04800EB81104078022820
:109CB00001D1192500E00F25DA48D0E90420521B14
:109CC00070F1000059D3D748D0E90423E81CC1172C
:109CD000801A994116D2D34804EB4402D0E90431EA
:109CE000D14800EB8212D2E904021B1A61EB020197
:109CF00004EB4402CC4800EB8210C088181A71F1C2
:109D000000013AD3C748D0E90410C64BD3E90A236F
:109D10008A1A60EB03000D2300219A1A81411AD39D
:109D2000C048D0E90410BF4AD2E90A32C91A60EB30
:109D30000200491E70F100001FD3BA48D0E9041098
:109D4000B84BD3E90A238A1A60EB030008230021E9
:109D50009A1A814111D38DF8014010208DF800002E
:109D6000009808F097FAAF48D0E9041004EB4403D8
:109D7000AD4A02EB8312C2E90410601CC4B2AA48C7
:109D800008380078A04284DCA8480078012810D167
:109D9000A448D0E90410A54BD3E90223891A60EB4B
:109DA0000300491F70F1000003D3A04948780CF06C
:109DB000A7FF38BD10B500242DE004EB44019A48FC
:109DC00000EB81100078012823D104EB4401964870
:109DD00000EB811090ED262BB0EE420AF0EE620A05
:109DE00004EB4401904800EB811090ED222BB0EE83
:109DF000421AF0EE621A53EC102B51EC110B15F0D5
:109E000089FB04EB4403884A02EB831242F8880F73
:109E10005160601CC4B2844808380078A042CCDC91
:109E200010BD38B5824890F8200040B1804890F8C5
:109E300022000D2803DB7F48C0785A2806DA7948CB
:109E4000D0E904107C4AC2E9001038BD7548D0E959
:109E50000430794A12CA5A1A60EB04004FF4347382
:109E600000219A1A814105D240208DF80000009807
:109E700008F087F900BFE8E708B50121880710F06E
:109E80007CF8012815D16D480078401C6B4908709A
:109E90000846007805280CDB0020087001208DF8AA
:109EA0000000009808F06DF900214FF080400FF09D
:109EB00035FC0121880710F071F808BD08B50121B3
:109EC0005F4810F05AF8012814D15E480078401C11
:109ED0005C4908700846007805280BDB00200870F4
:109EE00003208DF80000009808F04BF90021544839
:109EF0000FF014FC0121524810F050F808BD38B59D
:109F00000121514810F039F801287DD1FFF714FDE7
:109F1000FFF750FFFFF7BAFE454890F8200088B1E0
:109F20004048407A0A2190FBF1F201FB120048B947
:109F30003F48407C012805D002208DF800000098A1
:109F400008F060F93748D0E9041000235940584020
:109F5000014312D033484FF46162D0E904412046F6
:109F600012F0C1F800214A404B401A4305D1152098
:109F70008DF80000009808F004F92A48D0E9041090
:109F8000002359405840014311D026480A22D0E905
:109F90000441204612F0A7F800214A404B401A43E2
:109FA00005D150208DF80000009808F0EAF81D480F
:109FB000D0E9041003235940014305D130208DF826
:109FC0000000009808F0DDF8FFF75AFD1548D0E9C9
:109FD0000410002359405840014318D011484FF451
:109FE0009672D0E90441204612F07DF800214A40E3
:109FF0004B401A430BD10E4890F8200038B1052091
:10A000008DF80000009800E04FE008F0FBF8FFF743
:10A0100008FF0E480078B0BB02483C22002317E03E
:10A02000D00100208001002078030020380A0020A1
:10A0300058010020280A002008000020730000209A
:10A0400000040040700000200008004001000020D3
:10A05000D0E90441204612F046F800214A404B4026
:10A060001A4310D11348D0E9041051405040014325
:10A0700009D011480078032805DA14208DF8000073
:10A08000009808F07EF813208DF80000009808F082
:10A0900078F820208DF80000009808F072F812205F
:10A0A0008DF80000009808F06CF8012103480FF0CB
:10A0B00075FF38BD80010020050000200008004029
:10A0C0002DE9F04389B007460E469046202101A8AD
:10A0D00012F07DFA0024A1461D2E03DD002009B0F8
:10A0E000BDE8F0832046611C8CB201A901F8008014
:10A0F000002507E07A5D2046611C8CB201A90A5454
:10A10000681C85B2B542F5DB214601A802F05CFA75
:10A1100081462046611C8CB201A901F800904FEAEB
:10A1200019222046611C8CB201A90A54E1B201A88F
:10A13000FEF7E9FD0120D2E710B5FC4800780128C0
:10A1400004D1FB480178FB48FEF7DDFD002404E064
:10A150000020F8490855601C84B2F5480088844204
:10A16000F6DB0020F249088002F00EFA10BD1CB5A3
:10A17000012110200EF01EFE0220009001208DF81B
:10A1800004008DF8060003208DF8050001208DF8ED
:10A1900007006946E8480EF06FFB0120E7490860B8
:10A1A0001CBD7CB5E648847D0120E549487004EB80
:10A1B000840000EBC401E34800EB8100408904EB1C
:10A1C000840101EBC402DF4901EB8201497ACDE948
:10A1D000001004EB840000EBC405DA4800EB8500B6
:10A1E000037A04EB840000EBC405D64800EB85003D
:10A1F000C27904EB840000EBC405D24800EB850073
:10A200008179D1A011F0E6FFDA49D1E90401CC4A05
:10A21000C2E902017CBD10B50120C9494870D6A031
:10A2200011F0D8FFD348D0E90410C54AC2E90210A2
:10A2300010BD70B504460E464A2020705320607051
:10A240000420A070E6700421204602F0BDF9054606
:10A250002571280A6071062070BD2DE9F041044681
:10A260000F461646052E02DA0020BDE8F0814A208E
:10A270002070532060700320A070E77004212046F6
:10A2800002F0A2F905462571280A60710620ECE764
:10A2900070B5ADF5006D05464FF40061684612F0EB
:10A2A00096F900260120A6494870A5F13100092839
:10A2B0003BD2DFE800F00F0A0514191E262E3400E9
:10A2C000684604F0EFFF06462FE0684605F0EFFA17
:10A2D00006462AE0684605F042FC064625E0684648
:10A2E00004F0B7FE064620E0684604F0D3FE0646BA
:10A2F0001BE04FF4806201216846FFF7AEFF06467F
:10A3000013E04FF4806202216846FFF7A6FF06467D
:10A310000BE001216846FFF78CFF064605E00221AD
:10A320006846FFF786FF064600BF00BF00240DE029
:10A3300000BF9248008800F040000028F9D01DF8C6
:10A3400004008E49091D0880601C84B2B442EFDB12
:10A3500040207B490870012048708648D0E90410ED
:10A36000774AC2E902100DF5006D70BD1CB50120E1
:10A370007349487073481838C08A72491839097D82
:10A38000CDE900106F481838C37C827C417C6EA0F8
:10A3900011F020FF7749D1E90401694AC2E90201BD
:10A3A0001CBD2DE9F041E2B0802142A812F00FF966
:10A3B0004FF4827101A812F00AF940F201186048C6
:10A3C000857D05EB850000EBC5006D4901EB401074
:10A3D000477900240CE005EB850000EBC5006849D7
:10A3E00001EB4010801D005D304486B2601C84B2D9
:10A3F00005EB850000EBC500614901EB4010407999
:10A40000A042E8DC34460DE005EB850000EBC5001A
:10A410005B4901EB40100E30005DA11B42AA505475
:10A42000601C84B205EB850000EBC500544901EBCC
:10A430004010801DC05D3044A042E5DC05EB850086
:10A4400000EBC5000A4602EB4010801DC15D43468B
:10A4500001AA42A803F01FFC01A94AA011F0BAFE0C
:10A460000A200EF02FF81A2144480EF011FF41483F
:10A47000D0E90410324AC2E9021062B0BDE8F081AE
:10A4800010B501202E49487044A011F0A3FE3948B0
:10A49000D0E904102A4AC2E9021010BD10B590B0EC
:10A4A00027488479082C00DB002404EB840000EBAF
:10A4B000C402244800EB8201342203A812F055F8AC
:10A4C00001201F494870BDF816009DF81510CDE910
:10A4D00000109DF814309DF813209DF8121032A042
:10A4E00011F078FE2348D0E90410154AC2E90210A1
:10A4F00010B010BD10B501201149487035A011F001
:10A5000069FE1C48D0E904100D4AC2E9021010BDD2
:10A5100010B501200A49487032A011F05BFE1548C1
:10A52000D0E90410064AC2E9021010BD1000002054
:10A530003C0100203C2B00200010024084024242DB
:10A5400058010020D001002041542B51494F504563
:10A550004E3D312C302C22544350222C2225752E76
:10A5600025752E25752E2575222C25752C302C321F
:10A570000D0A0000800100202B2B2B00004400401E
:10A58000C80C002041542B514953454E4445583D79
:10A59000302C222573220D0A0000000041542B4369
:10A5A000434C4B3F0D0A000041542B51494F50453D
:10A5B0004E3D312C302C22544350222C2225752E16
:10A5C00025752E25752E2575222C25752C302C31C0
:10A5D0000D0A000041542B51494143543D310D0AAD
:10A5E0000000000041542B514944454143543D3142
:10A5F0000D0A000010B50120F7494870F7A011F0CE
:10A60000E9FDFE48D0E90410F34AC2E9021010BD8A
:10A6100010B50120F0494870F9A011F0DBFDF748B2
:10A62000D0E90410EC4AC2E9021010BD10B50120B7
:10A63000E9494870F6A011F0CDFDF048D0E90410CA
:10A64000E54AC2E9021010BD10B50120E249487088
:10A65000F2A011F0BFFD10BD10B50120DE49487019
:10A66000F1A011F0B7FDE548D0E90410DA4AC2E9DB
:10A67000021010BD10B50120D7494870EDA011F0AF
:10A68000A9FDDE48D0E90410D34AC2E9021010BD8A
:10A6900010B50120D0494870E9A011F09BFDD748C2
:10A6A000D0E90410CC4AC2E9021010BD10B5012057
:10A6B000C9494870E5A011F08DFDD048D0E90410DB
:10A6C000C54AC2E9021010BD10B50120C249487048
:10A6D000E0A011F07FFDC948D0E90410BE4AC2E9EC
:10A6E000021010BD10B50120BB494870DCA011F06C
:10A6F00071FDC248D0E90410B74AC2E9021010BD8A
:10A7000010B50120B4494870D7A011F063FDBB48D3
:10A71000D0E90410B04AC2E9021010BD10B5AE482D
:10A7200000780E285AD00ADC0E2872D2DFE800F03A
:10A73000282B2E31343A3D4043464A4D505335285C
:10A7400059D00EDC322853D006DC202849D03028DE
:10A750004AD031285DD14CE0332848D0342858D134
:10A7600048E042282BD006DC362846D0372843D094
:10A7700041284ED146E0502848D0FF2849D10EE06C
:10A78000FFF7BEFF46E0FFF7BBFF43E0FFF7AAFF7E
:10A7900040E0FFF799FF3DE0FFF788FF3AE0FFF761
:10A7A00077FF37E0FFF766FF34E0FFF755FF31E052
:10A7B000FFF74AFF2EE0FFF739FF2BE000BFFFF75E
:10A7C00027FF27E0FFF716FF24E0FFF7A1FE21E0B7
:10A7D000FFF790FE1EE0FFF761FE1BE0FFF750FE63
:10A7E00018E0FFF7DEFD15E0FFF7C0FD12E000BF47
:10A7F00000BF00BF00BF00BF00BF77490878FFF768
:10A8000047FD07E0FFF707FD04E002E0FFF7C9FCA2
:10A8100000E000BF00BF10BD00206F494870087104
:10A82000322048717047F0B587B00546002005908A
:10A8300006908FA0006804900026002407E004A87A
:10A84000025D3046711CCEB22A54601CC4B2042C86
:10A85000F5DB42F20F7000908648038905214268BB
:10A8600005A803F09BF8002407E005A8025D314627
:10A87000701CC6B26A54601CC4B2052CF5DB1122F0
:10A880003046711CCEB22A545C4887797807070E8F
:10A890005A4800790A2190FBF1F047EA0010C7B24C
:10A8A0005648007990FBF1F201FB12003843C7B221
:10A8B0005248407A5149097ACDE9010700914F4841
:10A8C000C3794279052105A803F0FAF8002407E0CE
:10A8D00005A8025D3046711CCEB22A54601CC4B279
:10A8E000052CF5DB45490978A1F5FA61C8B201F0FC
:10A8F000CBFE3146721CD6B2685450223046711CD1
:10A90000CEB22A5480223046711CCEB22A54002284
:10A910003A48417A007A8DE807003848C37942798D
:10A92000052105A803F0CCF8002407E005A8025D86
:10A930003046711CCEB22A54601CC4B2052CF5DB23
:10A940001421E81C01F024FE04463046711CCEB2EE
:10A950002C5416223046711CCEB22A54304607B011
:10A96000F0BD7FB5044600200290039042A000682D
:10A9700001900026002507E001A8425D3046711CC9
:10A98000CEB22254681CC5B2042DF5DB42F20F7022
:10A990000090384803890521426802A802F0FEFFB2
:10A9A000002507E002A8425D3046711CCEB2225459
:10A9B000681CC5B2052DF5DB02223046711CCEB2F3
:10A9C0002254F2223046711CCEB222540821E01CDF
:10A9D00001F0DEFD054651E05801002041542B51A5
:10A9E00049435347503D312C312C22434D4E455461
:10A9F000222C22222C22222C300D0A008001002041
:10AA000041542B5149434C4F53453D300D0A0000F2
:10AA100041542B434F50533F0D0A000041542B43E8
:10AA2000475245473F0D0A0041542B435245473F8B
:10AA30000D0A000041542B4350494E3F0D0A0000BF
:10AA400041542B43545A553D310D0A004154490D90
:10AA50000A00000041542B4353510D0A000000002E
:10AA6000415445300D0A000041540D0A0000000019
:10AA7000681468B0B8010020680868B03046711CDE
:10AA8000CEB2255416223046711CCEB22254304626
:10AA900004B070BD7FB50446002002900390AFF271
:10AAA0002800006801900026002507E001A8425D0B
:10AAB0003046711CCEB22254681CC5B2042DF5DBA1
:10AAC00042F20F700090F84803890521426802A8FD
:10AAD00002F064FF002507E002A8425D3046711CC9
:10AAE000CEB22254681CC5B2052DF5DB02223046D9
:10AAF000711CCEB22254F0223046711CCEB22254C8
:10AB00000821E01C01F044FD05463046711CCEB220
:10AB1000255416223046711CCEB22254304604B061
:10AB200070BD2DE9F043A1B00746802101A811F0C6
:10AB30004EFD4FF00008DD48857D0026B146DC481B
:10AB400000783843DA4908700120D8494870012F4D
:10AB500006D0022F09D0042F0CD0082F66D10EE0AA
:10AB600001A8FFF797FF804663E001A8FFF7F9FE11
:10AB700080465EE001A8FFF756FE804659E005EBEF
:10AB8000850000EBC500CB4901EB4010407905EB97
:10AB9000850101EBC501C74A02EB411109798842E1
:10ABA00001DB4FF00109B9F1000F3ED105EB850043
:10ABB00000EBC500BF4901EB4010801D05EB85018E
:10ABC00001EBC501BB4A02EB4111497910F8018044
:10ABD00000240CE005EB850000EBC500B54901EB56
:10ABE0004010801D005D304486B2601C84B205EBCD
:10ABF000850000EBC500AF4901EB40104079A04251
:10AC0000E8DC34460DE005EB850000EBC500A94902
:10AC100001EB40100E30005DA11B01AA5054601CD6
:10AC200084B206EB0800A042EDDC02E04FF001091F
:10AC300000BF00BFB9F1010F02D121B0BDE8F08320
:10AC400064200DF03FFC00240DE000BF9A4800880E
:10AC500000F040000028F9D001A8005D9649091DC8
:10AC60000880601C84B24445EFDB51208F49087096
:10AC7000012048709148D0E904108C4AC2E90210C2
:10AC800000BFDAE73EB58948847D8DA207CA8DE80A
:10AC900007000C258548407C48B909208349087085
:10ACA000012182484174C174FFF7B6FD3FE17F483E
:10ACB000407C01287DD17D48407820B9FFF7ACFD6C
:10ACC000FFF72CFD33E179484078022861D17748BD
:10ACD0008078012842D175480078092811D173483D
:10ACE000C07C012807D150207049087000204870AE
:10ACF000FFF714FD1BE102216C48417401218174AE
:10AD000015E16A480078502819D1012104EB84002C
:10AD100000EBC4026448183000EB8200017100218E
:10AD200004EB840000EBC4025F48183000EB8200A3
:10AD3000018651205D49087001204870F7E05B48AA
:10AD400000784128B2D1092058490870FFF764FD06
:10AD500002215648C174FFF7E1FCE8E053488078CF
:10AD60000028A3D15148007906280CDC4F48C07850
:10AD7000002802DCFFF7D2FCD9E04C48C078401E26
:10AD80004A49C870D3E002214848417400218174C7
:10AD9000CDE046484078012888D1444800785028C2
:10ADA00042D14648D0E90420404BD3E90213511A5E
:10ADB00000E0B3E060EB03000A3970F1000099D3C2
:10ADC000022104EB840000EBC4023748183000EB8A
:10ADD0008200017104EB840000EBC401324818309A
:10ADE00000EB8100008E052813DA04EB840000EBF1
:10ADF000C4012D48183000EB8100008E401C81B248
:10AE000004EB840000EBC4022748183000EB8200FA
:10AE10000186092025490870FFF7FEFC022123481E
:10AE2000C174FFF77BFC82E02048007851284DD1A7
:10AE30002248D0E904301D4AD2E90212591A60EBC7
:10AE40000200C91E70F1000019D31948007800F003
:10AE5000010018B90120FFF764FE10E014480078E3
:10AE600000F0040018B90420FFF75BFE07E010486B
:10AE7000007800F0080010B90820FFF752FE0F48D4
:10AE8000D0E90410094AD2E90232C91A60EB020083
:10AE9000491F70F100004AD3412004490870FFF7B0
:10AEA000BBFCFFF73BFC42E0B8010020580100204A
:10AEB00083000020C80C00200044004080010020D6
:10AEC000686868686868686868686868FE480078E4
:10AED00041282CD1FD48D0E90410FB4BD3E90223D3
:10AEE000891A60EB0300C91E70F100001FD3F648F9
:10AEF0000079022807DCFFF711FCF3480079401CB9
:10AF0000F149087113E00920EF490870FFF784FC4C
:10AF10000221ED48C174FFF701FC08E0EA48407CDB
:10AF2000022804D1E848807C012800D000BF3EBD43
:10AF300008B5E548407C48B90920E349087001217B
:10AF4000E1484174C174FFF767FCE9E0DE48407CEA
:10AF5000012873D1DC48407820B9FFF75DFCFFF78A
:10AF6000DDFBDDE0D848407802286FD1D6488078F4
:10AF700001284ED1D4480078092825D1D248C07C78
:10AF800001280DD1D148D0E90410D14AC2E90010FE
:10AF90003020CD49087000204870FFF7BFFBBFE0AC
:10AFA0000221C948417401218174CA4800780128EE
:10AFB00003D0C94800780128C7D140208DF800008F
:10AFC000009807F0DEF8ABE0BF480078302811D1D8
:10AFD000BD48C078002807DC3120BB490870FFF766
:10AFE0001BFCFFF79BFB9BE0B748C078401EB649AF
:10AFF000C87095E0B44800784128A6D10920B2492C
:10B000000870FFF709FC0221AF48C174FFF786FB07
:10B0100086E0AD488078002897D1AB4800790628B3
:10B020000EDCA948C078002802DCFFF777FB77E048
:10B03000A548C078401EA449C87071E067E005E0EB
:10B040000221A14841740021817469E09E48407842
:10B05000012865D19C480078302817D19B48D0E959
:10B060000430994AD2E90212591A60EB02001439ED
:10B0700070F1000054D3092093490870FFF7CCFB0E
:10B0800002219148C174FFF749FB49E08E480078DE
:10B09000402814D18D48D0E904108B4AD2E90232FD
:10B0A000CB1A60EB02005A1F70F1000038D3412028
:10B0B00085490870FFF7B0FBFFF730FB30E08248AE
:10B0C000007841282CD18148D0E904107E4BD3E987
:10B0D0000223891A60EB0300C91E70F100001FD320
:10B0E00079480079022807DCFFF718FB76480079D9
:10B0F000401C7549087113E0092073490870FFF777
:10B100008BFB02217048C174FFF708FB08E06E4812
:10B11000407C022804D16C48807C012800D000BF0C
:10B1200008BD10B502216848C1740920664908703D
:10B1300000204870FFF7F2FA10BD70B56248847DB8
:10B14000407C80B909206049087001215E48417443
:10B15000FFF762FB0A205C49487101215A48C1741B
:10B16000FFF7DCFAA4E15848407C01287DD156481D
:10B17000407838B9FFF750FB0A2053494871FFF770
:10B18000CDFA95E15048407802286FD14E4880783A
:10B1900001286CD14C480078092811D14A48C07C5C
:10B1A000012807D10D204849087000204870FFF79A
:10B1B000B5FA7DE10221444841740121817477E1AF
:10B1C000414800780D2828D101213F48807D00EBBF
:10B1D000800202EBC002414800EB820001710021B5
:10B1E00004EB840000EBC4023C4800EB82000186C3
:10B1F0003B48007848B104EB840101EBC401394AB3
:10B2000002EB411021460CF0F4FF20202E4908707B
:10B2100000204870FFF782FA4AE12B480078202886
:10B220000BD12A48D0E90410274AC2E90210212094
:10B2300011460870012048703AE12348007821281F
:10B2400090D104EB840000EBC400264901EB4010D0
:10B250004079401C04EB840101EBC401214A02EB5C
:10B260004111487104EB840002E018E16AE019E042
:10B2700000EBC400114601EB4010407904EB84015F
:10B2800001EBC40102EB41110979884202DBFFF7AF
:10B2900048FF0DE120200C49087000204870FFF79E
:10B2A0003DFA05E108488078002888D106484079B1
:10B2B0000549097988421DDB0348C078002813DC62
:10B2C000FFF72CFAF4E00000580100208001002074
:10B2D000080000200300002084000020D00100208E
:10B2E00001000020C80C0020F748C078401EF64935
:10B2F000C870DDE0FFF715FF022104EB840000EBCE
:10B30000C402F24800EB8200017104EB840000EB00
:10B31000C401EE4800EB8100008E05288CDA04EBB6
:10B32000840000EBC401E94800EB8100008E401C62
:10B3300081B204EB840000EBC402E44800EB82001D
:10B340000186B5E0E04840780128A2D1DE480078C7
:10B350000D2835D1DE48D0E90430DB4AD2E90212AB
:10B360005B1A60EB020014229A1A70F1000026D3D7
:10B37000FFF7D7FE022104EB840000EBC402D348A0
:10B3800000EB8200017104EB840000EBC401CF48A4
:10B3900000EB8100008E052811DA04EB840000EB3D
:10B3A000C401CA4800EB8100008E401C81B204EB4E
:10B3B000840000EBC402C54800EB8200018677E000
:10B3C000C1480078212873D104EB840000EBC4014C
:10B3D000BE4800EB81004078012826D1BC48D0E966
:10B3E0000410B94AD2E90232CB1A60EB02000A22F9
:10B3F0009A1A70F100005BD304EB840101EBC401E5
:10B40000B44A02EB41100422032102F016FB054668
:10B41000002D07DD2020AC49087000204870FFF7A0
:10B420007DF945E0FFF77DFE42E0A948D0E9041030
:10B43000A54BD3E902268B1A60EB06005A1E70F169
:10B44000000035D304EB840000EBC400A14901EBFC
:10B4500040104079401C04EB840101EBC4019D4A7B
:10B4600002EB4111487104EB840000EBC40011466B
:10B4700001EB4010407904EB840101EBC40102EBC5
:10B4800041110979884202DBFFF74BFE10E02020D2
:10B490008D49087000204870FFF740F908E08A489D
:10B4A000407C022804D18848807C012800D000BF5D
:10B4B00070BD10B58448407C50B90E208249087098
:10B4C000FFF7AAF9FFF72AF901217F4841745BE0F1
:10B4D0007D48407C01284ED17B48407820B9FFF759
:10B4E0009BF9FFF71BF94FE077484078022826D1F7
:10B4F00075488078012805D10221734841740121E3
:10B50000817441E07048807800283DD16E484079D0
:10B510006D49097988420CDB6B48C078002802DC51
:10B52000FFF7FCF830E06848C078401E6649C870F4
:10B530002AE00221644841740021817424E06248B9
:10B540004078012820D16248D0E904105E4AD2E94F
:10B550000232C91A60EB02000A3970F1000013D3FD
:10B5600002215948417400218174022056494870D3
:10B570000020887008E05448407C022804D15248DA
:10B58000807C012800D000BF10BD10B54E48407C23
:10B5900050B903204C490870FFF73EF9FFF7BEF899
:10B5A00001214948417459E04748407C01284CD169
:10B5B0004548407820B9FFF72FF9FFF7AFF84DE085
:10B5C00041484078022823D13F488078012805D19E
:10B5D00002213D484174012181743FE03A4880785E
:10B5E00090BB3948007905280CDC3748C078002822
:10B5F00002DCFFF793F831E03348C078401E32494F
:10B60000C8702BE00221304841740021817425E08C
:10B610002D484078012821D12D48D0E904302A490D
:10B62000D1E902219B1A60EB01000A229A1A70F1FB
:10B63000000013D3022124484174002181740220A8
:10B64000214948700020887008E01F48407C02288B
:10B6500004D11D48807C012800D000BF10BD02200D
:10B66000194948700020887008460079401C08710C
:10B67000084640790979884213DB134800790A2883
:10B6800003DC01201049C8700EE00F480079322811
:10B6900003DC05200C49C87006E064200A49C87024
:10B6A00002E000200849C870704710B50648407C89
:10B6B00090B9012004490870FFF7AEF8FFF72EF8A3
:10B6C00001210148417492E058010020D00100207E
:10B6D00080010020C80C0020F648407C01286AD177
:10B6E000F448407820B9FFF797F8FFF717F87EE0A5
:10B6F000F0484078022838D1EE488078012817D1E8
:10B70000EC4800780C2809D10120EA4981F8200092
:10B710000221E84841740121817468E0E54800781D
:10B72000401CE4490870FFF777F8FEF7F7FF5EE08A
:10B73000E048807800285AD1DE484079DD4909790F
:10B7400088420CDBDB48C078002802DCFEF7E6FF0D
:10B750004DE0D848C078401ED649C87047E0022165
:10B76000D44841740021817441E0D24840780128D6
:10B770003DD1D148D0E90420CE49D1E90231D31AD4
:10B7800060EB01000A229A1A70F100002FD3C94819
:10B7900000790A2804DCFFF762FFFEF7BFFF26E00E
:10B7A0000221C4484174002181740220C1494870BB
:10B7B000002088701BE0BF48407C022817D1BD489C
:10B7C000807C012813D0BB48807C80B9B94890F8B0
:10B7D0002100012809DC00F069F8B64890F8210042
:10B7E000401CB44981F8210001E000F03CF810BD94
:10B7F00008B5B048407C18B1AE48407C022813D14F
:10B80000684606F0DFFC01280ED19DF80000A9492A
:10B8100008740021A74841749DF80100A54988716A
:10B820009DF80110A3488175A248007C072817D213
:10B83000DFE800F01604070A0D101300FFF735FFCC
:10B840000FE0FFF7A2FE0CE0FFF733FE09E0FFF781
:10B8500074FC06E0FFF76CFB03E0FFF713FA00E06F
:10B8600000BF00BF08BD10B5012092490874002137
:10B87000904841740175012181740021C174012037
:10B880008C490870002048700871322048710120EE
:10B8900088700020C87081F8220081F8230081F8A8
:10B8A000200081F82100FFF7A3FF10BD10B5012093
:10B8B0008249086032200CF005FE00208049C1F862
:10B8C00084020A200CF0FEFD7A4890F82100401C0A
:10B8D000C4B206F0B8FCFFF7C6FF764880F82140F6
:10B8E00010BD08B512208DF80000009806F049FC44
:10B8F00008BD02206F49487001208870002008713F
:10B900000120C870704710B56EA16F4810F0D6FDC9
:10B91000044614B9FFF7A3FE01E0FFF7EAFFFEF7C4
:10B920000BFCFFF765FF10BD2DE9F047002600274F
:10B930000025A94665A1644810F0C0FD8046B8F115
:10B94000000F02D1FFF78BFE38E0FFF7D2FF002493
:10B950002AE05D48005D30281ADB5B48005D39282D
:10B9600016DC4FF0010945B95748005D303806EB49
:10B97000860100EB4100C6B214E0012D12D15248FD
:10B98000005D303807EB870100EB4100C7B209E0EA
:10B99000B9F1000F01D0681CC5B2012D00DD07E030
:10B9A0004FF00009601CC4B24A4800888442D0DBD2
:10B9B00000BF404880F8226080F82370FEF7BCFB8F
:10B9C000FFF716FFBDE8F08710B543A13E4810F021
:10B9D00075FD044614B9FFF742FE01E0FFF789FF49
:10B9E000FEF7AAFBFFF704FF10BD70B53EA1364875
:10B9F00010F064FD04463FA1334810F05FFD05469A
:10BA00001CB915B9FFF72BFE01E0FFF772FFFEF737
:10BA100093FBFFF7EDFE70BD70B539A12A4810F019
:10BA20004DFD044639A1284810F048FD05461CB9D3
:10BA300015B9FFF714FE01E0FFF75BFFFEF77CFB93
:10BA4000FFF7D6FE70BD10B51EA11F4810F036FDE1
:10BA5000044614B9FFF703FE01E0FFF74AFFFEF7C3
:10BA60006BFBFFF7C5FE10BD10B516A1164810F010
:10BA700025FD044614B9FFF7F2FD01E0FFF739FF99
:10BA8000FEF75AFBFFF7B4FE10BD10B50DA10E482E
:10BA900010F014FD044614B9FFF7E1FD05E00120A4
:10BAA000044981F82000FFF724FFFEF745FBFFF76C
:10BAB0009FFE10BD580100208001002084024242F8
:10BAC000000042424F4B00003C2B00202B435351BF
:10BAD0003A0000003C0100202B4350494E3A2052CE
:10BAE00045414459000000002B435245473A20305D
:10BAF0002C3100002B435245473A20302C350000B2
:10BB00002B43475245473A20302C31002B434752B4
:10BB100045473A20302C350010B5FFF7EAFEFEF716
:10BB20000BFBFFF765FE10BD2DE9F04F93B0002031
:10BB300011900025002680468146002782468346D4
:10BB400000241090F6A1F84810F0B8FC129012985A
:10BB500030B91120F54981F83000FFF780FDE2E0AF
:10BB60001020F24981F83000FFF7C3FE00246FE097
:10BB70001198A0B9EC48005D302867DBEA48005D09
:10BB8000392863DC0120119001251090E648005D02
:10BB9000303806EB860100EB4100C6B256E0E248C1
:10BBA000005D302849DBE048005D392845DC012094
:10BBB0001090072D3FD2DFE805F03E040D17212A33
:10BBC0003400D948005D303806EB860100EB4100B7
:10BBD000C6B231E0D448005D303808EB880100EB94
:10BBE000410000F0FF0827E0CF48005D303809EB46
:10BBF000890100EB410000F0FF091DE0CA48005D2B
:10BC0000303807EB870100EB4100C7B214E0C648AB
:10BC1000005D30380AEB8A0100EB410000F0FF0ABA
:10BC20000AE0C148005D30380BEB8B0100EB4100AE
:10BC300000F0FF0B00E000BF08E0109830B1681C76
:10BC4000C5B2062D00DD07E000201090601CC4B2D4
:10BC5000B748008884428BDB00BF02968DF80C80C9
:10BC60008DF80D908DF80F708DF810A08DF811B033
:10BC700002A800F072FD01200FF095FC082F4FDAAA
:10BC80009DF80F008DF800009DF810008DF8010060
:10BC90009DF811008DF802009DF80F000C2801DBC3
:10BCA000402000E000208DF80300694600200EF0DF
:10BCB0001DFF01A900200FF01DF89DF80700029953
:10BCC000884219D19DF805009DF80C10884201D0DA
:10BCD000012000E000209DF806109DF80D20914203
:10BCE00001D0012100E00021084328B99DF804009B
:10BCF0009DF80E10884213D00298C0B28DF807004C
:10BD00009DF80C008DF805009DF80D008DF80600DB
:10BD10009DF80E008DF8040001A900200EF084FFAC
:10BD200000200FF040FCFEF707FAFFF761FD13B0AB
:10BD3000BDE8F08F10B57FA17B4810F0BFFB044633
:10BD40005CB980A1784810F0B9FB044614B9FFF73C
:10BD500086FC0DE0FFF7CDFD0AE07CA1724810F0F3
:10BD6000ADFB044614B9FFF7C4FD01E0FFF777FC13
:10BD7000FEF7E2F9FFF73CFD10BD10B5AFF2BC21B4
:10BD8000694810F09BFB04468CB970A1664810F01E
:10BD900095FB044614B9FFF762FC0AE009206D49DF
:10BDA0000870FEF739FD02216A48C17401E0FFF70F
:10BDB000A0FDFEF7C1F9FFF71BFD10BDF0B5ADF218
:10BDC000044D002400254FF4806101A810F0FFFB12
:10BDD000002661A1544810F071FB0746FFF789FD6A
:10BDE000FEF7AAF90DF2044DF0BDF8B55CA00068AD
:10BDF0000090002600275B48007870B3FF224C4873
:10BE00000188494800F016FC04461CB93720FEF7AB
:10BE10003FFA63E04448007800EB4001C1EB802525
:10BE200043480088C01E82B201233F49284605F0DE
:10BE30009FFC4D480078401C4B4908703620FEF7A7
:10BE400027FA4948007849490978884246DB0422A4
:10BE50006946474805F0AFFC40E0FFE70022344860
:10BE60000188314800F0E6FB04461CB93520FEF796
:10BE70000FFA33E0012C03D13120FEF709FA2DE04F
:10BE8000022C0FD10221284803F0ACF83948007881
:10BE900020B1394A39493A480BF0C6FD3420FEF743
:10BEA000F7F91BE0032C11D101202E4908701E4820
:10BEB000C0782E49087000202B490870314908705D
:10BEC00005F02DFC3620FEF7E3F907E0042C05D140
:10BED00001202D4908703820FEF7DAF90CB1FE2C4C
:10BEE00013D12AA1104810F0E9FA064617A10E480E
:10BEF00010F0E4FA074606B93FB109201549087069
:10BF0000FEF78AFC02211348C174FE2C05D00748B5
:10BF1000D0E904100F4AC2E90210FEF70DF9F8BD8E
:10BF20002B43434C4B3A00003C2B00208001002067
:10BF30003C0100202B51494F50454E3A20302C30C7
:10BF400000000000434F4E4E45435400636C6F7336
:10BF500065640000580100202B51495552430000F0
:10BF60004A530301030000208100002080000020CC
:10BF700000FF070801000020280A0020B801002067
:10BF80007003002082000020840000204E4F2043D8
:10BF9000415252494552000010B5FFF7AAFCFEF786
:10BFA000CBF810BD01460020F74A525C682A23D125
:10BFB000F54B01F109029A5C022A0ED101F10A0245
:10BFC0009A5CF02A01D1012016E0EF4B01F10A0240
:10BFD0009A5CF22A10D102200EE0EB4B01F109022B
:10BFE0009A5C112A01D1042006E0E74B01F1090215
:10BFF0009A5CC02A00D1082070472DE9F05F002626
:10C00000002700244FF00109A246E048857DA346A1
:10C01000DF4800880A2803DCFEF78EF8BDE8F09FB1
:10C02000D948007868283BD1D9480088172805DD11
:10C03000D548407800F1050A4FF0020900242DE0B0
:10C0400004FB0AF188B2FFF7ADFF0746082F22D1A3
:10C0500005EB850000EBC500CE4901EB40104079AF
:10C06000401C05EB850101EBC501CA4A02EB4111F9
:10C07000487105EB850000EBC500114601EB40104F
:10C08000407905EB850101EBC50102EB411109790E
:10C09000884200DB00273E43601CC4B24C45CFDB26
:10C0A000AFF25811B84810F009FA8046AFF22411E7
:10C0B000B54810F003FA8346B8F1000F02D1BBF186
:10C0C000000F1CD0002005EB850101EBC501B14A32
:10C0D00002EB41114871B048007840B105EB850191
:10C0E00001EBC50102EB411029460CF000F90920D3
:10C0F000A6490870FEF790FB0221A448C174FEF720
:10C100001BF8012407E006EA040010B12046FEF700
:10C1100008FD6006040E102CF5DB00BF7EE770B54D
:10C120009A48847D0026AFF2E411974810F0C6F9D2
:10C13000054615B9FFF793FA3FE0AFF2F0119248C8
:10C1400010F0BCF90546ADBB9348007848B104EB4C
:10C15000840101EBC4018F4A02EB411021460CF02F
:10C1600048F88B480088401E8749085C162800D193
:10C170000126002089490870012104EB840000EBAE
:10C18000C402874800EB82000171002104EB8400A7
:10C1900000EBC402824800EB8200018651207B49FB
:10C1A0000870012048707F48D0E90410774AC2E93E
:10C1B000021002E0FFE7FFF752FAFDF7BDFF16B1EC
:10C1C0000120FEF7AEFCFFF713FB70BD10B56F4802
:10C1D0000078202854D00BDC0F2868D2DFE800F06C
:10C1E00067292F2C31373A3D3233404346494D00C1
:10C1F00035284AD00EDC322844D006DC212847D02E
:10C20000302837D0312852D13DE0332839D0342876
:10C210004DD139E0502844D006DC40283BD041289D
:10C220003CD0422843D10FE051283DD0FF283ED1D9
:10C2300006E0FFF768FB3BE0FFF776FB38E000BF66
:10C2400000BF00BF00BF00BFFFF766FC30E0FFF794
:10C25000BBFB2DE0FFF7C9FB2AE0FFF7DDFB27E082
:10C26000FFF7F1FB24E0FFF7FFFB21E0FFF70DFCF8
:10C270001EE000BFFFF75EFD1AE0FFF755FC17E078
:10C2800000BF00BF00BF00BF00BFFFF776FD0FE09B
:10C29000FFF794FD0CE0FFF7A8FD09E0FFF77CFE37
:10C2A00006E0FFF73CFF03E0FFF7A7FE00E000BF5A
:10C2B00000BF10BD70B50446FF253BA00FF08AFFFC
:10C2C00064200CF0FFF821463BA00FF083FF6420B0
:10C2D0000CF0F8F81A2139480CF0DAFF00BF4021C1
:10C2E00036480DF085F80028F9D064200CF0EAF803
:10C2F00033A1254810F0E2F83349086008E030A186
:10C30000214810F0DBF8304908600A200CF0DAF818
:10C310002D4800680028F2D064200CF0D3F8FDF717
:10C320000BFF2AA00FF056FFC8200CF0CBF82BA172
:10C33000154810F0C3F8244908601FE023A00FF04F
:10C3400049FFC8200CF0BEF824A10F4810F0B6F841
:10C350001D49086024A11C48006810F0AFF81A4974
:10C36000086021A118480068401C10F0A7F8164981
:10C3700008600846006840783038C5B2002DDDD12D
:10C38000FDF7DAFE70BD00003C2B002058010020B4
:10C390003C010020C80C0020010000208300002088
:10C3A000D00100208001002041542B514953454EBB
:10C3B000443D300D0A000000257300000044004099
:10C3C00053454E44204F4B007400002041542B51E4
:10C3D0004953454E443D302C300D0A002B514953F2
:10C3E000454E443A000000002C00000070B50446A1
:10C3F000FF251D20474981F82300084690F82000BA
:10C40000012800D070BD44A00FF0E4FE4FF4FA7094
:10C410000CF058F821464D480FF0DCFE0A200CF0D5
:10C4200051F81A214A480CF033FF64200CF04AF806
:10C4300048480FF0CFFE0A200CF044F8FDF77CFED0
:10C4400000BFDFE730B5C1B0002040904FF48071ED
:10C45000684610F0BCF80024002512E03E48025D5A
:10C460003EA140A80FF0C2FE9DF8002128466D1C99
:10C470000DF800209DF8012128466D1C0DF80020C4
:10C48000641C322CEADB00200DF805006846FFF73B
:10C49000ADFFFDF751FE41B030BD2DE9F041ADF5E6
:10C4A000027D06460F464FF4007102A810F08FF887
:10C4B00000200190002400254FF0FF0800BF10E08D
:10C4C000325D26A101A80FF091FE9DF804202846B8
:10C4D0006D1C02A90A549DF8052028466D1C0A54BB
:10C4E000641CBC42ECD3002002A9485517480FF049
:10C4F00071FE0A200BF0E6FF1A2115480CF0C8FE69
:10C500000A200BF0DFFFFDF717FE0DF5027DBDE8F9
:10C51000F08100005801002041542B51494F5045F3
:10C520004E3D312C302C22544350222C22313135B7
:10C530002E3233362E3135332E313730222C3438EB
:10C540003530302C302C310D0A00000084A5000855
:10C550000044004000AA00083C2B0020253032781F
:10C560000000000070B505460C4645F255500DF030
:10C57000F1FD28460DF0F1FD20460DF0F1FD0DF026
:10C58000F2FD0DF0F5FD70BD10B50DF0ECFD10BD28
:10C5900030B502460B460020002112E0555C684091
:10C5A00008240BE000F0800525B14506280E80F038
:10C5B000E50001E04506280E651EECB2002CF1DC1A
:10C5C000491C9942EAD330BD70B502460B464FF67E
:10C5D000FF70002110E0565C7040002408E000F07D
:10C5E0000105401015B14AF201067040661CB4B254
:10C5F000082CF4DB4E1CB1B29942ECDB70BD30B5B7
:10C6000002460B464FF0FF310FE012F8010B41409C
:10C61000002408E001F001004042FE4D284080EA7D
:10C620005101601CC4B2082CF4DB581E031EECDA66
:10C63000C84330BDF0B504460D461746052D01D25E
:10C640000020F0BDFF2F07D020784A2802D1607863
:10C65000532801D0FE20F4E7A81E81B22046FFF740
:10C66000B3FF0646F1B2A81E205C814204D1681EC9
:10C67000205CB0EB162F01D00020E2E7FF2F01D0A5
:10C68000A078DEE70120DCE70146002204E0501C30
:10C69000C2B2A1F10A00C1B20A29F8DA100741EAD0
:10C6A0001060704730B5014600200122012313E0DD
:10C6B000022B03DB4FF6FF7404EA02120A2491FBFB
:10C6C000F4F504FB151404FB0204A0B20A2491FB48
:10C6D000F4F4A1B25C1CA3B20029E9DC30BD10B5B2
:10C6E00001460020012201230AE0022B02D302EBC3
:10C6F0008204620001F00F0404FB020009095B1CC4
:10C700000029F2D110BD70B503460020012901D0E7
:10C71000022903D101F10C04E1B25B1E4C1C04EBB5
:10C720004404052594FBF5F5541C022606FB014440
:10C730002C441C4404EB93046425B3FBF5F5641B03
:10C740004FF4C875B3FBF5F52C440725B4FBF5F69B
:10C7500005FB164000B9072070BD30B50446002522
:10C760002079012811D0207903280ED020790528BE
:10C770000BD02079072808D02079082805D0207907
:10C780000A2802D020790C2801D11F2526E0207923
:10C79000042808D02079062805D02079092802D05D
:10C7A00020790B2801D11E2518E02079022815D107
:10C7B0004FF4C8712068B0FBF1F201FB120050B1D8
:10C7C000207800F0030040B964212068B0FBF1F24A
:10C7D00001FB120008B11D2500E01C25E07908309E
:10C7E000E071E079182813DBE0791838E07160799E
:10C7F000401C60716079A8420ADD012060712079D7
:10C80000401C207120790C2802DD2068401C20602B
:10C81000627921792068FFF776FFA07130BD012190
:10C8200001709FED7D0B80ED020B9FED7D0B80ED88
:10C83000040B9FED790B80ED160B9FED770B80EDD0
:10C840000A0B9FED750B80ED100B9FED730B80EDC8
:10C85000180B9FED750B80ED0C0B42F210710187E8
:10C860009FED730B80ED060B9FED730B80ED120BAC
:10C870009FED690B80ED080B9FED670B80ED140BAE
:10C880000A2180F8681070479FED630B80ED000B64
:10C890009FED610B80ED040B9FED5F0B80ED020BB4
:10C8A0009FED5D0B80ED060B9FED5B0B80ED080BA4
:10C8B0009FED590B80ED0A0B9FED570B80ED0C0B94
:10C8C000704700B5024601201070507000201071B2
:10C8D000012090700020D0700120107202F18800B9
:10C8E000FFF7D2FF02F11800FFF799FF00BD10B566
:10C8F000034600201870002409E004EB440203F111
:10C90000080101EB8210FFF7DCFF601CC4B2062CAB
:10C91000F3DB10BD0FB42DED020B30B52DED108BF8
:10C920008FB0B0EE40CAF0EE60CA419D409C9DEDD4
:10C93000281BB0EE410AF0EE610A9FED371B53EC65
:10C94000112B51EC100B12F0F9FF30D09DED341B80
:10C95000B0EE410AF0EE610A9FED2F1B53EC112B54
:10C9600051EC100B12F0EAFF21D09DED2C2BB0EE14
:10C97000420AF0EE620A9DED2E2BB0EE421AF0EE66
:10C98000621A53EC102B51EC110B12F0D7FF15D19A
:10C990009DED2E1BB0EE410AF0EE610A9FED1E1BCD
:10C9A00053EC112B51EC100B12F0C8FF06D10120F3
:10C9B0000FB0BDEC108B30BC5DF81CFB9DED261B51
:10C9C000B0EE410AF0EE610A9FED131B53EC112B00
:10C9D00051EC100B13F076F803D29FED0F0B8DED99
:10C9E000260B9DED301BB0EE410AF0EE610A53ECD0
:10C9F0001C2B51EC100B13F0ADFA41EC190B9DED13
:10CA0000261BB0EE410AF0EE610A53EC102B51ECFC
:10CA1000190B15E02083B8ED0000000000000000B5
:10CA20000AD7A3703D0A973F000000000000244091
:10CA30002D431CEBE2361A3F000000000000E03FEF
:10CA400013F040F80CD39DED341BB0EE410AF0EE2C
:10CA5000610A53EC102B51EC190B13F06DF901D254
:10CA60000220A5E79DED261BB0EE410AF0EE610A1B
:10CA700053EC102B51EC190B13F06CFA41EC1B0B1F
:10CA80009DED2C2BB0EE420AF0EE620A9DED2E2BAE
:10CA9000B0EE421AF0EE621A53EC102B51EC110B6F
:10CAA00012F04CFF10D19DED2C0BB0EE40AAF0EE31
:10CAB00060AA9DED2E0BB0EE408AF0EE608AB0EEDB
:10CAC0004BFAF0EE6BFAC9E09DED2C2BB0EE420A6A
:10CAD000F0EE620A9DED2E2BB0EE421AF0EE621AD5
:10CAE00053EC102B51EC110B13F034FACDE9080183
:10CAF0009DED341BB0EE410AF0EE610A53EC102BB1
:10CB00009DED081B51EC110B12F0C0FDCDE90A019F
:10CB10009DED261BB0EE410AF0EE610A53EC102B9E
:10CB20009DED0A1B51EC110B13F008F8CDE908013B
:10CB30009DED2E1BB0EE410AF0EE610A53EC102B76
:10CB40009DED081B51EC110B13F02CF941EC180B67
:10CB500053EC192B9DED0A0B51EC100B12F0EEFF6C
:10CB6000CDE908019DED2E1BB0EE410AF0EE610A01
:10CB700053EC102B9DED081B51EC110B13F012F927
:10CB800041EC1A0B9DED342BB0EE420AF0EE620A36
:10CB90009DED342BB0EE421AF0EE621A53EC102BDE
:10CBA00051EC110B12F0CAFF53EC1A2BCDE908011E
:10CBB00051EC180B13F0CEF953EC1A2BCDE902010E
:10CBC00051EC180B13F0C6F9CDE900019DED020BF5
:10CBD00053EC102B9DED000B51EC100B12F0AEFF3F
:10CBE0009FEDFE0B53EC102BCDE904019DED040BE2
:10CBF00051EC100B12F04AFDCDE906019DED080B3A
:10CC000053EC102B9DED060B51EC100B12F082FC37
:10CC100041EC1D0B1FED781BB0EE4D0AF0EE6D0AD6
:10CC200010F022FF8DED060B53EC1B2B9DED060B38
:10CC300051EC100B12F082FFCDE908019DED341B81
:10CC4000B0EE410AF0EE610A53EC102B9DED081B8B
:10CC500051EC110B12F01AFD41EC1F0B53EC1A2B87
:10CC600051EC180B12F056FC53EC1B2BCDE90601CE
:10CC70009DED060B51EC100B12F060FF9FEDD90BF0
:10CC800053EC102BCDE908019DED080B51EC100B76
:10CC900012F0FCFC41EC1E0B9FEDD20B53EC102B61
:10CCA00051EC1F0B12F04AFF53EC182BCDE9060193
:10CCB0009DED060B51EC100B12F02CFCCDE9080198
:10CCC0009DED080B53EC102B51EC1E0B12F0DEFC0B
:10CCD00041EC1D0B9FEDC51BB0EE4D0AF0EE6D0A49
:10CCE00010F0C2FE8DED080B9DED281BB0EE410A41
:10CCF000F0EE610A53EC102B9FEDBE1B51EC110BB3
:10CD000012F0C4FCCDE906019DED080B53EC102B8D
:10CD10009DED060B51EC100B12F010FFCDE90C014C
:10CD20009DED2A1BB0EE410AF0EE610A53EC102B88
:10CD300051EC1D0B12F002FF1FEDC11BCDE90601E6
:10CD40009DED060B10F090FE8DED080B9DED0C0B8C
:10CD500053EC102B9DED080B51EC100B12F0EEFE76
:10CD6000C4E9000194ED001BB0EE410AF0EE610A47
:10CD700053EC1E2B51EC100B12F0E0FEC5E9000144
:10CD8000002015E60FB42DED020B30B52DED108B04
:10CD900097B0499D489C9DED301BB0EE410AF0EEE6
:10CDA000610A1FEDE31B53EC112B51EC100B12F039
:10CDB000C5FD06D1012017B0BDEC108B30BC5DF86D
:10CDC0001CFB9DED3E0BB0EE408AF0EE608A9DEDBF
:10CDD0003C0B8DED0C0B9DED2E1BB0EE410AF0EEE1
:10CDE000610A1FEDF31B53EC112B51EC100B12F0E9
:10CDF00069FE03D21FEDF80B8DED2E0B9DED381B58
:10CE0000B0EE410AF0EE610A9DED2A1B53EC112BA6
:10CE100051EC100B13F09EF841EC190B9DED2E1BFD
:10CE2000B0EE410AF0EE610A53EC102B51EC190BF5
:10CE300012F048FE0FD39DED0C0B53EC102B51EC70
:10CE4000190B12F079FF06D353EC182B51EC190B88
:10CE500012F072FF01D20220ADE79DED3E1BB0EE55
:10CE6000410AF0EE610A9FED651B53EC112B51EC6A
:10CE7000100B12F027FE01D803209CE753EC192B6E
:10CE800051EC180B13F066F841EC1A0B53EC1A2B0B
:10CE900051EC1A0B12F052FE53EC182BCDE90201A3
:10CEA00051EC180B12F04AFECDE900019DED020B8A
:10CEB00053EC102B9DED000B51EC100B13F04AF8C6
:10CEC0009FED501BCDE904019DED040B10F0CCFD4E
:10CED0008DED060B9FED430B53EC102B9DED060BD8
:10CEE00051EC100B12F02AFECDE90E0153EC182B79
:10CEF00051EC1A0B12F0CAFBCDE904019DED040BB5
:10CF000010F0A2FB8DED060B9FED360B53EC102BB2
:10CF10009DED060B51EC100B12F010FECDE9100147
:10CF20009DED3E1BB0EE410AF0EE610A53EC102B72
:10CF30009DED101B51EC110B12F000FE41EC1D0B8E
:10CF400053EC1A2B9DED0E0B51EC100B12F0F6FD6D
:10CF500053EC182BCDE9040151EC1D0B12F0EEFD42
:10CF6000CDE902019DED040B53EC102B9DED020B5E
:10CF700051EC100B12F0EEFF9FED220B53EC102B37
:10CF8000CDE906019DED060B51EC100B12F0D6FD1C
:10CF900041EC1C0B9DED2E1BB0EE410AF0EE610A38
:10CFA0009FED161B53EC112B51EC100B12F0C4FE2D
:10CFB0007DD29DED2E1BB0EE410AF0EE610A53ECDE
:10CFC000102B51EC180B12F0C5FF41EC1B0B53EC6E
:10CFD0001B2B51EC1B0B12F0B1FD17E00000000001
:10CFE000000010400000000000000040555555555D
:10CFF0005555C53F000000000000F03F0000000054
:10D0000000000000000000000000E03F53EC182B7F
:10D01000CDE9020151EC180B12F090FDCDE90001B1
:10D020009DED020B53EC102B9DED000B51EC100B02
:10D0300012F090FF1FED0D1BCDE904019DED040BD7
:10D0400010F012FD8DED060B1FED1A0B53EC102B9B
:10D050009DED060B51EC100B12F070FD41EC1E0B18
:10D0600053EC182B51EC1B0B12F010FBCDE9040113
:10D070009DED040B10F0E8FA8DED060B1FED270B6C
:10D0800053EC102B9DED060B51EC100B12F056FDDE
:10D09000CDE90A0153EC182B9DED0A0B51EC100B56
:10D0A00012F04CFDCDE9080153EC1B2B00E028E009
:10D0B00051EC1E0B12F042FD53EC182BCDE904018C
:10D0C0009DED080B51EC100B12F038FDCDE902017B
:10D0D0009DED040B53EC102B9DED020B51EC100B4E
:10D0E00012F038FF1FED390B53EC102BCDE9060180
:10D0F0009DED060B51EC100B12F020FD41EC1F0BC7
:10D1000007E01FED42EB1FED43FB1FED440B8DEDE0
:10D11000080B53EC1F2B51EC1C0B12F01BFF41ECC6
:10D120001C0B9DED080B53EC102B51EC1D0B12F05A
:10D1300011FF53EC1E2BCDE906019DED060B51ECC2
:10D14000100B12F0E7F941EC1D0B53EC1D2B51ECC9
:10D150001C0B12F09BFACDE912011FED5C1B9DED3B
:10D16000120B10F081FC8DED060B9DED301BB0EE27
:10D17000410AF0EE610A53EC102B1FED621B51ECDB
:10D18000110B12F083FACDE904019DED060B53EC6F
:10D19000102B9DED040B51EC100B12F0CFFCCDE9E0
:10D1A00014019DED321BB0EE410AF0EE610A53EC22
:10D1B000102B9DED121B51EC110B12F0BFFC1FED5B
:10D1C0006F1BCDE904019DED040B10F04DFC8DEDBE
:10D1D000060B9DED140B53EC102B9DED060B51EC43
:10D1E000100B12F0ABFCC4E9000194ED001BB0EE93
:10D1F000410AF0EE610A53EC1C2B51EC100B12F0BB
:10D200009DFCC5E900010020D5E50FB42DED020B12
:10D2100030B52DED108B9FB0B0EE40CAF0EE60CA75
:10D22000519D509C9DED381BB0EE410AF0EE610A15
:10D230001FED8E1B53EC112B51EC100B12F07EFBEB
:10D2400006D101201FB0BDEC108B30BC5DF81CFB7B
:10D250009DED401BB0EE410AF0EE610A53EC1C2B31
:10D2600051EC100B12F076FE41EC1A0B1FED9D0BEA
:10D2700053EC102B51EC1A0B12F024FC0CD39DED47
:10D28000441BB0EE410AF0EE610A53EC102B51EC56
:10D290001A0B12F051FD01D20220D3E79DED489BFD
:10D2A0001FEDAA0B53EC102B51EC190B12F00AFCDA
:10D2B00001D80320C6E79DED4A8B9FEDFE0B10F0D1
:10D2C000C3F98DED100B9FEDFD0B53EC102B9DED75
:10D2D000100B51EC100B12F0D9F953EC182BCDE9CF
:10D2E00012019DED120B51EC100B12F027FCCDE951
:10D2F00014019DED140B11F0DFF98DED160B1FEDF0
:10D30000C30B53EC102B9DED160B51EC100B12F0D0
:10D3100049FD53EC192BCDE918019DED180B51EC8B
:10D32000100B12F00BFC41EC1F0B53EC1F2B51ECBC
:10D330001A0B12F0C7FB0FD8602238A96846CDE956
:10D3400018450FF012F9B0EE4C0AF0EE6C0A34A852
:10D350000FC8FFF717FD75E753EC1F2B51EC1A0BA5
:10D3600012F0F8FD41EC1B0B9FEDD20B10F06CF9A5
:10D370008DED080B9FEDD10B53EC102B9DED080BA1
:10D3800051EC100B12F082F953EC182BCDE90A0185
:10D390009DED0A0B51EC100B12F0D0FBCDE90C0106
:10D3A0009DED0C0B11F0ECF98DED0E0B53EC1B2BDE
:10D3B0009DED0E0B51EC100B12F0C0FB9FEDBD0B61
:10D3C000CDE9120110F040F98DED060B9FEDBB0B7E
:10D3D00053EC102B9DED060B51EC100B12F056F98F
:10D3E00053EC182BCDE908019DED080B51EC100B07
:10D3F00012F0A4FBCDE90A019DED0A0B10F0D0FA62
:10D400008DED0E0B53EC192B9FEDAE0B51EC100B69
:10D4100012F094FBCDE90C019DED0E0B53EC102B9B
:10D420009DED0C0B51EC100B12F088FBCDE91001B7
:10D430009DED120B53EC102B9DED100B51EC100BCE
:10D4400012F068F853EC1B2BCDE914019DED140B81
:10D4500051EC100B12F072FB9FED960BCDE9180109
:10D4600010F0F2F88DED060B9FED940B53EC102BA2
:10D470009DED060B51EC100B12F008F953EC182B34
:10D480009FED900BCDE90A0151EC100B12F056FB09
:10D49000CDE908019DED0A0B53EC102B9DED080B17
:10D4A00051EC100B12F04AFBCDE90C019DED0C0B79
:10D4B00011F002F98DED100B9FED840B53EC102B46
:10D4C00051EC180B12F0E2F89FED820B53EC102B8D
:10D4D000CDE908019DED080B51EC100B12F062FC38
:10D4E0009FED740BCDE90C0110F0AEF88DED0A0B39
:10D4F0009DED0C0B53EC102B9DED0A0B51EC100B1A
:10D5000012F01CFBCDE90E019DED100B53EC102B1E
:10D510009DED0E0B51EC100B12F01CFD53EC192B72
:10D52000CDE9140151EC190B12F008FB9FED650BCE
:10D5300053EC102BCDE910019DED100B51EC100BAD
:10D5400012F0A4F8CDE912019DED140B53EC102B51
:10D550009DED120B51EC100B12F0F0FACDE9160113
:10D560009DED180B53EC102B9DED160B51EC100B91
:10D5700011F0D0FF41EC1E0B9FED4E0B10F064F844
:10D580008DED0C0B9FED4D0B53EC102B9DED0C0B0B
:10D5900051EC100B12F07AF853EC182BCDE90E0178
:10D5A0009DED0E0B51EC100B12F0C8FACDE91001F5
:10D5B0009DED100B10F0F4F98DED140B53EC1B2BBB
:10D5C0009FED400B51EC100B12F0B8FACDE91201AF
:10D5D0009DED140B53EC102B9DED120B51EC100B29
:10D5E00012F054F89FED390B53EC102BCDE91801D4
:10D5F00051EC180B12F04AF89FED360B53EC102B40
:10D60000CDE910019DED100B51EC100B12F0CAFB8F
:10D610009FED280BCDE9140110F016F88DED100BDD
:10D6200053EC192B9DED100B51EC100B12F086FAF8
:10D63000CDE912019DED140B53EC102B9DED120B57
:10D6400051EC100B12F07AFACDE916019DED180B92
:10D6500053EC102B9DED160B51EC100B11F05AFFF3
:10D66000CDE91A019DED1A0B53EC102B51EC1E0B5A
:10D6700012F00CF841EC1D0B9FED181BB0EE4D0A9B
:10D68000F0EE6D0A10F0F0F98DED180B9DED381BE2
:10D69000B0EE410AF0EE610A53EC102B9FED0D1B2A
:10D6A00051EC110B11F0F2FFCDE916019DED180BB5
:10D6B00018E00000000000000000F0BF00000000C3
:10D6C00000806640000000000000004000000000F4
:10D6D00000805640000000000000F03F55555555B1
:10D6E0005555C53F53EC102B9DED160B51EC100B0F
:10D6F00012F024FACDE91C019DED3A1BB0EE410A6F
:10D70000F0EE610A53EC102B51EC1D0B12F016FADF
:10D710009FEDFE1BCDE916019DED160B10F0A4F94F
:10D720008DED180B9DED1C0B53EC102B9DED180B84
:10D7300051EC100B12F002FAC4E9000194ED001B49
:10D74000B0EE410AF0EE610A53EC1E2B51EC100BC7
:10D7500012F0F4F9C5E90001002073E50FB42DEDD6
:10D76000020B30B52DED028B9BB0B0EE408AF0EE8F
:10D77000608ADDE93E459DF88800012814D16022C9
:10D7800026A96846CDE918450EF0EFFEB0EE480A2E
:10D79000F0EE680A22A80FC8FFF7BCF81BB0BDEC7A
:10D7A000028B30BC5DF81CFB9DF8880002280FD16D
:10D7B000602226A96846CDE918450EF0D6FEB0EEE7
:10D7C000480AF0EE680A22A80FC8FFF7DBFAE5E77F
:10D7D0009DF8880003280FD1602226A96846CDE96C
:10D7E00018450EF0C2FEB0EE480AF0EE680A22A814
:10D7F0000FC8FFF70AFDD1E70120CFE70321017031
:10D800000121817000214170017141717F2181717D
:10D810000021C17101720121417241F69071418173
:10D820004FF49671416200218162C162012141770A
:10D830008177082101840121C170017700210186CF
:10D84000704710B5024600201070002317E003EB6C
:10D85000830101EBC30402F1180101EB8400FFF71F
:10D86000CDFF03EB8300410003EB830000EBC30417
:10D8700002F1180000EB84008162581CC3B2082B2F
:10D88000E5DB002050601081002305E0002102F15B
:10D890000A00C154581CC3B2072BF7DBDA205074BE
:10D8A0005F2191744321D1746B21117540F62B10C7
:10D8B000D08210BD01220270827042707822C27044
:10D8C000002104E00023021D53544A1CD1B2082950
:10D8D000F8DB704702460020002104E00002535CA0
:10D8E00018444B1CD9B20429F8DB00EE100A70472B
:10D8F00013B52DED020B02460B466C46082B02D0E9
:10D90000012004B010BD002103E0605C5054481CAD
:10D91000C1B20829F9DB0020F3E790ED000B704756
:10D9200030B50346080E1446551CAAB21855C1F36B
:10D9300007451046541CA2B21D54C1F307251046DA
:10D94000541CA2B21D541046541CA2B219541046C5
:10D9500030BD0021C1700170417081700022826071
:10D96000C260017170470121017000214170817016
:10D97000C17001210171017400228260C260704790
:10D9800030B50446002040EAC415E8B240EA8115EB
:10D99000E8B240EA0215E8B2184330BD2DE9F04381
:10D9A0000446894616461D46DDF81C80300C207062
:10D9B000300A6070A67041F2BF30804503D1E57037
:10D9C000280A20710FE041F2CD30804508D12F4662
:10D9D0003846FEF784FE0746E770380A207102E0F9
:10D9E000280AE07025710020BDE8F0832DE9F0439E
:10D9F00004460D469046994614F8086046FA09F028
:10DA000000F00307002F02DC0020BDE8F083072DA3
:10DA100001D20020F9E7781EC7B206F0CF0607FA58
:10DA200009F03043C6B204F80860691FE01CFEF735
:10DA3000AFFDA91E60543846E7E72DE9F043A1B0D9
:10DA400004460F469046802101A80EF0C0FD002636
:10DA5000002505E0A01D405D304486B2681C85B2FB
:10DA60006079A842F6DC354607E004F10E00405D1F
:10DA7000A91B01AA5054681C85B26179A01D405CA5
:10DA80003044A842F1DC6279A01D815C43463A46ED
:10DA900001A8FFF7ABFF8146354607E0A81B01A9A7
:10DAA000095C04F10E004155681C85B26179A01D26
:10DAB000405C3044A842F1DC484621B0BDE8F08328
:10DAC000F0B50446DDE90676059D002020700A20A9
:10DAD00095FBF0FC00FB1C504FF00A0C95FBFCFC86
