:020000040800F2
:10800000987500206D800108C18B0008C38B0008A3
:10801000C78B0008CB8B0008CF8B00080000000046
:10802000000000000000000000000000D38B0008EA
:10803000D58B000800000000D78B0008D98B000802
:1080400087800108878001088780010887800108F0
:1080500087800108878001088780010887800108E0
:1080600087800108878001088780010887800108D0
:1080700087800108878001088780010887800108C0
:1080800087800108878001088780010887800108B0
:1080900087800108878001088780010887800108A0
:1080A0008780010887800108878001088780010890
:1080B000039E0008479E0008899E000887800108EB
:1080C0008780010887800108878001088780010870
:1080D000878001089D8D000817800108951301080D
:1080E0008780010887800108878001088780010850
:1080F0008780010887800108878001088780010840
:1081000087800108993C0108878001088780010861
:108110008780010887800108878001083D140108D5
:10812000878001088780010887800108878001080F
:1081300087800108878001088780010887800108FF
:1081400087800108878001088780010887800108EF
:1081500087800108878001088780010887800108DF
:1081600087800108878001088780010887800108CF
:1081700087800108878001088780010887800108BF
:10818000878001088780010800F002F800F075F888
:108190000AA090E8000C82448344AAF10107DA4562
:1081A00001D100F06AF8AFF2090EBAE80F0013F03F
:1081B000010F18BFFB1A43F001031847A87E010006
:1081C000C87E01000A444FF0000C10F8013B13F088
:1081D000070408BF10F8014B1D1108BF10F8015B20
:1081E000641E05D010F8016B641E01F8016BF9D113
:1081F00013F0080F1EBF10F8014BAD1C0C1B09D16A
:108200006D1E58BF01F801CBFAD505E014F8016BDB
:1082100001F8016B6D1EF9D59142D6D3704700006D
:108220000023002400250026103A28BF78C1FBD87F
:10823000520728BF30C148BF0B607047662917F04E
:10824000FE84642913F04685752913F04385782947
:1082500013F07C85732914F09881002070471FB5B6
:1082600017F0E3FC14F0A8F904000020002116F038
:108270000DFEE0601FBD10B510BD14F0A5FA11464B
:10828000FFF7EDFF00F0DFFA14F0C3FA03B4FFF7D5
:10829000F2FF03BC0FF046FE30BF72B6704762B605
:1082A000704780F308887047FD48007820B1FD4A88
:1082B000FD49FE480FF0C8F864200FF013FE0120BE
:1082C000FB4908604FF47A700FF00CFE00BF00BF4E
:1082D00000BF00BF00BFBFF34F8F00BF00BF00BF94
:1082E000F448006800F4E060F3490843001DF149D8
:1082F000086000BF00BF00BFBFF34F8F00BF00BFCB
:1083000000BF00BFFEE70120E84908700121E748EF
:1083100081720120E54908720121E44841723C2143
:10832000C18100228261C2610220DF4908704FF4DE
:108330006161DD48C163DA2141775F2181774321A3
:10834000C1776B2180F8201045F6F7714184002138
:1083500041760320D44908760121D348C1764FF4F1
:1083600061610167DA2180F851105F2180F85210B5
:10837000432180F853106B2180F8541042F22C31C5
:10838000A0F85610002180F84D10032180F84C1001
:10839000012180F84F1041F23420C349486045F272
:1083A00078600881DA2048745F21BF4881744321D6
:1083B000C1746B21017540F62B10BB49C882704710
:1083C00010B5002404E00020BC490855601C84B2AC
:1083D000B4F5007FF7DBE8220021B8480BF0DEFCA3
:1083E00010BD10B5002401224FF44831B3480BF002
:1083F00089FC00BF06E0B148015DAA48001D015597
:10840000601CC4B2082CF6DB10BD10B5002400209F
:10841000A34908700BE00AF02BFC18B90120A04911
:10842000087006E0C8200FF05DFD601CC4B2032C8C
:10843000F1DB00BF9A48007820B9A1480078401CC1
:108440009F49087010BD10B59548007820B1954A35
:10845000954996480EF0F8FF10BD10B52DED0A8B2A
:10846000052101200CF0D6FE08EE100AB8EE480AED
:1084700010EE100A17F068FB41EC1C0B9FED910BFE
:1084800053EC102B17F06AF841EC1B0B9FED8F0B90
:1084900053EC102B17F062F841EC1A0B9FED8D0B8B
:1084A00053EC102B16F002FE41EC190B16F010FDE8
:1084B00008EE900AB2EE040A28EE800ABCEEC00A6A
:1084C00010EE100A7749C870BDEC0A8B10BDF0B5EC
:1084D0002DED028B85B005460E4600200090052E3E
:1084E00003DA05B0BDEC028BF0BDFF227B480178BA
:1084F0007B4804F063F8012800D0F2E728780828C8
:108500004CD10821BDF80020501C80B2009001A879
:1085100081540321BDF80020501C80B2009001A8B6
:1085200081540221BDF80020501C80B2009001A8A7
:1085300081545E4890ED2A1BB0EE410AF0EE610ACC
:108540009FED681B53EC112B51EC100B17F006F844
:1085500041EC180B16F06EFF84B22246694601A862
:1085600005F0A0FEBDF8001001A803F0F1FF0446DD
:10857000BDF80020501C80B2009001A88454210A4C
:10858000BDF80020501C80B2009001A88154BDF8B5
:108590000000C1B201A800F0A6FB4EE0287809282F
:1085A0004BD10921BDF80020501C80B2009001A8D9
:1085B00081540321BDF80020501C80B2009001A816
:1085C00081540421BDF80020501C80B2009001A805
:1085D0008154364890ED281BB0EE410AF0EE610A56
:1085E0009FED401B53EC112B51EC100B16F0B6FF16
:1085F00041EC180B16F01EFF07463A46694601A8E3
:1086000005F063FEBDF8001001A803F0A1FF0446C9
:10861000BDF80020501C80B2009001A88454210AAB
:10862000BDF80020501C80B2009001A88154BDF814
:108630000000C1B201A800F056FB2C48D0E904109C
:108640002A4AC2E90A1000BF4BE770B5A0B0002665
:108650000024002521480078052804DA00201F495D
:10866000087020B070BD7FE01D48005D082803D071
:108670001B48005D092841D10026254609E0601904
:1086800017490A5C3046711C8EB20DF80020681C38
:1086900085B204F108008542F1DB3146684627E0E7
:1086A00001000020200A0020B00100206803002003
:1086B000840242420CED00E00000FA05400A00206E
:1086C000050000206666666666660A4000000000D7
:1086D00000A0604000000000008000412800002051
:1086E000400C00200000000000408F407801002076
:1086F000FFF7EDFE04F1080084B230E09F49601CF2
:10870000085C032803D0601C085C042826D19B4920
:10871000A01C085C642800DDA3E70026254609E0CC
:10872000601996490A5C3046711C8EB20DF8002023
:10873000681C85B29149A01C085C2044401DA842D9
:10874000EEDC8F484278314668460DF084FE8B4956
:10875000A01C085C401D204484B200E005E089486C
:108760000078844200DB00E07EE700BF00208549FE
:10877000087000BF75E701B59DF8000013282DD0E3
:108780000EDC10282ED006DC01281ED002281FD0B7
:1087900003283AD11FE0112823D0122835D10EE04A
:1087A000302824D006DC142824D0152825D02028F1
:1087B0002BD107E0402823D0502826D122E002F018
:1087C000DBFF23E003F0A4FE20E003F0C3FC1DE088
:1087D00008F0BDFD1AE0FFF738FF17E00CF0ECF8E9
:1087E00014E013E09DF801000DF0A8F80EE008F089
:1087F00047FD0BE0FFF709FE08E0FFF724FE05E068
:10880000FFF752FDFFF729FE00E000BF00BF08BDE3
:108810001CB5012110200FF0DDFF40200090012049
:108820008DF804008DF8060003208DF80500012066
:108830008DF80700694654480FF02EFD402152483C
:108840000FF0A8FD1CBD08B500BF50485049086096
:108850004FF4A0600FF02AFCA8200FF0E1FA4FF4CB
:10886000165000F0BBF94FF4E1300FF06AFB4FF403
:10887000165005F0E7FE474805F037F8FFF7C8FF48
:1088800042F2CF0140F2E73000F0ECFF42F2CF01BC
:10889000632000F08CFF42F2CF0142F20F7000F033
:1088A000B2FF42F2CF01632008F09CFD00F0BDFB57
:1088B00000F0FEFBFFF7A9FD40F2E241062003F0C5
:1088C00015FE00F011FF01F010F8334803F0D3FF5C
:1088D000324804F079FF324804F0AFFF284804F032
:1088E000FBFF08F0CDFD01212E4810F027FC01F020
:1088F00002FC00202C49086002F079FF00F088FE9D
:108900000CF026FC0320264908702848007868B13E
:108910000A46224920480EF0DBF848B9FFF7F3FC7D
:108920001F4A1E491C480EF08FFD01E0FFF7EBFCCB
:1089300023E0002000F081FE044614B120460CF034
:10894000C4FB684609F008FB10B10098FFF713FF5D
:108950000B48007870B9684609F087FB50B19DF864
:108960000100074948700020C87088709DF8010018
:108970000CF0E4FF0A200FF0B5FADAE7400C002013
:10898000300A00202800002000100240008000086B
:1089900008ED00E07009002068030020B00100200D
:1089A000200A00200008004084024242010000200A
:1089B0000CB50020019000907648006840F48030AB
:1089C0007449086000BF7348006800F400300090EC
:1089D0000198401C0190009818B90198B0F5A04F7B
:1089E000F1D16C48006800F4003010B10120009013
:1089F00001E0002000900098012846D165484030F1
:108A0000006840F080506349403108606248006867
:108A100040F44040604908605E48083000685D49A5
:108A2000083108600846006840F4004008600846C5
:108A3000006840F4A05008605848091F0860081FEB
:108A4000006840F08070091F086000BF514800684E
:108A500000F000700028F9D040F20570504908601D
:108A60004C480830006820F003004A49083108608B
:108A70000846006840F00200086000BF4548083022
:108A8000006800F00C000828F8D10CBD10B545486E
:108A9000006840F47000434908603E48006840F0B8
:108AA00001003C49086000203A4908310860394813
:108AB00000683D490840374908603C48091D086086
:108AC000081F006820F48020091F08600020314939
:108AD0000C310860FFF76CFF4FF0006031498039BE
:108AE000086010BD70B5002000220223002402217E
:108AF000284D08352D6805F00C0020B1042806D05B
:108B0000082834D107E02A4D2A4E356033E02A4D3B
:108B1000284E35602FE01F4D2D1D2D68C5F3805464
:108B20001C4D2D1D2D6805F03F0154B1224DB5FBA4
:108B3000F1F5184E361D3668C6F3881605FB06F2A9
:108B400009E01B4DB5FBF1F5124E361D3668C6F334
:108B5000881605FB06F20F4D2D1D2D68C5F3014546
:108B60006D1C6B00B2FBF3F5124E356003E0104D47
:108B7000104E356000BF00BF064D08352D68C5F3A7
:108B800003150E4E705D0B4D2D68C540094E3560C6
:108B900070BD0000003802400070004008544007DB
:108BA000003C024088ED00E0FFFFF6FE103000249C
:108BB0000024F4001400002000127A0018000020A5
:108BC000704700BFFEE700BFFEE700BFFEE700BF43
:108BD000FEE77047704770477047000010B588B0D7
:108BE0000446012108460FF0F5FD012110200FF089
:108BF0004BFE0722092179480FF0D9FB07220A21F1
:108C000076480FF0D4FB4FF4C060069002208DF838
:108C10001C0003208DF81D0000208DF81E0001208F
:108C20008DF81F0006A96D480FF036FB4FF48070D9
:108C3000069001208DF81C0003208DF81D000020F7
:108C40008DF81E0001208DF81F0006A963480FF063
:108C500023FB4FF40060069001208DF81C000320D8
:108C60008DF81D0000208DF81E0001208DF81F00DA
:108C700006A95A480FF010FB02940020ADF80C0032
:108C8000ADF80E00ADF81000ADF814000C20ADF8F2
:108C9000120002A952480FF058FF012150480FF06E
:108CA000DCFF40214E4810F0C0F8012240F225516F
:108CB0004B4810F088F825208DF8040003208DF82B
:108CC00005008DF8060001208DF8070001A80FF0BF
:108CD000F2F90020434908604349C1F8AC02434916
:108CE000087008B010BD70B505460E4601203D491C
:108CF000086000240CE000BF4021394810F088F8DB
:108D00000028F9D0295D36480FF0D2FF601CC4B2AC
:108D1000B442F0DB00BF4021314810F079F8002860
:108D2000F9D00020324908702E49086070BD2DE945
:108D3000F04107460D462E48067800240020287092
:108D40000A200FF0CFF82A48007886420FD176B17A
:108D500000BF04E02748005D3855601CC4B2B4422F
:108D6000F8DB234800782870002021490870BDE80E
:108D7000F08110B1012800D070471C49087020B95B
:108D80000021184A0C32116003E00121154A0C320F
:108D900011600021164A117000BFEDE710B540F2D6
:108DA00025510F4810F04AF8B8B10121124810F0CF
:108DB000C5F900201149087009480FF07DFFC4B2C1
:108DC0000B480078402808DA0A48094909784454D1
:108DD00007480078401C0649087010BD000002409A
:108DE00000100140A0024042000040420400002068
:108DF00028000020400C00200004004070000020EB
:108E000070B5044600224FF40071FE480FF0C4FA1A
:108E100000224FF40061FB480FF0BEFA00251FE06E
:108E200000228021F7480FF0B7FA04F0800028B143
:108E300001221102F3480FF0AFFA05E000224FF4CF
:108E40008071F0480FF0A8FA01228021ED480FF060
:108E5000A3FA01200EF0FEFF6006040E681CC5B2E6
:108E6000082DDDDB01225102E6480FF095FA70BDB6
:108E700070B5044600224FF40071E2480FF08CFAFE
:108E80000122D102DF480FF087FA00251FE00022FF
:108E90008021DC480FF080FA04F0800028B1012224
:108EA0001102D8480FF078FA05E000224FF48071E3
:108EB000D4480FF071FA01228021D2480FF06CFAE9
:108EC00001200EF0C7FF6006040E681CC5B2082D15
:108ED000DDDB01225102CB480FF05EFA70BD70B5A8
:108EE000044600224FF40071C6480FF055FA0122E3
:108EF000D102C4480FF050FA00251FE00022802163
:108F0000C0480FF049FA04F0800030B100224FF45D
:108F10008071BC480FF040FA04E001221102B94808
:108F20000FF03AFA01228021B6480FF035FA0120FD
:108F30000EF090FF6006040E681CC5B2082DDDDB44
:108F400001225102AF480FF027FA70BD10B564201E
:108F50000EF0C8FF00224FF40071AA480FF01CFA6F
:108F600001221103A7480FF017FA00224FF4806185
:108F7000A4480FF011FA14200EF0B4FF0122910260
:108F8000A0480FF009FA14200EF0ACFFE220FFF722
:108F900037FF05200EF0A6FF2C20FFF731FF05203C
:108FA0000EF0A0FF2E20FFF72BFF05200EF09AFFFA
:108FB0002F20FFF725FF05200EF094FF2420FFF758
:108FC0001FFF8120FFF71CFF2A20FFF719FFA220B7
:108FD000FFF716FFC820FFF713FFA020FFF710FFD1
:108FE0006020FFF70DFFAF20FFF70AFF01225102BB
:108FF00084480FF0D1F910BD1CB5012102200FF0FB
:10900000E9FB4FF48040009001208DF8040000201F
:109010008DF8060003208DF8050069467A480FF0A8
:109020003BF90120794908601CBD1CB501211020C5
:109030000FF0D0FB01208DF8040000208DF8060011
:109040004BF68070009001208DF8070002208DF80B
:10905000050069466B480FF01FF900208DF80400E9
:109060008DF806004FF48040009001208DF8070035
:1090700002208DF80500694662480FF00DF9FFF7F0
:1090800065FFFFF7B9FF1CBD70B505460C4600BF74
:1090900005F1AF01C8B2FFF7B3FEC4F3031101F14C
:1090A0001000FFF7ADFE04F00F00FFF7A9FE70BD42
:1090B00070B500224FF4007152480FF06DF9012293
:1090C000110350480FF068F9002415E004F1B001D5
:1090D000C8B2FFF795FE1020FFF792FE0020FFF7C1
:1090E0008FFE002504E00020FFF7C2FE681CC5B219
:1090F000842DF8DB601CC4B2092CE7DB012251028D
:1091000040480FF049F970BD0120404908607047A0
:1091100000203E49086070472DE9F0410646884628
:1091200014460027002500BF15E070194146FFF7DF
:10913000ABFF00270BE01CB90020FFF799FE04E00D
:10914000012C02D10020FFF7CAFE781CC7B2802F85
:10915000F1DB681CC5B2022DE7DBBDE8F08170B51C
:10916000044600224FF4007126480FF015F900253F
:109170000FE00121681CFFF787FF002605E020783B
:10918000FFF776FE641C701CC6B2802EF7DB681CED
:10919000C5B2082DEDDB012251021A480FF0FCF890
:1091A00070BD2DE9F0470746894614461D4600224A
:1091B0004FF4007113480FF0EFF80122110311482A
:1091C0000FF0EAF800261AE0B8194946FFF75CFFED
:1091D0004FF000080EE01DB92078FFF749FE04E0CB
:1091E000012D02D12078FFF77AFE641C08F10100FE
:1091F00000F0FF08B8F1100FEDDB701CC6B2022EB4
:10920000E2DB05E00010024000040240B882404268
:1092100001225102FA480FF0BFF8BDE8F0872DE9AE
:10922000F0470746894614461D4600224FF4007158
:10923000F3480FF0B1F800261AE0B8194946FFF7D5
:1092400023FF4FF000080EE01DB92078FFF710FE55
:1092500004E0012D02D12078FFF741FE641C08F1E3
:10926000010000F0FF08B8F1080FEDDB701CC6B27A
:10927000022EE2DB01225102E1480FF08DF8BDE839
:10928000F0872DE9F05F07460D4614461E4607F1AC
:10929000AF0000F0FF0900224FF40071D8480FF032
:1092A0007BF805F00F00401E00F0FF0AC5F3031025
:1092B00000F1100B4846FFF7A3FD5846FFF7A0FD4D
:1092C0005046FFF79DFD4FF000080CE01EB92078D6
:1092D000FFF7CEFD04E0012E02D12078FFF7FFFD5D
:1092E000641C08F10108B8F1060FEFD30122510206
:1092F000C3480FF051F8BDE8F09F70B50446002553
:109300001DE004F0800028B10122D103BC480FF019
:1093100043F805E000224FF40041B9480FF03CF853
:109320006006040E00224FF40051B5480FF034F8E7
:1093300001225103B2480FF02FF8681CC5B2082D66
:10934000DFDB70BD70B5002401225103AC480FF083
:1093500023F8002518E000224FF40051A8480FF030
:109360001BF86006040E4FF48041A5480EF0F6FF8E
:1093700010B1601CC4B200E0E4B201225103A04865
:109380000FF00AF8681CC5B2082DE4DB204670BD5A
:109390002DE9F04780460D4616461F46DDF8209021
:1093A00000224FF4805196480EF0F6FF0122510240
:1093B00093480EF0F1FF00224FF4005190480EF058
:1093C000EBFF0320FFF799FF4046FFF796FF284683
:1093D000FFF793FF3046FFF790FF002404E0FFF70C
:1093E000B1FF3855601CC4B24C45F8DB01221103B3
:1093F00083480EF0D1FFBDE8F0872DE9F04F8DB026
:1094000083460E4615461F4600243A4631465846C6
:10941000FFF782FEABE0285DB02838DB285DF72837
:1094200035DC601C285CA12831DB285DB0385E216A
:1094300010FB01F073490860601C285C00F2AD204D
:10944000096808446F4908600846006840010860E0
:1094500008460068C0F3074808460088C0F307299B
:10946000084690F800A0202005AB524649460090DF
:109470004046FFF78DFF3B4605AA31465846FFF7A9
:1094800090FEA01CC4B206F11000C6B26FE0285DC9
:10949000A12837DB285DA32834DC601C285CA128C8
:1094A00030DB285DA1385E2110FB01F055490860D2
:1094B000601C285CA13809680844524908600846C5
:1094C00000684001086008460068C0F30748084685
:1094D0000088C0F30729084690F800A0202005ABBB
:1094E0005246494600904046FFF752FF3B4605AAC8
:1094F00031465846FFF755FEA01CC4B206F11000D5
:10950000C6B234E0285D20282FDB285D7E282CDCC5
:10951000285D20383B490860084600680001086063
:10952000084600683849084436490860084600681B
:10953000C0F3074808460088C0F30729084690F89A
:1095400000A0102001AB5246494600904046FFF76C
:109550001FFF3B4601AA31465846FFF760FE601CDC
:10956000C4B206F10800C6B201E0601CC4B2285DB6
:1095700000283FF750AF0DB0BDE8F08F2DE9FE4F4A
:1095800082460E4615469B46002433E0285D20287F
:109590002EDB285D7E282BDC285D203819490860E9
:1095A00008460068C000086008460068174908447B
:1095B0001449086008460068C0F307470846008859
:1095C000C0F30728084690F80090082001AB4A46EF
:1095D000414600903846FFF7DBFE5B4601AA314664
:1095E0005046FFF74EFE601CC4B2B01DC6B201E08B
:1095F000601CC4B2285D0028C8DCBDE8FE8F0000F6
:10960000001002406C00002080CF0300C0BF0300A8
:109610001CB5012110200FF0DDF83C200090002047
:109620008DF8040003208DF8050001208DF8070057
:1096300069462C480EF030FE1CBD70B5054600246E
:10964000042128480EF08AFE70B914200EF04AFC5E
:1096500000BF042123480EF081FE0028F9D0142019
:109660000EF040FC01243AE008211E480EF076FE80
:1096700070B914200EF036FC00BF082119480EF016
:109680006DFE0028F9D014200EF02CFC022426E0F8
:10969000102114480EF062FE70B914200EF022FC66
:1096A00000BF10210F480EF059FE0028F9D01420F9
:1096B0000EF018FC032412E020210A480EF04EFEA2
:1096C00068B914200EF00EFC00BF202105480EF0F2
:1096D00045FE0028F9D014200EF004FC0424204696
:1096E00070BD00000010024000B585B001210807E0
:1096F0000FF0B9F8012011F066FC002011F062FBB8
:1097000049F6991188424DD001200EF000FF00BFAC
:1097100041200EF0B5FE0028FAD04FF480700EF014
:10972000F7FF01200FF00FF810F08EFD002010F071
:1097300088FE10F0B7FD002002907F200390FF20EC
:10974000049002A810F047FE01208DF806001B20AF
:109750008DF805000F208DF8040000208DF807001B
:1097600001A910F0D3FE0F208DF802000B208DF818
:10977000010003208DF8000017208DF803006946D2
:10978000002010F061FF10F01DFE49F69911002035
:1097900011F00BFB012010F054FE49F69911002046
:1097A00011F003FB002011F00EFC05B000BD7FB5E9
:1097B00005460C46012102200FF055F80295ADF840
:1097C00004400020ADF80600ADF80C0001A9FB48EC
:1097D0000FF02BFC01221146F84810F0C7F80021C9
:1097E000F6480FF0ABFC1D208DF8000001208DF82D
:1097F000010003208DF8020001208DF80300684667
:109800000EF059FC7FBD7FB505460C4601210420B2
:109810000FF029F80295ADF804400020ADF80600DD
:10982000ADF80C0001A9E6480FF0FFFB012211463C
:10983000E34810F09BF80021E1480FF07FFC1E2068
:109840008DF8000001208DF8010003208DF8020042
:1098500001208DF8030068460EF02DFC0020D94948
:1098600008707FBD7FB505460C46012108460EF005
:10987000FAFF0295ADF804400020ADF80600ADF8FF
:109880000C0001A94FF080400FF0CFFB01221146E0
:10989000900710F06BF800214FF080400FF04EFC65
:1098A0001C208DF8000001208DF8010003208DF8A8
:1098B000020001208DF8030068460EF0FCFB7FBD1E
:1098C000014601F0030028B96420B1FBF0F200FB6F
:1098D000121030B94FF4C870B1FBF0F200FB121057
:1098E00008B9012070470020FCE70020B649086055
:1098F00008714871C871087248720021B24A11613A
:1099000051619161D161116251629162D162012014
:10991000114681F8300070473EB5AB48D0E90420CD
:10992000521C40F10000A849C1E90420084690F803
:10993000300001280CD0D1E904414FF461620023CA
:10994000204612F0E0F800214A404B401A430ED165
:109950009E4890F82000012809D103208DF80800C6
:10996000029808F059FB0220974981F8300001A9BC
:10997000002010F035FE9DF804009349C8719DF851
:10998000050008729DF8060048726946002010F034
:10999000C1FE9DF8030000F5FA608B4908609DF850
:1099A000010008719DF8020048719DF8000088715F
:1099B0003EBD2DE9F04104468348C0794FF4616112
:1099C00010FB01F08049097AC1EB011100EB810025
:1099D0007D49497A0844C61705467B48D0E90430DA
:1099E00004EB840101EBC402794901EB8201C96AED
:1099F0005A1A60F10000143A70F1000014D304EB1D
:109A0000840000EBC401724800EB8100476A3A46CB
:109A100000232846314612F076F8511F73F10003F7
:109A200002D20120BDE8F0810020FBE71CB5002434
:109A3000EAE02046FFF7BDFF002861D004EB840177
:109A400001EBC401634A02EB41105F4B624A60497B
:109A50001839009404F025FD6048007848B104EB03
:109A6000840101EBC4015B4A02EB411021460EF078
:109A70004EF95548006904EB840101EBC4025449D6
:109A800001EB8201C862514890F8200068B34F484A
:109A900090F822000C2828DB4C4890F822001F2860
:109AA00023DC04EB840000EBC401494800EB810097
:109AB000007F012803D104208DF8040010E004EB9E
:109AC000840000EBC401424800EB8100007F0228C3
:109AD00003D106208DF8040002E004208DF8040074
:109AE0008DF80540019808F097FA3748006904EBB3
:109AF000840101EBC402364901EB8201886281E0F6
:109B000004EB840000EBC401314800EB8100806A63
:109B100000212D4BD3E90423801A994172D22A489F
:109B2000D0E9043104EB840000EBC402284800EBC8
:109B30008200806A181A61F100013C3871F100015D
:109B400060D326480078B8B3204890F82000A0B32E
:109B50001E4890F822000C284ADB1C4890F822008E
:109B60001F2845DC04EB840000EBC401184800EB1F
:109B70008100008E05283BDA20460EF03BF8E0B16C
:109B800004EB840000EBC401114800EB8100007F6E
:109B9000012803D104208DF8040024E004EB8400A4
:109BA00000EBC4010A4800EB8100007F022817D1B6
:109BB00006208DF8040016E024E019E000040040BF
:109BC00000080040720000207801002050010020B1
:109BD000C8010020C00C0020680300200100002004
:109BE00004208DF804008DF80540019808F014FA5F
:109BF000FE48006904EB840101EBC402FC4901EB5F
:109C000082018862601CC4B2F94818380078A0420A
:109C10003FF70FAF1CBD38B5002475E004EB4401DD
:109C2000F44800EB81100078012809D104EB4401CD
:109C3000F04800EB81104078022801D1192500E09E
:109C40000F25EA48D0E90420521B70F1000059D3D7
:109C5000E648D0E90423681DC117801A994116D23D
:109C6000E24804EB4402D0E90431E24800EB8212FE
:109C7000D2E904021B1A61EB020104EB4402DD4845
:109C800000EB8210C088181A71F100013AD3D7484E
:109C9000D0E90410D54BD3E90A238A1A60EB0300FC
:109CA0000D2300219A1A81411AD3D048D0E904101B
:109CB000CE4AD2E90A32C91A60EB0200491E70F19D
:109CC00000001FD3C948D0E90410C84BD3E90A23C8
:109CD0008A1A60EB0300082300219A1A814111D3EC
:109CE0008DF8014010208DF80000009808F0DCF994
:109CF000BE48D0E9041004EB4403BE4A02EB8312D1
:109D0000C2E90410601CC4B2BA4808380078A04206
:109D100084DCB9480078012810D1B448D0E9041097
:109D2000B54BD3E90223891A60EB0300C91E70F119
:109D3000000003D3B04948780CF0F8FC38BD10B5EA
:109D400000242DE004EB4401AA4800EB81100078C8
:109D5000012823D104EB4401A64800EB811090EDCB
:109D6000262BB0EE420AF0EE620A04EB4401A14851
:109D700000EB811090ED222BB0EE421AF0EE621A49
:109D800053EC102B51EC110B15F0D4F804EB4403F9
:109D9000984A02EB831242F8880F5160601CC4B2EB
:109DA000944808380078A042CCDC10BD38B5934800
:109DB00090F8200040B1914890F822000D2803DB74
:109DC0008F48C0785A2806DA8848D0E904108D4AAE
:109DD000C2E9001038BD8548D0E90430894A12CA6A
:109DE0005A1A60EB04004FF4347300219A1A81412F
:109DF00005D240208DF80000009808F0CCF800BF94
:109E0000E8E708B5012188070FF0C7FD012815D143
:109E10007D480078401C7C49087008460078052879
:109E20000CDB0020087001208DF80000009808F07D
:109E3000B2F800214FF080400FF080F9012188072F
:109E40000FF0BCFD08BD08B5012170480FF0A5FD5D
:109E5000012814D16E480078401C6D4908700846EE
:109E6000007805280BDB0020087003208DF8000027
:109E7000009808F090F8002164480FF05FF9012184
:109E800062480FF09BFD08BD38B5012161480FF015
:109E900084FD01287DD1FFF73FFDFFF750FFFFF75D
:109EA000BAFE564890F8200088B15048407A0A21FE
:109EB00090FBF1F201FB120048B95048407C0128A8
:109EC00005D002208DF80000009808F0A5F847485A
:109ED000D0E90410002359405840014312D04348B0
:109EE0004FF46162D0E90441204611F00CFE0021DC
:109EF0004A404B401A4305D115208DF800000098C8
:109F000008F049F83948D0E9041000235940584076
:109F1000014311D035480A22D0E90441204611F00E
:109F2000F2FD00214A404B401A4305D150208DF8E4
:109F30000000009808F02FF82C48D0E90410032303
:109F40005940014305D130208DF80000009808F0F9
:109F500022F8FFF76BFD2548D0E904100023594093
:109F60005840014318D021484FF49672D0E904417B
:109F7000204611F0C8FD00214A404B401A430BD146
:109F80001E4890F8200038B105208DF80000009898
:109F900000E051E008F040F8FFF708FF1E480078A5
:109FA000E8B912483C220023D0E90441204611F0D0
:109FB000AAFD00214A404B401A4310D10B48D0E97A
:109FC000041051405040014309D014480078032840
:109FD00005DA14208DF80000009807F0DCFF13204C
:109FE0008DF80000009807F0D6FF19E078010020F6
:109FF000C801002070030020300A0020500100201A
:10A00000200A002008000020730000200004004007
:10A010007000002000080040010000200500002022
:10A0200020208DF80000009807F0B5FF12208DF871
:10A030000000009807F0AFFF012102480FF0BEFCBE
:10A0400038BD0000000800402DE9F04389B0074604
:10A050000E469046202101A811F0C9FF0024A14618
:10A060001D2E03DD002009B0BDE8F0832046611CF1
:10A070008CB201A901F80080002507E07A5D204636
:10A08000611C8CB201A90A54681C85B2B542F5DB8B
:10A09000214601A802F05CFA81462046611C8CB280
:10A0A00001A901F800904FEA19222046611C8CB2E8
:10A0B00001A90A54E1B201A8FEF715FE0120D2E77A
:10A0C00010B5FC480078012804D1FB480178FB4812
:10A0D000FEF709FE002404E00020F8490855601C42
:10A0E00084B2F54800888442F6DB0020F2490880FB
:10A0F00002F00EFA10BD1CB5012110200EF06AFB13
:10A100000220009001208DF804008DF80600032045
:10A110008DF8050001208DF807006946E8480EF02B
:10A12000BBF80120E74908601CBD7CB5E648847D8A
:10A130000120E549487004EB840000EBC401E348CA
:10A1400000EB8100408904EB840101EBC402DF498C
:10A1500001EB8201097ACDE9001004EB840000EBE9
:10A16000C405DA4800EB8500C37904EB840000EBFA
:10A17000C405D64800EB8500827904EB840000EB2F
:10A18000C405D24800EB85004179D1A011F032FD21
:10A19000DA49D1E90401CC4AC2E902017CBD10B51B
:10A1A0000120C9494870D6A011F024FDD348D0E958
:10A1B0000410C54AC2E9021010BD70B504460E462F
:10A1C0004A202070532060700420A070E6700421A3
:10A1D000204602F0BDF905462571280A6071062067
:10A1E00070BD2DE9F04104460F461646052E02DAF1
:10A1F0000020BDE8F0814A202070532060700320C9
:10A20000A070E7700421204602F0A2F905462571EE
:10A21000280A60710620ECE770B5ADF5006D0546C3
:10A220004FF40061684611F0E2FE00260120A649C5
:10A230004870A5F1310009283BD2DFE800F00F0A91
:10A240000514191E262E3400684604F0D5FF064674
:10A250002FE0684605F0ADFA06462AE0684605F0AC
:10A2600000FC064625E0684604F09DFE064620E018
:10A27000684604F0B9FE06461BE04FF480620121F7
:10A280006846FFF7AEFF064613E04FF480620221F6
:10A290006846FFF7A6FF06460BE001216846FFF778
:10A2A0008CFF064605E002216846FFF786FF06465A
:10A2B00000BF00BF00240DE000BF9248008800F0FE
:10A2C00040000028F9D01DF804008E49091D0880BF
:10A2D000601C84B2B442EFDB40207B49087001204F
:10A2E00048708648D0E90410774AC2E902100DF59B
:10A2F000006D70BD1CB50120734948707348183853
:10A30000C08A72491839097DCDE900106F481838A4
:10A31000C37C827C417C6EA011F06CFC7749D1E952
:10A320000401694AC2E902011CBD2DE9F041E2B015
:10A33000802142A811F05BFE4FF4827101A811F058
:10A3400056FE40F201186048857D05EB850000EB64
:10A35000C5006D4901EB4010477900240CE005EB86
:10A36000850000EBC500684901EB4010801D005DD1
:10A37000304486B2601C84B205EB850000EBC5005A
:10A38000614901EB40104079A042E8DC34460DE021
:10A3900005EB850000EBC5005B4901EB40100E307A
:10A3A000005DA11B42AA5054601C84B205EB8500DD
:10A3B00000EBC500544901EB4010801DC05D3044E6
:10A3C000A042E5DC05EB850000EBC5000A4602EB88
:10A3D0004010801DC15D434601AA42A803F01DFC48
:10A3E00001A94AA011F006FC0A200DF07BFD1A21FC
:10A3F00044480EF05DFC4148D0E90410324AC2E9FD
:10A40000021062B0BDE8F08110B501202E494870FD
:10A4100044A011F0EFFB3948D0E904102A4AC2E900
:10A42000021010BD10B590B027488479082C00DBCD
:10A43000002404EB840000EBC402244800EB8201FA
:10A44000342203A811F0A1FD01201F494870BDF876
:10A4500016009DF81410CDE900109DF813309DF8FA
:10A4600012209DF8111032A011F0C4FB2348D0E94E
:10A470000410154AC2E9021010B010BD10B5012039
:10A480001149487035A011F0B5FB1C48D0E9041003
:10A490000D4AC2E9021010BD10B501200A494870EA
:10A4A00032A011F0A7FB1548D0E90410064AC2E912
:10A4B000021010BD1000002038010020342B0020B5
:10A4C000001002408402424250010020C8010020D6
:10A4D00041542B51494F50454E3D312C302C225484
:10A4E0004350222C2225752E25752E25752E257577
:10A4F000222C25752C302C320D0A0000780100200A
:10A500002B2B2B0000440040C00C002041542B5149
:10A510004953454E4445583D302C222573220D0A9F
:10A520000000000041542B43434C4B3F0D0A0000F8
:10A5300041542B51494F50454E3D312C302C225423
:10A540004350222C2225752E25752E25752E257516
:10A55000222C25752C302C310D0A000041542B5132
:10A56000494143543D310D0A0000000041542B5134
:10A570004944454143543D310D0A000010B50120C6
:10A58000F7494870F7A011F035FBFE48D0E90410F8
:10A59000F34AC2E9021010BD10B50120F04948701D
:10A5A000F9A011F027FBF748D0E90410EC4AC2E902
:10A5B000021010BD10B50120E9494870F6A011F055
:10A5C00019FBF048D0E90410E54AC2E9021010BDB9
:10A5D00010B50120E2494870F2A011F00BFB10BD4C
:10A5E00010B50120DE494870F1A011F003FBE548E9
:10A5F000D0E90410DA4AC2E9021010BD10B50120FA
:10A60000D7494870EDA011F0F5FADE48D0E9041002
:10A61000D34AC2E9021010BD10B50120D0494870DC
:10A62000E9A011F0E7FAD748D0E90410CC4AC2E912
:10A63000021010BD10B50120C9494870E5A011F005
:10A64000D9FAD048D0E90410C54AC2E9021010BDB9
:10A6500010B50120C2494870E0A011F0CBFAC948FA
:10A66000D0E90410BE4AC2E9021010BD10B50120A5
:10A67000BB494870DCA011F0BDFAC248D0E9041013
:10A68000B74AC2E9021010BD10B50120B4494870A4
:10A69000D7A011F0AFFABB48D0E90410B04AC2E924
:10A6A000021010BD10B5AE4800780E285AD00ADC52
:10A6B0000E2872D2DFE800F0282B2E31343A3D40CC
:10A6C00043464A4D5053352859D00EDC322853D0DA
:10A6D00006DC202849D030284AD031285DD14CE012
:10A6E000332848D0342858D148E042282BD006DC03
:10A6F000362846D0372843D041284ED146E050284E
:10A7000048D0FF2849D10EE0FFF7BEFF46E0FFF733
:10A71000BBFF43E0FFF7AAFF40E0FFF799FF3DE0F2
:10A72000FFF788FF3AE0FFF777FF37E0FFF766FFB4
:10A7300034E0FFF755FF31E0FFF74AFF2EE0FFF767
:10A7400039FF2BE000BFFFF727FF27E0FFF716FFD9
:10A7500024E0FFF7A1FE21E0FFF790FE1EE0FFF7E7
:10A7600061FE1BE0FFF750FE18E0FFF7DEFD15E08D
:10A77000FFF7C0FD12E000BF00BF00BF00BF00BF79
:10A7800000BF77490878FFF747FD07E0FFF707FDAF
:10A7900004E002E0FFF7C9FC00E000BF00BF10BD0D
:10A7A00000206F4948700871322048717047F0B539
:10A7B00087B005460020059006908FA000680490A1
:10A7C0000026002407E004A8025D3046711CCEB2CA
:10A7D0002A54601CC4B2042CF5DB42F20F700090C6
:10A7E000864803890521426805A803F099F80024EA
:10A7F00007E005A8025D3146701CC6B26A54601CB1
:10A80000C4B2052CF5DB11223046711CCEB22A549D
:10A810005C4887797807070E5A4800790A2190FB2F
:10A82000F1F047EA0010C7B25648007990FBF1F208
:10A8300001FB12003843C7B25248407A5149097AA5
:10A84000CDE9010700914F48C3794279052105A858
:10A8500003F0F8F8002407E005A8025D3046711CFB
:10A86000CEB22A54601CC4B2052CF5DB45490978E8
:10A87000A1F5FA61C8B201F0CBFE3146721CD6B226
:10A88000685450223046711CCEB22A548022304681
:10A89000711CCEB22A5400223A48417A007A8DE8DF
:10A8A00007003848C3794279052105A803F0CAF8A2
:10A8B000002407E005A8025D3046711CCEB22A5480
:10A8C000601CC4B2052CF5DB1421E81C01F024FE49
:10A8D00004463046711CCEB22C5416223046711CF0
:10A8E000CEB22A54304607B0F0BD7FB504460020F2
:10A8F0000290039042A0006801900026002507E026
:10A9000001A8425D3046711CCEB22254681CC5B20B
:10A91000042DF5DB42F20F700090384803890521C1
:10A92000426802A802F0FCFF002507E002A8425D91
:10A930003046711CCEB22254681CC5B2052DF5DB21
:10A9400002223046711CCEB22254F2223046711CD3
:10A95000CEB222540821E01C01F0DEFD054651E094
:10A960005001002041542B5149435347503D312C55
:10A97000312C22434D4E4554222C22222C22222CB3
:10A98000300D0A007801002041542B5149434C4FAF
:10A9900053453D300D0A000041542B434F50533F67
:10A9A0000D0A000041542B43475245473F0D0A0012
:10A9B00041542B435245473F0D0A000041542B435D
:10A9C00050494E3F0D0A000041542B43545A553D07
:10A9D000310D0A004154490D0A00000041542B4337
:10A9E00053510D0A00000000415445300D0A00008B
:10A9F00041540D0A00000000681468B0B001002046
:10AA0000680868B03046711CCEB225541622304614
:10AA1000711CCEB22254304604B070BD7FB50446DE
:10AA2000002002900390AFF22800006801900026F9
:10AA3000002507E001A8425D3046711CCEB22254C9
:10AA4000681CC5B2042DF5DB42F20F700090F84887
:10AA500003890521426802A802F062FF002507E091
:10AA600002A8425D3046711CCEB22254681CC5B2A9
:10AA7000052DF5DB02223046711CCEB22254F022A5
:10AA80003046711CCEB222540821E01C01F044FD76
:10AA900005463046711CCEB2255416223046711C34
:10AAA000CEB22254304604B070BD2DE9F043A1B0BF
:10AAB0000746802101A811F09AFA4FF00008DD48FE
:10AAC000857D0026B146DC4800783843DA490870B5
:10AAD0000120D8494870012F06D0022F09D0042F39
:10AAE0000CD0082F66D10EE001A8FFF797FF804633
:10AAF00063E001A8FFF7F9FE80465EE001A8FFF7DA
:10AB000056FE804659E005EB850000EBC500CB49B9
:10AB100001EB4010407905EB850101EBC501C74A07
:10AB200002EB41110979884201DB4FF00109B9F1CB
:10AB3000000F3ED105EB850000EBC500BF4901EBDE
:10AB40004010801D05EB850101EBC501BB4A02EBFE
:10AB50004111497910F8018000240CE005EB8500D3
:10AB600000EBC500B54901EB4010801D005D30448D
:10AB700086B2601C84B205EB850000EBC500AF49CE
:10AB800001EB40104079A042E8DC34460DE005EBD3
:10AB9000850000EBC500A94901EB40100E30005DB7
:10ABA000A11B01AA5054601C84B206EB0800A0420D
:10ABB000EDDC02E04FF0010900BF00BFB9F1010F69
:10ABC00002D121B0BDE8F08364200DF08BF90024A0
:10ABD0000DE000BF9A48008800F040000028F9D03E
:10ABE00001A8005D9649091D0880601C84B2444597
:10ABF000EFDB51208F490870012048709148D0E95F
:10AC000004108C4AC2E9021000BFDAE73EB5894859
:10AC1000847D8DA207CA8DE807000C258548407CFD
:10AC200048B9092083490870012182484174C174E0
:10AC3000FFF7B6FD3FE17F48407C01287DD17D488C
:10AC4000407820B9FFF7ACFDFFF72CFD33E17948E0
:10AC50004078022861D177488078012842D1754830
:10AC60000078092811D17348C07C012807D15020F1
:10AC70007049087000204870FFF714FD1BE10221A5
:10AC80006C4841740121817415E16A4800785028AC
:10AC900019D1012104EB840000EBC4026448183090
:10ACA00000EB82000171002104EB840000EBC40280
:10ACB0005F48183000EB8200018651205D49087022
:10ACC00001204870F7E05B4800784128B2D10920A4
:10ACD00058490870FFF764FD02215648C174FFF718
:10ACE000E1FCE8E0534880780028A3D1514800797E
:10ACF00006280CDC4F48C078002802DCFFF7D2FCA5
:10AD0000D9E04C48C078401E4A49C870D3E00221BF
:10AD10004848417400218174CDE0464840780128BC
:10AD200088D144480078502842D14648D0E90420D0
:10AD3000404BD3E90213511A00E0B3E060EB03008B
:10AD40000A3970F1000099D3022104EB840000EB72
:10AD5000C4023748183000EB8200017104EB840014
:10AD600000EBC4013248183000EB8100008E05284A
:10AD700013DA04EB840000EBC4012D48183000EB1B
:10AD80008100008E401C81B204EB840000EBC40201
:10AD90002748183000EB82000186092025490870F9
:10ADA000FFF7FEFC02212348C174FFF77BFC82E021
:10ADB0002048007851284DD12248D0E904301D4A5E
:10ADC000D2E90212591A60EB0200C91E70F10000AC
:10ADD00019D31948007800F0010018B90120FFF7D5
:10ADE00064FE10E01448007800F0040018B9042054
:10ADF000FFF75BFE07E01048007800F0080010B98C
:10AE00000820FFF752FE0F48D0E90410094AD2E9A2
:10AE10000232C91A60EB0200491F70F100004AD3E8
:10AE2000412004490870FFF7BBFCFFF73BFC42E000
:10AE3000B00100205001002083000020C00C002041
:10AE400000440040780100206868686868686868A5
:10AE500068686868FE48007841282CD1FD48D0E930
:10AE60000410FB4BD3E90223891A60EB0300C91ECF
:10AE700070F100001FD3F6480079022807DCFFF7C5
:10AE800011FCF3480079401CF149087113E00920D6
:10AE9000EF490870FFF784FC0221ED48C174FFF709
:10AEA00001FC08E0EA48407C022804D1E848807CA4
:10AEB000012800D000BF3EBD08B5E548407C48B938
:10AEC0000920E34908700121E1484174C174FFF78A
:10AED00067FCE9E0DE48407C012873D1DC4840781B
:10AEE00020B9FFF75DFCFFF7DDFBDDE0D8484078D7
:10AEF00002286FD1D648807801284ED1D4480078F6
:10AF0000092825D1D248C07C01280DD1D148D0E9EB
:10AF10000410D14AC2E900103020CD490870002049
:10AF20004870FFF7BFFBBFE00221C948417401210F
:10AF30008174CA480078012803D0C94800780128E4
:10AF4000C7D140208DF80000009807F024F8ABE04E
:10AF5000BF480078302811D1BD48C078002807DCF0
:10AF60003120BB490870FFF71BFCFFF79BFB9BE000
:10AF7000B748C078401EB649C87095E0B44800781C
:10AF80004128A6D10920B2490870FFF709FC022127
:10AF9000AF48C174FFF786FB86E0AD488078002893
:10AFA00097D1AB48007906280EDCA948C078002864
:10AFB00002DCFFF777FB77E0A548C078401EA44984
:10AFC000C87071E067E005E00221A14841740021EA
:10AFD000817469E09E484078012865D19C480078DA
:10AFE000302817D19B48D0E90430994AD2E902129F
:10AFF000591A60EB0200143970F1000054D3092093
:10B0000093490870FFF7CCFB02219148C174FFF708
:10B0100049FB49E08E480078402814D18D48D0E99A
:10B0200004108B4AD2E90232CB1A60EB02005A1F9D
:10B0300070F1000038D3412085490870FFF7B0FB5C
:10B04000FFF730FB30E08248007841282CD181485E
:10B05000D0E904107E4BD3E90223891A60EB030088
:10B06000C91E70F100001FD379480079022807DC5F
:10B07000FFF718FB76480079401C7549087113E00A
:10B08000092073490870FFF78BFB02217048C174D7
:10B09000FFF708FB08E06E48407C022804D16C48AA
:10B0A000807C012800D000BF08BD10B5022168488F
:10B0B000C17409206649087000204870FFF7F2FA51
:10B0C00010BD70B56248847D407C80B9092060491C
:10B0D000087001215E484174FFF762FB0A205C4959
:10B0E000487101215A48C174FFF7DCFAA4E15848BD
:10B0F000407C01287DD15648407838B9FFF750FB95
:10B100000A2053494871FFF7CDFA95E1504840783D
:10B1100002286FD14E48807801286CD14C480078C5
:10B12000092811D14A48C07C012807D10D2048497F
:10B13000087000204870FFF7B5FA7DE1022144480D
:10B1400041740121817477E1414800780D2828D1AC
:10B1500001213F48807D00EB800202EBC0024148A4
:10B1600000EB82000171002104EB840000EBC402BB
:10B170003C4800EB820001863B48007848B104EB74
:10B18000840101EBC401394A02EB411021460CF065
:10B1900040FD20202E49087000204870FFF782FAF9
:10B1A0004AE12B48007820280BD12A48D0E9041026
:10B1B000274AC2E902102120114608700120487078
:10B1C0003AE123480078212890D104EB840000EB79
:10B1D000C400264901EB40104079401C04EB840177
:10B1E00001EBC401214A02EB4111487104EB8400D8
:10B1F00002E018E16AE019E000EBC400114601EB3F
:10B200004010407904EB840101EBC40102EB4111D1
:10B210000979884202DBFFF748FF0DE120200C4945
:10B22000087000204870FFF73DFA05E10848807873
:10B23000002888D1064840790549097988421DDBF4
:10B240000348C078002813DCFFF72CFAF4E0000074
:10B250005001002078010020080000200300002099
:10B2600084000020C801002001000020C00C002044
:10B27000F748C078401EF649C870DDE0FFF715FFBB
:10B28000022104EB840000EBC402F24800EB8200D0
:10B29000017104EB840000EBC401EE4800EB810077
:10B2A000008E05288CDA04EB840000EBC401E94829
:10B2B00000EB8100008E401C81B204EB840000EBA7
:10B2C000C402E44800EB82000186B5E0E048407823
:10B2D0000128A2D1DE4800780D2835D1DE48D0E91A
:10B2E0000430DB4AD2E902125B1A60EB020014223E
:10B2F0009A1A70F1000026D3FFF7D7FE022104EB63
:10B30000840000EBC402D34800EB8200017104EB1F
:10B31000840000EBC401CF4800EB8100008E0528BB
:10B3200011DA04EB840000EBC401CA4800EB810091
:10B33000008E401C81B204EB840000EBC402C548BF
:10B3400000EB8200018677E0C1480078212873D1A4
:10B3500004EB840000EBC401BE4800EB81004078A0
:10B36000012826D1BC48D0E90410B94AD2E90232FA
:10B37000CB1A60EB02000A229A1A70F100005BD32C
:10B3800004EB840101EBC401B44A02EB4110042236
:10B39000032102F014FB0546002D07DD2020AC49F7
:10B3A000087000204870FFF77DF945E0FFF77DFE4B
:10B3B00042E0A948D0E90410A54BD3E902268B1A34
:10B3C00060EB06005A1E70F1000035D304EB8400D8
:10B3D00000EBC400A14901EB40104079401C04EB94
:10B3E000840101EBC4019D4A02EB4111487104EB59
:10B3F000840000EBC400114601EB4010407904EBDF
:10B40000840101EBC40102EB41110979884202DB9E
:10B41000FFF74BFE10E020208D4908700020487097
:10B42000FFF740F908E08A48407C022804D18848A8
:10B43000807C012800D000BF70BD10B58448407CDE
:10B4400050B90E2082490870FFF7AAF9FFF72AF9D0
:10B4500001217F4841745BE07D48407C01284ED14A
:10B460007B48407820B9FFF79BF9FFF71BF94FE0C5
:10B4700077484078022826D175488078012805D180
:10B480000221734841740121817441E07048807841
:10B4900000283DD16E4840796D49097988420CDB1E
:10B4A0006B48C078002802DCFFF7FCF830E0684801
:10B4B000C078401E6649C8702AE002216448417481
:10B4C0000021817424E062484078012820D162483C
:10B4D000D0E904105E4AD2E90232C91A60EB0200D8
:10B4E0000A3970F1000013D3022159484174002138
:10B4F00081740220564948700020887008E0544842
:10B50000407C022804D15248807C012800D000BF32
:10B5100010BD10B54E48407C50B903204C4908700E
:10B52000FFF73EF9FFF7BEF801214948417459E0A1
:10B530004748407C01284CD14548407820B9FFF766
:10B540002FF9FFF7AFF84DE041484078022823D1AA
:10B550003F488078012805D102213D4841740121EE
:10B5600081743FE03A48807890BB394800790528DB
:10B570000CDC3748C078002802DCFFF793F831E094
:10B580003348C078401E3249C8702BE00221304851
:10B5900041740021817425E02D484078012821D193
:10B5A0002D48D0E904302A49D1E902219B1A60EBE9
:10B5B00001000A229A1A70F1000013D302212448D4
:10B5C0004174002181740220214948700020887054
:10B5D00008E01F48407C022804D11D48807C0128D7
:10B5E00000D000BF10BD02201949487000208870AB
:10B5F00008460079401C087108464079097988425C
:10B6000013DB134800790A2803DC01201049C870B5
:10B610000EE00F480079322803DC05200C49C87081
:10B6200006E064200A49C87002E000200849C8709A
:10B63000704710B50648407C90B901200449087055
:10B64000FFF7AEF8FFF72EF801210148417492E0B0
:10B6500050010020C801002078010020C00C00200B
:10B66000F648407C01286AD1F448407820B9FFF7B9
:10B6700097F8FFF717F87EE0F0484078022838D1B5
:10B68000EE488078012817D1EC4800780C2809D1C1
:10B690000120EA4981F820000221E8484174012193
:10B6A000817468E0E5480078401CE4490870FFF7C1
:10B6B00077F8FEF7F7FF5EE0E048807800285AD17F
:10B6C000DE484079DD49097988420CDBDB48C078E7
:10B6D000002802DCFEF7E6FF4DE0D848C078401EA7
:10B6E000D649C87047E00221D448417400218174D2
:10B6F00041E0D248407801283DD1D148D0E904202A
:10B70000CE49D1E90231D31A60EB01000A229A1A1C
:10B7100070F100002FD3C94800790A2804DCFFF734
:10B7200062FFFEF7BFFF26E00221C44841740021FA
:10B7300081740220C1494870002088701BE0BF4816
:10B74000407C022817D1BD48807C012813D0BB481B
:10B75000807C80B9B94890F82100012809DC00F00C
:10B7600069F8B64890F82100401CB44981F82100DE
:10B7700001E000F03CF810BD08B5B048407C18B1BD
:10B78000AE48407C022813D1684606F025FC01280B
:10B790000ED19DF80000A94908740021A748417402
:10B7A0009DF80100A54988719DF80110A348817595
:10B7B000A248007C072817D2DFE800F01604070A29
:10B7C0000D101300FFF735FF0FE0FFF7A2FE0CE0AE
:10B7D000FFF733FE09E0FFF774FC06E0FFF76CFBB0
:10B7E00003E0FFF713FA00E000BF00BF08BD10B58B
:10B7F000012092490874002190484174017501218B
:10B8000081740021C17401208C49087000204870A7
:10B81000087132204871012088700020C87081F8BA
:10B82000220081F8230081F8200081F82100FFF731
:10B83000A3FF10BD10B501208249086032200CF032
:10B8400051FB00208049C1F884020A200CF04AFB19
:10B850007A4890F82100401CC4B206F0FEFBFFF7C6
:10B86000C6FF764880F8214010BD08B512208DF83B
:10B870000000009806F08FFB08BD02206F49487059
:10B8800001208870002008710120C870704710B531
:10B890006EA16F4810F022FB044614B9FFF7A3FE17
:10B8A00001E0FFF7EAFFFEF70BFCFFF765FF10BDB5
:10B8B0002DE9F047002600270025A94665A1644828
:10B8C00010F00CFB8046B8F1000F02D1FFF78BFEA1
:10B8D00038E0FFF7D2FF00242AE05D48005D302801
:10B8E0001ADB5B48005D392816DC4FF0010945B9C9
:10B8F0005748005D303806EB860100EB4100C6B2C8
:10B9000014E0012D12D15248005D303807EB870159
:10B9100000EB4100C7B209E0B9F1000F01D0681C8B
:10B92000C5B2012D00DD07E04FF00009601CC4B274
:10B930004A4800888442D0DB00BF404880F822603B
:10B9400080F82370FEF7BCFBFFF716FFBDE8F08719
:10B9500010B543A13E4810F0C1FA044614B9FFF7F0
:10B9600042FE01E0FFF789FFFEF7AAFBFFF704FFA5
:10B9700010BD70B53EA1364810F0B0FA04463FA1A4
:10B98000334810F0ABFA05461CB915B9FFF72BFE8A
:10B9900001E0FFF772FFFEF793FBFFF7EDFE70BDCE
:10B9A00070B539A12A4810F099FA044639A12848FF
:10B9B00010F094FA05461CB915B9FFF714FE01E022
:10B9C000FFF75BFFFEF77CFBFFF7D6FE70BD10B5FF
:10B9D0001EA11F4810F082FA044614B9FFF703FEB7
:10B9E00001E0FFF74AFFFEF76BFBFFF7C5FE10BD56
:10B9F00010B516A1164810F071FA044614B9FFF7F5
:10BA0000F2FD01E0FFF739FFFEF75AFBFFF7B4FE46
:10BA100010BD10B50DA10E4810F060FA044614B91F
:10BA2000FFF7E1FD05E00120044981F82000FFF760
:10BA300024FFFEF745FBFFF79FFE10BD50010020DD
:10BA40007801002084024242000042424F4B000035
:10BA5000342B00202B4353513A00000038010020C2
:10BA60002B4350494E3A20524541445900000000B2
:10BA70002B435245473A20302C3100002B4352458E
:10BA8000473A20302C3500002B43475245473A2097
:10BA9000302C31002B43475245473A20302C35009B
:10BAA00010B5FFF7EAFEFEF70BFBFFF765FE10BDD2
:10BAB0002DE9F04F93B0002011900025002680461C
:10BAC000814600278246834600241090F6A1F8485C
:10BAD00010F004FA1290129830B91120F54981F84B
:10BAE0003000FFF780FDE2E01020F24981F83000DD
:10BAF000FFF7C3FE00246FE01198A0B9EC48005D89
:10BB0000302867DBEA48005D392863DC01201190AA
:10BB100001251090E648005D303806EB860100EB09
:10BB20004100C6B256E0E248005D302849DBE048FB
:10BB3000005D392845DC01201090072D3FD2DFE859
:10BB400005F03E040D17212A3400D948005D303835
:10BB500006EB860100EB4100C6B231E0D448005D3F
:10BB6000303808EB880100EB410000F0FF0827E0C7
:10BB7000CF48005D303809EB890100EB410000F04F
:10BB8000FF091DE0CA48005D303807EB870100EB74
:10BB90004100C7B214E0C648005D30380AEB8A01A4
:10BBA00000EB410000F0FF0A0AE0C148005D3038B8
:10BBB0000BEB8B0100EB410000F0FF0B00E000BF3E
:10BBC00008E0109830B1681CC5B2062D00DD07E012
:10BBD00000201090601CC4B2B748008884428BDB00
:10BBE00000BF02968DF80C808DF80D908DF80F70C7
:10BBF0008DF810A08DF811B002A800F072FD0120A0
:10BC00000FF0E1F9082F4FDA9DF80F008DF80000D2
:10BC10009DF810008DF801009DF811008DF80200CC
:10BC20009DF80F000C2801DB402000E000208DF87B
:10BC30000300694600200EF069FC01A900200EF007
:10BC400069FD9DF807000299884219D19DF8050009
:10BC50009DF80C10884201D0012000E000209DF8E2
:10BC600006109DF80D20914201D0012100E0002135
:10BC7000084328B99DF804009DF80E10884213D09F
:10BC80000298C0B28DF807009DF80C008DF80500F1
:10BC90009DF80D008DF806009DF80E008DF804004B
:10BCA00001A900200EF0D0FC00200FF08CF9FEF767
:10BCB00007FAFFF761FD13B0BDE8F08F10B57FA163
:10BCC0007B4810F00BF904465CB980A1784810F06D
:10BCD00005F9044614B9FFF786FC0DE0FFF7CDFD2A
:10BCE0000AE07CA1724810F0F9F8044614B9FFF795
:10BCF000C4FD01E0FFF777FCFEF7E2F9FFF73CFD3A
:10BD000010BD10B5AFF2BC21694810F0E7F8044649
:10BD10008CB970A1664810F0E1F8044614B9FFF739
:10BD200062FC0AE009206D490870FEF739FD022126
:10BD30006A48C17401E0FFF7A0FDFEF7C1F9FFF703
:10BD40001BFD10BDF0B5ADF2044D002400254FF4ED
:10BD5000806101A810F04BF9002661A1544810F051
:10BD6000BDF80746FFF789FDFEF7AAF90DF2044D6D
:10BD7000F0BDF8B55CA000680090002600275B4885
:10BD8000007870B3FF224C480188494800F016FC47
:10BD900004461CB93720FEF73FFA63E044480078B8
:10BDA00000EB4001C1EB802543480088C01E82B2F1
:10BDB00001233F49284605F0E5FB4D480078401C2B
:10BDC0004B4908703620FEF727FA49480078494960
:10BDD0000978884246DB04226946474805F0F5FBAE
:10BDE00040E0FFE7002234480188314800F0E6FBDC
:10BDF00004461CB93520FEF70FFA33E0012C03D1BD
:10BE00003120FEF709FA2DE0022C0FD1022128483B
:10BE100003F092F83948007820B1394A39493A4854
:10BE20000BF012FB3420FEF7F7F91BE0032C11D1C5
:10BE300001202E4908701E48C0782E490870002045
:10BE40002B4908703149087005F073FB3620FEF766
:10BE5000E3F907E0042C05D101202D4908703820B2
:10BE6000FEF7DAF90CB1FE2C13D12AA1104810F01C
:10BE700035F8064617A10E4810F030F8074606B907
:10BE80003FB1092015490870FEF78AFC02211348CA
:10BE9000C174FE2C05D00748D0E904100F4AC2E94E
:10BEA0000210FEF70DF9F8BD2B43434C4B3A00004E
:10BEB000342B002078010020380100202B51494FFD
:10BEC00050454E3A20302C3000000000434F4E4E7B
:10BED00045435400636C6F7365640000500100209B
:10BEE0002B514955524300004A53030103000020DF
:10BEF000810000208000002000FF070801000020D2
:10BF0000200A0020B00100206803002082000020E9
:10BF1000840000204E4F20434152524945520000B8
:10BF200010B5FFF7AAFCFEF7CBF810BD01460020C4
:10BF3000F74A525C682A23D1F54B01F109029A5C59
:10BF4000022A0ED101F10A029A5CF02A01D10120E5
:10BF500016E0EF4B01F10A029A5CF22A10D102209E
:10BF60000EE0EB4B01F109029A5C112A01D1042089
:10BF700006E0E74B01F109029A5CC02A00D10820D3
:10BF800070472DE9F05F0026002700244FF00109DB
:10BF9000A246E048857DA346DF4800880A2803DCE6
:10BFA000FEF78EF8BDE8F09FD948007868283BD1AD
:10BFB000D9480088172805DDD548407800F1050AE2
:10BFC0004FF0020900242DE004FB0AF188B2FFF7CC
:10BFD000ADFF0746082F22D105EB850000EBC50019
:10BFE000CE4901EB40104079401C05EB850101EB87
:10BFF000C501CA4A02EB4111487105EB850000EB0F
:10C00000C500114601EB4010407905EB850101EBBD
:10C01000C50102EB41110979884200DB00273E434C
:10C02000601CC4B24C45CFDBAFF25811B8480FF0DA
:10C0300055FF8046AFF22411B5480FF04FFF8346FD
:10C04000B8F1000F02D1BBF1000F1CD0002005EBAE
:10C05000850101EBC501B14A02EB41114871B048BD
:10C06000007840B105EB850101EBC50102EB411001
:10C0700029460BF04CFE0920A6490870FEF790FBFC
:10C080000221A448C174FEF71BF8012407E006EA68
:10C09000040010B12046FEF708FD6006040E102CC7
:10C0A000F5DB00BF7EE770B59A48847D0026AFF2CD
:10C0B000E41197480FF012FF054615B9FFF793FA00
:10C0C0003FE0AFF2F01192480FF008FF0546ADBB1C
:10C0D0009348007848B104EB840101EBC4018F4A16
:10C0E00002EB411021460BF094FD8B480088401E66
:10C0F0008749085C162800D101260020894908706C
:10C10000012104EB840000EBC402874800EB8200AD
:10C110000171002104EB840000EBC402824800EBB3
:10C120008200018651207B490870012048707F48B9
:10C13000D0E90410774AC2E9021002E0FFE7FFF7F6
:10C1400052FAFDF7BDFF16B10120FEF7AEFCFFF776
:10C1500013FB70BD10B56F480078202854D00BDC5D
:10C160000F2868D2DFE800F067292F2C31373A3DDD
:10C170003233404346494D0035284AD00EDC322840
:10C1800044D006DC212847D0302837D0312852D17E
:10C190003DE0332839D034284DD139E0502844D0FF
:10C1A00006DC40283BD041283CD0422843D10FE058
:10C1B00051283DD0FF283ED106E0FFF768FB3BE069
:10C1C000FFF776FB38E000BF00BF00BF00BF00BF35
:10C1D000FFF766FC30E0FFF7BBFB2DE0FFF7C9FB84
:10C1E0002AE0FFF7DDFB27E0FFF7F1FB24E0FFF794
:10C1F000FFFB21E0FFF70DFC1EE000BFFFF75EFD37
:10C200001AE0FFF755FC17E000BF00BF00BF00BFFA
:10C2100000BFFFF776FD0FE0FFF794FD0CE0FFF79E
:10C22000A8FD09E0FFF77CFE06E0FFF73CFF03E016
:10C23000FFF7A7FE00E000BF00BF10BD70B50446C9
:10C24000FF253BA00FF0D6FC64200BF04BFE2146EF
:10C250003BA00FF0CFFC64200BF044FE1A213948BC
:10C260000CF026FD00BF402136480CF0D1FD00281F
:10C27000F9D064200BF036FE33A125480FF02EFED6
:10C280003349086008E030A121480FF027FE30490B
:10C2900008600A200BF026FE2D4800680028F2D026
:10C2A00064200BF01FFEFDF70BFF2AA00FF0A2FC8D
:10C2B000C8200BF017FE2BA115480FF00FFE2449E4
:10C2C00008601FE023A00FF095FCC8200BF00AFEC9
:10C2D00024A10F480FF002FE1D49086024A11C484C
:10C2E00000680FF0FBFD1A49086021A1184800689A
:10C2F000401C0FF0F3FD16490860084600684078BE
:10C300003038C5B2002DDDD1FDF7DAFE70BD00007A
:10C31000342B00205001002038010020C00C0020E8
:10C320000100002083000020C801002078010020C7
:10C3300041542B514953454E443D300D0A000000F5
:10C34000257300000044004053454E44204F4B00ED
:10C350007400002041542B514953454E443D302C2C
:10C36000300D0A002B514953454E443A000000005D
:10C370002C00000070B50446FF251D20474981F8B8
:10C380002300084690F82000012800D070BD44A08A
:10C390000FF030FC4FF4FA700BF0A4FD21464D482D
:10C3A0000FF028FC0A200BF09DFD1A214A480CF0E2
:10C3B0007FFC64200BF096FD48480FF01BFC0A2020
:10C3C0000BF090FDFDF77CFE00BFDFE730B5C1B09C
:10C3D000002040904FF4807168460FF008FE002462
:10C3E000002512E03E48025D3EA140A80FF00EFC81
:10C3F0009DF8002128466D1C0DF800209DF80121B4
:10C4000028466D1C0DF80020641C322CEADB00204D
:10C410000DF805006846FFF7ADFFFDF751FE41B08E
:10C4200030BD2DE9F041ADF5027D06460F464FF4D3
:10C43000007102A80FF0DBFD002001900024002510
:10C440004FF0FF0800BF10E0325D26A101A80FF0F9
:10C45000DDFB9DF8042028466D1C02A90A549DF8B6
:10C46000052028466D1C0A54641CBC42ECD30020F5
:10C4700002A9485517480FF0BDFB0A200BF032FD0A
:10C480001A2115480CF014FC0A200BF02BFDFDF7C7
:10C4900017FE0DF5027DBDE8F0810000500100207F
:10C4A00041542B51494F50454E3D312C302C225494
:10C4B0004350222C223131352E3233362E31353352
:10C4C0002E313730222C34383530302C302C310D91
:10C4D0000A0000000CA500080044004088A90008DC
:10C4E000342B0020253032780000000070B505465E
:10C4F0000C4645F255500DF03DFB28460DF03DFB36
:10C5000020460DF03DFB0DF03EFB0DF041FB70BDF4
:10C5100010B50DF038FB10BD30B502460B460020BB
:10C52000002112E0555C684008240BE000F0800513
:10C5300025B14506280E80F0E50001E04506280EED
:10C54000651EECB2002CF1DC491C9942EAD330BDE7
:10C5500070B502460B464FF6FF70002110E0565CA6
:10C560007040002408E000F00105401015B14AF2C7
:10C5700001067040661CB4B2082CF4DB4E1CB1B24C
:10C580009942ECDB70BD30B502460B464FF0FF31EF
:10C590000FE012F8010B4140002408E001F0010017
:10C5A0004042FE4D284080EA5101601CC4B2082C74
:10C5B000F4DB581E031EECDAC84330BDF0B5044668
:10C5C0000D461746052D01D20020F0BDFF2F07D0E4
:10C5D00020784A2802D16078532801D0FE20F4E761
:10C5E000A81E81B22046FFF7B3FF0646F1B2A81E8F
:10C5F000205C814204D1681E205CB0EB162F01D074
:10C600000020E2E7FF2F01D0A078DEE70120DCE781
:10C610000146002204E0501CC2B2A1F10A00C1B2DE
:10C620000A29F8DA100741EA1060704730B5014670
:10C6300000200122012313E0022B03DB4FF6FF74DD
:10C6400004EA02120A2491FBF4F504FB151404FB1E
:10C650000204A0B20A2491FBF4F4A1B25C1CA3B2C0
:10C660000029E9DC30BD10B501460020012201237C
:10C670000AE0022B02D302EB8204620001F00F04F5
:10C6800004FB020009095B1C0029F2D110BD70B542
:10C6900003460020012901D0022903D101F10C0435
:10C6A000E1B25B1E4C1C04EB4404052594FBF5F53C
:10C6B000541C022606FB01442C441C4404EB930446
:10C6C0006425B3FBF5F5641B4FF4C875B3FBF5F5B2
:10C6D0002C440725B4FBF5F605FB164000B90720EE
:10C6E00070BD30B5044600252079012811D020798D
:10C6F00003280ED0207905280BD02079072808D0F0
:10C700002079082805D020790A2802D020790C2821
:10C7100001D11F2526E02079042808D02079062899
:10C7200005D02079092802D020790B2801D11E25B7
:10C7300018E02079022815D14FF4C8712068B0FBA9
:10C74000F1F201FB120050B1207800F0030040B973
:10C7500064212068B0FBF1F201FB120008B11D2535
:10C7600000E01C25E0790830E071E079182813DB3F
:10C77000E0791838E0716079401C60716079A842F6
:10C780000ADD012060712079401C207120790C287D
:10C7900002DD2068401C2060627921792068FFF763
:10C7A00076FFA07130BD012101709FED7D0B80ED02
:10C7B000020B9FED7D0B80ED040B9FED790B80ED5F
:10C7C000160B9FED770B80ED0A0B9FED750B80ED3F
:10C7D000100B9FED730B80ED180B9FED750B80ED2B
:10C7E0000C0B42F2107101879FED730B80ED060B6D
:10C7F0009FED730B80ED120B9FED690B80ED080B25
:10C800009FED670B80ED140B0A2180F868107047CC
:10C810009FED630B80ED000B9FED610B80ED040B32
:10C820009FED5F0B80ED020B9FED5D0B80ED060B26
:10C830009FED5B0B80ED080B9FED590B80ED0A0B14
:10C840009FED570B80ED0C0B704700B502460120A1
:10C850001070507000201071012090700020D07076
:10C860000120107202F18800FFF7D2FF02F11800D8
:10C87000FFF799FF00BD10B5034600201870002493
:10C8800009E004EB440203F1080101EB8210FFF719
:10C89000DCFF601CC4B2062CF3DB10BD0FB42DED21
:10C8A000020B30B52DED108B8FB0B0EE40CAF0EE1C
:10C8B00060CA419D409C9DED281BB0EE410AF0EE00
:10C8C000610A9FED371B53EC112B51EC100B12F04A
:10C8D00045FD30D09DED341BB0EE410AF0EE610A0B
:10C8E0009FED2F1B53EC112B51EC100B12F036FD6A
:10C8F00021D09DED2C2BB0EE420AF0EE620A9DEDA8
:10C900002E2BB0EE421AF0EE621A53EC102B51ECC3
:10C91000110B12F023FD15D19DED2E1BB0EE410A37
:10C92000F0EE610A9FED1E1B53EC112B51EC100B26
:10C9300012F014FD06D101200FB0BDEC108B30BCFD
:10C940005DF81CFB9DED261BB0EE410AF0EE610A7E
:10C950009FED131B53EC112B51EC100B12F0C2FD89
:10C9600003D29FED0F0B8DED260B9DED301BB0EE2E
:10C97000410AF0EE610A53EC1C2B51EC100B12F043
:10C98000F9FF41EC190B9DED261BB0EE410AF0EECC
:10C99000610A53EC102B51EC190B15E02083B8ED14
:10C9A00000000000000000000AD7A3703D0A973F76
:10C9B00000000000000024402D431CEBE2361A3F2B
:10C9C000000000000000E03F12F08CFD0CD39DED54
:10C9D000341BB0EE410AF0EE610A53EC102B51EC1F
:10C9E000190B12F0B9FE01D20220A5E79DED261B1E
:10C9F000B0EE410AF0EE610A53EC102B51EC190B2A
:10CA000012F0B8FF41EC1B0B9DED2C2BB0EE420A4F
:10CA1000F0EE620A9DED2E2BB0EE421AF0EE621A95
:10CA200053EC102B51EC110B12F098FC10D19DED32
:10CA30002C0BB0EE40AAF0EE60AA9DED2E0BB0EEEE
:10CA4000408AF0EE608AB0EE4BFAF0EE6BFAC9E085
:10CA50009DED2C2BB0EE420AF0EE620A9DED2E2BDE
:10CA6000B0EE421AF0EE621A53EC102B51EC110B9F
:10CA700012F080FFCDE908019DED341BB0EE410AB4
:10CA8000F0EE610A53EC102B9DED081B51EC110BDD
:10CA900012F00CFBCDE90A019DED261BB0EE410A18
:10CAA000F0EE610A53EC102B9DED0A1B51EC110BBB
:10CAB00012F054FDCDE908019DED2E1BB0EE410AA8
:10CAC000F0EE610A53EC102B9DED081B51EC110B9D
:10CAD00012F078FE41EC180B53EC192B9DED0A0B6C
:10CAE00051EC100B12F03AFDCDE908019DED2E1B23
:10CAF000B0EE410AF0EE610A53EC102B9DED081BDD
:10CB000051EC110B12F05EFE41EC1A0B9DED342B33
:10CB1000B0EE420AF0EE620A9DED342BB0EE421AFE
:10CB2000F0EE621A53EC102B51EC110B12F016FDC3
:10CB300053EC1A2BCDE9080151EC180B12F01AFF37
:10CB400053EC1A2BCDE9020151EC180B12F012FF35
:10CB5000CDE900019DED020B53EC102B9DED000B78
:10CB600051EC100B12F0FAFC9FEDFE0B53EC102B66
:10CB7000CDE904019DED040B51EC100B12F096FA77
:10CB8000CDE906019DED080B53EC102B9DED060B36
:10CB900051EC100B12F0CEF941EC1D0B1FED781B80
:10CBA000B0EE4D0AF0EE6D0A10F06EFC8DED060B46
:10CBB00053EC1B2B9DED060B51EC100B12F0CEFC31
:10CBC000CDE908019DED341BB0EE410AF0EE610A9B
:10CBD00053EC102B9DED081B51EC110B12F066FA73
:10CBE00041EC1F0B53EC1A2B51EC180B12F0A2F96D
:10CBF00053EC1B2BCDE906019DED060B51EC100B00
:10CC000012F0ACFC9FEDD90B53EC102BCDE90801D1
:10CC10009DED080B51EC100B12F048FA41EC1E0B85
:10CC20009FEDD20B53EC102B51EC1F0B12F096FC26
:10CC300053EC182BCDE906019DED060B51EC100BC2
:10CC400012F078F9CDE908019DED080B53EC102B9B
:10CC500051EC1E0B12F02AFA41EC1D0B9FEDC51B87
:10CC6000B0EE4D0AF0EE6D0A10F00EFC8DED080BE3
:10CC70009DED281BB0EE410AF0EE610A53EC102B3B
:10CC80009FEDBE1B51EC110B12F010FACDE906011D
:10CC90009DED080B53EC102B9DED060B51EC100B8A
:10CCA00012F05CFCCDE90C019DED2A1BB0EE410AAF
:10CCB000F0EE610A53EC102B51EC1D0B12F04EFC00
:10CCC0001FEDC11BCDE906019DED060B10F0DCFB4D
:10CCD0008DED080B9DED0C0B53EC102B9DED080B0F
:10CCE00051EC100B12F03AFCC4E9000194ED001B6A
:10CCF000B0EE410AF0EE610A53EC1E2B51EC100B22
:10CD000012F02CFCC5E90001002015E60FB42DED52
:10CD1000020B30B52DED108B97B0499D489C9DEDD1
:10CD2000301BB0EE410AF0EE610A1FEDE31B53EC3D
:10CD3000112B51EC100B12F011FB06D1012017B092
:10CD4000BDEC108B30BC5DF81CFB9DED3E0BB0EED6
:10CD5000408AF0EE608A9DED3C0B8DED0C0B9DED55
:10CD60002E1BB0EE410AF0EE610A1FEDF31B53ECEF
:10CD7000112B51EC100B12F0B5FB03D21FEDF80B89
:10CD80008DED2E0B9DED381BB0EE410AF0EE610AE1
:10CD90009DED2A1B53EC112B51EC100B12F0EAFD08
:10CDA00041EC190B9DED2E1BB0EE410AF0EE610A2D
:10CDB00053EC102B51EC190B12F094FB0FD39DED9B
:10CDC0000C0B53EC102B51EC190B12F0C5FC06D3D5
:10CDD00053EC182B51EC190B12F0BEFC01D20220BF
:10CDE000ADE79DED3E1BB0EE410AF0EE610A9FED0E
:10CDF000651B53EC112B51EC100B12F073FB01D897
:10CE000003209CE753EC192B51EC180B12F0B2FDE8
:10CE100041EC1A0B53EC1A2B51EC1A0B12F09EFB3F
:10CE200053EC182BCDE9020151EC180B12F096FBD4
:10CE3000CDE900019DED020B53EC102B9DED000B95
:10CE400051EC100B12F096FD9FED501BCDE9040143
:10CE50009DED040B10F018FB8DED060B9FED430BC1
:10CE600053EC102B9DED060B51EC100B12F076FBE2
:10CE7000CDE90E0153EC182B51EC1A0B12F016F9F8
:10CE8000CDE904019DED040B10F0EEF88DED060BDD
:10CE90009FED360B53EC102B9DED060B51EC100B58
:10CEA00012F05CFBCDE910019DED3E1BB0EE410A96
:10CEB000F0EE610A53EC102B9DED101B51EC110BA1
:10CEC00012F04CFB41EC1D0B53EC1A2B9DED0E0B9D
:10CED00051EC100B12F042FB53EC182BCDE904017E
:10CEE00051EC1D0B12F03AFBCDE902019DED040B54
:10CEF00053EC102B9DED020B51EC100B12F03AFD90
:10CF00009FED220B53EC102BCDE906019DED060B96
:10CF100051EC100B12F022FB41EC1C0B9DED2E1B73
:10CF2000B0EE410AF0EE610A9FED161B53EC112B97
:10CF300051EC100B12F010FC7DD29DED2E1BB0EECB
:10CF4000410AF0EE610A53EC102B51EC180B12F071
:10CF500011FD41EC1B0B53EC1B2B51EC1B0B12F086
:10CF6000FDFA17E000000000000010400000000083
:10CF700000000040555555555555C53F000000006F
:10CF80000000F03F00000000000000000000000072
:10CF90000000E03F53EC182BCDE9020151EC180BD7
:10CFA00012F0DCFACDE900019DED020B53EC102BE1
:10CFB0009DED000B51EC100B12F0DCFC1FED0D1B76
:10CFC000CDE904019DED040B10F05EFA8DED060B2A
:10CFD0001FED1A0B53EC102B9DED060B51EC100BB3
:10CFE00012F0BCFA41EC1E0B53EC182B51EC1B0B4E
:10CFF00012F05CF8CDE904019DED040B10F034F85B
:10D000008DED060B1FED270B53EC102B9DED060B42
:10D0100051EC100B12F0A2FACDE90A0153EC182BD7
:10D020009DED0A0B51EC100B12F098FACDE90801B6
:10D0300053EC1B2B00E028E051EC1E0B12F08EFA93
:10D0400053EC182BCDE904019DED080B51EC100BAE
:10D0500012F084FACDE902019DED040B53EC102B84
:10D060009DED020B51EC100B12F084FC1FED390BFF
:10D0700053EC102BCDE906019DED060B51EC100B86
:10D0800012F06CFA41EC1F0B07E01FED42EB1FEDB5
:10D0900043FB1FED440B8DED080B53EC1F2B51ECA4
:10D0A0001C0B12F067FC41EC1C0B9DED080B53ECC4
:10D0B000102B51EC1D0B12F05DFC53EC1E2BCDE937
:10D0C00006019DED060B51EC100B11F033FF41EC06
:10D0D0001D0B53EC1D2B51EC1C0B11F0E7FFCDE9A0
:10D0E00012011FED5C1B9DED120B10F0CDF98DEDC3
:10D0F000060B9DED301BB0EE410AF0EE610A53ECD9
:10D10000102B1FED621B51EC110B11F0CFFFCDE97D
:10D1100004019DED060B53EC102B9DED040B51EC1F
:10D12000100B12F01BFACDE914019DED321BB0EE8D
:10D13000410AF0EE610A53EC102B9DED121B51ECED
:10D14000110B12F00BFA1FED6F1BCDE904019DEDE1
:10D15000040B10F099F98DED060B9DED140B53ECBB
:10D16000102B9DED060B51EC100B12F0F7F9C4E9F2
:10D17000000194ED001BB0EE410AF0EE610A53ECA1
:10D180001C2B51EC100B12F0E9F9C5E9000100204D
:10D19000D5E50FB42DED020B30B52DED108B9FB002
:10D1A000B0EE40CAF0EE60CA519D509C9DED381B18
:10D1B000B0EE410AF0EE610A1FED8E1B53EC112B0D
:10D1C00051EC100B12F0CAF806D101201FB0BDECD3
:10D1D000108B30BC5DF81CFB9DED401BB0EE410A8E
:10D1E000F0EE610A53EC1C2B51EC100B12F0C2FB59
:10D1F00041EC1A0B1FED9D0B53EC102B51EC1A0B4D
:10D2000012F070F90CD39DED441BB0EE410AF0EE24
:10D21000610A53EC102B51EC1A0B12F09DFA01D25B
:10D220000220D3E79DED489B1FEDAA0B53EC102B7A
:10D2300051EC190B12F056F901D80320C6E79DED09
:10D240004A8B9FEDFE0B0FF00FFF8DED100B9FED46
:10D25000FD0B53EC102B9DED100B51EC100B11F04E
:10D2600025FF53EC182BCDE912019DED120B51EC6B
:10D27000100B12F073F9CDE914019DED140B10F0B1
:10D280002BFF8DED160B1FEDC30B53EC102B9DEDFB
:10D29000160B51EC100B12F095FA53EC192BCDE94B
:10D2A00018019DED180B51EC100B12F057F941ECE1
:10D2B0001F0B53EC1F2B51EC1A0B12F013F90FD864
:10D2C000602238A96846CDE918450EF05EFEB0EE42
:10D2D0004C0AF0EE6C0A34A80FC8FFF717FD75E78B
:10D2E00053EC1F2B51EC1A0B12F044FB41EC1B0BBF
:10D2F0009FEDD20B0FF0B8FE8DED080B9FEDD10B1B
:10D3000053EC102B9DED080B51EC100B11F0CEFEE1
:10D3100053EC182BCDE90A019DED0A0B51EC100BD3
:10D3200012F01CF9CDE90C019DED0C0B10F038FF4B
:10D330008DED0E0B53EC1B2B9DED0E0B51EC100BDA
:10D3400012F00CF99FEDBD0BCDE912010FF08CFE30
:10D350008DED060B9FEDBB0B53EC102B9DED060BDB
:10D3600051EC100B11F0A2FE53EC182BCDE9080183
:10D370009DED080B51EC100B12F0F0F8CDE90A010D
:10D380009DED0A0B10F01CF88DED0E0B53EC192BD4
:10D390009FEDAE0B51EC100B12F0E0F8CDE90C0153
:10D3A0009DED0E0B53EC102B9DED0C0B51EC100B67
:10D3B00012F0D4F8CDE910019DED120B53EC102BB7
:10D3C0009DED100B51EC100B11F0B4FD53EC1B2B29
:10D3D000CDE914019DED140B51EC100B12F0BEF8C9
:10D3E0009FED960BCDE918010FF03EFE8DED060B7B
:10D3F0009FED940B53EC102B9DED060B51EC100B95
:10D4000011F054FE53EC182B9FED900BCDE90A015F
:10D4100051EC100B12F0A2F8CDE908019DED0A0BBA
:10D4200053EC102B9DED080B51EC100B12F096F8FD
:10D43000CDE90C019DED0C0B10F04EFE8DED100BA7
:10D440009FED840B53EC102B51EC180B11F02EFEBA
:10D450009FED820B53EC102BCDE908019DED080BDD
:10D4600051EC100B12F0AEF99FED740BCDE90C01ED
:10D470000FF0FAFD8DED0A0B9DED0C0B53EC102B0C
:10D480009DED0A0B51EC100B12F068F8CDE90E017E
:10D490009DED100B53EC102B9DED0E0B51EC100B72
:10D4A00012F068FA53EC192BCDE9140151EC190B69
:10D4B00012F054F89FED650B53EC102BCDE91001E1
:10D4C0009DED100B51EC100B11F0F0FDCDE91201A8
:10D4D0009DED140B53EC102B9DED120B51EC100B2A
:10D4E00012F03CF8CDE916019DED180B53EC102B12
:10D4F0009DED160B51EC100B11F01CFD41EC1E0BB9
:10D500009FED4E0B0FF0B0FD8DED0C0B9FED4D0B15
:10D5100053EC102B9DED0C0B51EC100B11F0C6FDD4
:10D5200053EC182BCDE90E019DED0E0B51EC100BB9
:10D5300012F014F8CDE910019DED100B0FF040FF33
:10D540008DED140B53EC1B2B9FED400B51EC100B8E
:10D5500012F004F8CDE912019DED140B53EC102BE1
:10D560009DED120B51EC100B11F0A0FD9FED390B4E
:10D5700053EC102BCDE9180151EC180B11F096FD6E
:10D580009FED360B53EC102BCDE910019DED100BE8
:10D5900051EC100B12F016F99FED280BCDE9140198
:10D5A0000FF062FD8DED100B53EC192B9DED100B60
:10D5B00051EC100B11F0D2FFCDE912019DED140BCF
:10D5C00053EC102B9DED120B51EC100B11F0C6FF1C
:10D5D000CDE916019DED180B53EC102B9DED160BAC
:10D5E00051EC100B11F0A6FCCDE91A019DED1A0BC0
:10D5F00053EC102B51EC1E0B11F058FD41EC1D0BA0
:10D600009FED181BB0EE4D0AF0EE6D0A0FF03CFFD7
:10D610008DED180B9DED381BB0EE410AF0EE610A5E
:10D6200053EC102B9FED0D1B51EC110B11F03EFD37
:10D63000CDE916019DED180B18E000000000000078
:10D640000000F0BF00000000008066400000000005
:10D650000000004000000000008056400000000074
:10D660000000F03F555555555555C53F53EC102B0F
:10D670009DED160B51EC100B11F070FFCDE91C0164
:10D680009DED3A1BB0EE410AF0EE610A53EC102B0F
:10D6900051EC1D0B11F062FF9FEDFE1BCDE9160151
:10D6A0009DED160B0FF0F0FE8DED180B9DED1C0B94
:10D6B00053EC102B9DED180B51EC100B11F04EFF9D
:10D6C000C4E9000194ED001BB0EE410AF0EE610ADE
:10D6D00053EC1E2B51EC100B11F040FFC5E900017B
:10D6E000002073E50FB42DED020B30B52DED028B4C
:10D6F0009BB0B0EE408AF0EE608ADDE93E459DF8D1
:10D700008800012814D1602226A96846CDE9184571
:10D710000EF03BFCB0EE480AF0EE680A22A80FC8F3
:10D72000FFF7BCF81BB0BDEC028B30BC5DF81CFBF6
:10D730009DF8880002280FD1602226A96846CDE90D
:10D7400018450EF022FCB0EE480AF0EE680A22A856
:10D750000FC8FFF7DBFAE5E79DF8880003280FD133
:10D76000602226A96846CDE918450EF00EFCB0EE01
:10D77000480AF0EE680A22A80FC8FFF70AFDD1E7B1
:10D780000120CFE703210170012181700021417048
:10D7900001717F21417100218171C17101210172EB
:10D7A00041F6907141814FF496714162002181628E
:10D7B000C162012141778177082101840121C17073
:10D7C000017700210186704710B5024600201070D5
:10D7D000002317E003EB830101EBC30402F11801FE
:10D7E00001EB8400FFF7CEFF03EB8300410003EB66
:10D7F000830000EBC30402F1180000EB8400816297
:10D80000581CC3B2082BE5DB0020506010810023B8
:10D8100005E0002102F10A00C154581CC3B2072BD5
:10D82000F7DBDA2050745F2191744321D1746B21AE
:10D83000117540F62B10D08210BD0122027082704B
:10D8400042707822C270002104E00023021D53546C
:10D850004A1CD1B20829F8DB70470246002000219B
:10D8600004E00002535C18444B1CD9B20429F8DBD5
:10D8700000EE100A704713B52DED020B02460B4661
:10D880006C46082B02D0012004B010BD002103E03B
:10D89000605C5054481CC1B20829F9DB0020F3E752
:10D8A00090ED000B704730B50346080E1446551C2A
:10D8B000AAB21855C1F307451046541CA2B21D5414
:10D8C000C1F307251046541CA2B21D541046541C27
:10D8D000A2B21954104630BD0021C17001704170D0
:10D8E000817000228260C2607047012101700021B6
:10D8F00041708170C1700121017101740022826048
:10D90000C260704730B50446002040EAC415E8B252
:10D9100040EA8115E8B240EA0215E8B2184330BD8A
:10D920002DE9F0430446894616461D46DDF81C8065
:10D93000300C2070300A6070A67041F2BF30804514
:10D9400003D1E570280A20710FE041F2CD30804507
:10D9500008D12F463846FEF786FE0746E770380A9C
:10D96000207102E0280AE07025710020BDE8F083F4
:10D970002DE9F04304460D469046994614F8086098
:10D9800046FA09F000F00307002F02DC0020BDE892
:10D99000F083072D01D20020F9E7781EC7B206F008
:10D9A000CF0607FA09F03043C6B204F80860691FD1
:10D9B000E01CFEF7B1FDA91E60543846E7E72DE9EB
:10D9C000F043A1B004460F469046802101A80EF016
:10D9D0000EFB0026002505E0A01D405D304486B208
:10D9E000681C85B26079A842F6DC354607E004F190
:10D9F0000E00405DA91B01AA5054681C85B26179D4
:10DA0000A01D405C3044A842F1DC6279A01D815C1D
:10DA100043463A4601A8FFF7ABFF8146354607E08B
:10DA2000A81B01A9095C04F10E004155681C85B2D0
:10DA30006179A01D405C3044A842F1DC484621B029
:10DA4000BDE8F083F0B50446DDE90676059D0020CB
:10DA500020700A2095FBF0FC00FB1C504FF00A0CD4
:10DA600095FBFCFC40EA0C1060700A2093FBF0FC74
:10DA700000FB1C304FF00A0C93FBFCFC40EA0C103E
:10DA8000A0700A2092FBF0FC00FB1C204FF00A0C57
:10DA900004E00000000000000000E03F92FBFCFCFE
:10DAA00040EA0C10E07026710520F0BD30B5034649
:10DAB0000A20B2FBF0F400FB142018700A20B2FB1D
:10DAC000F0F00A24B0FBF4F504FB15005870642054
:10DAD000B2FBF0F0B0FBF4F504FB150098704FF4C6
