:020000040800F2
:10800000807600201DA40108ED8B0008EF8B00088E
:10801000F38B0008F78B0008FB8B000800000000C2
:10802000000000000000000000000000FF8B0008BE
:10803000018C000800000000038C0008058C00087B
:1080400037A4010837A4010837A4010837A40108A0
:1080500037A4010837A4010837A4010837A4010890
:1080600037A4010837A4010837A4010837A4010880
:1080700037A4010837A4010837A4010837A4010870
:1080800037A4010837A4010837A4010837A4010860
:1080900037A4010837A4010837A4010837A4010850
:1080A00037A4010837A4010837A4010837A4010840
:1080B000459F0008899F0008CB9F000837A401084E
:1080C00037A4010837A4010837A4010837A4010820
:1080D00037A40108158E0008C7A30108531C010826
:1080E00037A4010837A4010837A4010837A4010800
:1080F00037A4010837A4010837A4010837A40108F0
:1081000037A401088145010837A4010837A40108F4
:1081100037A4010837A4010837A40108FB1C010893
:1081200037A4010837A4010837A4010837A40108BF
:1081300037A4010837A4010837A4010837A40108AF
:1081400037A4010837A4010837A4010837A401089F
:1081500037A4010837A4010837A4010837A401088F
:1081600037A4010837A4010837A4010837A401087F
:1081700037A4010837A4010837A4010837A401086F
:1081800037A4010837A4010800F002F800F075F8E0
:108190000AA090E8000C82448344AAF10107DA4562
:1081A00001D100F06AF8AFF2090EBAE80F0013F03F
:1081B000010F18BFFB1A43F001031847C0A30100C9
:1081C000E0A301000A444FF0000C10F8013B13F04B
:1081D000070408BF10F8014B1D1108BF10F8015B20
:1081E000641E05D010F8016B641E01F8016BF9D113
:1081F00013F0080F1EBF10F8014BAD1C0C1B09D16A
:108200006D1E58BF01F801CBFAD505E014F8016BDB
:1082100001F8016B6D1EF9D59142D6D3704700006D
:108220000023002400250026103A28BF78C1FBD87F
:10823000520728BF30C148BF0B607047662919F04C
:108240005C87642915F04287752915F03F877829E6
:1082500015F07887732916F09483002070471FB5B6
:1082600019F0DFFE16F0A4FB04000020002119F035
:1082700009F8E0601FBD10B510BD16F0A1FC114655
:10828000FFF7EDFF00F0E0FA16F0BFFC03B4FFF7D4
:10829000F2FF03BC12F01EF830BF72B6704762B630
:1082A000704780F308887047FD48007820B1FD4A88
:1082B000FD49FE4811F089FA642011F0EBFF01201E
:1082C000FB4908604FF47A7011F0E4FF00BF00BF73
:1082D00000BF00BF00BFBFF34F8F00BF00BF00BF94
:1082E000F448006800F4E060F3490843001DF149D8
:1082F000086000BF00BF00BFBFF34F8F00BF00BFCB
:1083000000BF00BFFEE70120E84908700121E748EF
:1083100081720120E54908720121E44841723C2143
:10832000C18100228261C2610220DF4908704FF4DE
:108330006161DD48C163DA2181775F21C177432123
:1083400080F820106B2180F8211042F22C314184FA
:10835000002141760320D44908760121D248C17614
:108360004FF461610167DA2180F852105F2180F8D3
:108370005310432180F854106B2180F8551042F2BD
:108380002C31A0F85610002180F84D10032180F800
:108390004C10012180F84F1041F23420C24948604E
:1083A00045F278600881DA2048745F21BE48817404
:1083B0004321C1746B21017540F62B10BA49C88264
:1083C000704710B5002404E00020BC490855601C2B
:1083D00084B2B4F5007FF7DBE8220021B7480CF047
:1083E00051F910BD10B5002401224FF44831B348B3
:1083F0000CF0FCF800BF06E0B048015DA948001D84
:108400000155601CC4B2082CF6DB10BD10B5002469
:108410000020A34908700BE00BF09EF818B901206A
:108420009F49087006E0C82011F034FF601CC4B2F8
:10843000032CF1DB00BF9A48007820B9A0480078EF
:10844000401C9F49087010BD10B59548007820B1B8
:10845000944A9549954811F0B8F910BD10B52DED25
:108460000A8B052101200DF06BFC08EE100AB8EE16
:10847000480A10EE100A19F063FD41EC1C0B9FED49
:10848000910B53EC102B19F065FA41EC1B0B9FED8F
:108490008F0B53EC102B19F05DFA41EC1A0B9FED8A
:1084A0008D0B53EC102B18F0FDFF41EC190B18F05D
:1084B0000BFF08EE900AB2EE040A28EE800ABCEE2A
:1084C000C00A10EE100A7749C870BDEC0A8B10BDC7
:1084D000F0B52DED028B85B005460E4600200090CC
:1084E000052E03DA05B0BDEC028BF0BDFF227B4800
:1084F00001787B4804F0A4F9012800D0F2E728783D
:1085000008284CD10821BDF80020501C80B20090F2
:1085100001A881540321BDF80020501C80B20090B6
:1085200001A881540221BDF80020501C80B20090A7
:1085300001A881545D4890ED2A1BB0EE410AF0EE8F
:10854000610A9FED681B53EC112B51EC100B19F0D5
:1085500001FA41EC180B19F069F984B22246694618
:1085600001A806F06BF8BDF8001001A804F032F97C
:108570000446BDF80020501C80B2009001A884542D
:10858000210ABDF80020501C80B2009001A881543F
:10859000BDF80000C1B201A800F0E1FB4EE0287870
:1085A00009284BD10921BDF80020501C80B2009051
:1085B00001A881540321BDF80020501C80B2009016
:1085C00001A881540421BDF80020501C80B2009005
:1085D00001A88154354890ED281BB0EE410AF0EE19
:1085E000610A9FED401B53EC112B51EC100B19F05D
:1085F000B1F941EC180B19F019F907463A466946EA
:1086000001A806F02EF8BDF8001001A804F0E2F869
:108610000446BDF80020501C80B2009001A884548C
:10862000210ABDF80020501C80B2009001A881549E
:10863000BDF80000C1B201A800F091FB2B48D0E9C1
:1086400004102A4AC2E90A1000BF4BE770B5A0B077
:1086500000260024002521480078052804DA00209F
:108660001E49087020B070BD7FE01D48005D0828DD
:1086700003D01B48005D092841D10026254609E0AA
:10868000601917490A5C3046711C8EB20DF8002043
:10869000681C85B204F108008542F1DB314627E011
:1086A00001000020000B002010020020C803002061
:1086B000840242420CED00E00000FA052C0B002081
:1086C000050000206666666666660A4000000000D7
:1086D00000A0604000000000008000412800002051
:1086E0002C0D00200000000000408F40D801002029
:1086F0006846FFF7EDFE04F1080084B230E0A849B7
:10870000601C085C032803D0601C085C042826D188
:10871000A349A01C085C642800DDA3E700262546C9
:1087200009E060199E490A5C3046711C8EB20DF852
:108730000020681C85B29A49A01C085C2044401D9A
:10874000A842EEDC97484278314668460FF099FF20
:108750009349A01C085C401D204484B200E005E061
:1087600091480078844200DB00E07EE700BF0020F3
:108770008D49087000BF75E701B59DF8000013280A
:108780002DD00EDC10282ED006DC01281ED00228A9
:108790001FD003283AD11FE0112823D0122835D149
:1087A0000EE0302824D006DC142824D0152825D04B
:1087B00020282BD107E0402823D0502826D122E0C2
:1087C00003F010F923E003F0E5FF20E003F0E4FDFF
:1087D0001DE009F01BFA1AE0FFF738FF17E00CF074
:1087E000CAFD14E013E09DF801000EF01FF80EE042
:1087F00009F0A5F90BE0FFF709FE08E0FFF724FEFA
:1088000005E0FFF751FDFFF729FE00E000BF00BFC4
:1088100008BD1CB50121102012F0B4F940200090D1
:1088200001208DF804008DF8060003208DF8050066
:1088300001208DF8070069465C4811F005FF4021D2
:108840005A4811F07FFF1CBD08B500BF5848594970
:1088500008604FF4A06011F001FEA82011F0B8FCF0
:108860004FF4165000F0D0F94FF4E13011F041FD13
:108870004FF4165006F0B2F84F4805F0B5F9FFF77F
:10888000C8FF42F2CF0140F2E73001F029F842F28E
:10889000CF01632000F0C9FF42F2CF0142F20F7016
:1088A00000F0EFFF42F2CF01632009F0FAF900F087
:1088B000FAFB00F03BFCFFF7A9FD40F6FF71062034
:1088C00003F056FF00F04EFF01F04DF83B4804F076
:1088D00037F93B4805F0CDF83A4805F003F931483F
:1088E00005F078F9384804F0A2F809F028FA0121D7
:1088F000364812F0FBFD01F0BAFC00203449086054
:1089000003F0AFF800F0C2FE0DF0B8F920202D49B9
:1089100008703048007868B10A462949274810F0A5
:1089200081FA48B9FFF7EFFC264A2549234810F0A1
:108930004CFF01E0FFF7E7FC30E0002000F0BBFE59
:10894000044614B120460DF059F9684609F078FF45
:1089500010B10098FFF710FF12480078D8B91E48F0
:10896000D0E904100F4BD3E90223891A60EB03000E
:10897000491E70F100000ED3684609F0EAFF50B1BD
:108980009DF80100074948700020C87088709DF864
:1089900001000DF04BFF0A2011F07CFCCDE7000038
:1089A0002C0D0020100B0020280000200010024099
:1089B0000080000808ED00E0500A0020C8030020F5
:1089C00010020020000B0020200B002000080040B7
:1089D0008402424201000020D80100200CB5002092
:1089E000019000907648006840F480307449086037
:1089F00000BF7348006800F4003000900198401CEC
:108A00000190009818B90198B0F5A04FF1D16C48C9
:108A1000006800F4003010B10120009001E0002057
:108A200000900098012846D165484030006840F029
:108A300080506349403108606248006840F440401B
:108A4000604908605E48083000685D490831086088
:108A50000846006840F4004008600846006840F49A
:108A6000A05008605848091F0860081F006840F0BF
:108A70008070091F086000BF5148006800F0007056
:108A80000028F9D040F20570504908604C48083081
:108A9000006820F003004A49083108600846006871
:108AA00040F00200086000BF45480830006800F050
:108AB0000C000828F8D10CBD10B54548006840F4FA
:108AC0007000434908603E48006840F001003C499E
:108AD000086000203A4908310860394800683D497B
:108AE0000840374908603C48091D0860081F0068B5
:108AF00020F48020091F0860002031490C310860F3
:108B0000FFF76CFF4FF0006031498039086010BDFD
:108B100070B500200022022300240221284D0835D0
:108B20002D6805F00C0020B1042806D0082834D1A7
:108B300007E02A4D2A4E356033E02A4D284E356035
:108B40002FE01F4D2D1D2D68C5F380541C4D2D1D8C
:108B50002D6805F03F0154B1224DB5FBF1F5184EDB
:108B6000361D3668C6F3881605FB06F209E01B4D74
:108B7000B5FBF1F5124E361D3668C6F3881605FBB7
:108B800006F20F4D2D1D2D68C5F301456D1C6B00C0
:108B9000B2FBF3F5124E356003E0104D104E356018
:108BA00000BF00BF064D08352D68C5F303150E4EF6
:108BB000705D0B4D2D68C540094E356070BD0000DD
:108BC000003802400070004008544007003C02405A
:108BD00088ED00E0FFFFF6FE103000240024F400D2
:108BE0001400002000127A0018000020704700BF17
:108BF000FEE700BFFEE700BFFEE700BFFEE77047ED
:108C0000704770477047000010B588B004460121D6
:108C1000084611F0B7FF0121102012F00DF80722CD
:108C200009218C4811F09BFD07220A21894811F087
:108C300096FD4FF4C060069002208DF81C000320C2
:108C40008DF81D0000208DF81E0001208DF81F00FA
:108C500006A9804811F0F8FC4FF4807006900120BE
:108C60008DF81C0003208DF81D0000208DF81E00DB
:108C700001208DF81F0006A9764811F0E5FC4FF49D
:108C80000060069001208DF81C0003208DF81D0067
:108C900000208DF81E0001208DF81F0006A96D48E8
:108CA00011F0D2FC02940020ADF80C00ADF80E00DB
:108CB000ADF81000ADF814000C20ADF8120002A9B8
:108CC000654812F01AF90121634812F09EF940211B
:108CD000614812F082FA012240F225515E4812F0FA
:108CE0004AFA25208DF8040003208DF805008DF840
:108CF000060001208DF8070001A811F0B4FB002048
:108D0000564908605649C1F8AC025649087008B087
:108D100010BD2DE9FF4107460C4615461E460021B1
:108D20004D4812F072F90097ADF80440ADF80650C6
:108D3000ADF808600020ADF80C000C20ADF80A007A
:108D40006946454812F0D9F80121434812F05DF90F
:108D500045488760868045800480BDE8FF8170B506
:108D600005460E4601203D49086000240CE000BF86
:108D70004021394812F024FA0028F9D0295D3648FC
:108D800012F06EF9601CC4B2B442F0DB00BF4021A7
:108D9000314812F015FA0028F9D000203349087044
:108DA0002E49086070BD2DE9F04107460D462F4859
:108DB00006780024002028700A2011F06BFA2B4856
:108DC000007886420FD176B100BF04E02848005DEC
:108DD0003855601CC4B2B442F8DB244800782870CF
:108DE000002022490870BDE8F08110B1012800D0B0
:108DF00070471C49087020B90021184A0C321160D4
:108E000003E00121154A0C3211600021174A11704C
:108E100000BFEDE710B540F225510F4812F0E6F91A
:108E2000B8B10121134812F061FB0020124908700B
:108E3000094812F019F9C4B20C480078402808DA41
:108E40000B480A490978445408480078401C0749EF
:108E5000087010BD0000024000100140A002404216
:108E60000000404204000020200B002028000020C9
:108E70002C0D0020000400407000002070B5044656
:108E800000224FF40071FE4811F05EFC00224FF406
:108E90000061FB4811F058FC00251FE000228021F2
:108EA000F74811F051FC04F0800028B101221102B2
:108EB000F34811F049FC05E000224FF48071F048BE
:108EC00011F042FC01228021ED4811F03DFC01200F
:108ED00011F098F96006040E681CC5B2082DDDDBA0
:108EE00001225102E64811F02FFC70BD70B5044616
:108EF00000224FF40071E24811F026FC0122D10259
:108F0000DF4811F021FC00251FE000228021DC4811
:108F100011F01AFC04F0800028B101221102D84897
:108F200011F012FC05E000224FF48071D44811F0DA
:108F30000BFC01228021D24811F006FC012011F027
:108F400061F96006040E681CC5B2082DDDDB012244
:108F50005102CB4811F0F8FB70BD70B504460022F9
:108F60004FF40071C64811F0EFFB0122D102C44852
:108F700011F0EAFB00251FE000228021C04811F01B
:108F8000E3FB04F0800030B100224FF48071BC4854
:108F900011F0DAFB04E001221102B94811F0D4FB10
:108FA00001228021B64811F0CFFB012011F02AF9EF
:108FB0006006040E681CC5B2082DDDDB01225102DB
:108FC000AF4811F0C1FB70BD10B5642011F062F91B
:108FD00000224FF40071AA4811F0B6FB01221103E0
:108FE000A74811F0B1FB00224FF48061A44811F0B2
:108FF000ABFB142011F04EF901229102A04811F0B0
:10900000A3FB142011F046F9E220FFF737FF0520FB
:1090100011F040F92C20FFF731FF052011F03AF94B
:109020002E20FFF72BFF052011F034F92F20FFF73A
:1090300025FF052011F02EF92420FFF71FFF8120C6
:10904000FFF71CFF2A20FFF719FFA220FFF716FFEA
:10905000C820FFF713FFA020FFF710FF6020FFF7E5
:109060000DFFAF20FFF70AFF01225102844811F0E3
:109070006BFB10BD1CB50121022011F083FD4FF4E4
:109080008040009001208DF8040000208DF806003B
:1090900003208DF8050069467A4811F0D5FA0120C1
:1090A000794908601CBD1CB50121102011F06AFD32
:1090B00001208DF8040000208DF806004BF680702A
:1090C000009001208DF8070002208DF80500694608
:1090D0006B4811F0B9FA00208DF804008DF80600F5
:1090E0004FF48040009001208DF8070002208DF899
:1090F00005006946624811F0A7FAFFF765FFFFF720
:10910000B9FF1CBD70B505460C4600BF05F1AF01A7
:10911000C8B2FFF7B3FEC4F3031101F11000FFF76B
:10912000ADFE04F00F00FFF7A9FE70BD70B5002280
:109130004FF40071524811F007FB0122110350480F
:1091400011F002FB002415E004F1B001C8B2FFF7F2
:1091500095FE1020FFF792FE0020FFF78FFE0025FE
:1091600004E00020FFF7C2FE681CC5B2842DF8DBC6
:10917000601CC4B2092CE7DB01225102404811F007
:10918000E3FA70BD012040490860704700203E4965
:10919000086070472DE9F0410646884614460027CE
:1091A000002500BF15E070194146FFF7ABFF00270F
:1091B0000BE01CB90020FFF799FE04E0012C02D15E
:1091C0000020FFF7CAFE781CC7B2802FF1DB681CB5
:1091D000C5B2022DE7DBBDE8F08170B50446002280
:1091E0004FF40071264811F0AFFA00250FE001217D
:1091F000681CFFF787FF002605E02078FFF776FE62
:10920000641C701CC6B2802EF7DB681CC5B2082D2A
:10921000EDDB012251021A4811F096FA70BD2DE9DA
:10922000F0470746894614461D4600224FF4007158
:10923000134811F089FA01221103114811F084FA40
:1092400000261AE0B8194946FFF75CFF4FF0000806
:109250000EE01DB92078FFF749FE04E0012D02D190
:109260002078FFF77AFE641C08F1010000F0FF0887
:10927000B8F1100FEDDB701CC6B2022EE2DB05E088
:109280000010024000040240B88240420122510214
:10929000FA4811F059FABDE8F0872DE9F047074682
:1092A000894614461D4600224FF40071F34811F020
:1092B0004BFA00261AE0B8194946FFF723FF4FF092
:1092C00000080EE01DB92078FFF710FE04E0012D24
:1092D00002D12078FFF741FE641C08F1010000F084
:1092E000FF08B8F1080FEDDB701CC6B2022EE2DBFE
:1092F00001225102E14811F027FABDE8F0872DE97B
:10930000F05F07460D4614461E4607F1AF0000F019
:10931000FF0900224FF40071D84811F015FA05F04A
:109320000F00401E00F0FF0AC5F3031000F1100B00
:109330004846FFF7A3FD5846FFF7A0FD5046FFF74C
:109340009DFD4FF000080CE01EB92078FFF7CEFD20
:1093500004E0012E02D12078FFF7FFFD641C08F124
:109360000108B8F1060FEFD301225102C34811F0F2
:10937000EBF9BDE8F09F70B5044600251DE004F050
:10938000800028B10122D103BC4811F0DDF905E0CD
:1093900000224FF40041B94811F0D6F96006040EDE
:1093A00000224FF40051B54811F0CEF901225103CB
:1093B000B24811F0C9F9681CC5B2082DDFDB70BDD9
:1093C00070B5002401225103AC4811F0BDF900250D
:1093D00018E000224FF40051A84811F0B5F96006DA
:1093E000040E4FF48041A54811F090F910B1601CB3
:1093F000C4B200E0E4B201225103A04811F0A4F984
:10940000681CC5B2082DE4DB204670BD2DE9F0478D
:1094100080460D4616461F46DDF8209000224FF488
:109420008051964811F090F901225102934811F0B1
:109430008BF900224FF40051904811F085F9032078
:10944000FFF799FF4046FFF796FF2846FFF793FF87
:109450003046FFF790FF002404E0FFF7B1FF3855D6
:10946000601CC4B24C45F8DB01221103834811F0A3
:109470006BF9BDE8F0872DE9F04F8DB083460E46BD
:1094800015461F4600243A4631465846FFF782FEED
:10949000ABE0285DB02838DB285DF72835DC601CA0
:1094A000285CA12831DB285DB0385E2110FB01F07B
:1094B00073490860601C285C00F2AD20096808440C
:1094C0006F49086008460068400108600846006867
:1094D000C0F3074808460088C0F30729084690F8FB
:1094E00000A0202005AB5246494600904046FFF7B9
:1094F0008DFF3B4605AA31465846FFF790FEA01C5B
:10950000C4B206F11000C6B26FE0285DA12837DBB7
:10951000285DA32834DC601C285CA12830DB285D92
:10952000A1385E2110FB01F055490860601C285CE1
:10953000A13809680844524908600846006840019B
:10954000086008460068C0F3074808460088C0F372
:109550000729084690F800A0202005AB524649464E
:1095600000904046FFF752FF3B4605AA3146584659
:10957000FFF755FEA01CC4B206F11000C6B234E0DD
:10958000285D20282FDB285D7E282CDC285D2038F4
:109590003B4908600846006800010860084600680A
:1095A000384908443649086008460068C0F307484F
:1095B00008460088C0F30729084690F800A010204C
:1095C00001AB5246494600904046FFF71FFF3B461D
:1095D00001AA31465846FFF760FE601CC4B206F18E
:1095E0000800C6B201E0601CC4B2285D00283FF745
:1095F00050AF0DB0BDE8F08F2DE9FE4F82460E460C
:1096000015469B46002433E0285D20282EDB285D8C
:109610007E282BDC285D2038194908600846006840
:10962000C0000860084600681749084414490860EB
:1096300008460068C0F3074708460088C0F30728BB
:10964000084690F80090082001AB4A464146009039
:109650003846FFF7DBFE5B4601AA31465046FFF76E
:109660004EFE601CC4B2B01DC6B201E0601CC4B2A4
:10967000285D0028C8DCBDE8FE8F00000010024015
:109680006C00002080CF0300C0BF03001CB5012187
:10969000102011F077FA3C20009000208DF8040093
:1096A00003208DF8050001208DF8070069462C483D
:1096B00010F0CAFF1CBD70B50546002404212848DF
:1096C00011F024F870B9142010F0E4FD00BF04215B
:1096D000234811F01BF80028F9D0142010F0DAFD0F
:1096E00001243AE008211E4811F010F870B9142046
:1096F00010F0D0FD00BF0821194811F007F800282C
:10970000F9D0142010F0C6FD022426E010211448E0
:1097100010F0FCFF70B9142010F0BCFD00BF102148
:109720000F4810F0F3FF0028F9D0142010F0B2FD1C
:10973000032412E020210A4810F0E8FF68B9142041
:1097400010F0A8FD00BF2021054810F0DFFF002821
:10975000F9D0142010F09EFD0424204670BD0000B6
:109760000010024000B585B00121080711F053FA3E
:10977000012013F000FE002013F0FCFC49F69911C3
:1097800088424DD0012011F09AF800BF412011F01D
:109790004FF80028FAD04FF4807011F091F90120B1
:1097A00011F0A9F912F028FF002013F022F812F0AE
:1097B00051FF002002907F200390FF20049002A818
:1097C00012F0E1FF01208DF806001B208DF8050046
:1097D0000F208DF8040000208DF8070001A913F078
:1097E0006DF80F208DF802000B208DF8010003208A
:1097F0008DF8000017208DF803006946002013F053
:10980000FBF812F0B7FF49F69911002013F0A5FC00
:10981000012012F0EEFF49F69911002013F09DFC93
:10982000002013F0A8FD05B000BD7FB505460C462D
:109830000121022011F0EFF90295ADF8044000205B
:10984000ADF80600ADF80C0001A9FE4811F0C5FD09
:1098500001221146FB4812F061FA0021F94811F08B
:1098600045FE1D208DF8000001208DF80100032029
:109870008DF8020001208DF80300684610F0F3FD1A
:109880007FBD7FB505460C460121042011F0C3F9C8
:109890000295ADF804400020ADF80600ADF80C00CC
:1098A00001A9E94811F099FD01221146E64812F09C
:1098B00035FA0021E44811F019FE1E208DF8000051
:1098C00001208DF8010003208DF8020001208DF8A1
:1098D0000300684610F0C7FD0020DC4908707FBD1A
:1098E0007FB505460C460121084611F094F9029512
:1098F000ADF804400020ADF80600ADF80C0001A959
:109900004FF0804011F069FD01221146900712F0DE
:1099100005FA00214FF0804011F0E8FD1C208DF881
:10992000000001208DF8010003208DF802000120C5
:109930008DF80300684610F096FD7FBD014601F0EA
:10994000030028B96420B1FBF0F200FB121030B91B
:109950004FF4C870B1FBF0F200FB121008B90120FF
:1099600070470020FCE70020B94908600871487181
:10997000C871087248720021B54A11615161916144
:10998000D161116251629162D1620120114681F868
:10999000300070473EB5AE48D0E90420521C40F17B
:1099A0000000AB49C1E90420084690F830000128C6
:1099B0000CD0D1E904414FF461620023204614F039
:1099C0007AFA00214A404B401A430ED1A14890F840
:1099D0002000012809D103208DF80800029808F022
:1099E0008FFF02209A4981F8300001A9002012F06F
:1099F000CFFF9DF804009649C8719DF805000872D4
:109A00009DF8060048726946002013F05BF89DF847
:109A1000030000F5FA608E4908609DF801000871A6
:109A20009DF8020048719DF8000088713EBD2DE947
:109A3000F0418748C0794FF4616110FB01F084491F
:109A4000097AC1EB011100EB81008149497A084490
:109A5000C617054600243AE07D48D0E9043004EBFF
:109A6000840101EBC4027C4901EB8201C96A5B1AE3
:109A700060F1000014229A1A70F100001CD304EB6C
:109A8000840000EBC401744800EB8100476A3A4649
:109A900000232846314614F00EFA0F21511A73F1B3
:109AA000000309D2012104EB840000EBC4026A48E0
:109AB00000EB8200417108E0002104EB840000EB20
:109AC000C402654800EB82004171601CC4B2624868
:109AD00018380078A042BFDC0020BDE8F0817CB5DA
:109AE000FFF7A5FF0024F9E004EB840000EBC401BC
:109AF000594800EB8100407900286AD004EB8401CA
:109B000001EBC401554A02EB4110514B544A5249F2
:109B10001839009404F091FE5248007848B104EBE3
:109B2000840101EBC4014D4A02EB4110214610F0C3
:109B3000C6FA4748006904EB840101EBC4024649B8
:109B400001EB8201C862434890F8200068B34148A5
:109B500090F822000C2828DB3E4890F822001F28AD
:109B600023DC04EB840000EBC4013B4800EB8100E4
:109B7000007F012803D104208DF8040010E004EBDD
:109B8000840000EBC401344800EB8100007F022810
:109B900003D106208DF8040002E004208DF80400B3
:109BA0008DF80540019808F0ABFE2948006904EBE8
:109BB000840101EBC402284901EB82018862002183
:109BC00004EB840000EBC402234800EB82004171E7
:109BD00082E004EB840000EBC4011F4800EB81002D
:109BE000806A00211A4BD3E90423801A994173D269
:109BF0001748D0E9043104EB840000EBC402164896
:109C000000EB8200806A1A1A61F100013C3A71F19E
:109C1000000161D31348007898B10E4890F82000F5
:109C2000C8B30C4890F822000C284BDB094890F888
:109C300022001F2846DC04EB840000EBC401064828
:109C400012E049E0000400400008004072000020DB
:109C5000D8010020A801002028020020AC0D00201F
:109C6000C80300200100002000EB8100008E0528C1
:109C700028DA204610F096F968B104EB840000EB76
:109C8000C401FE4800EB8100007F012804D10420BC
:109C90008DF8040011E015E004EB840000EBC40132
:109CA000F64800EB8100007F022803D106208DF8E2
:109CB000040002E004208DF804008DF805400198AE
:109CC00008F01EFEEE48006904EB840101EBC402BB
:109CD000EA4901EB82018862601CC4B2E748183887
:109CE0000078A0423FF700AF7CBDF8B500247FE0CC
:109CF00004EB840000EBC401E24800EB01100078A3
:109D000001280BD104EB840000EBC401DD4800EB1B
:109D100001104078022801D1192500E00F25D8480C
:109D2000D0E90420521B70F100005FD3D448D0E981
:109D30000423E81CC117801A99411AD2D048D0E9EF
:109D4000042104EB840000EBC403CE4800EB0310B5
:109D5000D0E90430D31A61EB000104EB840000EB7E
:109D6000C402C84800EB0210C088181A71F1000143
:109D70003CD3C348D0E90410C14AD2E90A36CA1A12
:109D800060EB06000D2300219A1A81411AD3BC48CA
:109D9000D0E90410BA4BD3E90A238A1A60EB030016
:109DA000521E70F1000021D3B548D0E90410B44B25
:109DB000D3E90A268B1A60EB06000021D3F10802D2
:109DC000814113D38DF8014010208DF800000098D8
:109DD00008F0DEFDAA48D0E9041004EB840202EB8F
:109DE000C403A84A02EB0312C2E90410601CC4B207
:109DF000A44808380078A0423FF77AAFA24800781C
:109E0000012810D19E48D0E904209F4BD3E90213CA
:109E1000511A60EB0300491F70F1000003D39A4907
:109E200048780EF026FEF8BD10B5002435E004EBAE
:109E3000840000EBC401934800EB01100078012876
:109E400029D104EB840000EBC4018E4800EB011023
:109E500090ED262BB0EE420AF0EE620A04EB84008D
:109E600000EBC401874800EB011090ED222BB0EE0F
:109E7000421AF0EE621A53EC102B51EC110B17F052
:109E800055FA04EB840202EBC4037E4A02EB031290
:109E900042F8880F5160601CC4B27A4808380078D4
:109EA000A042C4DC10BD38B5784890F8200040B11D
:109EB000764890F822000C2803DB7548C0785A28B1
:109EC00004DA6F49D1E90401724A03C26F4890F87D
:109ED000200078B96A4842F63021D0E904320020E7
:109EE000C91A90412DD240208DF80000009808F04A
:109EF000C6FC26E06248D0E90430664A06CA5B1A0E
:109F000060EB02004FF434720021D21A814112D367
:109F10005E4890F82400A0B95948D0E904305B4A63
:109F2000D2E90A145A1A60EB04004FF4616300216D
:109F30009A1A814105D240208DF80000009808F05F
:109F40009EFC38BD08B50121880711F0FEFE0128EE
:109F500015D151480078401C4F49087008460078D8
:109F600005280CDB0020087001208DF80000009807
:109F700008F085FC00214FF0804011F0B7FA012174
:109F8000880711F0F3FE08BD08B50121434811F020
:109F9000DCFE012814D142480078401C404908707A
:109FA0000846007805280BDB0020087003208DF898
:109FB0000000009808F063FC0021384811F096FA80
:109FC0000121364811F0D2FE08BD38B501213548CF
:109FD00011F0BBFE012867D1FFF7DCFCFFF724FF7F
:109FE000FFF783FE294890F8200088B12448407A82
:109FF0000A2190FBF1F201FB120048B92348407C92
:10A00000012805D002208DF80000009808F078FCA7
:10A010001B48D0E90410002359405840014312D096
:10A0200017484FF46162D0E90441204613F043FF22
:10A0300000214A404B401A4305D115208DF80000FD
:10A04000009808F01CFC0E48D0E904100023594089
:10A050005840014311D00A480A22D0E90441204661
:10A0600013F029FF00214A404B401A4305D15020EC
:10A070008DF80000009808F002FC16E0280200208D
:10A08000D8010020D0030020100B0020A8010020E0
:10A09000000B002008000020730000200004004096
:10A0A00070000020000800407AE04048D0E9041029
:10A0B00003235940014305D130208DF8000000985A
:10A0C00008F0DDFBFFF70BFD394890F82000D0B118
:10A0D0003648D0E90410002359405840014312D0BB
:10A0E0003249D1E904414FF49672204613F0E3FE61
:10A0F00000214A404B401A4305D105208DF800004D
:10A10000009808F0FDFB2948B4220023D0E904415F
:10A11000204613F0D0FE00214A404B401A4309D19B
:10A12000234890F8200028B108208DF800000098FE
:10A1300008F0E6FBFFF7B7FE1E480078F0B91B48B1
:10A140003C220023D0E90441204613F0B4FE002154
:10A150004A404B401A4311D11448D0E9041000235F
:10A1600059405840014309D013480078032805DAC4
:10A1700014208DF80000009808F081FB13208DF862
:10A180000000009808F07BFB20208DF8000000986C
:10A1900008F075FB12208DF80000009808F06FFBA6
:10A1A0000121064811F0E2FD38BD0000D801002071
:10A1B000A801002001000020050000200008004048
:10A1C0002DE9F04389B007460E469046202101A8AC
:10A1D00014F009F90024A1461D2E03DD002009B06A
:10A1E000BDE8F0832046611C8CB201A901F8008013
:10A1F000002507E07A5D2046611C8CB201A90A5453
:10A20000681C85B2B542F5DB214601A802F0E2FAEE
:10A2100081462046611C8CB201A901F800904FEAEA
:10A2200019222046611C8CB201A90A54E1B201A88E
:10A23000FEF795FD0120D2E710B5FC480078012813
:10A2400004D1FB480178FB48FEF789FD002404E0B7
:10A250000020F8490855601C84B2F5480088844203
:10A26000F6DB0020F249088002F094FA10BD1CB51C
:10A270000121102010F086FC0220009001208DF8B2
:10A2800004008DF8060003208DF8050001208DF8EC
:10A2900007006946E84810F0D7F90120E74908604F
:10A2A0001CBD7CB5E648847D0120E549487004EB7F
:10A2B000840000EBC401E34800EB8100408904EB1B
:10A2C000840101EBC402DF4901EB8201497ACDE947
:10A2D000001004EB840000EBC405DA4800EB8500B5
:10A2E000037A04EB840000EBC405D64800EB85003C
:10A2F000C27904EB840000EBC405D24800EB850072
:10A300008179D1A013F072FEDA49D1E90401CC4A77
:10A31000C2E902017CBD10B50120C9494870D6A030
:10A3200013F064FED348D0E90410C54AC2E9021014
:10A3300010BD70B504460E464A2020705320607050
:10A340000420A070E6700421204602F043FA05467E
:10A350002571280A6071062070BD2DE9F041044680
:10A360000F461646052E02DA0020BDE8F0814A208D
:10A370002070532060700320A070E77004212046F5
:10A3800002F028FA05462571280A60710620ECE7DC
:10A3900070B5ADF5006D05464FF40061684614F0E8
:10A3A00022F800260120A6494870A5F131000928AD
:10A3B0003BD2DFE800F00F0A0514191E262E3400E8
:10A3C000684605F0ADF906462FE0684605F09DFCAD
:10A3D00006462AE0684605F0FAFD064625E068468E
:10A3E00005F039F8064620E0684605F055F80646BF
:10A3F0001BE04FF4806201216846FFF7AEFF06467E
:10A4000013E04FF4806202216846FFF7A6FF06467C
:10A410000BE001216846FFF78CFF064605E00221AC
:10A420006846FFF786FF064600BF00BF00240DE028
:10A4300000BF9248008800F040000028F9D01DF8C5
:10A4400004008E49091D0880601C84B2B442EFDB11
:10A4500040207B490870012048708648D0E90410EC
:10A46000774AC2E902100DF5006D70BD1CB50120E0
:10A470007349487073481838C08A72491839097D81
:10A48000CDE900106F481838C37C827C417C6EA0F7
:10A4900013F0ACFD7749D1E90401694AC2E9020130
:10A4A0001CBD2DE9F041E2B0802142A813F09BFFD2
:10A4B0004FF4827101A813F096FF40F20118604832
:10A4C000857D05EB850000EBC5006D4901EB401073
:10A4D000477900240CE005EB850000EBC5006849D6
:10A4E00001EB4010801D005D304486B2601C84B2D8
:10A4F00005EB850000EBC500614901EB4010407998
:10A50000A042E8DC34460DE005EB850000EBC50019
:10A510005B4901EB40100E30005DA11B42AA505474
:10A52000601C84B205EB850000EBC500544901EBCB
:10A530004010801DC05D3044A042E5DC05EB850085
:10A5400000EBC5000A4602EB4010801DC15D43468A
:10A5500001AA42A803F0DFFC01A94AA013F046FDBE
:10A560000A200FF097FE1A21444810F079FD414867
:10A57000D0E90410324AC2E9021062B0BDE8F081AD
:10A5800010B501202E49487044A013F02FFD394822
:10A59000D0E904102A4AC2E9021010BD10B590B0EB
:10A5A00027488479082C00DB002404EB840000EBAE
:10A5B000C402244800EB8201342203A813F0E1FE18
:10A5C00001201F494870BDF816009DF81510CDE90F
:10A5D00000109DF814309DF813209DF8121032A041
:10A5E00013F004FD2348D0E90410154AC2E9021013
:10A5F00010B010BD10B501201149487035A013F0FE
:10A60000F5FC1C48D0E904100D4AC2E9021010BD47
:10A6100010B501200A49487032A013F0E7FC154834
:10A62000D0E90410064AC2E9021010BD1000002053
:10A63000900100201C2C00200010024084024242A5
:10A64000A80100202802002041542B51494F5045B9
:10A650004E3D312C302C22544350222C2225752E75
:10A6600025752E25752E2575222C25752C302C321E
:10A670000D0A0000D80100202B2B2B0000440040C5
:10A68000AC0D002041542B514953454E4445583D93
:10A69000302C222573220D0A0000000041542B4368
:10A6A000434C4B3F0D0A000041542B51494F50453C
:10A6B0004E3D312C302C22544350222C2225752E15
:10A6C00025752E25752E2575222C25752C302C31BF
:10A6D0000D0A000041542B51494143543D310D0AAC
:10A6E0000000000041542B514944454143543D3141
:10A6F0000D0A000010B50120F1494870F1A013F0D7
:10A7000075FCF848D0E90410ED4AC2E9021010BD0A
:10A7100010B50120EA494870F3A013F067FCF14836
:10A72000D0E90410E64AC2E9021010BD10B50120BC
:10A73000E3494870F0A013F059FCEA48D0E904104E
:10A74000DF4AC2E9021010BD10B50120DC49487093
:10A75000ECA013F04BFC10BD10B50120D849487097
:10A76000EBA013F043FCDF48D0E90410D44AC2E95F
:10A77000021010BD10B50120D1494870E7A013F0B8
:10A7800035FCD848D0E90410CD4AC2E9021010BD0A
:10A7900010B50120CA494870E3A013F027FCD14846
:10A7A000D0E90410C64AC2E9021010BD10B501205C
:10A7B000C3494870DFA013F019FCCA48D0E904105F
:10A7C000BF4AC2E9021010BD10B50120BC49487053
:10A7D000DAA013F00BFCC348D0E90410B84AC2E970
:10A7E000021010BD10B50120B5494870D6A013F075
:10A7F000FDFBBC48D0E90410B14AC2E9021010BD0B
:10A8000010B50120AE494870D1A013F0EFFBB54858
:10A81000D0E90410AA4AC2E9021010BD10B5A84838
:10A8200000780E285AD00ADC0E2872D2DFE800F039
:10A83000282B2E31343A3D4043464A4D505335285B
:10A8400059D00EDC322853D006DC202849D03028DD
:10A850004AD031285DD14CE0332848D0342858D133
:10A8600048E042282BD006DC362846D0372843D093
:10A8700041284ED146E0502848D0FF2849D10EE06B
:10A88000FFF7BEFF46E0FFF7BBFF43E0FFF7AAFF7D
:10A8900040E0FFF799FF3DE0FFF788FF3AE0FFF760
:10A8A00077FF37E0FFF766FF34E0FFF755FF31E051
:10A8B000FFF74AFF2EE0FFF739FF2BE000BFFFF75D
:10A8C00027FF27E0FFF716FF24E0FFF7A1FE21E0B6
:10A8D000FFF790FE1EE0FFF761FE1BE0FFF750FE62
:10A8E00018E0FFF7DEFD15E0FFF7C0FD12E000BF46
:10A8F00000BF00BF00BF00BF00BF71490878FFF76D
:10A9000047FD07E0FFF707FD04E002E0FFF7C9FCA1
:10A9100000E000BF00BF10BD002069494870087109
:10A9200032204871704710B500246548407C50B90A
:10A93000072063490870FFF7EFFFFFF76FFF012162
:10A940005F48417465E05E48407C012858D15C480E
:10A95000407820B9FFF7E0FFFFF760FF59E0584863
:10A960004078022830D156488078012814D101243B
:10A97000534890F82400A04208D0514880F8244061
:10A980005848D0E904104E4AC2E90A1002214C4846
:10A990004174012181743CE04948807878BB0024EF
:10A9A000474890F82400A04208D0454880F8244049
:10A9B0004C48D0E90410424AC2E90A10022140483A
:10A9C00041740021817424E03D484078012820D161
:10A9D0004448D0E904203A49D1E90231D21A60EB67
:10A9E00001000A3A70F1000013D302213448417487
:10A9F000002181740220324948700020887008E0EC
:10AA00002F48407C022804D12D48807C012800D0AA
:10AA100000BF10BDF0B587B0054600200590069038
:10AA20004DA0006804900026002407E004A8025D01
:10AA30003046711CCEB22A54601CC4B2042CF5DB23
:10AA400042F20F700090454803890521426805A82D
:10AA500003F0E5F8002407E005A8025D3146701C0C
:10AA6000C6B26A54601CC4B2052CF5DB1122304614
:10AA7000711CCEB22A541B4887797807070E1948F3
:10AA800000790A2190FBF1F047EA0010C7B215489F
:10AA9000007990FBF1F201FB12003843C7B2114874
:10AAA000407A1049097ACDE9010700910D48C37930
:10AAB0004279052105A803F049F9002458E0000077
:10AAC000A801002041542B5149435347503D312C9C
:10AAD000312C22434D4E4554222C22222C22222C52
:10AAE000300D0A00D801002041542B5149434C4FEE
:10AAF00053453D300D0A000041542B434F50533F06
:10AB00000D0A000041542B43475245473F0D0A00B0
:10AB100041542B435245473F0D0A000041542B43FB
:10AB200050494E3F0D0A000041542B43545A553DA5
:10AB3000310D0A004154490D0A00000041542B43D5
:10AB400053510D0A00000000415445300D0A000029
:10AB500041540D0A00000000681468B01002002083
:10AB600005A8025D3046711CCEB22A54601CC4B2E6
:10AB7000052CF5DBFB490978A1F5FA61C8B201F0B3
:10AB800089FE3146721CD6B2685450223046711C80
:10AB9000CEB22A5480223046711CCEB22A540022F2
:10ABA000F048417A007A8DE80700EE48C37942798F
:10ABB000052105A803F0CAF8002407E005A8025DF6
:10ABC0003046711CCEB22A54601CC4B2052CF5DB91
:10ABD0001421E81C01F0E2FD04463046711CCEB29F
:10ABE0002C5416223046711CCEB22A54304607B07F
:10ABF000F0BD7FB50446002002900390DAA0006803
:10AC000001900026002507E001A8425D3046711C36
:10AC1000CEB22254681CC5B2042DF5DB42F20F708F
:10AC20000090D24803890521426802A802F0F7FF8C
:10AC3000002507E002A8425D3046711CCEB22254C6
:10AC4000681CC5B2052DF5DB02223046711CCEB260
:10AC50002254F2223046711CCEB222540821E01C4C
:10AC600001F09CFD05463046711CCEB225541622DB
:10AC70003046711CCEB22254304604B070BD7FB550
:10AC80000446002002900390B7A0006801900026BF
:10AC9000002507E001A8425D3046711CCEB2225467
:10ACA000681CC5B2042DF5DB42F20F700090AF486E
:10ACB00003890521426802A802F0B1FF002507E0E0
:10ACC00002A8425D3046711CCEB22254681CC5B247
:10ACD000052DF5DB02223046711CCEB22254F02243
:10ACE0003046711CCEB222540821E01C01F056FD02
:10ACF00005463046711CCEB2255416223046711CD2
:10AD0000CEB22254304604B070BD2DE9F043A1B05C
:10AD10000746802101A813F066FB4FF00008944815
:10AD2000857D0026B14693480078384391490870E4
:10AD300001208F494870012F06D0022F09D0042F1F
:10AD40000CD0082F66D10EE001A8FFF798FF8046CF
:10AD500063E001A8FFF74DFF80465EE001A8FFF722
:10AD600059FE804659E005EB850000EBC50082499D
:10AD700001EB4010407905EB850101EBC5017E4AEE
:10AD800002EB41110979884201DB4FF00109B9F169
:10AD9000000F3ED105EB850000EBC500764901EBC5
:10ADA0004010801D05EB850101EBC501724A02EBE5
:10ADB0004111497910F8018000240CE005EB850071
:10ADC00000EBC5006C4901EB4010801D005D304474
:10ADD00086B2601C84B205EB850000EBC5006649B5
:10ADE00001EB40104079A042E8DC34460DE005EB71
:10ADF000850000EBC500604901EB40100E30005D9E
:10AE0000A11B01AA5054601C84B206EB0800A042AA
:10AE1000EDDC02E04FF0010900BF00BFB9F1010F06
:10AE200002D121B0BDE8F08364200FF033FA002492
:10AE30000DE000BF5148008800F040000028F9D024
:10AE400001A8005D4D49091D0880601C84B244457D
:10AE5000EFDB512046490870012048704148D0E995
:10AE60000410434AC2E9021000BFDAE73EB5404889
:10AE7000847D43A207CA8DE807000C253C48407C2E
:10AE800048B909203A490870012139484174C17410
:10AE9000FFF742FD3DE13648407C012861D134484E
:10AEA000407820B9FFF738FDFFF7B8FC31E13048B2
:10AEB0004078022877D12E488078012842D12C484A
:10AEC0000078092811D12A48C07C012807D15020D8
:10AED0002749087000204870FFF7A0FC19E1022103
:10AEE000234841740121817413E1214800785028DE
:10AEF00019D1012104EB840000EBC4021B48183077
:10AF000000EB82000171002104EB840000EBC4021D
:10AF10001648183000EB8200018651201449087051
:10AF200001204870F5E0124800784128B2D109208C
:10AF30000F490870FFF7F0FC02210D48C174FFF7BC
:10AF40006DFCE6E00A4880780028A3D10848007923
:10AF5000062822DC0648C078002818DCFFF75EFCD3
:10AF6000D7E0CDE0D8010020680868B010020020CA
:10AF7000A801002083000020AC0D00200044004008
:10AF80006868686868686868686868680BE0FE48B0
:10AF9000C078401EFC49C870BBE00221FA484174E9
:10AFA00000218174B5E0F8484078012896D1F64830
:10AFB000007850283CD1F548D0E90420F24BD3E981
:10AFC0000213511A60EB03000A3970F1000085D3B7
:10AFD000022104EB840000EBC402ED4800EB820088
:10AFE000017104EB840000EBC401E94800EB81002F
:10AFF000008E052811DA04EB840000EBC401E4485C
:10B0000000EB8100008E401C81B204EB840000EB59
:10B01000C402DF4800EB820001860920DA4908708B
:10B02000FFF77AFC0221D848C174FFF7F7FB70E004
:10B03000D548007851283BD1D448D0E90430D24AD1
:10B04000D2E90212591A60EB0200C91E70F1000029
:10B0500019D3D048007800F0010018B90120FFF79B
:10B0600054FE10E0CB48007800F0040018B904202A
:10B07000FFF74BFE07E0C748007800F0080010B962
:10B080000820FFF742FEC148D0E90410BE4AD2E9C9
:10B090000232C91A60EB0200491F70F1000038D378
:10B0A0004120B9490870FFF737FCFFF7B7FB30E0E4
:10B0B000B548007841282CD1B448D0E90410B24BEF
:10B0C000D3E90223891A60EB0300C91E70F1000066
:10B0D0001FD3AD480079022807DCFFF79FFBAA4881
:10B0E0000079401CA849087113E00920A64908709E
:10B0F000FFF712FC0221A448C174FFF78FFB08E0A0
:10B10000A148407C022804D19F48807C012800D0BF
:10B1100000BF3EBD08B59C48407C48B909209A490B
:10B120000870012198484174C174FFF7F5FBE9E00C
:10B130009548407C012873D19348407820B9FFF7A7
:10B14000EBFBFFF76BFBDDE08F48407802286FD107
:10B150008D48807801284ED18B480078092825D168
:10B160008948C07C01280DD18848D0E904108A4A5A
:10B17000C2E9001030208449087000204870FFF7B1
:10B180004DFBBFE002218048417401218174834856
:10B190000078012803D0824800780128C7D14020D8
:10B1A0008DF80000009807F06AFBABE07648007865
:10B1B000302811D17448C078002807DC312072494A
:10B1C0000870FFF7A9FBFFF729FB9BE06E48C078EA
:10B1D000401E6D49C87095E06B4800784128A6D1A3
:10B1E000092069490870FFF797FB02216648C1747E
:10B1F000FFF714FB86E064488078002897D1624806
:10B20000007906280EDC6048C078002802DCFFF7D1
:10B2100005FB77E05C48C078401E5B49C87071E070
:10B2200067E005E00221584841740021817469E01B
:10B2300055484078012865D153480078302817D107
:10B240005248D0E90430504AD2E90212591A60EB50
:10B250000200143970F1000054D309204A490870E3
:10B26000FFF75AFB02214848C174FFF7D7FA49E0BB
:10B2700045480078402814D14448D0E90410424A97
:10B28000D2E90232CB1A60EB02005A1F70F10000C3
:10B2900038D341203C490870FFF73EFBFFF7BEFA68
:10B2A00030E03948007841282CD13848D0E90410E2
:10B2B000354BD3E90223891A60EB0300C91E70F1F4
:10B2C00000001FD330480079022807DCFFF7A6FAF8
:10B2D0002D480079401C2C49087113E009202A49A7
:10B2E0000870FFF719FB02212748C174FFF796FA8F
:10B2F00008E02548407C022804D12348807C0128AE
:10B3000000D000BF08BD10B502211F48C17409203C
:10B310001D49087000204870FFF780FA10BD70B515
:10B320001948847D407C80B90920174908700121A3
:10B3300015484174FFF7F0FA0A20134948710121BA
:10B340001148C174FFF76AFAA2E10F48407C012856
:10B3500074D10D48407838B9FFF7DEFA0A200A495F
:10B360004871FFF75BFA93E10748407802287CD1E7
:10B3700005488078012879D103480078092820D130
:10B380000148C07C01280DE0A8010020D801002060
:10B390002802002083000020080000200300002075
:10B3A0008400002007D10D20F74908700020487064
:10B3B000FFF734FA6CE10221F348417401218174F2
:10B3C00066E1F14800780D2828D10121EE48807D02
:10B3D00000EB800202EBC002EC4800EB820001713E
:10B3E000002104EB840000EBC402E84800EB82007B
:10B3F0000186E748007848B104EB840101EBC40101
:10B40000E44A02EB411021460EF0DBFD2020DE492C
:10B41000087000204870FFF701FA39E1DA48007837
:10B4200020280CD1DC48D0E90410D74AC2E9021028
:10B430002120114608700120487029E11FE1D248FF
:10B44000007821288FD104EB840000EBC400D1499F
:10B4500001EB40104079401C04EB840101EBC40176
:10B46000CC4A02EB4111487101E05BE01BE004EBC8
:10B47000840000EBC400114601EB4010407904EB5E
:10B48000840101EBC40102EB41110979884202DB1E
:10B49000FFF739FFFCE02020BB490870002048700E
:10B4A000FFF7BCF9F4E0B8488078002888D1B648A6
:10B4B0004079B549097988420CDBB348C078002847
:10B4C00002DCFFF7ABF9E3E0AF48C078401EAE49BD
:10B4D000C870DDE0FFF717FF022104EB840000EBEA
:10B4E000C402AA4800EB8200017104EB840000EB67
:10B4F000C401A64800EB8100008E05288DDA04EB1C
:10B50000840000EBC401A14800EB8100008E401CC8
:10B5100081B204EB840000EBC4029C4800EB820083
:10B520000186B5E098484078012886D19648007891
:10B530000D2835D19848D0E90430934AD2E9021257
:10B540005B1A60EB020014229A1A70F1000026D3F5
:10B55000FFF7D9FE022104EB840000EBC4028B4804
:10B5600000EB8200017104EB840000EBC40187480A
:10B5700000EB8100008E052811DA04EB840000EB5B
:10B58000C401824800EB8100008E401C81B204EBB4
:10B59000840000EBC4027D4800EB8200018677E066
:10B5A00079480078212873D104EB840000EBC401B2
:10B5B000764800EB81004078012826D17648D0E912
:10B5C0000410714AD2E90232CB1A60EB02000A225F
:10B5D0009A1A70F100005BD304EB840101EBC40103
:10B5E0006C4A02EB41100422032102F067FB05467E
:10B5F000002D07DD20206449087000204870FFF707
:10B600000DF945E0FFF77FFE42E06348D0E9041002
:10B610005D4BD3E902268B1A60EB06005A1E70F1CF
:10B62000000035D304EB840000EBC400594901EB62
:10B6300040104079401C04EB840101EBC401554AE1
:10B6400002EB4111487104EB840000EBC400114689
:10B6500001EB4010407904EB840101EBC40102EBE3
:10B6600041110979884202DBFFF74DFE10E02020EE
:10B670004549087000204870FFF7D0F808E04248BC
:10B68000407C022804D14048807C012800D000BFC3
:10B6900070BD10B53C48407C50B90E203A49087046
:10B6A000FFF73AF9FFF7BAF80121374841745BE038
:10B6B0003548407C01284ED13348407820B9FFF707
:10B6C0002BF9FFF7ABF84FE02F484078022826D13E
:10B6D0002D488078012805D102212B484174012191
:10B6E000817441E02848807800283DD1264840797F
:10B6F0002549097988420CDB2348C078002802DC00
:10B70000FFF78CF830E02048C078401E1E49C87012
:10B710002AE002211C4841740021817424E01A4867
:10B720004078012820D11C48D0E90410164AD2E9FB
:10B730000232C91A60EB02000A3970F1000013D31B
:10B740000221114841740021817402200E49487081
:10B750000020887008E00C48407C022804D10A4888
:10B76000807C012800D000BF10BD10B50648407C89
:10B77000A0B9032004490870FFF7CEF8FFF74EF890
:10B7800001210148417463E0A80100202802002043
:10B7900001000020AC0D0020D8010020F948407CB9
:10B7A00001284CD1F748407820B9FFF7B5F8FFF7EA
:10B7B00035F84DE0F3484078022823D1F1488078ED
:10B7C000012805D10221EF484174012181743FE035
:10B7D000EC48807890BBEB48007905280CDCE94800
:10B7E000C078002802DCFFF719F831E0E548C0789E
:10B7F000401EE449C8702BE00221E2484174002158
:10B80000817425E0DF484078012821D1DE48D0E965
:10B810000430DC49D1E902219B1A60EB01000A22C5
:10B820009A1A70F1000013D30221D6484174002106
:10B8300081740220D34948700020887008E0D14804
:10B84000407C022804D1CF48807C012800D000BF72
:10B8500010BD0220CB49487000208870084600794E
:10B86000401C0871084640790979884213DBC548B5
:10B8700000790A2803DC0120C249C8700EE0C148E3
:10B880000079322803DC0520BE49C87006E0642038
:10B89000BC49C87002E00020BA49C870704710B5B2
:10B8A000B848407C50B90120B6490870FFF734F819
:10B8B000FEF7B4FF0121B348417492E0B148407CE7
:10B8C000012872D1AF48407820B9FFF725F8FEF77C
:10B8D000A5FF86E0AB484078022840D1A94880788F
:10B8E00001281FD1A74800780C2811D10120A549B3
:10B8F00081F8200081F82400A348D0E90410A14A6F
:10B90000C2E90A100221104641740121817468E0E5
:10B910009C480078401C9B490870FEF7FDFFFEF72D
:10B920007DFF5EE09748807800285AD1954840799D
:10B930009449097988420CDB9248C078002802DCDF
:10B94000FEF76CFF4DE08F48C078401E8D49C870EF
:10B9500047E002218B4841740021817441E089480D
:10B96000407801283DD18848D0E90420854BD3E9AF
:10B970000213511A60EB03000A3970F1000030D352
:10B98000804800790A2804DCFFF763FFFEF746FFD2
:10B9900027E002217B48417400218174022079490B
:10B9A0004870002088701CE0FFE77648407C022841
:10B9B00017D17448807C012813D07248807C80B9EC
:10B9C000704890F82100012809DC00F073F86D48F8
:10B9D00090F82100401C6B4981F8210001E000F043
:10B9E00040F810BD08B56748407C18B16548407CF8
:10B9F000022813D1684606F063FF01280ED19DF896
:10BA000000006049087400215E4841749DF80100FF
:10BA10005C4988719DF801105A4881755948007C2D
:10BA200009281BD2DFE800F01A05080B0E11141AC2
:10BA30001700FFF734FF12E0FFF797FE0FE0FFF764
:10BA400028FE0CE0FFF76BFC09E0FFF763FB06E064
:10BA5000FFF70CFA03E0FEF766FF00E000BF00BF4F
:10BA600008BD10B5012047490874002145484174BC
:10BA70000175012181740021C174012041490870C0
:10BA80000020487008713220487101208870002021
:10BA9000C87081F8220081F8230081F8200081F825
:10BAA000210081F824000021364A9162D162FFF71B
:10BAB00099FF10BD10B501203449086032200EF006
:10BAC000E9FB00203249C1F884020A200EF0E2FBB3
:10BAD0002C4890F82100401CC4B206F032FFFFF75A
:10BAE000C0FF284880F8214010BD08B512208DF80D
:10BAF0000000009806F0C3FE08BD022021494870EE
:10BB000001208870002008710120C870704710B5AE
:10BB100020A1214812F0DEFB044614B9FFF799FE7C
:10BB200001E0FFF7EAFFFEF787FBFFF75BFF10BDC1
:10BB30002DE9F047002600270025A94617A1164841
:10BB400012F0C8FB8046B8F1000F02D1FFF781FE6A
:10BB500049E0FFF7D2FF00243BE00F48005D3028AA
:10BB60002BDB0D48005D392827DC4FF00109CDB9EA
:10BB70000948005D303806EB860100EB4100C6B293
:10BB800025E00000A8010020D801002084024242E4
:10BB9000000042424F4B00001C2C00202B4353510D
:10BBA0003A000000012D12D1F648005D303807EB55
:10BBB000870100EB4100C7B209E0B9F1000F01D0E5
:10BBC000681CC5B2012D00DD07E04FF00009601CC4
:10BBD000C4B2ED4800888442BFDB00BFEB4880F868
:10BBE000226080F82370FEF727FBFFF7FBFEBDE81D
:10BBF000F08710B5E6A1E34812F06CFB044614B9D7
:10BC0000FFF727FE01E0FFF778FFFEF715FBFFF7D0
:10BC1000E9FE10BD70B5E2A1DA4812F05BFB044604
:10BC2000E2A1D84812F056FB05461CB915B9FFF73A
:10BC300010FE01E0FFF761FFFEF7FEFAFFF7D2FE0C
:10BC400070BD70B5DCA1CF4812F044FB0446DDA105
:10BC5000CC4812F03FFB05461CB915B9FFF7F9FDBA
:10BC600001E0FFF74AFFFEF7E7FAFFF7BBFE70BD02
:10BC700010B5AFF2E001C34812F02CFB044614B932
:10BC8000FFF7E7FD01E0FFF738FFFEF7D5FAFFF712
:10BC9000A9FE10BD10B5AFF20411BA4812F01AFB9C
:10BCA000044614B9FFF7D5FD01E0FFF726FFFEF7C4
:10BCB000C3FAFFF797FE10BD10B5AFF22811B148D7
:10BCC00012F008FB044614B9FFF7C3FD05E001209C
:10BCD000AE4981F82000FFF710FFFEF7ADFAFFF73D
:10BCE00081FE10BD10B5FFF708FFFEF7A5FAFFF7BC
:10BCF00079FE10BD2DE9F04F93B000201190002582
:10BD00000026002780468146824683460024109004
:10BD1000AFA19C4812F0DEFA1290129830B91120AF
:10BD2000AD4981F83000FFF794FDE0E01020AA490A
:10BD300081F83000FFF7E1FE00246FE01198A0B910
:10BD40009048005D302867DB8E48005D392863DC51
:10BD500001201190012510908A48005D303806EBD3
:10BD6000860100EB4100C6B256E08648005D3028EF
:10BD700049DB8448005D392845DC01201090072DFF
:10BD80003FD2DFE805F03E040D16202A34007D483E
:10BD9000005D303806EB860100EB4100C6B231E0B1
:10BDA0007848005D303807EB870100EB4100C7B2EF
:10BDB00028E07448005D303808EB880100EB410052
:10BDC00000F0FF081EE06F48005D303809EB890184
:10BDD00000EB410000F0FF0914E06A48005D3038D4
:10BDE0000AEB8A0100EB410000F0FF0A0AE0654817
:10BDF000005D30380BEB8B0100EB410000F0FF0BD6
:10BE000000E000BF08E0109830B1681CC5B2062DF4
:10BE100000DD07E000201090601CC4B25A48008882
:10BE200084428BDB00BF02968DF80C708DF80D807C
:10BE30008DF80F908DF810A08DF811B002A800F0C9
:10BE400092FD012011F097FA9DF80F008DF8000087
:10BE50009DF810008DF801009DF811008DF802008A
:10BE60009DF80F000C2801DB402000E000208DF839
:10BE700003006946002010F021FD01A9002010F008
:10BE800021FE9DF807000299884219D19DF805000E
:10BE90009DF80C10884201D0012000E000209DF8A0
:10BEA00006109DF80D20914201D0012100E00021F3
:10BEB000084328B99DF804009DF80E10884213D05D
:10BEC0000298C0B28DF807009DF80C008DF80500AF
:10BED0009DF80D008DF806009DF80E008DF8040009
:10BEE00001A9002010F088FD002011F044FAFEF7AF
:10BEF000A3F9FFF777FD13B0BDE8F08F10B537A1B8
:10BF0000204812F0E7F904465CB938A11D4812F048
:10BF1000E1F9044614B9FFF79CFC0DE0FFF7EDFDD5
:10BF20000AE034A1174812F0D5F9044614B9FFF716
:10BF3000E4FD01E0FFF78DFCFEF77EF9FFF752FD0F
:10BF400010BD10B5AFF2B4310E4812F0C3F904467B
:10BF50008CB928A10B4812F0BDF9044614B9FFF7BB
:10BF600078FC0AE0092009490870FEF7D5FC022197
:10BF70000648C17401E0FFF7C0FDFEF75DF9FFF769
:10BF800031FD10BD1C2C002090010020A8010020D4
:10BF90002B4350494E3A205245414459000000007D
:10BFA0002B435245473A20302C3100002B43524559
:10BFB000473A20302C3500002B43475245473A2062
:10BFC000302C31002B43475245473A20302C350066
:10BFD0002B43434C4B3A0000D80100202B51494FD2
:10BFE00050454E3A20302C3000000000434F4E4E5A
:10BFF00045435400636C6F7365640000F0B5ADF2A7
:10C00000044D002400254FF4806101A812F0EBF9E3
:10C010000026F8A1F94812F05DF90746FFF76DFD1B
:10C02000FEF70AF90DF2044DF0BDF8B5F4A0006872
:10C03000009000260027F348007870B3FF22F248F2
:10C040000188EE4800F0FCFB04461CB93720FEF7DF
:10C050009FF963E0E948007800EB4001C1EB8025DF
:10C06000E9480088C01E82B20123E449284605F051
:10C07000F5FEE6480078401CE44908703620FEF7DB
:10C0800087F9E2480078E2490978884246DB0422D1
:10C090006946E04805F005FF40E0FFE70022DA4886
:10C0A0000188D64800F0CCFB04461CB93520FEF7C9
:10C0B0006FF933E0012C03D13120FEF769F92DE04F
:10C0C000022C0FD10221CD4803F08EF9D24800781E
:10C0D00020B1D24AD249D3480DF077FB3420FEF785
:10C0E00057F91BE0032C11D10120C6490870C34841
:10C0F000C078C74908700020C4490870CA49087050
:10C1000005F083FE3620FEF743F907E0042C05D145
:10C110000120C64908703820FEF73AF90CB1FE2C10
:10C1200014D1C3A1B54812F0D5F80646AFF23C11C0
:10C13000B24812F0CFF8074606B93FB10920BF490F
:10C140000870FEF7E9FB0221BC48C174FE2C05D043
:10C15000BB48D0E90410B94AC2E90210FEF76CF8F6
:10C16000F8BD10B5FFF7C9FCFEF766F810BD014633
:10C170000020A24A525C682A23D1A04B01F1090297
:10C180009A5C022A0ED101F10A029A5CF02A01D1CE
:10C19000012016E0994B01F10A029A5CF22A10D1B3
:10C1A00002200EE0954B01F109029A5C112A01D19F
:10C1B000042006E0914B01F109029A5CC02A00D1EB
:10C1C000082070472DE9F05F0026002700244FF07B
:10C1D0000109A2469948857DA3468B4800880A2814
:10C1E00003DCFEF729F8BDE8F09F84480078682852
:10C1F0003BD185480088172805DD8048407800F14C
:10C20000050A4FF0020900242DE004FB0AF188B270
:10C21000FFF7ADFF0746082F22D105EB850000EBA5
:10C22000C500884901EB40104079401C05EB8501B1
:10C2300001EBC501834A02EB4111487105EB850012
:10C2400000EBC500114601EB4010407905EB85017C
:10C2500001EBC50102EB41110979884200DB00279F
:10C260003E43601CC4B24C45CFDBAFF2782163483B
:10C2700012F030F880466EA1604812F02BF8834629
:10C28000B8F1000F02D1BBF1000F1CD0002005EB6C
:10C29000850101EBC5016B4A02EB411148715E4813
:10C2A000007840B105EB850101EBC50102EB4110BF
:10C2B00029460DF004FF092060490870FEF72CFBA9
:10C2C00002215E48C174FDF7B7FF012407E006EACA
:10C2D000040010B12046FEF718FD6006040E102C75
:10C2E000F5DB00BF7FE770B55448847D0026AFF2D0
:10C2F0000431424811F0EEFF054615B9FFF7A9FADF
:10C3000041E0AFF210313D4811F0E4FF0546BDBBFE
:10C310004148007848B104EB840101EBC401494A6B
:10C3200002EB411021460DF04CFE37480088401EBC
:10C330003249085C162800D10126002042490870C5
:10C34000012104EB840000EBC4023548183000EBF7
:10C3500082000171002104EB840000EBC40230482C
:10C36000183000EB8200018651203449087001200A
:10C3700048703348D0E90410304AC2E9021002E0A4
:10C38000FFE7FFF766FAFDF757FF16B10120FEF74A
:10C39000BCFCFFF727FB70BD10B5284800782028AB
:10C3A00070D00BDC0F286ED2DFE800F09B555B5895
:10C3B0005D6366695E5F6E7174777E0035287BD041
:10C3C0000EDC322875D006DC212878D0302865D0E4
:10C3D000312858D16EE033286AD0342853D16AE02E
:10C3E000502878D032DC40286FD0412870D04228C5
:10C3F00077D13BE02B514955524300001C2C0020C3
:10C400004A53030103000020900100208100002016
:10C410008000002000FF070801000020000B002022
:10C4200010020020C80300208200002084000020A9
:10C430004E4F20434152524945520000A80100206E
:10C44000D8010020AC0D002083000020512845D0E9
:10C45000FF2846D106E0FFF75AFB43E0FFF768FBF1
:10C4600040E000BF00BF00BF00BF00BFFFF73AFCC5
:10C4700038E0FFF7BEFB35E0FFF7CCFB32E0FFF71B
:10C48000E0FB2FE013E02CE0FFF7F2FB2AE0FFF7E0
:10C4900001FC27E0FFF710FC24E000BFFFF72EFDB2
:10C4A00020E009E005E00AE0FFF724FC1AE000BF05
:10C4B00000BF00BF00BF00BFFFF743FD12E0FFF762
:10C4C0009DFD0FE007E000E002E0FFF7AEFD09E0B0
:10C4D000FFF747FE06E0FFF706FF03E0FFF772FEF7
:10C4E00000E000BF00BF10BD70B50446FF257CA072
:10C4F00011F07CFD64200DF0CDFE21467CA011F0F2
:10C5000075FD64200DF0C6FE1A217A480EF0A8FDD4
:10C5100000BF402177480EF053FE0028F9D0642078
:10C520000DF0B8FE74A1764811F0D4FE754908608C
:10C5300008E071A1724811F0CDFE724908600A202E
:10C540000DF0A8FE6F4800680028F2D064200DF0BE
:10C55000A1FEFDF771FE6CA011F048FDC8200DF0A2
:10C5600099FE6DA1664811F0B5FE664908601FE0AE
:10C5700065A011F03BFDC8200DF08CFE66A160485F
:10C5800011F0A8FE5F49086066A15E48006811F0DE
:10C59000A1FE5C49086063A15A480068401C11F084
:10C5A00099FE584908600846006840783038C5B29E
:10C5B000002DDDD1FDF740FE70BD70B50446FF25AE
:10C5C0001D20594981F82300084690F820000128D1
:10C5D00000D070BD55A011F009FD4FF4FA700DF0B8
:10C5E00059FE21465E4811F001FD0A200DF052FE71
:10C5F0001A2140480EF034FD64200DF04BFE5948DE
:10C6000011F0F4FC0A200DF045FEFDF715FE00BF09
:10C61000DFE730B5C1B0002040904FF4807168462C
:10C6200011F0E1FE0024002512E03548025D4EA124
:10C6300040A811F0E7FC9DF8002128466D1C0DF87C
:10C6400000209DF8012128466D1C0DF80020641C77
:10C65000322CEADB00200DF805006846FFF7ADFF3D
:10C66000FDF7EAFD41B030BD2DE9F041ADF5027DA9
:10C6700006460F464FF4007102A811F0B4FE0020E8
:10C680000190002400254FF0FF0800BF10E0325D4C
:10C6900035A101A811F0B6FC9DF8042028466D1CB8
:10C6A00002A90A549DF8052028466D1C0A54641CF2
:10C6B000BC42ECD3002002A94855294811F096FC51
:10C6C0000A200DF0E7FD1A210A480EF0C9FC0A20E5
:10C6D0000DF0E0FDFDF7B0FD0DF5027DBDE8F08148
:10C6E00041542B514953454E443D300D0A00000042
:10C6F000257300000044004053454E44204F4B003A
:10C700001C2C00207400002041542B514953454EED
:10C71000443D302C300D0A002B514953454E443ACC
:10C72000000000002C000000A801002041542B5103
:10C73000494F50454E3D312C302C22544350222C31
:10C74000223131352E3233362E3135332E313730DA
:10C75000222C34383530302C302C310D0A000000BA
:10C7600084A60008E8AA00082530327800000000FE
:10C7700070B505460C4645F255500FF0D3FB2846E0
:10C780000FF0D3FB20460FF0D3FB0FF0D4FB0FF0DC
:10C79000D7FB70BD10B50FF0CEFB10BD30B5024613
:10C7A0000B460020002112E0555C684008240BE095
:10C7B00000F0800525B14506280E80F0E50001E077
:10C7C0004506280E651EECB2002CF1DC491C99428E
:10C7D000EAD330BD70B502460B464FF6FF7000211C
:10C7E00010E0565C7040002408E000F001054010A5
:10C7F00015B14AF201067040661CB4B2082CF4DB95
:10C800004E1CB1B29942ECDB70BD30B502460B460E
:10C810004FF0FF310FE012F8010B4140002408E017
:10C8200001F001004042FB4D284080EA5101601CAC
:10C83000C4B2082CF4DB581E031EECDAC84330BD2A
:10C84000F0B504460D461746052D01D20020F0BD77
:10C85000FF2F07D020784A2802D16078532801D0D2
:10C86000FE20F4E7A81E81B22046FFF7B3FF06467C
:10C87000F1B2A81E205C814204D1681E205CB0EB9E
:10C88000162F01D00020E2E7FF2F01D0A078DEE7CD
:10C890000120DCE70146002204E0501CC2B2A1F1F5
:10C8A0000A00C1B20A29F8DA100741EA106070479D
:10C8B00030B5014600200122012313E0022B03DBE7
:10C8C0004FF6FF7404EA02120A2491FBF4F504FB0C
:10C8D000151404FB0204A0B20A2491FBF4F4A1B2E3
:10C8E0005C1CA3B20029E9DC30BD10B50146002074
:10C8F000012201230AE0022B02D302EB8204620030
:10C9000001F00F0404FB020009095B1C0029F2D1AD
:10C9100010BD70B503460020012901D0022903D1C2
:10C9200001F10C04E1B25B1E4C1C04EB4404052530
:10C9300094FBF5F5541C022606FB01442C441C44D0
:10C9400004EB93046425B3FBF5F5641B4FF4C87541
:10C95000B3FBF5F52C440725B4FBF5F605FB1640B3
:10C9600000B9072070BD30B50446002520790128A4
:10C9700011D0207903280ED0207905280BD02079FA
:10C98000072808D02079082805D020790A2802D065
:10C9900020790C2801D11F2526E02079042808D011
:10C9A0002079062805D02079092802D020790B2883
:10C9B00001D11E2518E02079022815D14FF4C87145
:10C9C0002068B0FBF1F201FB120050B1207800F0BA
:10C9D000030040B964212068B0FBF1F201FB1200B2
:10C9E00008B11D2500E01C25E0790830E071E079F0
:10C9F000182815DBE0791838E0716079401C607107
:10CA00006079A8420CDD012060712079401C207102
:10CA100020790C2804DD012020712068401C206052
:10CA2000627921792068FFF774FFA07130BD4FF45F
:10CA30001651816000218180418001807047012171
:10CA400001709FED750B80ED020B9FED750B80ED76
:10CA5000040B9FED710B80ED160B9FED6F0B80EDBE
:10CA60000A0B9FED6D0B80ED100B9FED6B0B80EDB6
:10CA7000180B9FED6D0B80ED0C0B42F210710187CE
:10CA80009FED6B0B80ED060B9FED6B0B80ED120B9A
:10CA90009FED610B80ED080B9FED5F0B80ED140B9C
:10CAA0000A2180F8681070479FED5B0B80ED000B4A
:10CAB0009FED590B80ED040B9FED570B80ED020BA2
:10CAC0009FED550B80ED060B9FED530B80ED080B92
:10CAD0009FED510B80ED0A0B9FED4F0B80ED0C0B82
:10CAE000704700B502460120107050700020107190
:10CAF000012090700020D0700120107202F1880097
:10CB0000FFF7D2FF02F11800FFF799FF02F1C00012
:10CB1000FFF78DFF00BD024690688B6898420DD1EB
:10CB200090888B88984209D150884B88984205D1CB
:10CB300010880B88984201D1012070470020FCE743
:10CB400010B503460020187000240BE004EB8401AC
:10CB500001EBC40203F1080101EB0210FFF7C1FF72
:10CB6000601CC4B2062CF1DB10BD0FB42DED020B1E
:10CB700030B52DED108B8FB0B0EE40AAF0EE60AA6C
:10CB8000419D409C9DED281BB0EE410AF0EE610AEC
:10CB90009FED211B53EC112B51EC100B14F0DAFD1F
:10CBA00030D09DED341BB0EE410AF0EE610A9FEDEE
:10CBB0001A1B53EC112B51EC100B14F0CBFD21D0B0
:10CBC0009DED2C2BB0EE420AF0EE620A9DED2E2B6D
:10CBD000B0EE421AF0EE621A53EC102B51EC110B2E
:10CBE00014F0B8FD2CD19DED2E1BB0EE410AF0EEF5
:10CBF000610A9FED091B53EC112B51EC100B14F043
:10CC0000A9FD1DD101200FB0BDEC108B30BC5DF82B
:10CC10001CFB00002083B8ED0000000000000000B5
:10CC20000AD7A3703D0A973F00000000000024408F
:10CC30002D431CEBE2361A3F000000000000E03FED
:10CC40009DED261BB0EE410AF0EE610A1FED0E1BB2
:10CC500053EC112B51EC100B14F040FE03D21FEDDE
:10CC6000120B8DED260BB0EE4A9AF0EE6A9A9DED0E
:10CC7000261BB0EE410AF0EE610A53EC102B51EC8A
:10CC8000190B14F02BFE0CD39DED341BB0EE410AB2
:10CC9000F0EE610A53EC102B51EC190B14F058FF15
:10CCA00006D202200FB0BDEC108B30BC5DF81CFB2F
:10CCB0009DED261BB0EE410AF0EE610A53EC102BFD
:10CCC00051EC190B15F052F841EC1C0B9DED2C2B7F
:10CCD000B0EE420AF0EE620A9DED2E2BB0EE421A43
:10CCE000F0EE621A53EC102B51EC110B14F032FDE4
:10CCF00010D19DED2C0BB0EE40BAF0EE60BA9DED78
:10CD00002E0BB0EE408AF0EE608AB0EE4CFAF0EEF8
:10CD10006CFAC9E09DED2C2BB0EE420AF0EE620AEF
:10CD20009DED2E2BB0EE421AF0EE621A53EC102B52
:10CD300051EC110B15F01AF8CDE908019DED341BEB
:10CD4000B0EE410AF0EE610A53EC102B9DED081B8A
:10CD500051EC110B14F0A6FBCDE90A019DED261B49
:10CD6000B0EE410AF0EE610A53EC102B9DED0A1B68
:10CD700051EC110B14F0EEFDCDE908019DED2E1BD9
:10CD8000B0EE410AF0EE610A53EC102B9DED081B4A
:10CD900051EC110B14F012FF41EC180B53EC192B52
:10CDA0009DED0A0B51EC100B14F0D4FDCDE90801F8
:10CDB0009DED2E1BB0EE410AF0EE610A53EC102BF4
:10CDC0009DED081B51EC110B14F0F8FE41EC1B0B10
:10CDD0009DED342BB0EE420AF0EE620A9DED342B4D
:10CDE000B0EE421AF0EE621A53EC102B51EC110B1C
:10CDF00014F0B0FD53EC1B2BCDE9080151EC180BDE
:10CE000014F0B4FF53EC1B2BCDE9020151EC180BCD
:10CE100014F0ACFFCDE900019DED020B53EC102B9B
:10CE20009DED000B51EC100B14F094FD9FEDFE0BEB
:10CE300053EC102BCDE904019DED040B51EC100BCC
:10CE400014F030FBCDE906019DED080B53EC102BDF
:10CE50009DED060B51EC100B14F068FA41EC1D0B24
:10CE60001FED8B1BB0EE4D0AF0EE6D0A12F008FDBF
:10CE70008DED060B53EC1C2B9DED060B51EC100BAE
:10CE800014F068FDCDE908019DED341BB0EE410AB8
:10CE9000F0EE610A53EC102B9DED081B51EC110BC9
:10CEA00014F000FB41EC1F0B53EC1B2B51EC180B47
:10CEB00014F03CFA53EC1C2BCDE906019DED060B5A
:10CEC00051EC100B14F046FD9FEDD90B53EC102BD9
:10CED000CDE908019DED080B51EC100B14F0E2FABE
:10CEE00041EC1E0B9FEDD20B53EC102B51EC1F0BA2
:10CEF00014F030FD53EC182BCDE906019DED060B27
:10CF000051EC100B14F012FACDE908019DED080B5D
:10CF100053EC102B51EC1E0B14F0C4FA41EC1D0B1A
:10CF20009FEDC51BB0EE4D0AF0EE6D0A12F0A8FCA5
:10CF30008DED080B9DED281BB0EE410AF0EE610A65
:10CF400053EC102B9FEDBE1B51EC110B14F0AAFA01
:10CF5000CDE906019DED080B53EC102B9DED060B62
:10CF600051EC100B14F0F6FCCDE90C019DED2A1BE1
:10CF7000B0EE410AF0EE610A53EC102B51EC1D0BA0
:10CF800014F0E8FC1FEDD41BCDE906019DED060B66
:10CF900012F076FC8DED080B9DED0C0B53EC102B75
:10CFA0009DED080B51EC100B14F0D4FCC4E900010A
:10CFB00094ED001BB0EE410AF0EE610A53EC1E2B1B
:10CFC00051EC100B14F0C6FCC5E90001002069E625
:10CFD0000FB42DED020B30B52DED108B99B0B0EEE6
:10CFE00040CAF0EE60CA4B9D4A9C9DED321BB0EEEC
:10CFF000410AF0EE610A1FEDF81B53EC112B51ECC6
:10D00000100B14F0A7FB06D1012019B0BDEC108B5A
:10D0100030BC5DF81CFB9DED400BB0EE408AF0EE9D
:10D02000608A9DED3E0B8DED0E0B9DED301BB0EE3D
:10D03000410AF0EE610A9FED841B53EC112B51EC79
:10D04000100B14F04BFC03D29FED7F0B8DED300BDA
:10D05000B0EE4C9AF0EE6C9A9DED301BB0EE410AAA
:10D06000F0EE610A53EC102B51EC190B14F036FC66
:10D070000FD39DED0E0B53EC102B51EC190B14F04C
:10D0800067FD06D353EC182B51EC190B14F060FD1F
:10D0900001D20220B9E79DED401BB0EE410AF0EE4F
:10D0A000610A9FED691B53EC112B51EC100B14F02E
:10D0B00015FC01D80320A8E753EC192B51EC180BF1
:10D0C00014F054FE41EC1A0B53EC1A2B51EC1A0BD2
:10D0D00014F040FC53EC182BCDE9020151EC180B75
:10D0E00014F038FCCDE900019DED020B53EC102B40
:10D0F0009DED000B51EC100B14F038FE9FED541B0E
:10D10000CDE904019DED040B12F0BAFB8DED060B89
:10D110009FED470B53EC102B9DED060B51EC100BC4
:10D1200014F018FCCDE9100153EC182B51EC1A0B3C
:10D1300014F0B8F9CDE904019DED040B12F090F95B
:10D140008DED060B9FED3A0B53EC102B9DED060B6E
:10D1500051EC100B14F0FEFBCDE912019DED401BCC
:10D16000B0EE410AF0EE610A53EC102B9DED121B5C
:10D1700051EC110B14F0EEFB41EC1E0B53EC1A2B8F
:10D180009DED100B51EC100B14F0E4FB53EC182B3D
:10D19000CDE9040151EC1E0B14F0DCFBCDE90201DA
:10D1A0009DED040B53EC102B9DED020B51EC100B7D
:10D1B00014F0DCFD9FED260B53EC102BCDE906019E
:10D1C0009DED060B51EC100B14F0C4FB41EC1D0B54
:10D1D0009DED301BB0EE410AF0EE610A9FED1A1B87
:10D1E00053EC112B51EC100B14F0B2FC7DD29DEDE1
:10D1F000301BB0EE410AF0EE610A53EC102B51ECFB
:10D20000180B14F0B3FD41EC1B0B53EC1B2B51EC32
:10D210001B0B14F09FFB53EC182BCDE9020151ECD2
:10D22000180B14F097FB17E00000000000001040FE
:10D230000000000000000040555555555555C53FAC
:10D24000000000000000F03F0000000000000000AF
:10D25000000000000000E03FCDE900019DED020B61
:10D2600053EC102B9DED000B51EC100B14F07EFDD8
:10D270001FED091BCDE904019DED040B12F000FB2D
:10D280008DED060B1FED160B53EC102B9DED060BD1
:10D2900051EC100B14F05EFB41EC1F0B53EC182B00
:10D2A00051EC1B0B14F0FEF8CDE904019DED040BCD
:10D2B00012F0D6F88DED060B1FED230B53EC102B5F
:10D2C0009DED060B51EC100B14F044FBCDE90C0165
:10D2D00053EC182B9DED0C0B51EC100B14F03AFB9A
:10D2E000CDE9080153EC1B2B00E028E051EC1F0BAB
:10D2F00014F030FB53EC182BCDE904019DED080B25
:10D3000051EC100B14F026FBCDE902019DED040B4E
:10D3100053EC102B9DED020B51EC100B14F026FD7D
:10D320001FED350B53EC102BCDE906019DED060BDF
:10D3300051EC100B14F00EFBCDE90A0109E01FEDD2
:10D340003EFB1FED3F0B8DED0A0B1FED410B8DEDED
:10D35000080B9DED0A0B53EC102B51EC1D0B14F038
:10D3600005FD41EC1D0B9DED080B53EC102B51EC12
:10D370001E0B14F0FBFC53EC1F2BCDE906019DEDB9
:10D38000060B51EC100B13F0D1FF41EC1E0B53ECCC
:10D390001E2B51EC1D0B14F085F8CDE914011FED87
:10D3A0005A1B9DED140B12F06BFA8DED060B9DEDE3
:10D3B000321BB0EE410AF0EE610A53EC102B1FED68
:10D3C000601B51EC110B14F06DF8CDE904019DEDDB
:10D3D000060B53EC102B9DED040B51EC100B14F0CD
:10D3E000B9FACDE916019DED341BB0EE410AF0EE1D
:10D3F000610A53EC102B9DED141B51EC110B14F032
:10D40000A9FA1FED6D1BCDE904019DED040B12F08F
:10D4100037FA8DED060B9DED160B53EC102B9DEDA1
:10D42000060B51EC100B14F095FAC4E9000194EDD1
:10D43000001BB0EE410AF0EE610A53EC1D2B51ECDB
:10D44000100B14F087FAC5E900010020DDE50FB4E8
:10D450002DED020B30B52DED108B9FB0B0EE40BA24
:10D46000F0EE60BA519D509C9DED381BB0EE410A24
:10D47000F0EE610A1FED8C1B53EC112B51EC100BDD
:10D4800014F068F906D101201FB0BDEC108B30BC40
:10D490005DF81CFBB0EE4BAAF0EE6BAA1FED960BED
:10D4A00053EC102B51EC1A0B14F018FA0CD39DED21
:10D4B000441BB0EE410AF0EE610A53EC102B51EC24
:10D4C0001A0B14F045FB01D20220DDE79DED489BCD
:10D4D0001FEDA30B53EC102B51EC190B14F0FEF9BC
:10D4E00001D80320D0E79DED4A8B9FEDFE0B11F094
:10D4F000B7FF8DED100B9FEDFD0B53EC102B9DED49
:10D50000100B51EC100B13F0CDFF53EC182BCDE9A1
:10D5100012019DED120B51EC100B14F01BFACDE92A
:10D5200014019DED140B12F0D3FF8DED160B1FEDC2
:10D53000BC0B53EC102B9DED160B51EC100B14F0A3
:10D540003DFB53EC192BCDE918019DED180B51EC67
:10D55000100B14F0FFF941EC1F0B53EC1F2B51EC97
:10D560001A0B14F0BBF90FD8602238A96846CDE930
:10D57000184510F006FFB0EE4B0AF0EE6B0A34A827
:10D580000FC8FFF725FD7FE753EC1F2B51EC1A0B5B
:10D5900014F0ECFB41EC1C0B9FEDD20B11F060FF83
:10D5A0008DED080B9FEDD10B53EC102B9DED080B6F
:10D5B00051EC100B13F076FF53EC182BCDE90A0158
:10D5C0009DED0A0B51EC100B14F0C4F9CDE90C01E0
:10D5D0009DED0C0B12F0E0FF8DED0E0B53EC1C2BB0
:10D5E0009DED0E0B51EC100B14F0B4F99FEDBD0B3B
:10D5F000CDE9120111F034FF8DED060B9FEDBB0B51
:10D6000053EC102B9DED060B51EC100B13F04AFF61
:10D6100053EC182BCDE908019DED080B51EC100BD4
:10D6200014F098F9CDE90A019DED0A0B12F0C4F847
:10D630008DED0E0B53EC192B9FEDAE0B51EC100B37
:10D6400014F088F9CDE90C019DED0E0B53EC102B75
:10D650009DED0C0B51EC100B14F07CF9CDE9100191
:10D660009DED120B53EC102B9DED100B51EC100B9C
:10D6700013F05CFE53EC1C2BCDE914019DED140B53
:10D6800051EC100B14F066F99FED960BCDE91801E3
:10D6900011F0E6FE8DED060B9FED940B53EC102B75
:10D6A0009DED060B51EC100B13F0FCFE53EC182B08
:10D6B0009FED900BCDE90A0151EC100B14F04AF9E3
:10D6C000CDE908019DED0A0B53EC102B9DED080BE5
:10D6D00051EC100B14F03EF9CDE90C019DED0C0B53
:10D6E00012F0F6FE8DED100B9FED840B53EC102B1A
:10D6F00051EC180B13F0D6FE9FED820B53EC102B60
:10D70000CDE908019DED080B51EC100B14F056FA11
:10D710009FED740BCDE90C0111F0A2FE8DED0A0B0B
:10D720009DED0C0B53EC102B9DED0A0B51EC100BE7
:10D7300014F010F9CDE90E019DED100B53EC102BF8
:10D740009DED0E0B51EC100B14F010FB53EC192B4C
:10D75000CDE9140151EC190B14F0FCF89FED650BA9
:10D7600053EC102BCDE910019DED100B51EC100B7B
:10D7700013F098FECDE912019DED140B53EC102B24
:10D780009DED120B51EC100B14F0E4F8CDE91601ED
:10D790009DED180B53EC102B9DED160B51EC100B5F
:10D7A00013F0C4FD41EC1E0B9FED4E0B11F058FE23
:10D7B0008DED0C0B9FED4D0B53EC102B9DED0C0BD9
:10D7C00051EC100B13F06EFE53EC182BCDE90E014B
:10D7D0009DED0E0B51EC100B14F0BCF8CDE91001CF
:10D7E0009DED100B11F0E8FF8DED140B53EC1C2B8D
:10D7F0009FED400B51EC100B14F0ACF8CDE9120189
:10D800009DED140B53EC102B9DED120B51EC100BF6
:10D8100013F048FE9FED390B53EC102BCDE91801A6
:10D8200051EC180B13F03EFE9FED360B53EC102B12
:10D83000CDE910019DED100B51EC100B14F0BEF969
:10D840009FED280BCDE9140111F00AFE8DED100BB0
:10D8500053EC192B9DED100B51EC100B14F07AF8D2
:10D86000CDE912019DED140B53EC102B9DED120B25
:10D8700051EC100B14F06EF8CDE916019DED180B6C
:10D8800053EC102B9DED160B51EC100B13F04EFDCD
:10D89000CDE91A019DED1A0B53EC102B51EC1E0B28
:10D8A00013F000FE41EC1D0B9FED181BB0EE4D0A6E
:10D8B000F0EE6D0A11F0E4FF8DED180B9DED381BB5
:10D8C000B0EE410AF0EE610A53EC102B9FED0D1BF8
:10D8D00051EC110B13F0E6FDCDE916019DED180B8F
:10D8E00018E00000000000000000F0BF0000000091
:10D8F00000806640000000000000004000000000C2
:10D9000000805640000000000000F03F555555557E
:10D910005555C53F53EC102B9DED160B51EC100BDC
:10D9200014F018F8CDE91C019DED3A1BB0EE410A48
:10D93000F0EE610A53EC102B51EC1D0B14F00AF8B9
:10D940009FEDF71BCDE916019DED160B11F098FF29
:10D950008DED180B9DED1C0B53EC102B9DED180B52
:10D9600051EC100B13F0F6FFC4E9000194ED001B1D
:10D97000B0EE410AF0EE610A53EC1E2B51EC100B95
:10D9800013F0E8FFC5E9000100207DE50FB42DED9F
:10D99000020B30B52DED028B9BB0B0EE408AF0EE5D
:10D9A000608ADDE93E459DF88800012814D1602297
:10D9B00026A96846CDE9184510F0E3FCB0EE480A08
:10D9C000F0EE680A22A80FC8FFF7CFF81BB0BDEC35
:10D9D000028B30BC5DF81CFB9DF8880002280FD13B
:10D9E000602226A96846CDE9184510F0CAFCB0EEC1
:10D9F000480AF0EE680A22A80FC8FFF7E9FAE5E73F
:10DA00009DF8880003280FD1602226A96846CDE939
:10DA1000184510F0B6FCB0EE480AF0EE680A22A8ED
:10DA20000FC8FFF714FDD1E70120CFE703210170F4
:10DA30000121817000214170017141717F2181714B
:10DA40000021C17101720121417241F69071418141
:10DA50004FF49671416200218162C16201214177D8
:10DA60008177082101840121C1700177002101869D
:10DA7000704710B5024600201070002317E003EB3A
:10DA8000830101EBC30402F1180101EB8400FFF7ED
:10DA9000CDFF03EB8300410003EB830000EBC304E5
:10DAA00002F1180000EB84008162581CC3B2082BFD
:10DAB000E5DB002050601081002305E0002102F129
:10DAC0000A00C154581CC3B2072BF7DBDA2050748C
:10DAD0005F2191744321D1746B21117540F62B1095
