:020000040800F2
:1080000098750020217D0108C18B0008C38B0008F2
:10801000C78B0008CB8B0008CF8B00080000000046
:10802000000000000000000000000000D38B0008EA
:10803000D58B000800000000D78B0008D98B000802
:108040003B7D01083B7D01083B7D01083B7D01082C
:108050003B7D01083B7D01083B7D01083B7D01081C
:108060003B7D01083B7D01083B7D01083B7D01080C
:108070003B7D01083B7D01083B7D01083B7D0108FC
:108080003B7D01083B7D01083B7D01083B7D0108EC
:108090003B7D01083B7D01083B7D01083B7D0108DC
:1080A0003B7D01083B7D01083B7D01083B7D0108CC
:1080B000039E0008479E0008899E00083B7D01083A
:1080C0003B7D01083B7D01083B7D01083B7D0108AC
:1080D0003B7D01089D8D0008CB7C0108D111010872
:1080E0003B7D01083B7D01083B7D01083B7D01088C
:1080F0003B7D01083B7D01083B7D01083B7D01087C
:108100003B7D0108D53A01083B7D01083B7D010814
:108110003B7D01083B7D01083B7D01087912010888
:108120003B7D01083B7D01083B7D01083B7D01084B
:108130003B7D01083B7D01083B7D01083B7D01083B
:108140003B7D01083B7D01083B7D01083B7D01082B
:108150003B7D01083B7D01083B7D01083B7D01081B
:108160003B7D01083B7D01083B7D01083B7D01080B
:108170003B7D01083B7D01083B7D01083B7D0108FB
:108180003B7D01083B7D010800F002F800F075F826
:108190000AA090E8000C82448344AAF10107DA4562
:1081A00001D100F06AF8AFF2090EBAE80F0013F03F
:1081B000010F18BFFB1A43F001031847587B010059
:1081C000787B01000A444FF0000C10F8013B13F0DB
:1081D000070408BF10F8014B1D1108BF10F8015B20
:1081E000641E05D010F8016B641E01F8016BF9D113
:1081F00013F0080F1EBF10F8014BAD1C0C1B09D16A
:108200006D1E58BF01F801CBFAD505E014F8016BDB
:1082100001F8016B6D1EF9D59142D6D3704700006D
:108220000023002400250026103A28BF78C1FBD87F
:10823000520728BF30C148BF0B607047662917F04E
:108240005683642913F0A083752913F09D83782940
:1082500013F0D683732913F0F287002070471FB5FF
:1082600017F03BFB14F002F804000020002116F088
:1082700065FCE0601FBD10B510BD14F0FFF811469D
:10828000FFF7EDFF00F0DFFA14F01DF903B4FFF77C
:10829000F2FF03BC0FF0A0FC30BF72B6704762B6AD
:1082A000704780F308887047FD48007820B1FD4A88
:1082B000FD49FE480EF022FF64200FF06DFC012006
:1082C000FB4908604FF47A700FF066FC00BF00BFF6
:1082D00000BF00BF00BFBFF34F8F00BF00BF00BF94
:1082E000F448006800F4E060F3490843001DF149D8
:1082F000086000BF00BF00BFBFF34F8F00BF00BFCB
:1083000000BF00BFFEE70120E84908700121E748EF
:1083100081720120E54908720121E44841723C2143
:10832000C18100228261C2610220DF4908704FF4DE
:108330006161DD48C163DA2141775F2181774321A3
:10834000C1776B2180F8201045F6F7714184002138
:1083500041760320D44908760121D348C1764FF4F1
:1083600061610167DA2180F851105F2180F85210B5
:10837000432180F853106B2180F8541042F22C31C5
:10838000A0F85610002180F84D10032180F84C1001
:10839000012180F84F1041F23420C349486045F272
:1083A00078600881DA2048745F21BF4881744321D6
:1083B000C1746B21017540F62B10BB49C882704710
:1083C00010B5002404E00020BC490855601C84B2AC
:1083D000B4F5007FF7DBE8220021B8480BF0FCFB86
:1083E00010BD10B5002401224FF44831B3480BF002
:1083F000A7FB00BF06E0B148015DAA48001D01557A
:10840000601CC4B2082CF6DB10BD10B5002400209F
:10841000A34908700BE00AF049FB18B90120A049F4
:10842000087006E0C8200FF0B7FB601CC4B2032C34
:10843000F1DB00BF9A48007820B9A1480078401CC1
:108440009F49087010BD10B59548007820B1954A35
:10845000954996480EF052FE10BD10B52DED0A8BD1
:10846000052101200CF0F4FD08EE100AB8EE480AD0
:1084700010EE100A17F0C0F941EC1C0B9FED910BA8
:1084800053EC102B16F0C2FE41EC1B0B9FED8F0B33
:1084900053EC102B16F0BAFE41EC1A0B9FED8D0B2E
:1084A00053EC102B16F05AFC41EC190B16F068FB3C
:1084B00008EE900AB2EE040A28EE800ABCEEC00A6A
:1084C00010EE100A7749C870BDEC0A8B10BDF0B5EC
:1084D0002DED028B85B005460E4600200090052E3E
:1084E00003DA05B0BDEC028BF0BDFF227B480178BA
:1084F0007B4803F0A5FF012800D0F2E72878082880
:108500004CD10821BDF80020501C80B2009001A879
:1085100081540321BDF80020501C80B2009001A8B6
:1085200081540221BDF80020501C80B2009001A8A7
:1085300081545E4890ED2A1BB0EE410AF0EE610ACC
:108540009FED681B53EC112B51EC100B16F05EFEE7
:1085500041EC180B16F0C6FD84B22246694601A80C
:1085600005F0D4FDBDF8001001A803F033FF044668
:10857000BDF80020501C80B2009001A88454210A4C
:10858000BDF80020501C80B2009001A88154BDF8B5
:108590000000C1B201A800F0A6FB4EE0287809282F
:1085A0004BD10921BDF80020501C80B2009001A8D9
:1085B00081540321BDF80020501C80B2009001A816
:1085C00081540421BDF80020501C80B2009001A805
:1085D0008154364890ED281BB0EE410AF0EE610A56
:1085E0009FED401B53EC112B51EC100B16F00EFEBF
:1085F00041EC180B16F076FD07463A46694601A88D
:1086000005F097FDBDF8001001A803F0E3FE044655
:10861000BDF80020501C80B2009001A88454210AAB
:10862000BDF80020501C80B2009001A88154BDF814
:108630000000C1B201A800F056FB2C48D0E904109C
:108640002A4AC2E90A1000BF4BE770B5A0B0002665
:108650000024002521480078052804DA00201F495D
:10866000087020B070BD7FE01D48005D082803D071
:108670001B48005D092841D10026254609E0601904
:1086800017490A5C3046711C8EB20DF80020681C38
:1086900085B204F108008542F1DB3146684627E0E7
:1086A00001000020200A0020B00100206803002003
:1086B000840242420CED00E00000FA05400A00206E
:1086C000050000206666666666660A4000000000D7
:1086D00000A0604000000000008000412800002051
:1086E000400C00200000000000408F407801002076
:1086F000FFF7EDFE04F1080084B230E09F49601CF2
:10870000085C032803D0601C085C042826D19B4920
:10871000A01C085C642800DDA3E70026254609E0CC
:10872000601996490A5C3046711C8EB20DF8002023
:10873000681C85B29149A01C085C2044401DA842D9
:10874000EEDC8F484278314668460DF0CDFC8B490F
:10875000A01C085C401D204484B200E005E089486C
:108760000078844200DB00E07EE700BF00208549FE
:10877000087000BF75E701B59DF8000013282DD0E3
:108780000EDC10282ED006DC01281ED002281FD0B7
:1087900003283AD11FE0112823D0122835D10EE04A
:1087A000302824D006DC142824D0152825D02028F1
:1087B0002BD107E0402823D0502826D122E002F018
:1087C000FAFE23E003F0E6FD20E003F017FC1DE0D5
:1087D00008F0DBFC1AE0FFF738FF17E00CF00AF8AE
:1087E00014E013E09DF801000CF0B8FF0EE008F073
:1087F00065FC0BE0FFF709FE08E0FFF724FE05E04B
:10880000FFF752FDFFF729FE00E000BF00BF08BDE3
:108810001CB5012110200FF037FE402000900120F0
:108820008DF804008DF8060003208DF80500012066
:108830008DF80700694654480FF088FB40215248E4
:108840000FF002FC1CBD08B500BF5048504908603D
:108850004FF4A0600FF084FAA8200FF03BF94FF41A
:10886000165000F0BBF94FF4E1300FF0C4F94FF4AB
:10887000165005F01BFE474804F06BFFFFF7C8FFDA
:1088800042F2CF0140F2E73000F0ECFF42F2CF01BC
:10889000632000F08CFF42F2CF0142F20F7000F033
:1088A000B2FF42F2CF01632008F0BAFC00F0BDFB3A
:1088B00000F0FEFBFFF7A9FD40F2E241062003F0C5
:1088C00057FD00F011FF01F010F8334803F015FFD9
:1088D000324804F0ADFE324804F0E3FE284804F0CC
:1088E0002FFF08F0EBFC01212E4810F081FA01F077
:1088F00002FC00202C49086002F098FE00F088FE7F
:108900000CF044FB0320264908702848007868B121
:108910000A46224920480DF035FF48B9FFF7F3FC1D
:108920001F4A1E491C480EF0E9FB01E0FFF7EBFC73
:1089300023E0002000F081FE044614B120460CF034
:10894000E2FA684609F026FA10B10098FFF713FF23
:108950000B48007870B9684609F0A5FA50B19DF847
:108960000100074948700020C87088709DF8010018
:108970000CF0F4FE0A200FF00FF9DAE7400C0020AB
:10898000300A00202800002000100240008000086B
:1089900008ED00E07009002068030020B00100200D
:1089A000200A00200008004084024242010000200A
:1089B0000CB50020019000907648006840F48030AB
:1089C0007449086000BF7348006800F400300090EC
:1089D0000198401C0190009818B90198B0F5A04F7B
:1089E000F1D16C48006800F4003010B10120009013
:1089F00001E0002000900098012846D165484030F1
:108A0000006840F080506349403108606248006867
:108A100040F44040604908605E48083000685D49A5
:108A2000083108600846006840F4004008600846C5
:108A3000006840F4A05008605848091F0860081FEB
:108A4000006840F08070091F086000BF514800684E
:108A500000F000700028F9D040F20570504908601D
:108A60004C480830006820F003004A49083108608B
:108A70000846006840F00200086000BF4548083022
:108A8000006800F00C000828F8D10CBD10B545486E
:108A9000006840F47000434908603E48006840F0B8
:108AA00001003C49086000203A4908310860394813
:108AB00000683D490840374908603C48091D086086
:108AC000081F006820F48020091F08600020314939
:108AD0000C310860FFF76CFF4FF0006031498039BE
:108AE000086010BD70B5002000220223002402217E
:108AF000284D08352D6805F00C0020B1042806D05B
:108B0000082834D107E02A4D2A4E356033E02A4D3B
:108B1000284E35602FE01F4D2D1D2D68C5F3805464
:108B20001C4D2D1D2D6805F03F0154B1224DB5FBA4
:108B3000F1F5184E361D3668C6F3881605FB06F2A9
:108B400009E01B4DB5FBF1F5124E361D3668C6F334
:108B5000881605FB06F20F4D2D1D2D68C5F3014546
:108B60006D1C6B00B2FBF3F5124E356003E0104D47
:108B7000104E356000BF00BF064D08352D68C5F3A7
:108B800003150E4E705D0B4D2D68C540094E3560C6
:108B900070BD0000003802400070004008544007DB
:108BA000003C024088ED00E0FFFFF6FE103000249C
:108BB0000024F4001400002000127A0018000020A5
:108BC000704700BFFEE700BFFEE700BFFEE700BF43
:108BD000FEE77047704770477047000010B588B0D7
:108BE0000446012108460FF04FFC012110200FF030
:108BF000A5FC0722092179480FF033FA07220A2140
:108C000076480FF02EFA4FF4C060069002208DF8DF
:108C10001C0003208DF81D0000208DF81E0001208F
:108C20008DF81F0006A96D480FF090F94FF4807081
:108C3000069001208DF81C0003208DF81D000020F7
:108C40008DF81E0001208DF81F0006A963480FF063
:108C50007DF94FF40060069001208DF81C00032080
:108C60008DF81D0000208DF81E0001208DF81F00DA
:108C700006A95A480FF06AF902940020ADF80C00DA
:108C8000ADF80E00ADF81000ADF814000C20ADF8F2
:108C9000120002A952480FF0B2FD012150480FF016
:108CA00036FE40214E480FF01AFF012240F22551B6
:108CB0004B480FF0E2FE25208DF8040003208DF8CC
:108CC00005008DF8060001208DF8070001A80FF0BF
:108CD0004CF80020434908604349C1F8AC024349BD
:108CE000087008B010BD70B505460E4601203D491C
:108CF000086000240CE000BF402139480FF0E2FE7C
:108D00000028F9D0295D36480FF02CFE601CC4B253
:108D1000B442F0DB00BF402131480FF0D3FE002801
:108D2000F9D00020324908702E49086070BD2DE945
:108D3000F04107460D462E48067800240020287092
:108D40000A200EF029FF2A48007886420FD176B11A
:108D500000BF04E02748005D3855601CC4B2B4422F
:108D6000F8DB234800782870002021490870BDE80E
:108D7000F08110B1012800D070471C49087020B95B
:108D80000021184A0C32116003E00121154A0C320F
:108D900011600021164A117000BFEDE710B540F2D6
:108DA00025510F480FF0A4FEB8B10121124810F070
:108DB0001FF800201149087009480FF0D7FDC4B210
:108DC0000B480078402808DA0A48094909784454D1
:108DD00007480078401C0649087010BD000002409A
:108DE00000100140A0024042000040420400002068
:108DF00028000020400C00200004004070000020EB
:108E000070B5044600224FF40071FE480FF01EF9C1
:108E100000224FF40061FB480FF018F900251FE015
:108E200000228021F7480FF011F904F0800028B1EA
:108E300001221102F3480FF009F905E000224FF476
:108E40008071F0480FF002F901228021ED480FF007
:108E5000FDF801200EF058FE6006040E681CC5B235
:108E6000082DDDDB01225102E6480FF0EFF870BD5E
:108E700070B5044600224FF40071E2480FF0E6F8A6
:108E80000122D102DF480FF0E1F800251FE00022A7
:108E90008021DC480FF0DAF804F0800028B10122CC
:108EA0001102D8480FF0D2F805E000224FF480718B
:108EB000D4480FF0CBF801228021D2480FF0C6F839
:108EC00001200EF021FE6006040E681CC5B2082DBC
:108ED000DDDB01225102CB480FF0B8F870BD70B550
:108EE000044600224FF40071C6480FF0AFF801228B
:108EF000D102C4480FF0AAF800251FE0002280210B
:108F0000C0480FF0A3F804F0800030B100224FF405
:108F10008071BC480FF09AF804E001221102B948B0
:108F20000FF094F801228021B6480FF08FF801204D
:108F30000EF0EAFD6006040E681CC5B2082DDDDBEC
:108F400001225102AF480FF081F870BD10B56420C6
:108F50000EF022FE00224FF40071AA480FF076F8BE
:108F600001221103A7480FF071F800224FF480612D
:108F7000A4480FF06BF814200EF00EFE01229102AF
:108F8000A0480FF063F814200EF006FEE220FFF771
:108F900037FF05200EF000FE2C20FFF731FF0520E3
:108FA0000EF0FAFD2E20FFF72BFF05200EF0F4FD4A
:108FB0002F20FFF725FF05200EF0EEFD2420FFF700
:108FC0001FFF8120FFF71CFF2A20FFF719FFA220B7
:108FD000FFF716FFC820FFF713FFA020FFF710FFD1
:108FE0006020FFF70DFFAF20FFF70AFF01225102BB
:108FF00084480FF02BF810BD1CB5012102200FF0A2
:1090000043FA4FF48040009001208DF804000020C6
:109010008DF8060003208DF8050069467A480EF0A9
:1090200095FF0120794908601CBD1CB50121102065
:109030000FF02AFA01208DF8040000208DF80600B8
:109040004BF68070009001208DF8070002208DF80B
:10905000050069466B480EF079FF00208DF804008A
:109060008DF806004FF48040009001208DF8070035
:1090700002208DF80500694662480EF067FFFFF791
:1090800065FFFFF7B9FF1CBD70B505460C4600BF74
:1090900005F1AF01C8B2FFF7B3FEC4F3031101F14C
:1090A0001000FFF7ADFE04F00F00FFF7A9FE70BD42
:1090B00070B500224FF4007152480EF0C7FF012234
:1090C000110350480EF0C2FF002415E004F1B00176
:1090D000C8B2FFF795FE1020FFF792FE0020FFF7C1
:1090E0008FFE002504E00020FFF7C2FE681CC5B219
:1090F000842DF8DB601CC4B2092CE7DB012251028D
:1091000040480EF0A3FF70BD012040490860704741
:1091100000203E49086070472DE9F0410646884628
:1091200014460027002500BF15E070194146FFF7DF
:10913000ABFF00270BE01CB90020FFF799FE04E00D
:10914000012C02D10020FFF7CAFE781CC7B2802F85
:10915000F1DB681CC5B2022DE7DBBDE8F08170B51C
:10916000044600224FF4007126480EF06FFF0025E0
:109170000FE00121681CFFF787FF002605E020783B
:10918000FFF776FE641C701CC6B2802EF7DB681CED
:10919000C5B2082DEDDB012251021A480EF056FF30
:1091A00070BD2DE9F0470746894614461D4600224A
:1091B0004FF4007113480EF049FF012211031148CA
:1091C0000EF044FF00261AE0B8194946FFF75CFF8D
:1091D0004FF000080EE01DB92078FFF749FE04E0CB
:1091E000012D02D12078FFF77AFE641C08F10100FE
:1091F00000F0FF08B8F1100FEDDB701CC6B2022EB4
:10920000E2DB05E00010024000040240B882404268
:1092100001225102FA480EF019FFBDE8F0872DE94E
:10922000F0470746894614461D4600224FF4007158
:10923000F3480EF00BFF00261AE0B8194946FFF775
:1092400023FF4FF000080EE01DB92078FFF710FE55
:1092500004E0012D02D12078FFF741FE641C08F1E3
:10926000010000F0FF08B8F1080FEDDB701CC6B27A
:10927000022EE2DB01225102E1480EF0E7FEBDE8DA
:10928000F0872DE9F05F07460D4614461E4607F1AC
:10929000AF0000F0FF0900224FF40071D8480EF033
:1092A000D5FE05F00F00401E00F0FF0AC5F30310C5
:1092B00000F1100B4846FFF7A3FD5846FFF7A0FD4D
:1092C0005046FFF79DFD4FF000080CE01EB92078D6
:1092D000FFF7CEFD04E0012E02D12078FFF7FFFD5D
:1092E000641C08F10108B8F1060FEFD30122510206
:1092F000C3480EF0ABFEBDE8F09F70B504460025F4
:109300001DE004F0800028B10122D103BC480EF01A
:109310009DFE05E000224FF40041B9480EF096FE94
:109320006006040E00224FF40051B5480EF08EFE88
:1093300001225103B2480EF089FE681CC5B2082D07
:10934000DFDB70BD70B5002401225103AC480EF084
:109350007DFE002518E000224FF40051A8480EF0D1
:1093600075FE6006040E4FF48041A5480EF050FED5
:1093700010B1601CC4B200E0E4B201225103A04865
:109380000EF064FE681CC5B2082DE4DB204670BDFB
:109390002DE9F04780460D4616461F46DDF8209021
:1093A00000224FF4805196480EF050FE01225102E7
:1093B00093480EF04BFE00224FF4005190480EF0FF
:1093C00045FE0320FFF799FF4046FFF796FF28462A
:1093D000FFF793FF3046FFF790FF002404E0FFF70C
:1093E000B1FF3855601CC4B24C45F8DB01221103B3
:1093F00083480EF02BFEBDE8F0872DE9F04F8DB0CD
:1094000083460E4615461F4600243A4631465846C6
:10941000FFF782FEABE0285DB02838DB285DF72837
:1094200035DC601C285CA12831DB285DB0385E216A
:1094300010FB01F073490860601C285C00F2AD204D
:10944000096808446F4908600846006840010860E0
:1094500008460068C0F3074808460088C0F307299B
:10946000084690F800A0202005AB524649460090DF
:109470004046FFF78DFF3B4605AA31465846FFF7A9
:1094800090FEA01CC4B206F11000C6B26FE0285DC9
:10949000A12837DB285DA32834DC601C285CA128C8
:1094A00030DB285DA1385E2110FB01F055490860D2
:1094B000601C285CA13809680844524908600846C5
:1094C00000684001086008460068C0F30748084685
:1094D0000088C0F30729084690F800A0202005ABBB
:1094E0005246494600904046FFF752FF3B4605AAC8
:1094F00031465846FFF755FEA01CC4B206F11000D5
:10950000C6B234E0285D20282FDB285D7E282CDCC5
:10951000285D20383B490860084600680001086063
:10952000084600683849084436490860084600681B
:10953000C0F3074808460088C0F30729084690F89A
:1095400000A0102001AB5246494600904046FFF76C
:109550001FFF3B4601AA31465846FFF760FE601CDC
:10956000C4B206F10800C6B201E0601CC4B2285DB6
:1095700000283FF750AF0DB0BDE8F08F2DE9FE4F4A
:1095800082460E4615469B46002433E0285D20287F
:109590002EDB285D7E282BDC285D203819490860E9
:1095A00008460068C000086008460068174908447B
:1095B0001449086008460068C0F307470846008859
:1095C000C0F30728084690F80090082001AB4A46EF
:1095D000414600903846FFF7DBFE5B4601AA314664
:1095E0005046FFF74EFE601CC4B2B01DC6B201E08B
:1095F000601CC4B2285D0028C8DCBDE8FE8F0000F6
:10960000001002406C00002080CF0300C0BF0300A8
:109610001CB5012110200EF037FF3C2000900020E7
:109620008DF8040003208DF8050001208DF8070057
:1096300069462C480EF08AFC1CBD70B50546002416
:10964000042128480EF0E4FC70B914200EF0A4FAAE
:1096500000BF042123480EF0DBFC0028F9D01420C1
:109660000EF09AFA01243AE008211E480EF0D0FCD0
:1096700070B914200EF090FA00BF082119480EF0BE
:10968000C7FC0028F9D014200EF086FA022426E048
:10969000102114480EF0BCFC70B914200EF07CFAB6
:1096A00000BF10210F480EF0B3FC0028F9D01420A1
:1096B0000EF072FA032412E020210A480EF0A8FCF2
:1096C00068B914200EF068FA00BF202105480EF09A
:1096D0009FFC0028F9D014200EF05EFA04242046E6
:1096E00070BD00000010024000B585B001210807E0
:1096F0000EF013FF012011F0C0FA002011F0BCF9A8
:1097000049F6991188424DD001200EF05AFD00BF54
:1097100041200EF00FFD0028FAD04FF480700EF0BB
:1097200051FE01200EF069FE10F0E8FB002010F061
:10973000E2FC10F011FC002002907F200390FF203B
:10974000049002A810F0A1FC01208DF806001B2057
:109750008DF805000F208DF8040000208DF807001B
:1097600001A910F02DFD0F208DF802000B208DF8BF
:10977000010003208DF8000017208DF803006946D2
:10978000002010F0BBFD10F077FC49F69911002085
:1097900011F065F9012010F0AEFC49F69911002096
:1097A00011F05DF9002011F068FA05B000BD7FB539
:1097B00005460C46012102200EF0AFFE0295ADF8E1
:1097C00004400020ADF80600ADF80C0001A9FB48EC
:1097D0000FF085FA01221146F8480FF021FF002111
:1097E000F6480FF005FB1D208DF8000001208DF8D4
:1097F000010003208DF8020001208DF80300684667
:109800000EF0B3FA7FBD7FB505460C46012104205A
:109810000EF083FE0295ADF804400020ADF806007E
:10982000ADF80C0001A9E6480FF059FA01221146E3
:10983000E3480FF0F5FE0021E1480FF0D9FA1E20B1
:109840008DF8000001208DF8010003208DF8020042
:1098500001208DF8030068460EF087FA0020D949F0
:1098600008707FBD7FB505460C46012108460EF005
:1098700054FE0295ADF804400020ADF80600ADF8A6
:109880000C0001A94FF080400FF029FA0122114687
:1098900090070FF0C5FE00214FF080400FF0A8FAAE
:1098A0001C208DF8000001208DF8010003208DF8A8
:1098B000020001208DF8030068460EF056FA7FBDC5
:1098C000014601F0030028B96420B1FBF0F200FB6F
:1098D000121030B94FF4C870B1FBF0F200FB121057
:1098E00008B9012070470020FCE70020B649086055
:1098F00008714871C871087248720021B24A11613A
:1099000051619161D161116251629162D162012014
:10991000114681F8300070473EB5AB48D0E90420CD
:10992000521C40F10000A849C1E90420084690F803
:10993000300001280CD0D1E904414FF461620023CA
:10994000204611F03AFF00214A404B401A430ED105
:109950009E4890F82000012809D103208DF80800C6
:10996000029808F077FA0220974981F8300001A99F
:10997000002010F08FFC9DF804009349C8719DF8F9
:10998000050008729DF8060048726946002010F034
:109990001BFD9DF8030000F5FA608B4908609DF8F7
:1099A000010008719DF8020048719DF8000088715F
:1099B0003EBD2DE9F04104468348C0794FF4616112
:1099C00010FB01F08049097AC1EB011100EB810025
:1099D0007D49497A0844C61705467B48D0E90430DA
:1099E00004EB840101EBC402794901EB8201C96AED
:1099F0005A1A60F10000143A70F1000014D304EB1D
:109A0000840000EBC401724800EB8100476A3A46CB
:109A100000232846314611F0D0FE511F73F1000398
:109A200002D20120BDE8F0810020FBE71CB5002434
:109A3000EAE02046FFF7BDFF002861D004EB840177
:109A400001EBC401634A02EB41105F4B624A60497B
:109A50001839009404F059FC6048007848B104EBD0
:109A6000840101EBC4015B4A02EB411021460DF079
:109A7000A8FF5548006904EB840101EBC402544976
:109A800001EB8201C862514890F8200068B34F484A
:109A900090F822000C2828DB4C4890F822001F2860
:109AA00023DC04EB840000EBC401494800EB810097
:109AB000007F012803D104208DF8040010E004EB9E
:109AC000840000EBC401424800EB8100007F0228C3
:109AD00003D106208DF8040002E004208DF8040074
:109AE0008DF80540019808F0B5F93748006904EB96
:109AF000840101EBC402364901EB8201886281E0F6
:109B000004EB840000EBC401314800EB8100806A63
:109B100000212D4BD3E90423801A994172D22A489F
:109B2000D0E9043104EB840000EBC402284800EBC8
:109B30008200806A181A61F100013C3871F100015D
:109B400060D326480078B8B3204890F82000A0B32E
:109B50001E4890F822000C284ADB1C4890F822008E
:109B60001F2845DC04EB840000EBC401184800EB1F
:109B70008100008E05283BDA20460DF095FEE0B10D
:109B800004EB840000EBC401114800EB8100007F6E
:109B9000012803D104208DF8040024E004EB8400A4
:109BA00000EBC4010A4800EB8100007F022817D1B6
:109BB00006208DF8040016E024E019E000040040BF
:109BC00000080040720000207801002050010020B1
:109BD000C8010020C00C0020680300200100002004
:109BE00004208DF804008DF80540019808F032F942
:109BF000FE48006904EB840101EBC402FC4901EB5F
:109C000082018862601CC4B2F94818380078A0420A
:109C10003FF70FAF1CBD38B5002475E004EB4401DD
:109C2000F44800EB81100078012809D104EB4401CD
:109C3000F04800EB81104078022801D1192500E09E
:109C40000F25EA48D0E90420521B70F1000059D3D7
:109C5000E648D0E90423681DC117801A994116D23D
:109C6000E24804EB4402D0E90431E24800EB8212FE
:109C7000D2E904021B1A61EB020104EB4402DD4845
:109C800000EB8210C088181A71F100013AD3D7484E
:109C9000D0E90410D54BD3E90A238A1A60EB0300FC
:109CA0000D2300219A1A81411AD3D048D0E904101B
:109CB000CE4AD2E90A32C91A60EB0200491E70F19D
:109CC00000001FD3C948D0E90410C84BD3E90A23C8
:109CD0008A1A60EB0300082300219A1A814111D3EC
:109CE0008DF8014010208DF80000009808F0FAF877
:109CF000BE48D0E9041004EB4403BE4A02EB8312D1
:109D0000C2E90410601CC4B2BA4808380078A04206
:109D100084DCB9480078012810D1B448D0E9041097
:109D2000B54BD3E90223891A60EB0300C91E70F119
:109D3000000003D3B04948780CF053FB38BD10B590
:109D400000242DE004EB4401AA4800EB81100078C8
:109D5000012823D104EB4401A64800EB811090EDCB
:109D6000262BB0EE420AF0EE620A04EB4401A14851
:109D700000EB811090ED222BB0EE421AF0EE621A49
:109D800053EC102B51EC110B14F02CFF04EB44039B
:109D9000984A02EB831242F8880F5160601CC4B2EB
:109DA000944808380078A042CCDC10BD38B5934800
:109DB00090F8200040B1914890F822000D2803DB74
:109DC0008F48C0785A2806DA8848D0E904108D4AAE
:109DD000C2E9001038BD8548D0E90430894A12CA6A
:109DE0005A1A60EB04004FF4347300219A1A81412F
:109DF00005D240208DF80000009807F0EAFF00BF70
:109E0000E8E708B5012188070FF021FC012815D1EA
:109E10007D480078401C7C49087008460078052879
:109E20000CDB0020087001208DF80000009807F07E
:109E3000D0FF00214FF080400EF0DAFF01218807AB
:109E40000FF016FC08BD08B5012170480FF0FFFBAC
:109E5000012814D16E480078401C6D4908700846EE
:109E6000007805280BDB0020087003208DF8000027
:109E7000009807F0AEFF002164480EF0B9FF012101
:109E800062480FF0F5FB08BD38B5012161480FF0BD
:109E9000DEFB01287DD1FFF73FFDFFF750FFFFF705
:109EA000BAFE564890F8200088B15048407A0A21FE
:109EB00090FBF1F201FB120048B95048407C0128A8
:109EC00005D002208DF80000009807F0C3FF474836
:109ED000D0E90410002359405840014312D04348B0
:109EE0004FF46162D0E90441204611F066FC002184
:109EF0004A404B401A4305D115208DF800000098C8
:109F000007F067FF3948D0E9041000235940584052
:109F1000014311D035480A22D0E90441204611F00E
:109F20004CFC00214A404B401A4305D150208DF88B
:109F30000000009807F04DFF2C48D0E904100323DF
:109F40005940014305D130208DF80000009807F0FA
:109F500040FFFFF76BFD2548D0E90410002359406E
:109F60005840014318D021484FF49672D0E904417B
:109F7000204611F022FC00214A404B401A430BD1ED
:109F80001E4890F8200038B105208DF80000009898
:109F900000E051E007F05EFFFFF708FF1E48007881
:109FA000E8B912483C220023D0E90441204611F0D0
:109FB00004FC00214A404B401A4310D10B48D0E921
:109FC000041051405040014309D014480078032840
:109FD00005DA14208DF80000009807F0FAFE13202F
:109FE0008DF80000009807F0F4FE19E078010020D9
:109FF000C801002070030020300A0020500100201A
:10A00000200A002008000020730000200004004007
:10A010007000002000080040010000200500002022
:10A0200020208DF80000009807F0D3FE12208DF854
:10A030000000009807F0CDFE012102480FF018FB48
:10A0400038BD0000000800402DE9F04389B0074604
:10A050000E469046202101A811F023FE0024A146BF
:10A060001D2E03DD002009B0BDE8F0832046611CF1
:10A070008CB201A901F80080002507E07A5D204636
:10A08000611C8CB201A90A54681C85B2B542F5DB8B
:10A09000214601A802F09EF981462046611C8CB23F
:10A0A00001A901F800904FEA19222046611C8CB2E8
:10A0B00001A90A54E1B201A8FEF715FE0120D2E77A
:10A0C00010B5F7480078012804D1F6480178F64821
:10A0D000FEF709FE002404E00020F3490855601C47
:10A0E00084B2F04800888442F6DB0020ED49088005
:10A0F00002F050F910BD1CB5012110200EF0C4F97A
:10A100000220009001208DF804008DF80600032045
:10A110008DF8050001208DF807006946E3480DF031
:10A1200015FF0120E24908601CBD7CB5E148847D33
:10A130000120E049487004EB840000EBC401DE48D4
:10A1400000EB8100408904EB840101EBC402DA4991
:10A1500001EB8201097ACDE9001004EB840000EBE9
:10A16000C405D54800EB8500C37904EB840000EBFF
:10A17000C405D14800EB8500827904EB840000EB34
:10A18000C405CD4800EB85004179CCA011F08CFBD3
:10A19000D549D1E90401C74AC2E902017CBD10B525
:10A1A0000120C4494870D1A011F07EFBCE48D0E90F
:10A1B0000410C04AC2E9021010BD70B504460E4634
:10A1C0004A202070532060700420A070E6700421A3
:10A1D000204602F0FFF805462571280A6071062026
:10A1E00070BD2DE9F04104460F461646052E02DAF1
:10A1F0000020BDE8F0814A202070532060700320C9
:10A20000A070E7700421204602F0E4F805462571AD
:10A21000280A60710620ECE770B5ADF5006D0546C3
:10A220004FF40061684611F03CFD00260120A14971
:10A230004870A5F1310009283BD2DFE800F00F0A91
:10A240000514191E262E3400684604F009FF064640
:10A250002FE0684605F0E1F906462AE0684605F079
:10A2600034FB064625E0684604F0D1FD064620E0B2
:10A27000684604F0EDFD06461BE04FF480620121C4
:10A280006846FFF7AEFF064613E04FF480620221F6
:10A290006846FFF7A6FF06460BE001216846FFF778
:10A2A0008CFF064605E002216846FFF786FF06465A
:10A2B00000BF00BF00240DE000BF8D48008800F003
:10A2C00040000028F9D01DF804008949091D0880C4
:10A2D000601C84B2B442EFDB402076490870012054
:10A2E00048708148D0E90410724AC2E902100DF5A5
:10A2F000006D70BD1CB501206E4948706E4818385D
:10A30000C08A6D491839097DCDE900106A481838AE
:10A31000C37C827C417C69A011F0C6FA7249D1E904
:10A320000401644AC2E902011CBD2DE9F041E2B01A
:10A33000802142A811F0B5FC4FF4827101A811F000
:10A34000B0FC40F201185B48857D05EB850000EB11
:10A35000C500684901EB4010477900240CE005EB8B
:10A36000850000EBC500634901EB4010801D005DD6
:10A37000304486B2601C84B205EB850000EBC5005A
:10A380005C4901EB40104079A042E8DC34460DE026
:10A3900005EB850000EBC500564901EB40100E307F
:10A3A000005DA11B42AA5054601C84B205EB8500DD
:10A3B00000EBC5004F4901EB4010801DC05D3044EB
:10A3C000A042E5DC05EB850000EBC5000A4602EB88
:10A3D0004010801DC15D434601AA42A803F051FB15
:10A3E00001A945A011F060FA0A200DF0D5FB1A2151
:10A3F0003F480EF0B7FA3C48D0E904102D4AC2E9B4
:10A40000021062B0BDE8F08110B501202949487002
:10A410003FA011F049FA10BD10B590B025488479DD
:10A42000082C00DB002404EB840000EBC40222486B
:10A4300000EB8201342203A811F001FC01201D4928
:10A440004870BDF816009DF81410CDE900109DF875
:10A4500013309DF812209DF8111030A011F024FA4D
:10A460002148D0E90410134AC2E9021010B010BD0F
:10A4700010B501200F49487033A011F015FA10BD36
:10A4800010B501200B49487033A011F00DFA10BD32
:10A4900010B501200749487033A011F005FA10BD2E
:10A4A0001000002034010020342B00200010024056
:10A4B0008402424250010020C801002041542B5127
:10A4C000494F50454E3D312C302C22544350222CC4
:10A4D0002225752E25752E25752E2575222C257580
:10A4E0002C302C320D0A0000780100202B2B2B0081
:10A4F00000440040C00C002041542B514953454EAC
:10A500004445583D302C222573220D0A00000000DE
:10A5100041542B43434C4B3F0D0A000041542B51F7
:10A52000494F50454E3D312C302C22544350222C63
:10A530002225752E25752E25752E2575222C25751F
:10A540002C302C310D0A000041542B514941435409
:10A550003D310D0A0000000041542B514944454152
:10A5600043543D310D0A000041542B514943534798
:10A57000503D312C312C22434D4E4554222C222269
:10A580002C22222C300D0A0010B50120FE49487003
:10A59000FEA011F089F910BD10B50120FA494870EC
:10A5A000FEA011F081F910BD10B50120F6494870E8
:10A5B000FDA011F079F910BD10B50120F2494870E5
:10A5C000FCA011F071F910BD10B50120EE494870E2
:10A5D000FBA011F069F910BD10B50120EA494870DF
:10A5E000FAA011F061F910BD10B50120E6494870DC
:10A5F000F9A011F059F910BD10B50120E2494870D9
:10A60000F7A011F051F910BD10B50120DE494870D6
:10A61000F6A011F049F910BD10B50120DA494870D3
:10A62000F4A011F041F910BD10B5D74800780E28FC
:10A630005AD00ADC0E2872D2DFE800F0282B2E3127
:10A64000343A3D4043464A4D5053352859D00EDCEC
:10A65000322853D006DC202849D030284AD031286F
:10A660005DD14CE0332848D0342858D148E0422806
:10A670002BD006DC362846D0372843D041284ED18F
:10A6800046E0502848D0FF2849D10EE0FFF7C4FF2C
:10A6900046E0FFF7C1FF43E0FFF7B6FF40E0FFF7FA
:10A6A000ABFF3DE0FFF7A0FF3AE0FFF795FF37E093
:10A6B000FFF78AFF34E0FFF77FFF31E0FFF774FF19
:10A6C0002EE0FFF769FF2BE000BFFFF75DFF27E0FB
:10A6D000FFF7DEFE24E0FFF7D3FE21E0FFF7C8FE20
:10A6E0001EE0FFF799FE1BE0FFF78EFE18E0FFF774
:10A6F0001CFE15E0FFF7FEFD12E000BF00BF00BF2B
:10A7000000BF00BF00BFA0490878FFF785FD07E044
:10A71000FFF745FD04E002E0FFF707FD00E000BFA2
:10A7200000BF10BD00209849487008713220487160
:10A730007047F0B587B00546002005900690AFA0A1
:10A74000006804900026002407E004A8025D30465B
:10A75000711CCEB22A54601CC4B2042CF5DB42F248
:10A760000F700090A64803890521426805A803F0F0
:10A770000BF8002407E005A8025D3146701CC6B244
:10A780006A54601CC4B2052CF5DB11223046711CE2
:10A79000CEB22A549B4887797807070E99480079EA
:10A7A0000A2190FBF1F047EA0010C7B29548007902
:10A7B00090FBF1F201FB12003843C7B29148407A96
:10A7C0009049097ACDE9010700918E48C379427911
:10A7D000052105A803F06AF8002407E005A8025D3A
:10A7E0003046711CCEB22A54601CC4B2052CF5DB75
:10A7F00084490978A1F5FA61C8B201F04BFE3146EF
:10A80000721CD6B2685450223046711CCEB22A5403
:10A8100080223046711CCEB22A5400227948417AF7
:10A82000007A8DE807007748C3794279052105A8A9
:10A8300003F03CF8002407E005A8025D3046711CD7
:10A84000CEB22A54601CC4B2052CF5DB1421E81CDE
:10A8500001F0A4FD04463046711CCEB22C541622E1
:10A860003046711CCEB22A54304607B0F0BD7FB5D9
:10A87000044600200290039063A000680190002627
:10A88000002507E001A8425D3046711CCEB222547B
:10A89000681CC5B2042DF5DB42F20F7000905848D9
:10A8A00003890521426802A802F06EFF002507E037
:10A8B00002A8425D3046711CCEB22254681CC5B25B
:10A8C000052DF5DB02223046711CCEB22254F22255
:10A8D0003046711CCEB222540821E01C01F05EFD0E
:10A8E00005463046711CCEB2255416223046711CE6
:10A8F000CEB22254304604B070BD7FB5044600206D
:10A900000290039040A0006801900026002507E017
:10A9100001A8425D3046711CCEB22254681CC5B2FB
:10A92000042DF5DB42F20F700090354803890521B4
:10A93000426802A802F028FF002507E002A8425D55
:10A940003046711CCEB22254681CC5B2052DF5DB11
:10A9500002223046711CCEB22254F0223046711CC5
:10A96000CEB222540821E01C01F018FD0546304605
:10A97000711CCEB2255416223046711CCEB2225420
:10A98000304604B070BD00005001002041542B51EE
:10A9900049434C4F53453D300D0A000041542B4371
:10A9A0004F50533F0D0A000041542B434752454737
:10A9B0003F0D0A0041542B435245473F0D0A00000A
:10A9C00041542B4350494E3F0D0A000041542B4344
:10A9D000545A553D310D0A004154490D0A000000FA
:10A9E00041542B4353510D0A00000000415445309F
:10A9F0000D0A000041540D0A00000000681468B000
:10AA0000B001002078010020680868B02DE9F0430B
:10AA1000A1B00746802101A811F043F94FF00008CA
:10AA2000F948857D0026B146F84800783843F74953
:10AA300008700120F4494870012F06D0022F09D078
:10AA4000042F0CD0082F66D10EE001A8FFF755FFA8
:10AA5000804663E001A8FFF70AFF80465EE001A898
:10AA6000FFF767FE804659E005EB850000EBC50067
:10AA7000E74901EB4010407905EB850101EBC50189
:10AA8000E34A02EB41110979884201DB4FF00109E9
:10AA9000B9F1000F3ED105EB850000EBC500DC49A4
:10AAA00001EB4010801D05EB850101EBC501D84A83
:10AAB00002EB4111497910F8018000240CE005EB0C
:10AAC000850000EBC500D24901EB4010801D005D00
:10AAD000304486B2601C84B205EB850000EBC500F3
:10AAE000CB4901EB40104079A042E8DC34460DE050
:10AAF00005EB850000EBC500C54901EB40100E30A9
:10AB0000005DA11B01AA5054601C84B206EB080032
:10AB1000A042EDDC02E04FF0010900BF00BFB9F137
:10AB2000010F02D121B0BDE8F08364200DF034F8AC
:10AB300000240DE000BFB748008800F04000002866
:10AB4000F9D001A8005DB349091D0880601C84B2DA
:10AB50004445EFDB5120AC49087001204870AE48F5
:10AB6000D0E90410A84AC2E9021000BFDAE73EB5F6
:10AB7000A548847DA9A207CA8DE807000C25A24834
:10AB8000407C48B90920A049087001219E484174C1
:10AB9000C174FFF7C7FD27E19B48407C01287DD1A8
:10ABA0009948407820B9FFF7BDFDFFF73DFD1BE157
:10ABB0009548407802285FD193488078012840D199
:10ABC00091480078092811D18F48C07C012807D10D
:10ABD00050208D49087000204870FFF725FD03E1E3
:10ABE00002218948417401218174FDE08648007882
:10ABF000502817D1012104EB840000EBC4028A48DD
:10AC000000EB82000171002104EB840000EBC40220
:10AC1000854800EB8200018651207B4908700120A5
:10AC20004870E1E0784800784128B4D1092076499D
:10AC30000870FFF777FD02217348C174FFF7F4FC39
:10AC4000D2E0714880780028A5D16F4800790628A5
:10AC50000CDC6D48C078002802DCFFF7E5FCC3E09F
:10AC60006948C078401E6849C870BDE00221664846
:10AC7000417400218174B7E06348407801288AD18B
:10AC80006148007850283ED16348D0E904205E4BEB
:10AC9000D3E90213511A60EB030000E09BE00A398C
:10ACA00070F100009BD3022104EB840000EBC4028E
:10ACB0005D4800EB8200017104EB840000EBC401ED
:10ACC000594800EB8100008E052811DA04EB84005E
:10ACD00000EBC401544800EB8100008E401C81B29F
:10ACE00004EB840000EBC4024F4800EB82000186B5
:10ACF000092045490870FFF715FD02214248C1743B
:10AD0000FFF792FC70E04048007851283BD1424860
:10AD1000D0E904303C4AD2E90212591A60EB020031
:10AD2000C91E70F1000019D33848007800F0010006
:10AD300018B90120FFF76AFE10E03448007800F0EF
:10AD4000040018B90420FFF761FE07E02F480078DF
:10AD500000F0080010B90820FFF758FE2E48D0E98F
:10AD60000410294AD2E90232C91A60EB0200491FD5
:10AD700070F1000038D3412023490870FFF7D2FC5E
:10AD8000FFF752FC30E02048007841282CD12248BF
:10AD9000D0E904101C4BD3E90223891A60EB0300AD
:10ADA000C91E70F100001FD317480079022807DC84
:10ADB000FFF73AFC14480079401C1349087113E06E
:10ADC000092011490870FFF7ADFC02210E48C1743B
:10ADD000FFF72AFC08E00C48407C022804D10A480E
:10ADE000807C012800D000BF3EBD38B50648407CBD
:10ADF000E0B9092004490870012103484174C17475
:10AE0000FFF790FCFCE000005001002083000020D0
:10AE1000C00C002000440040780100206868686889
:10AE20006868686868686868C8010020FE48407CF7
:10AE3000012873D1FC48407820B9FFF773FCFFF775
:10AE4000F3FBDDE0F848407802286FD1F6488078BF
:10AE500001284ED1F448007809281FD1F248C07C5F
:10AE6000012807D13020F049087000204870FFF712
:10AE7000DBFBC5E00221EC48417401218174EB4801
:10AE80000078012803D0EA4800780128BAD1402090
:10AE90008DF80000009806F09CFFB1E0E2480078D1
:10AEA000302817D1E048C07800280DDCE148D0E90F
:10AEB0000410E14AC2E900103120DB490870FFF7B5
:10AEC00031FCFFF7B1FB9BE0D748C078401ED64964
:10AED000C87095E0D4480078412893D10920D24920
:10AEE0000870FFF71FFC0221CF48C174FFF79CFBDD
:10AEF00086E0CD488078002884D1CB4800790628A8
:10AF00000EDCC948C078002802DCFFF78DFB77E033
:10AF1000C548C078401EC449C87071E067E005E0CC
:10AF20000221C14841740021817469E0BE48407823
:10AF3000012865D1BC480078302817D1BD48D0E938
:10AF40000420B949D1E90234D11A60EB0400143964
:10AF500070F1000054D30920B3490870FFF7E2FBF9
:10AF60000221B148C174FFF75FFB49E0AE480078A9
:10AF7000402814D1AF48D0E90410AB4AD2E90232DC
:10AF8000C91A60EB0200491F70F1000038D341205C
:10AF9000A5490870FFF7C6FBFFF746FB30E0A24863
:10AFA000007841282CD1A348D0E904209E49D1E95A
:10AFB0000234D11A60EB0400C91E70F100001FD3E7
:10AFC00099480079022807DCFFF72EFB96480079A4
:10AFD000401C9549087113E0092093490870FFF758
:10AFE000A1FB02219048C174FFF71EFB08E08E48C8
:10AFF000407C022804D18C48807C012800D000BF0E
:10B0000038BD10B502218848C174092086490870EE
:10B0100000204870FFF708FB10BD70B58248847DA2
:10B02000407C80B909208049087001217E48417424
:10B03000FFF778FB0A207C49487101217A48C174E6
:10B04000FFF7F2FAA4E17848407C01287DD17648E8
:10B05000407838B9FFF766FB0A2073494871FFF75B
:10B06000E3FA95E17048407802286FD16E48807805
:10B0700001286CD16C480078092811D16A48C07C3D
:10B08000012807D10D206849087000204870FFF79B
:10B09000CBFA7DE10221644841740121817477E19A
:10B0A000614800780D2828D101215F48807D00EBA0
:10B0B000800202EBC002614800EB820001710021B6
:10B0C00004EB840000EBC4025C4800EB82000186C4
:10B0D0005B48007848B104EB840101EBC401594A94
:10B0E00002EB411021460CF0EEFB20204E49087087
:10B0F00000204870FFF798FA4AE14B480078202872
:10B100000BD14C48D0E90410474AC2E90210212073
:10B1100011460870012048703AE143480078212820
:10B1200090D104EB840000EBC400464901EB4010D1
:10B130004079401C04EB840101EBC401414A02EB5D
:10B140004111487104EB840002E018E159E019E074
:10B1500000EBC400114601EB4010407904EB840180
:10B1600001EBC40102EB41110979884202DBFFF7D0
:10B1700048FF0DE120202C49087000204870FFF79F
:10B1800053FA05E128488078002888D1264840797C
:10B190002549097988420CDB2348C078002802DC65
:10B1A000FFF742FAF4E02048C078401E1E49C870FC
:10B1B000EEE0FFF726FF022104EB840000EBC4025F
:10B1C0001E4800EB8200017104EB840000EBC40117
:10B1D0001A4800EB8100008E05288DDA04EB84000C
:10B1E00000EBC401154800EB8100008E401C81B2C9
:10B1F00004EB840000EBC402104800EB82000186DF
:10B20000C6E009484078012886D1074800780D2813
:10B2100046D10848D0E90430034AD2E902125B1A49
:10B2200060EB020014220FE0500100200300002018
:10B23000840000207801002008000020C8010020C0
:10B2400001000020C00C00209A1A70F1000026D3E3
:10B25000FFF7D7FE022104EB840000EBC402FE4896
:10B2600000EB8200017104EB840000EBC401FA489A
:10B2700000EB8100008E052811DA04EB840000EB5E
:10B28000C401F54800EB8100008E401C81B204EB44
:10B29000840000EBC402F04800EB8200018677E0F6
:10B2A000EE480078212873D104EB840000EBC40140
:10B2B000E94800EB81004078012826D1E848D0E930
:10B2C0000410E64AD2E90232CB1A60EB02000A22ED
:10B2D0009A1A70F100005BD304EB840101EBC40106
:10B2E000E04A02EB41100422032102F09CFA0546D9
:10B2F000002D07DD2020D949087000204870FFF795
:10B3000093F945E0FFF77DFE42E0D548D0E904100F
:10B31000D24BD3E902268B1A60EB06005A1E70F15D
:10B32000000035D304EB840000EBC400CD4901EBF1
:10B3300040104079401C04EB840101EBC401C94A70
:10B3400002EB4111487104EB840000EBC40011468C
:10B3500001EB4010407904EB840101EBC40102EBE6
:10B3600041110979884202DBFFF74BFE10E02020F3
:10B37000BA49087000204870FFF756F908E0B7484E
:10B38000407C022804D1B548807C012800D000BF51
:10B3900070BD10B5B148407C50B90E20AF4908705F
:10B3A000FFF7C0F9FFF740F90121AC4841743EE0D6
:10B3B000AA48407C012831D1A848407820B9FFF73D
:10B3C000B1F9FFF731F932E0A448407802282ED1D4
:10B3D000A2488078012805D10221A04841740121AA
:10B3E000817424E09D48807808BB9C4840799B4943
:10B3F000097988420CDB9948C078002802DCFFF705
:10B4000013F914E09548C078401E9449C8700EE0C6
:10B410000221924841740021817408E08F48407CE9
:10B42000022804D18D48807C012800D000BF10BDC7
:10B4300010B58A48407C50B9032088490870FFF74E
:10B4400071F9FFF7F1F80121844841743EE0834827
:10B45000407C012831D18148407820B9FFF762F95A
:10B46000FFF7E2F832E07D48407802282ED17B4891
:10B470008078012805D10221784841740121817426
:10B4800024E07648807808BB74484079734909798C
:10B4900088420CDB7148C078002802DCFFF7C4F852
:10B4A00014E06E48C078401E6C49C8700EE002215E
:10B4B0006A4841740021817408E06848407C022891
:10B4C00004D16648807C012800D000BF10BD10B5B3
:10B4D0006248407C50B9012060490870FFF722F9AA
:10B4E000FFF7A2F801215D48417463E05B48407CAE
:10B4F000012843D15948407820B9FFF713F9FFF7E5
:10B5000093F857E055484078022853D15348807843
:10B51000012817D1514800780C2809D101204F4942
:10B5200081F8200002214D4841740121817441E0DD
:10B530004A480078401C49490870FFF7F3F8FFF7C4
:10B5400073F837E04548807888BB444840794349E0
:10B55000097988420CDB4148C078002802DCFFF7FB
:10B5600063F827E03D48C078401E3C49C87021E0A0
:10B5700002213A484174002181741BE03748407C25
:10B58000022817D13548807C012813D03348807CAD
:10B5900068B9324890F82100012809DC00F072F8FF
:10B5A0002E4890F82100401C2C4981F8210001E030
:10B5B00000F03CF810BD08B52848407C18B1274879
:10B5C000407C022813D1684606F024FC01280ED1E5
:10B5D0009DF80000214908740021204841749DF81D
:10B5E00001001E4988719DF801101C4881751B4897
:10B5F000007C072817D2DFE800F01604070A0D10B8
:10B600001300FFF764FF0FE0FFF712FF0CE0FFF7F6
:10B61000C0FE09E0FFF701FD06E0FFF7E6FB03E0EF
:10B62000FFF7A5FA00E000BF00BF08BD10B501207C
:10B630000A49087400210948417401750121817487
:10B640000021C1740120054908700020487008716C
:10B6500032204871012007E0C8010020500100207D
:10B6600078010020C00C002088700020C87081F88C
:10B67000220081F8230081F8200081F82100FFF7E3
:10B680009AFF10BD10B50120FE49086032200CF071
:10B6900083FA0020FC49C1F884020A200CF07CFAED
:10B6A000FA4890F82100401CC4B206F0F4FBFFF702
:10B6B000BDFFF64880F8214010BD08B512208DF876
:10B6C0000000009806F085FB08BD0220EF49487095
:10B6D00001208870002008710120C8707047022086
:10B6E000EA4948700020887008460079401C0871BB
:10B6F000084640790979884213DBE44800790A2832
:10B7000003DC0120E149C8700EE0E04800793228EE
:10B7100003DC0520DD49C87006E06420DB49C87001
:10B7200002E00020D949C870704710B5D8A1D948A7
:10B7300010F02EFA044614B9FFF7D1FF01E0FFF72D
:10B74000C4FFFEF7BDFCFFF736FF10BD2DE9F04743
:10B75000002600270025A946CFA1CE4810F018FAF0
:10B760008046B8F1000F02D1FFF7B9FF38E0FFF7CC
:10B77000ACFF00242AE0C748005D30281ADBC5482A
:10B78000005D392816DC4FF0010945B9C148005D5C
:10B79000303806EB860100EB4100C6B214E0012D03
:10B7A00012D1BC48005D303807EB870100EB410047
:10B7B000C7B209E0B9F1000F01D0681CC5B2012D74
:10B7C00000DD07E04FF00009601CC4B2B4480088F7
:10B7D0008442D0DB00BFAD4880F8226080F823703F
:10B7E000FEF76EFCFFF7E7FEBDE8F08710B5ADA1F0
:10B7F000A84810F0CDF9044614B9FFF770FF01E036
:10B80000FFF763FFFEF75CFCFFF7D5FE10BD70B5D8
:10B81000A8A1A04810F0BCF90446A9A19D4810F0C9
:10B82000B7F905461CB915B9FFF759FF01E0FFF755
:10B830004CFFFEF745FCFFF7BEFE70BD70B5A3A13F
:10B84000944810F0A5F90446A3A1924810F0A0F97D
:10B8500005461CB915B9FFF742FF01E0FFF735FFB8
:10B86000FEF72EFCFFF7A7FE70BD10B588A1894832
:10B8700010F08EF9044614B9FFF731FF01E0FFF72D
:10B8800024FFFEF71DFCFFF796FE10BD10B580A14A
:10B89000804810F07DF9044614B9FFF720FF01E05D
:10B8A000FFF713FFFEF70CFCFFF785FE10BD10B588
:10B8B00077A1784810F06CF9044614B9FFF70FFF30
:10B8C00005E00120714981F82000FFF7FEFEFEF738
:10B8D000F7FBFFF770FE10BD10B5FFF7F6FEFEF7A1
:10B8E000EFFBFFF768FE10BD2DE9F04F93B000208D
:10B8F0001190002500268046814600278246834617
:10B900000024109077A1634810F042F91290129829
:10B9100030B91120754981F83000FFF7E0FE1BE1D6
:10B920001020724981F83000FFF7CFFE00246FE04D
:10B930001198A0B95748005D302867DB5548005D75
:10B94000392863DC01201190012510905148005DD9
:10B95000303806EB860100EB4100C6B256E04D4898
:10B96000005D302849DB4B48005D392845DC01206B
:10B970001090072D3FD2DFE805F03E040D17212A75
:10B9800034004448005D303806EB860100EB41008E
:10B99000C6B231E03F48005D303808EB880100EB6B
:10B9A000410000F0FF0827E03A48005D303809EB1D
:10B9B000890100EB410000F0FF091DE03548005D02
:10B9C000303807EB870100EB4100C7B214E0314883
:10B9D000005D30380AEB8A0100EB410000F0FF0AFD
:10B9E0000AE02C48005D30380BEB8B0100EB410086
:10B9F00000F0FF0B00E000BF08E0109830B1681CB9
:10BA0000C5B2062D00DD07E000201090601CC4B216
:10BA10002348008884428BDB00BF02968DF80C809F
:10BA20008DF80D908DF80F708DF810A08DF811B075
:10BA300002A800F098FD01200FF01FF9082F7DDA11
:10BA40009DF80F008DF800009DF810008DF80100A2
:10BA50009DF811008DF802009DF80F000C2801DB05
:10BA6000402000E000208DF80300694600200EF021
:10BA7000A7FB01A900200EF0A7FC9DF80700029982
:10BA8000884235E0840242420000424250010020D8
:10BA90004F4B0000342B00202B4353513A00000041
:10BAA000340100202B4350494E3A2052454144591D
:10BAB000000000002B435245473A20302C31000053
:10BAC0002B435245473A20302C3500002B43475238
:10BAD00045473A20302C31002B43475245473A2006
:10BAE000302C35002B43434C4B3A000078010020AA
:10BAF00019D19DF805009DF80C10884201D0012055
:10BB000000E000209DF806109DF80D20914201D024
:10BB1000012100E00021084328B99DF804009DF8A8
:10BB20000E10884215D00298C0B28DF807009DF81B
:10BB30000C008DF805009DF80D0000E009E08DF87F
:10BB400006009DF80E008DF8040001A900200EF0FB
:10BB5000D5FB00200FF091F8FEF7B2FAFFF72BFDAE
:10BB600013B0BDE8F08F10B5FAA1FE4810F010F840
:10BB700004465CB9FCA1FB4810F00AF8044614B96D
:10BB8000FFF7ADFD0DE0FFF7A0FD0AE0F8A1F548D5
:10BB90000FF0FEFF044614B9FFF797FD01E0FFF731
:10BBA0009EFDFEF78DFAFFF706FD10BD10B5AFF252
:10BBB0002011EC480FF0ECFF04468CB9ECA1E948E9
:10BBC0000FF0E6FF044614B9FFF789FD0AE00920EB
:10BBD000E9490870FEF7A6FD0221E748C17401E0BB
:10BBE000FFF773FDFEF76CFAFFF7E5FC10BDF0B54B
:10BBF000ADF2044D002400254FF4806101A810F03F
:10BC000050F80026DDA1D7480FF0C2FF0746FFF726
:10BC10005CFDFEF755FA0DF2044DF0BDF8B5D9A064
:10BC20000068009000260027D748007870B3FF22F4
:10BC3000D6480188CB4800F003FC04461CB93720E5
:10BC4000FEF7EAFA62E0C748007800EB4001C1EB7A
:10BC50008025CE480088C01E82B20123C1492846F3
:10BC600005F0AEFBCA480078401CC9490870362070
:10BC7000FEF7D2FAC6480078C6490978884245DB03
:10BC800004226946C44805F0BEFB3FE00022BF48DD
:10BC90000188B44800F0D4FB04461CB93520FEF7F7
:10BCA000BBFA33E0012C03D13120FEF7B5FA2DE0C9
:10BCB000022C0FD10221AB4803F072F8B74800788C
:10BCC00020B1B74AB749B8480BF018FA3420FEF74C
:10BCD000A3FA1BE0032C11D10120AB490870A14845
:10BCE000C078AC4908700020A9490870AF490870B5
:10BCF00005F03DFB3620FEF78FFA07E0042C05D156
:10BD00000120AB4908703820FEF786FA0CB1FE2CF2
:10BD100013D1A8A193480FF03BFF064694A1914888
:10BD20000FF036FF074606B93FB109209249087067
:10BD3000FEF7F8FC02219048C174FE2C05D0A04803
:10BD4000D0E904108C4AC2E90210FEF7B9F9F8BD37
:10BD500010B5FFF7BAFCFEF7B3F910BD014600209D
:10BD6000804A525C682A23D17E4B01F109029A5C19
:10BD7000022A0ED101F10A029A5CF02A01D10120B7
:10BD800016E0784B01F10A029A5CF22A10D10220E7
:10BD90000EE0744B01F109029A5C112A01D10420D2
:10BDA00006E0704B01F109029A5CC02A00D108201C
:10BDB00070472DE9F05F0026002700244FF00109AD
:10BDC000A2466D48857DA346704800880A2803DC9A
:10BDD000FEF776F9BDE8F09F6248007868283BD10D
:10BDE0006A480088172805DD5E48407800F1050A9A
:10BDF0004FF0020900242DE004FB0AF188B2FFF79E
:10BE0000ADFF0746082F22D105EB850000EBC500EA
:10BE10006C4901EB40104079401C05EB850101EBBA
:10BE2000C501684A02EB4111487105EB850000EB42
:10BE3000C500114601EB4010407905EB850101EB8F
:10BE4000C50102EB41110979884200DB00273E431E
:10BE5000601CC4B24C45CFDB45A142480FF098FEB0
:10BE6000804654A13F480FF093FE8346B8F1000F7F
:10BE700002D1BBF1000F1CD0002005EB850101EBC6
:10BE8000C501504A02EB411148714448007840B165
:10BE900005EB850101EBC50102EB411029460BF0D2
:10BEA00090FD092034490870FEF73CFC022132481D
:10BEB000C174FEF705F9012407E006EA040010B199
:10BEC0002046FEF7A3FD6006040E102CF5DB00BF34
:10BED00080E770B52848847D002623A121480FF013
:10BEE00057FE054615B9FFF7FAFB7EE020A11D4875
:10BEF0000FF04EFE05465DBB2848007848B104EBC4
:10BF0000840101EBC4012F4A02EB411021460BF0E2
:10BF1000DAFC1E480088401E1249085C162800D131
:10BF20000126002028490870012104EB840000EB61
:10BF3000C4021C48183000EB82000171002104EBA0
:10BF4000840000EBC4021748183000EB82003DE08B
:10BF500049E000002B51494F50454E3A20302C30DB
:10BF600000000000342B0020434F4E4E4543540048
:10BF7000636C6F7365640000500100202B514955BC
:10BF8000524300004A530301030000203401002003
:10BF9000810000208000002000FF07080100002031
:10BFA000200A0020B0010020680300208200002049
:10BFB000840000204E4F2043415252494552000018
:10BFC00078010020C00C0020830000200186512051
:10BFD000C249087001204870C148D0E90410BF4A26
:10BFE000C2E9021001E0FFF77AFBFEF769F816B12B
:10BFF0000120FEF70BFDFFF7DEFA70BD10B5B74864
:10C000000078202854D00BDC0F2868D2DFE800F03D
:10C0100067292F2C31373A3D3233404346494D0092
:10C0200035284AD00EDC322844D006DC212847D0FF
:10C03000302837D0312852D13DE0332839D0342848
:10C040004DD139E0502844D006DC40283BD041286F
:10C050003CD0422843D10FE051283DD0FF283ED1AB
:10C0600006E0FFF762FB3BE0FFF770FB38E000BF44
:10C0700000BF00BF00BF00BFFFF72EFC30E0FFF79E
:10C08000B5FB2DE0FFF7C3FB2AE0FFF7D7FB27E066
:10C09000FFF7EBFB24E0FFF7F9FB21E0FFF707FCDC
:10C0A0001EE000BFFFF75FFD1AE0FFF71DFC17E081
:10C0B00000BF00BF00BF00BF00BFFFF777FD0FE06C
:10C0C000FFF795FD0CE0FFF7A9FD09E0FFF740FE43
:10C0D00006E0FFF7FEFE03E0FFF76BFE00E000BFA7
:10C0E00000BF10BD70B50446FF257EA00FF0DCFB3D
:10C0F00064200BF051FD21467EA00FF0D5FB64209B
:10C100000BF04AFD1A217C480CF02CFC00BF4021AA
:10C1100079480CF0D7FC0028F9D064200BF03CFDE6
:10C1200076A178480FF034FD7749086008E073A1E4
:10C1300074480FF02DFD744908600A200BF02CFDA7
:10C14000714800680028F2D064200BF025FDFDF74F
:10C15000B7FF6EA00FF0A8FBC8200BF01DFD6FA16C
:10C1600068480FF015FD684908601FE067A00FF0F0
:10C170009BFBC8200BF010FD68A162480FF008FD82
:10C180006149086068A1604800680FF001FD5E49E0
:10C19000086065A15C480068401C0FF0F9FC5A4932
:10C1A00008600846006840783038C5B2002DDDD1FF
:10C1B000FDF786FF70BD70B50446FF251D20474979
:10C1C00081F82300084690F82000012800D070BDB7
:10C1D00056A00FF069FB4FF4FA700BF0DDFC21461E
:10C1E0005F480FF061FB0A200BF0D6FC1A21424891
:10C1F0000CF0B8FB64200BF0CFFC5A480FF054FB56
:10C200000A200BF0C9FCFDF75BFF00BFDFE730B58C
:10C21000C1B0002040904FF4807168460FF041FD9E
:10C220000024002512E03748025D4FA140A80FF01E
:10C2300047FB9DF8002128466D1C0DF800209DF855
:10C24000012128466D1C0DF80020641C322CEADB0D
:10C2500000200DF805006846FFF7ADFFFDF730FF41
:10C2600041B030BD2DE9F041ADF5027D06460F46E7
:10C270004FF4007102A80FF014FD0020019000247B
:10C2800000254FF0FF0800BF10E0325D36A101A885
:10C290000FF016FB9DF8042028466D1C02A90A54D5
:10C2A0009DF8052028466D1C0A54641CBC42ECD342
:10C2B000002002A948552A480FF0F6FA0A200BF090
:10C2C0006BFC1A210C480CF04DFB0A200BF064FCAF
:10C2D000FDF7F6FE0DF5027DBDE8F081500100206E
:10C2E0007801002041542B514953454E443D300DB7
:10C2F0000A000000257300000044004053454E44EE
:10C30000204F4B00342B00207400002041542B514F
:10C310004953454E443D302C300D0A002B514953B2
:10C32000454E443A000000002C00000041542B51BF
:10C33000494F50454E3D312C302C22544350222C35
:10C34000223131352E3233362E3135332E313730DE
:10C35000222C34383530302C302C310D0A000000BE
:10C36000F8A400088CA900082530327800000000ED
:10C3700070B505460C4645F255500DF055FA284665
:10C380000DF055FA20460DF055FA0DF056FA0DF065
:10C3900059FA70BD10B50DF050FA10BD30B5024617
:10C3A0000B460020002112E0555C684008240BE099
:10C3B00000F0800525B14506280E80F0E50001E07B
:10C3C0004506280E651EECB2002CF1DC491C994292
:10C3D000EAD330BD70B502460B464FF6FF70002120
:10C3E00010E0565C7040002408E000F001054010A9
:10C3F00015B14AF201067040661CB4B2082CF4DB99
:10C400004E1CB1B29942ECDB70BD30B502460B4612
:10C410004FF0FF310FE012F8010B4140002408E01B
:10C4200001F001004042FE4D284080EA5101601CAD
:10C43000C4B2082CF4DB581E031EECDAC84330BD2E
:10C44000F0B504460D461746052D01D20020F0BD7B
:10C45000FF2F07D020784A2802D16078532801D0D6
:10C46000FE20F4E7A81E81B22046FFF7B3FF064680
:10C47000F1B2A81E205C814204D1681E205CB0EBA2
:10C48000162F01D00020E2E7FF2F01D0A078DEE7D1
:10C490000120DCE70146002204E0501CC2B2A1F1F9
:10C4A0000A00C1B20A29F8DA100741EA10607047A1
:10C4B00030B5014600200122012313E0022B03DBEB
:10C4C0004FF6FF7404EA02120A2491FBF4F504FB10
:10C4D000151404FB0204A0B20A2491FBF4F4A1B2E7
:10C4E0005C1CA3B20029E9DC30BD10B50146002078
:10C4F000012201230AE0022B02D302EB8204620034
:10C5000001F00F0404FB020009095B1C0029F2D1B1
:10C5100010BD70B503460020012901D0022903D1C6
:10C5200001F10C04E1B25B1E4C1C04EB4404052534
:10C5300094FBF5F5541C022606FB01442C441C44D4
:10C5400004EB93046425B3FBF5F5641B4FF4C87545
:10C55000B3FBF5F52C440725B4FBF5F605FB1640B7
:10C5600000B9072070BD30B50446002520790128A8
:10C5700011D0207903280ED0207905280BD02079FE
:10C58000072808D02079082805D020790A2802D069
:10C5900020790C2801D11F2526E02079042808D015
:10C5A0002079062805D02079092802D020790B2887
:10C5B00001D11E2518E02079022815D14FF4C87149
:10C5C0002068B0FBF1F201FB120050B1207800F0BE
:10C5D000030040B964212068B0FBF1F201FB1200B6
:10C5E00008B11D2500E01C25E0790830E071E079F4
:10C5F000182813DBE0791838E0716079401C60710D
:10C600006079A8420ADD012060712079401C207108
:10C6100020790C2802DD2068401C20606279217995
:10C620002068FFF776FFA07130BD012101709FEDFA
:10C630007D0B80ED020B9FED7D0B80ED040B9FEDDC
:10C64000790B80ED160B9FED770B80ED0A0B9FEDBC
:10C65000750B80ED100B9FED730B80ED180B9FEDAC
:10C66000750B80ED0C0B42F2107101879FED730B7F
:10C6700080ED060B9FED730B80ED120B9FED690BA8
:10C6800080ED080B9FED670B80ED140B0A2180F8FD
:10C69000681070479FED630B80ED000B9FED610B01
:10C6A00080ED040B9FED5F0B80ED020B9FED5D0BAA
:10C6B00080ED060B9FED5B0B80ED080B9FED590B9A
:10C6C00080ED0A0B9FED570B80ED0C0B704700B50A
:10C6D00002460120107050700020107101209070EF
:10C6E0000020D0700120107202F18800FFF7D2FF05
:10C6F00002F11800FFF799FF00BD10B503460020B6
:10C700001870002409E004EB440203F1080101EB76
:10C710008210FFF7DCFF601CC4B2062CF3DB10BDF7
:10C720000FB42DED020B30B52DED108B91B0B0EEA6
:10C7300040CAF0EE60CA439D429C9DED2A1BB0EEBC
:10C74000410AF0EE610A9FED371B53EC112B51ECBF
:10C75000100B12F05BFC25D09DED361BB0EE410AAC
:10C76000F0EE610A9FED2F1B53EC112B51EC100BD7
:10C7700012F04CFC16D09DED2E2BB0EE420AF0EEDE
:10C78000620A9DED302BB0EE421AF0EE621A53ECC5
:10C79000102B51EC110B12F039FC01D1012000E0FB
:10C7A000002030B9012011B0BDEC108B30BC5DF819
:10C7B0001CFB9DED281BB0EE410AF0EE610A9FEDD7
:10C7C000191B53EC112B51EC100B12F0E3FC03D2AC
:10C7D0009FED140B8DED280B9DED321BB0EE410A41
:10C7E000F0EE610A53EC1C2B51EC100B12F01AFF07
:10C7F00041EC190B9DED281BB0EE410AF0EE610AE9
:10C8000053EC102B51EC190B12F0C4FC23D39DED0B
:10C81000361BB0EE410AF0EE610A53EC102B15E026
:10C820002083B8ED00000000000000000AD7A370CC
:10C830003D0A973F00000000000024402D431CEB00
:10C84000E2361A3F000000000000E03F51EC190BF7
:10C8500012F0DAFD01D20220A5E79DED281BB0EE13
:10C86000410AF0EE610A53EC102B51EC190B12F057
:10C87000D9FE41EC1A0B9DED2E2BB0EE420AF0EEE4
:10C88000620A9DED302BB0EE421AF0EE621A53ECC4
:10C89000102B51EC110B12F0B9FB10D19DED2E0BAA
:10C8A000B0EE40BAF0EE60BA9DED300BB0EE408ACB
:10C8B000F0EE608AB0EE4AFAF0EE6AFAC7E09DED5B
:10C8C0002E2BB0EE420AF0EE620A9DED302BB0EE58
:10C8D000421AF0EE621A53EC102B51EC110B12F0CD
:10C8E000A1FECDE908019DED361BB0EE410AF0EE48
:10C8F000610A53EC102B9DED081B51EC110B12F04B
:10C900002DFA9FEDFE0B53EC102BCDE90A019DEDA6
:10C910000A0B51EC100B12F021FACDE90C019DED40
:10C920000C0B53EC102B9FEDF50B51EC100B12F090
:10C930006DFCCDE908019DED281BB0EE410AF0EE3B
:10C94000610A53EC102B9DED081B51EC110B12F0FA
:10C950005DFCCDE90A019DED301BB0EE410AF0EE21
:10C96000610A53EC102B9DED0A1B51EC110B12F0D8
:10C9700081FD41EC180B9DED0C0B53EC102B9FED42
:10C98000DF0B51EC100B12F041FC53EC192BCDE9ED
:10C9900008019DED080B51EC100B12F037FCCDE9AE
:10C9A0000A019DED301BB0EE410AF0EE610A53EC36
:10C9B000102B9DED0A1B51EC110B12F05BFD41ECAD
:10C9C0001B0B53EC1B2B51EC180B12F02BFE53ECF2
:10C9D0001B2BCDE9020151EC180B12F023FECDE91F
:10C9E00000019DED020B53EC102B9DED000B51EC63
:10C9F000100B12F00BFC9FEDC30B53EC102BCDE989
:10CA000004019DED040B51EC100B12F0A7F953EC4F
:10CA10001A2BCDE9080151EC1A0B12F0F7FBCDE906
:10CA200006019DED080B53EC102B9DED060B51EC10
:10CA3000100B12F0D7F81FED7D1BCDE90A019DED1B
:10CA40000A0B10F079FBB0EE40FAF0EE60FA53EC0E
:10CA50001B2B51EC180B12F0C5F853EC1A2BCDE937
:10CA600008019DED080B51EC100B12F0CFFB9FED70
:10CA7000A30B53EC102BCDE90A019DED0A0B51ECF1
:10CA8000100B12F06BF941EC1E0B9FED9C0B53EC5D
:10CA9000102B51EC1F0B12F0B9FB53EC182BCDE906
:10CAA00008019DED080B51EC100B12F09BF8CDE93D
:10CAB0000A019DED0A0B53EC102B51EC1E0B12F0EA
:10CAC0004DF941EC1D0B9FED911BB0EE4D0AF0EEC0
:10CAD0006D0A10F031FB8DED0A0B9DED2A1BB0EEB7
:10CAE000410AF0EE610A53EC102B9FED8A1B51ECCA
:10CAF000110B12F033F9CDE908019DED0A0B53EC4F
:10CB0000102B9DED080B51EC100B12F07FFBCDE9C3
:10CB10000E019DED2C1BB0EE410AF0EE610A53ECC4
:10CB2000102B51EC1D0B12F071FB1FEDBA1BCDE960
:10CB300008019DED080B10F0FFFA8DED0A0B9DED3D
:10CB40000E0B53EC102B9DED0A0B51EC100B12F059
:10CB50005DFBC4E9000194ED001BB0EE410AF0EE6C
:10CB6000610A53EC1E2B51EC100B12F04FFBC5E980
:10CB70000001002017E60FB42DED020B30B52DEDAE
:10CB8000108B97B0499D489C9DED301BB0EE410A3B
:10CB9000F0EE610A1FEDDD1B53EC112B51EC100B75
:10CBA00012F034FA06D1012017B0BDEC108B30BC66
:10CBB0005DF81CFB9DED3E0BB0EE408AF0EE608A06
:10CBC0009DED3C0B8DED0C0B9DED2E1BB0EE410A47
:10CBD000F0EE610A1FEDED1B53EC112B51EC100B25
:10CBE00012F0D8FA03D21FEDF10B8DED2E0B9DED57
:10CBF000381BB0EE410AF0EE610A9DED2A1B53ECA2
:10CC0000112B51EC100B12F00DFD41EC190B9DEDA9
:10CC10002E1BB0EE410AF0EE610A53EC102B51ECE2
:10CC2000190B12F0B7FA0FD39DED0C0B53EC102B30
:10CC300051EC190B12F0E8FB06D353EC182B51EC16
:10CC4000190B12F0E1FB01D20220ADE79DED3E1B76
:10CC5000B0EE410AF0EE610A9FED301B53EC112B50
:10CC600051EC100B12F096FA01D803209CE753EC1C
:10CC7000192B51EC180B12F0D5FC41EC1A0B53ECAC
:10CC80001A2B51EC1A0B12F0C1FA53EC182BCDE908
:10CC9000020151EC180B12F0B9FACDE900019DED3B
:10CCA000020B53EC102B9DED000B51EC100B12F00E
:10CCB000B9FC9FED1C1BCDE904019DED040B10F0A8
:10CCC0003BFA8DED060B9FED0D0B53EC102B9DEDFC
:10CCD000060B51EC100B12F099FACDE90E0153EC52
:10CCE000182B51EC1A0B12F039F8CDE904019DED27
:10CCF000040B10F011F88DED060B17E0000000009A
:10CD0000000000400000000000001040555555553F
:10CD10005555C53F000000000000F03F0000000036
:10CD200000000000000000000000E03F1FED0D0BC0
:10CD300053EC102B9DED060B51EC100B12F066FA24
:10CD4000CDE910019DED3E1BB0EE410AF0EE610A07
:10CD500053EC102B9DED101B51EC110B12F056FAF9
:10CD600041EC1D0B53EC1A2B9DED0E0B51EC100BEF
:10CD700012F04CFA53EC182BCDE9040151EC1D0BC9
:10CD800012F044FACDE902019DED040B53EC102B97
:10CD90009DED020B51EC100B12F044FC1FED1F0B2C
:10CDA00053EC102BCDE906019DED060B51EC100B59
:10CDB00012F02CFA41EC1C0B9DED2E1BB0EE410A3B
:10CDC000F0EE610A1FED2B1B53EC112B51EC100BF5
:10CDD00012F01AFB7ED29DED2E1BB0EE410AF0EE52
:10CDE000610A53EC102B51EC180B12F01BFC41ECB8
:10CDF0001B0B53EC1B2B51EC1B0B12F007FA53ECE3
:10CE0000182BCDE9020151EC180B12F0FFF9CDE916
:10CE100000019DED020B53EC102B9DED000B51EC2E
:10CE2000100B12F0FFFB1FED411BCDE904019DED3E
:10CE3000040B10F081F98DED060B1FED500B53EC38
:10CE4000102B9DED060B51EC100B12F0DFF941ECAD
:10CE50001E0B53EC182B51EC1B0B11F07FFFCDE98F
:10CE600004019DED040B0FF057FF8DED060B1FED38
:10CE70005D0B53EC102B9DED060B51EC100B12F0DB
:10CE8000C5F9CDE90A0153EC182B9DED0A0B51ECC5
:10CE9000100B12F0BBF9CDE9080153EC1B2B51EC40
:10CEA0001E0B12F0B3F953EC182BCDE904019DEDE4
:10CEB000080B51EC100B12F0A9F9CDE902019DED20
:10CEC000040B53EC102B9DED020B51EC100B12F0E8
:10CED000A9FB00E00EE01FED6D0B53EC102BCDE92C
:10CEE00006019DED060B51EC100B12F08FF941EC91
:10CEF0001F0B07E01FED77EB1FED78FB1FED790BA4
:10CF00008DED080B53EC1F2B51EC1C0B12F08AFB20
:10CF100041EC1C0B9DED080B53EC102B51EC1D0B41
:10CF200012F080FB53EC1E2BCDE906019DED060BA4
:10CF300051EC100B11F056FE41EC1D0B53EC1D2B68
:10CF400051EC1C0B11F00AFFCDE912011FED911BF2
:10CF50009DED120B10F0F0F88DED060B9DED301BE2
:10CF6000B0EE410AF0EE610A53EC102B1FED971B57
:10CF700051EC110B11F0F2FECDE904019DED060B11
:10CF800053EC102B9DED040B51EC100B12F03EF9FD
:10CF9000CDE914019DED321BB0EE410AF0EE610ABD
:10CFA00053EC102B9DED121B51EC110B12F02EF9CE
:10CFB0001FEDA41BCDE904019DED040B10F0BCF89E
:10CFC0008DED060B9DED140B53EC102B9DED060B18
:10CFD00051EC100B12F01AF9C4E9000194ED001B9A
:10CFE000B0EE410AF0EE610A53EC1C2B51EC100B31
:10CFF00012F00CF9C5E900010020D5E50FB42DEDC4
:10D00000020B30B52DED108B9FB0B0EE40CAF0EEA4
:10D0100060CA519D509C9DED381BB0EE410AF0EE68
:10D02000610A1FEDC21B53EC112B51EC100B11F0D8
:10D03000EDFF06D101201FB0BDEC108B30BC5DF8B8
:10D040001CFB9DED401BB0EE410AF0EE610A53EC73
:10D050001C2B51EC100B12F0E5FA41EC1A0B1FEDF2
:10D06000D10B53EC102B51EC1A0B12F093F80CD39C
:10D070009DED441BB0EE410AF0EE610A53EC102B1B
:10D0800051EC1A0B12F0C0F901D20220D3E79DED4A
:10D09000489B1FEDDE0B53EC102B51EC190B12F0DB
:10D0A00079F801D80320C6E79DED4A8B9FEDFE0B72
:10D0B0000FF032FE8DED100B9FEDFD0B53EC102B9E
:10D0C0009DED100B51EC100B11F048FE53EC182B9A
:10D0D000CDE912019DED120B51EC100B12F096F8F8
:10D0E000CDE914019DED140B10F04EFE8DED160BE5
:10D0F0001FEDF80B53EC102B9DED160B51EC100BA4
:10D1000012F0B8F953EC192BCDE918019DED180B6D
:10D1100051EC100B12F07AF841EC1F0B53EC1F2B63
:10D1200051EC1A0B12F036F80FD8602238A9684675
:10D13000CDE918450EF083FDB0EE4C0AF0EE6C0A16
:10D1400034A80FC8FFF717FD75E753EC1F2B51EC00
:10D150001A0B12F067FA41EC1B0B9FEDD30B0FF08B
:10D16000DBFD8DED080B9FEDD20B53EC102B9DEDED
:10D17000080B51EC100B11F0F1FD53EC182BCDE91D
:10D180000A019DED0A0B51EC100B12F03FF8CDE9AE
:10D190000C019DED0C0B10F05BFE8DED0E0B53ECB6
:10D1A0001B2B9DED0E0B51EC100B12F02FF89FED89
:10D1B000BE0BCDE912010FF0AFFD8DED060B9FED1B
:10D1C000BC0B53EC102B9DED060B51EC100B11F02A
:10D1D000C5FD53EC182BCDE908019DED080B51EC72
:10D1E000100B12F013F8CDE90A019DED0A0B0FF0B8
:10D1F0003FFF8DED0E0B53EC192B9FEDAF0B51EC58
:10D20000100B12F003F8CDE90C019DED0E0B53EC61
:10D21000102B9DED0C0B51EC100B11F0F7FFCDE92D
:10D2200010019DED120B53EC102B9DED100B51ECEA
:10D23000100B11F0D7FC53EC1B2BCDE914019DED25
:10D24000140B51EC100B11F0E1FF9FED970BCDE9A2
:10D2500018010FF061FD8DED060B9FED950B53EC62
:10D26000102B9DED060B51EC100B11F077FD53ECDC
:10D27000182B9FED910BCDE90A0151EC100B11F029
:10D28000C5FFCDE908019DED0A0B53EC102B9DED78
:10D29000080B51EC100B11F0B9FFCDE90C019DED1D
:10D2A0000C0B10F071FD8DED100B9FED850B53EC09
:10D2B000102B51EC180B11F051FD9FED830B53EC2B
:10D2C000102BCDE908019DED080B51EC100B12F06D
:10D2D000D1F89FED750BCDE90C010FF01DFD8DED23
:10D2E0000A0B9DED0C0B53EC102B9DED0A0B51EC32
:10D2F000100B11F08BFFCDE90E019DED100B53ECDF
:10D30000102B9DED0E0B51EC100B12F08BF953EC22
:10D31000192BCDE9140151EC190B11F077FF9FED9A
:10D32000660B53EC102BCDE910019DED100B51EC69
:10D33000100B11F013FDCDE912019DED140B53EC10
:10D34000102B9DED120B51EC100B11F05FFFCDE98E
:10D3500016019DED180B53EC102B9DED160B51ECA7
:10D36000100B11F03FFC41EC1E0B9FED4F0B0FF02B
:10D37000D3FC8DED0C0B9FED4E0B53EC102B9DED64
:10D380000C0B51EC100B11F0E9FC53EC182BCDE910
:10D390000E019DED0E0B51EC100B11F037FFCDE996
:10D3A00010019DED100B0FF063FE8DED140B53EC8F
:10D3B0001B2B9FED410B51EC100B11F027FFCDE91A
:10D3C00012019DED140B53EC102B9DED120B51EC43
:10D3D000100B11F0C3FC9FED3A0B53EC102BCDE971
:10D3E000180151EC180B11F0B9FC9FED370B53EC01
:10D3F000102BCDE910019DED100B51EC100B12F02C
:10D4000039F89FED290BCDE914010FF085FC8DED66
:10D41000100B53EC192B9DED100B51EC100B11F070
:10D42000F5FECDE912019DED140B53EC102B9DED93
:10D43000120B51EC100B11F0E9FECDE916019DED38
:10D44000180B53EC102B9DED160B51EC100B11F03B
:10D45000C9FBCDE91A019DED1A0B53EC102B51ECD1
:10D460001E0B11F07BFC41EC1D0B9FED191BB0EE68
:10D470004D0AF0EE6D0A0FF05FFE8DED180B9DED7D
:10D48000381BB0EE410AF0EE610A53EC102B9FED11
:10D490000E1B51EC110B11F061FCCDE916019DED55
:10D4A000180B53EC102B17E0000000000000F0BF39
:10D4B0000000000000806640000000000000004006
:10D4C0000000000000805640000000000000F03F17
:10D4D000555555555555C53F9DED160B51EC100B47
:10D4E00011F094FECDE91C019DED3A1BB0EE410A0E
:10D4F000F0EE610A53EC102B51EC1D0B11F086FE7F
:10D500009FEDFE1BCDE916019DED160B0FF014FEED
:10D510008DED180B9DED1C0B53EC102B9DED180B96
:10D5200051EC100B11F072FEC4E9000194ED001BE8
:10D53000B0EE410AF0EE610A53EC1E2B51EC100BD9
:10D5400011F064FEC5E90001002074E50FB42DED73
:10D55000020B30B52DED028B9BB0B0EE408AF0EEA1
:10D56000608ADDE93E459DF88800012814D16022DB
:10D5700026A96846CDE918450EF061FBB0EE480AD1
:10D58000F0EE680A22A80FC8FFF7CAF81BB0BDEC7E
:10D59000028B30BC5DF81CFB9DF8880002280FD17F
:10D5A000602226A96846CDE918450EF048FBB0EE8A
:10D5B000480AF0EE680A22A80FC8FFF7DCFAE5E790
:10D5C0009DF8880003280FD1602226A96846CDE97E
:10D5D00018450EF034FBB0EE480AF0EE680A22A8B7
:10D5E0000FC8FFF70BFDD1E70120CFE70321017042
:10D5F000012181700021417001717F214171002161
:10D600008171C1710121017241F6907141814FF424
:10D610009671416200218162C16201214177817767
:10D62000082101840121C170017700210186704722
:10D6300010B5024600201070002317E003EB8301B1
:10D6400001EBC30402F1180101EB8400FFF7CEFFE8
:10D6500003EB8300410003EB830000EBC30402F102
:10D66000180000EB84008162581CC3B2082BE5DB74
:10D67000002050601081002305E0002102F10A0023
:10D68000C154581CC3B2072BF7DBDA2050745F215A
:10D6900091744321D1746B21117540F62B10D08207
:10D6A00010BD01220270827042707822C270002187
:10D6B00004E00023021D53544A1CD1B20829F8DBB0
:10D6C000704702460020002104E00002535C184429
:10D6D0004B1CD9B20429F8DB00EE100A704713B5D1
:10D6E0002DED020B02460B466C46082B02D00120A2
:10D6F00004B010BD002103E0605C5054481CC1B26E
:10D700000829F9DB0020F3E790ED000B704730B5F6
:10D710000346080E1446551CAAB21855C1F3074516
:10D720001046541CA2B21D54C1F307251046541CC8
:10D73000A2B21D541046541CA2B21954104630BD5A
:10D740000021C17001704170817000228260C2604E
:10D75000704701210170002141708170C170012169
:10D760000171017400228260C260704730B50446C6
:10D77000002040EAC415E8B240EA8115E8B240EA68
:10D780000215E8B2184330BD2DE9F043044689463E
:10D7900016461D46DDF81C80300C2070300A607083
:10D7A000A67041F2BF30804503D1E570280A207190
:10D7B0000FE041F2CD30804508D12F463846FEF7C4
:10D7C00094FE0746E770380A207102E0280AE070EC
:10D7D00025710020BDE8F0832DE9F04304460D4695
:10D7E0009046994614F8086046FA09F000F00307DD
:10D7F000002F02DC0020BDE8F083072D01D20020BD
:10D80000F9E7781EC7B206F0CF0607FA09F03043F1
:10D81000C6B204F80860691FE01CFEF7BFFDA91E30
:10D8200060543846E7E72DE9F043A1B004460F46BF
:10D830009046802101A80EF034FA0026002505E06C
:10D84000A01D405D304486B2681C85B26079A84254
:10D85000F6DC354607E004F10E00405DA91B01AA85
:10D860005054681C85B26179A01D405C3044A842C8
:10D87000F1DC6279A01D815C43463A4601A8FFF7BE
:10D88000ABFF8146354607E0A81B01A9095C04F1FE
:10D890000E004155681C85B26179A01D405C304482
:10D8A000A842F1DC484621B0BDE8F083F0B504465B
:10D8B000DDE90676059D002020700A2095FBF0FC2E
:10D8C00000FB1C504FF00A0C95FBFCFC40EA0C10CE
:10D8D00060700A2093FBF0FC00FB1C304FF00A0C38
:10D8E00093FBFCFC40EA0C10A0700A2092FBF0FCB9
:10D8F00000FB1C204FF00A0C04E0000000000000B8
:10D900000000E03F92FBFCFC40EA0C10E070267146
:10D910000520F0BD30B503460A20B2FBF0F400FB51
:10D92000142018700A20B2FBF0F00A24B0FBF4F5C2
:10D9300004FB150058706420B2FBF0F0B0FBF4F566
:10D9400004FB150098704FF47A70B2FBF0F0B0FB56
:10D95000F4F504FB1500D8700420087030BD2DE9E3
:10D96000F04F8DB00546894614469A4600200C902B
:10D97000834600270890099006900790FDA0006854
:10D9800004900020C9F80000207928B194F88F0095
:10D990000C3000F0FF0B04E094F88F00C01D00F085
:10D9A000FF0B8DF811B0002605E004A8825D384613
:10D9B0007F1C2A54761C032EF7DB2379E278A178AA
:10D9C0006078FFF7D3FE0B9039467F1C0B986854A4
:10D9D000CDF800A0A389052108A8A268FFF7D4FE0E
:10D9E000002605E008A8825D38467F1C2A54761C74
:10D9F000052EF7DBA27B38467F1C2A544FF0000827
:10DA00000AE004F10F0010F8082038467F1C2A5461
:10DA100008F1010000F0FF0894F88F004045F0DCA9
:10DA20002079B8B192342079E178A278CDE900214B
:10DA30000290637814F89229052106A8FFF736FFB3
:10DA4000002605E006A8825D38467F1C2A54761C15
:10DA5000052EF7DBE81C059059460598FEF79EFC5D
:10DA60000A9039467F1C0A986854162238467F1C53
:10DA70002A540020E855C9F800700C980DB0BDE894
:10DA8000F08F2DE9F84380460D4616469946002052
:10DA90000090B9EB450F01D8BDE8F88300240027BA
:10DAA00013E018F80720B4A168460DF009FF9DF8AF
:10DAB00000202046611C8CB232549DF80120204683
:10DAC000611C8CB23254781CC7B2AF42E9D300203B
:10DAD00030552046E0E72DE9F04F2DED048B81B065
