:020000040800F2
:1080000080750020ED7A0108B58B0008B78B000859
:10801000BB8B0008BF8B0008C38B0008000000006A
:10802000000000000000000000000000C78B0008F6
:10803000C98B000800000000CB8B0008CD8B000826
:10804000077B0108077B0108077B0108077B010804
:10805000077B0108077B0108077B0108077B0108F4
:10806000077B0108077B0108077B0108077B0108E4
:10807000077B0108077B0108077B0108077B0108D4
:10808000077B0108077B0108077B0108077B0108C4
:10809000077B0108077B0108077B0108077B0108B4
:1080A000077B0108077B0108077B0108077B0108A4
:1080B000FB9D00083F9E0008819E0008077B010889
:1080C000077B0108077B0108077B0108077B010884
:1080D000077B0108918D0008977A0108E3100108D9
:1080E000077B0108077B0108077B0108077B010864
:1080F000077B0108077B0108077B0108077B010854
:10810000077B0108E9390108077B0108077B0108A3
:10811000077B0108077B0108077B01088B11010819
:10812000077B0108077B0108077B0108077B010823
:10813000077B0108077B0108077B0108077B010813
:10814000077B0108077B0108077B0108077B010803
:10815000077B0108077B0108077B0108077B0108F3
:10816000077B0108077B0108077B0108077B0108E3
:10817000077B0108077B0108077B0108077B0108D3
:10818000077B0108077B010800F002F800F075F892
:108190000AA090E8000C82448344AAF10107DA4562
:1081A00001D100F06AF8AFF2090EBAE80F0013F03F
:1081B000010F18BFFB1A43F001031847287901008B
:1081C000487901000A444FF0000C10F8013B13F00D
:1081D000070408BF10F8014B1D1108BF10F8015B20
:1081E000641E05D010F8016B641E01F8016BF9D113
:1081F00013F0080F1EBF10F8014BAD1C0C1B09D16A
:108200006D1E58BF01F801CBFAD505E014F8016BDB
:1082100001F8016B6D1EF9D59142D6D3704700006D
:108220000023002400250026103A28BF78C1FBD87F
:10823000520728BF30C148BF0B607047662917F04E
:108240003E82642913F08682752913F0838278298F
:1082500013F0BC82732913F0D886002070471FB535
:1082600017F023FA13F0E8FE04000020002116F0B6
:108270004DFBE0601FBD10B510BD13F0E5FF1146CA
:10828000FFF7EDFF00F0D9FA14F003F803B4FFF79D
:10829000F2FF03BC0FF086FB30BF72B6704762B6C8
:1082A000704780F308887047FD48007820B1FD4A88
:1082B000FD49FE480EF008FE64200FF053FB01203C
:1082C000FB4908604FF47A700FF04CFB00BF00BF11
:1082D00000BF00BF00BFBFF34F8F00BF00BF00BF94
:1082E000F448006800F4E060F3490843001DF149D8
:1082F000086000BF00BF00BFBFF34F8F00BF00BFCB
:1083000000BF00BFFEE70120E84908700121E748EF
:1083100081720120E54908720121E44841723C2143
:10832000C18100228261C2610220DF4908704FF4DE
:108330006161DD48C163DA2141775F2181774321A3
:10834000C1776B2180F8201045F6F7714184002138
:1083500041760320D44908760121D348C1764FF4F1
:1083600061610167DA2180F851105F2180F85210B5
:10837000432180F853106B2180F8541042F22C31C5
:10838000A0F85610002180F84D10032180F84C1001
:10839000012180F84F1041F23420C349486045F272
:1083A00078600881DA2048745F21BF4881744321D6
:1083B000C1746B21017540F62B10BB49C882704710
:1083C00010B5002404E00020BC490855601C84B2AC
:1083D000B4F5007FF7DBE8220021B8480BF086FBFC
:1083E00010BD10B5002401224FF44831B3480BF002
:1083F00031FB00BF06E0B148015DAA48001D0155F0
:10840000601CC4B2082CF6DB10BD10B5002400209F
:10841000A34908700BE00AF0D3FA18B90120A0496B
:10842000087006E0C8200FF09DFA601CC4B2032C4F
:10843000F1DB00BF9A48007820B9A1480078401CC1
:108440009F49087010BD10B59548007820B1954A35
:10845000954996480EF038FD10BD10B52DED0A8BEC
:10846000052101200CF07EFD08EE100AB8EE480A46
:1084700010EE100A17F0A8F841EC1C0B9FED910BC1
:1084800053EC102B16F0AAFD41EC1B0B9FED8F0B4C
:1084900053EC102B16F0A2FD41EC1A0B9FED8D0B47
:1084A00053EC102B16F042FB41EC190B16F050FA6E
:1084B00008EE900AB2EE040A28EE800ABCEEC00A6A
:1084C00010EE100A7749C870BDEC0A8B10BDF0B5EC
:1084D0002DED028B85B005460E4600200090052E3E
:1084E00003DA05B0BDEC028BF0BDFF227B480178BA
:1084F0007B4803F089FF012800D0F2E7287808289C
:108500004CD10821BDF80020501C80B2009001A879
:1085100081540321BDF80020501C80B2009001A8B6
:1085200081540221BDF80020501C80B2009001A8A7
:1085300081545E4890ED2A1BB0EE410AF0EE610ACC
:108540009FED681B53EC112B51EC100B16F046FD00
:1085500041EC180B16F0AEFC84B22246694601A825
:1085600005F0B8FDBDF8001001A803F017FF0446A0
:10857000BDF80020501C80B2009001A88454210A4C
:10858000BDF80020501C80B2009001A88154BDF8B5
:108590000000C1B201A800F0A0FB4EE02878092835
:1085A0004BD10921BDF80020501C80B2009001A8D9
:1085B00081540321BDF80020501C80B2009001A816
:1085C00081540421BDF80020501C80B2009001A805
:1085D0008154364890ED281BB0EE410AF0EE610A56
:1085E0009FED401B53EC112B51EC100B16F0F6FCD9
:1085F00041EC180B16F05EFC07463A46694601A8A6
:1086000005F07BFDBDF8001001A803F0C7FE04468D
:10861000BDF80020501C80B2009001A88454210AAB
:10862000BDF80020501C80B2009001A88154BDF814
:108630000000C1B201A800F050FB2C48D0E90410A2
:108640002A4AC2E90A1000BF4BE770B5A0B0002665
:108650000024002521480078052804DA00201F495D
:10866000087020B070BD79E01D48005D082803D077
:108670001B48005D092841D10026254609E0601904
:1086800017490A5C3046711C8EB20DF80020681C38
:1086900085B204F108008542F1DB3146684627E0E7
:1086A00001000020080A002098010020500300204B
:1086B000840242420CED00E00000FA05280A002086
:1086C000050000206666666666660A4000000000D7
:1086D00000A0604000000000008000411C0000205D
:1086E000280C00200000000000408F4060010020A6
:1086F000FFF7EDFE04F1080084B22AE09C49601CFB
:10870000085C032803D0601C085C042820D10026E4
:10871000254609E0601996490A5C3046711C8EB204
:108720000DF80020681C85B29149A01C085C20440B
:10873000401DA842EEDC8F484278314668460DF075
:10874000C3FB8B49A01C085C401D204484B200E0A0
:1087500005E089480078844200DB00E084E700BF40
:1087600000208549087000BF7BE701B59DF8000037
:1087700013282DD00EDC10282ED006DC01281ED0A8
:1087800002281FD003283AD11FE0112823D0122835
:1087900035D10EE0302824D006DC142824D015284A
:1087A00025D020282BD107E0402823D0502826D1DF
:1087B00022E002F0E4FE23E003F0D0FD20E003F02D
:1087C00001FC1DE008F06AFC1AE0FFF73EFF17E02D
:1087D0000BF09AFF14E013E09DF801000CF028FF65
:1087E0000EE008F0F5FB0BE0FFF70FFE08E0FFF7E7
:1087F0002AFE05E0FFF758FDFFF72FFE00E000BF5F
:1088000000BF08BD1CB5012110200FF023FD402042
:10881000009001208DF804008DF8060003208DF8EB
:10882000050001208DF80700694654480FF074FADE
:10883000402152480FF0EEFA1CBD08B500BF504869
:10884000504908604FF4A0600FF070F9A8200FF0B5
:1088500027F84FF4165000F0BBF94FF4E1300FF059
:10886000B0F84FF4165005F005FE474804F055FFE8
:10887000FFF7C8FF42F2CF0140F2E73000F0ECFF13
:1088800042F2CF01632000F08CFF42F2CF0142F2AE
:108890000F7000F0B2FF42F2CF01632008F049FCF4
:1088A00000F0BDFB00F0FEFBFFF7AFFD40F2E24140
:1088B000062003F041FD00F011FF01F010F83348ED
:1088C00003F0FFFE324804F097FE324804F0CDFE7C
:1088D000284804F019FF08F07AFC01212E4810F016
:1088E0006DF901F0F7FB00202C49086002F082FED0
:1088F00000F088FE0CF0D4FA0220264908702848BF
:10890000007868B10A46224920480DF021FE48B996
:10891000FFF7F9FC1F4A1E491C480EF0D5FA01E08A
:10892000FFF7F1FC23E0002000F081FE044614B1C3
:1089300020460CF072FA684609F0B6F910B10098BA
:10894000FFF713FF0B48007870B9684609F035FA55
:1089500050B19DF80100074948700020C870887028
:108960009DF801000CF064FE0A200EF0FBFFDAE730
:10897000280C0020180A00201C00002000100240D3
:108980000080000808ED00E0580900205003002096
:1089900098010020080A002000080040840242429A
:1089A000010000200CB5002001900090764800687E
:1089B00040F480307449086000BF7348006800F4D8
:1089C000003000900198401C0190009818B901985F
:1089D000B0F5A04FF1D16C48006800F4003010B140
:1089E0000120009001E0002000900098012846D16D
:1089F00065484030006840F080506349403108606D
:108A00006248006840F44040604908605E480830B1
:108A100000685D49083108600846006840F400407D
:108A200008600846006840F4A05008605848091FD4
:108A30000860081F006840F08070091F086000BFD0
:108A40005148006800F000700028F9D040F205702D
:108A5000504908604C480830006820F003004A493B
:108A6000083108600846006840F00200086000BF56
:108A700045480830006800F00C000828F8D10CBD0B
:108A800010B54548006840F47000434908603E480E
:108A9000006840F001003C49086000203A49083174
:108AA0000860394800683D490840374908603C483B
:108AB000091D0860081F006820F48020091F086055
:108AC000002031490C310860FFF76CFF4FF0006067
:108AD00031498039086010BD70B5002000220223A2
:108AE00000240221284D08352D6805F00C0020B126
:108AF000042806D0082834D107E02A4D2A4E3560D4
:108B000033E02A4D284E35602FE01F4D2D1D2D6876
:108B1000C5F380541C4D2D1D2D6805F03F0154B147
:108B2000224DB5FBF1F5184E361D3668C6F3881692
:108B300005FB06F209E01B4DB5FBF1F5124E361DA3
:108B40003668C6F3881605FB06F20F4D2D1D2D68FD
:108B5000C5F301456D1C6B00B2FBF3F5124E356099
:108B600003E0104D104E356000BF00BF064D0835C4
:108B70002D68C5F303150E4E705D0B4D2D68C54075
:108B8000094E356070BD00000038024000700040A2
:108B900008544007003C024088ED00E0FFFFF6FE6D
:108BA000103000240024F4000800002000127A0095
:108BB0000C000020704700BFFEE700BFFEE700BFCB
:108BC000FEE700BFFEE77047704770477047000040
:108BD00010B588B00446012108460FF03BFB012187
:108BE00010200FF091FB0722092179480FF01FF99F
:108BF00007220A2176480FF01AF94FF4C060069058
:108C000002208DF81C0003208DF81D0000208DF837
:108C10001E0001208DF81F0006A96D480FF07CF89A
:108C20004FF48070069001208DF81C0003208DF811
:108C30001D0000208DF81E0001208DF81F0006A9E0
:108C400063480FF069F84FF40060069001208DF83A
:108C50001C0003208DF81D0000208DF81E0001204F
:108C60008DF81F0006A95A480FF056F8029400200C
:108C7000ADF80C00ADF80E00ADF81000ADF8140022
:108C80000C20ADF8120002A952480FF09EFC012101
:108C900050480FF022FD40214E480FF006FE012201
:108CA00040F225514B480FF0CEFD25208DF80400F1
:108CB00003208DF805008DF8060001208DF80700CF
:108CC00001A80EF038FF0020434908604349C1F86D
:108CD000AC024349087008B010BD70B505460E4699
:108CE00001203D49086000240CE000BF40213948C4
:108CF0000FF0CEFD0028F9D0295D36480FF018FDA1
:108D0000601CC4B2B442F0DB00BF402131480FF018
:108D1000BFFD0028F9D00020324908702E490860B4
:108D200070BD2DE9F04107460D462E480678002417
:108D3000002028700A200EF015FE2A48007886428E
:108D40000FD176B100BF04E02748005D3855601CA4
:108D5000C4B2B442F8DB23480078287000202149CF
:108D60000870BDE8F08110B1012800D070471C499F
:108D7000087020B90021184A0C32116003E001216B
:108D8000154A0C3211600021164A117000BFEDE740
:108D900010B540F225510F480FF090FDB8B10121F8
:108DA00012480FF00BFF00201149087009480FF01E
:108DB000C3FCC4B20B480078402808DA0A480949C5
:108DC0000978445407480078401C0649087010BDD3
:108DD0000000024000100140A0024042000040425A
:108DE000040000201C000020280C0020000400408B
:108DF0006400002070B5044600224FF40071FE4864
:108E00000FF00AF800224FF40061FB480FF004F85D
:108E100000251FE000228021F7480EF0FDFF04F03E
:108E2000800028B101221102F3480EF0F5FF05E0A1
:108E300000224FF48071F0480EF0EEFF01228021F5
:108E4000ED480EF0E9FF01200EF044FD6006040E2F
:108E5000681CC5B2082DDDDB01225102E6480EF088
:108E6000DBFF70BD70B5044600224FF40071E2488C
:108E70000EF0D2FF0122D102DF480EF0CDFF002517
:108E80001FE000228021DC480EF0C6FF04F08000C5
:108E900028B101221102D8480EF0BEFF05E00022E1
:108EA0004FF48071D4480EF0B7FF01228021D248E0
:108EB0000EF0B2FF01200EF00DFD6006040E681CDE
:108EC000C5B2082DDDDB01225102CB480EF0A4FF14
:108ED00070BD70B5044600224FF40071C6480EF014
:108EE0009BFF0122D102C4480EF096FF00251FE02F
:108EF00000228021C0480EF08FFF04F0800030B1C6
:108F000000224FF48071BC480EF086FF04E001227D
:108F10001102B9480EF080FF01228021B6480EF000
:108F20007BFF01200EF0D6FC6006040E681CC5B263
:108F3000082DDDDB01225102AF480EF06DFF70BD40
:108F400010B564200EF00EFD00224FF40071AA4807
:108F50000EF062FF01221103A7480EF05DFF002210
:108F60004FF48061A4480EF057FF14200EF0FAFC75
:108F700001229102A0480EF04FFF14200EF0F2FCE7
:108F8000E220FFF737FF05200EF0ECFC2C20FFF766
:108F900031FF05200EF0E6FC2E20FFF72BFF052009
:108FA0000EF0E0FC2F20FFF725FF05200EF0DAFC85
:108FB0002420FFF71FFF8120FFF71CFF2A20FFF767
:108FC00019FFA220FFF716FFC820FFF713FFA0200C
:108FD000FFF710FF6020FFF70DFFAF20FFF70AFF3C
:108FE0000122510284480EF017FF10BD1CB501216B
:108FF00002200FF02FF94FF48040009001208DF8EF
:10900000040000208DF8060003208DF80500694655
:109010007A480EF081FE0120794908601CBD1CB51C
:10902000012110200FF016F901208DF80400002016
:109030008DF806004BF68070009001208DF8070037
:1090400002208DF8050069466B480EF065FE002091
:109050008DF804008DF806004FF480400090012048
:109060008DF8070002208DF80500694662480EF071
:1090700053FEFFF765FFFFF7B9FF1CBD70B505464E
:109080000C4600BF05F1AF01C8B2FFF7B3FEC4F351
:10909000031101F11000FFF7ADFE04F00F00FFF720
:1090A000A9FE70BD70B500224FF4007152480EF059
:1090B000B3FE0122110350480EF0AEFE002415E06D
:1090C00004F1B001C8B2FFF795FE1020FFF792FE41
:1090D0000020FFF78FFE002504E00020FFF7C2FE0E
:1090E000681CC5B2842DF8DB601CC4B2092CE7DB18
:1090F0000122510240480EF08FFE70BD0120404910
:109100000860704700203E49086070472DE9F04133
:109110000646884614460027002500BF15E0701952
:109120004146FFF7ABFF00270BE01CB90020FFF71B
:1091300099FE04E0012C02D10020FFF7CAFE781C42
:10914000C7B2802FF1DB681CC5B2022DE7DBBDE89A
:10915000F08170B5044600224FF4007126480EF0ED
:109160005BFE00250FE00121681CFFF787FF00264A
:1091700005E02078FFF776FE641C701CC6B2802ED6
:10918000F7DB681CC5B2082DEDDB012251021A483D
:109190000EF042FE70BD2DE9F047074689461446A1
:1091A0001D4600224FF4007113480EF035FE0122D7
:1091B000110311480EF030FE00261AE0B819494696
:1091C000FFF75CFF4FF000080EE01DB92078FFF7B5
:1091D00049FE04E0012D02D12078FFF77AFE641CDD
:1091E00008F1010000F0FF08B8F1100FEDDB701C72
:1091F000C6B2022EE2DB05E000100240000402408D
:10920000B882404201225102FA480EF005FEBDE844
:10921000F0872DE9F0470746894614461D4600228F
:109220004FF40071F3480EF0F7FD00261AE0B8196C
:109230004946FFF723FF4FF000080EE01DB92078E4
:10924000FFF710FE04E0012D02D12078FFF741FE68
:10925000641C08F1010000F0FF08B8F1080FEDDB15
:10926000701CC6B2022EE2DB01225102E1480EF070
:10927000D3FDBDE8F0872DE9F05F07460D461446A3
:109280001E4607F1AF0000F0FF0900224FF4007105
:10929000D8480EF0C1FD05F00F00401E00F0FF0A97
:1092A000C5F3031000F1100B4846FFF7A3FD584625
:1092B000FFF7A0FD5046FFF79DFD4FF000080CE0C2
:1092C0001EB92078FFF7CEFD04E0012E02D12078F0
:1092D000FFF7FFFD641C08F10108B8F1060FEFD39A
:1092E00001225102C3480EF097FDBDE8F09F70B512
:1092F000044600251DE004F0800028B10122D103BE
:10930000BC480EF089FD05E000224FF40041B94849
:109310000EF082FD6006040E00224FF40051B548A5
:109320000EF07AFD01225103B2480EF075FD681C63
:10933000C5B2082DDFDB70BD70B5002401225103DA
:10934000AC480EF069FD002518E000224FF40051F2
:10935000A8480EF061FD6006040E4FF48041A54858
:109360000EF03CFD10B1601CC4B200E0E4B201227A
:109370005103A0480EF050FD681CC5B2082DE4DB77
:10938000204670BD2DE9F04780460D4616461F4623
:10939000DDF8209000224FF4805196480EF03CFDFD
:1093A0000122510293480EF037FD00224FF4005184
:1093B00090480EF031FD0320FFF799FF4046FFF77C
:1093C00096FF2846FFF793FF3046FFF790FF0024F3
:1093D00004E0FFF7B1FF3855601CC4B24C45F8DB20
:1093E0000122110383480EF017FDBDE8F0872DE937
:1093F000F04F8DB083460E4615461F4600243A4670
:1094000031465846FFF782FEABE0285DB02838DBD6
:10941000285DF72835DC601C285CA12831DB285D3D
:10942000B0385E2110FB01F073490860601C285CB5
:1094300000F2AD20096808446F49086008460068DA
:109440004001086008460068C0F3074808460088E5
:10945000C0F30729084690F800A0202005AB52462B
:10946000494600904046FFF78DFF3B4605AA31462E
:109470005846FFF790FEA01CC4B206F11000C6B219
:109480006FE0285DA12837DB285DA32834DC601C51
:10949000285CA12830DB285DA1385E2110FB01F09B
:1094A00055490860601C285CA13809680844524985
:1094B0000860084600684001086008460068C0F37C
:1094C000074808460088C0F30729084690F800A01E
:1094D000202005AB5246494600904046FFF752FF18
:1094E0003B4605AA31465846FFF755FEA01CC4B2BC
:1094F00006F11000C6B234E0285D20282FDB285D7D
:109500007E282CDC285D20383B490860084600682E
:109510000001086008460068384908443649086078
:1095200008460068C0F3074808460088C0F30729CA
:10953000084690F800A0102001AB52464946009022
:109540004046FFF71FFF3B4601AA31465846FFF74A
:1095500060FE601CC4B206F10800C6B201E0601CE7
:10956000C4B2285D00283FF750AF0DB0BDE8F08FC2
:109570002DE9FE4F82460E4615469B46002433E0F9
:10958000285D20282EDB285D7E282BDC285D2038F6
:109590001949086008460068C0000860084600686D
:1095A000174908441449086008460068C0F3074793
:1095B00008460088C0F30728084690F80090082065
:1095C00001AB4A46414600903846FFF7DBFE5B465A
:1095D00001AA31465046FFF74EFE601CC4B2B01DD2
:1095E000C6B201E0601CC4B2285D0028C8DCBDE83A
:1095F000FE8F0000001002406000002080CF0300BA
:10960000C0BF03001CB5012110200EF023FE3C203A
:10961000009000208DF8040003208DF80500012043
:109620008DF8070069462C480EF076FB1CBD70B51E
:1096300005460024042128480EF0D0FB70B9142000
:109640000EF090F900BF042123480EF0C7FB00285C
:10965000F9D014200EF086F901243AE008211E48C2
:109660000EF0BCFB70B914200EF07CF900BF08218D
:1096700019480EF0B3FB0028F9D014200EF072F94F
:10968000022426E0102114480EF0A8FB70B9142023
:109690000EF068F900BF10210F480EF09FFB002864
:1096A000F9D014200EF05EF9032412E020210A48BC
:1096B0000EF094FB68B914200EF054F900BF20217D
:1096C00005480EF08BFB0028F9D014200EF04AF963
:1096D0000424204670BD00000010024000B585B093
:1096E000012108070EF0FFFD012011F0ACF9002068
:1096F00011F0A8F849F6991188424DD001200EF0DA
:1097000046FC00BF41200EF0FBFB0028FAD04FF4CE
:1097100080700EF03DFD01200EF055FD10F0D4FAE2
:10972000002010F0CEFB10F0FDFA002002907F2008
:109730000390FF20049002A810F08DFB01208DF80B
:1097400006001B208DF805000F208DF80400002076
:109750008DF8070001A910F019FC0F208DF8020008
:109760000B208DF8010003208DF8000017208DF8E4
:1097700003006946002010F0A7FC10F063FB49F6D7
:109780009911002011F051F8012010F09AFB49F6D0
:109790009911002011F049F8002011F054F905B09A
:1097A00000BD7FB505460C46012102200EF09BFD51
:1097B0000295ADF804400020ADF80600ADF80C00AD
:1097C00001A9FB480FF071F901221146F8480FF08A
:1097D0000DFE0021F6480FF0F1F91D208DF8000074
:1097E00001208DF8010003208DF8020001208DF882
:1097F000030068460EF09FF97FBD7FB505460C4615
:10980000012104200EF06FFD0295ADF80440002008
:10981000ADF80600ADF80C0001A9E6480FF045F9D7
:1098200001221146E3480FF0E1FD0021E1480FF06D
:10983000C5F91E208DF8000001208DF801000320DD
:109840008DF8020001208DF8030068460EF073F9D0
:109850000020D94908707FBD7FB505460C4601211F
:1098600008460EF040FD0295ADF804400020ADF82A
:109870000600ADF80C0001A94FF080400FF015F97B
:109880000122114690070FF0B1FD00214FF08040FA
:109890000FF094F91C208DF8000001208DF80100D4
:1098A00003208DF8020001208DF8030068460EF0B9
:1098B00042F97FBD014601F0030028B96420B1FBE5
:1098C000F0F200FB121030B94FF4C870B1FBF0F2A7
:1098D00000FB121008B9012070470020FCE70020AF
:1098E000B649086008714871C87108724872002151
:1098F000B24A116151619161D1611162516291620B
:10990000D1620120114681F8300070473EB5AB4866
:10991000D0E90420521C40F10000A849C1E904200C
:10992000084690F8300001280CD0D1E904414FF4EA
:1099300061620023204611F026FE00214A404B4080
:109940001A430ED19E4890F82000012809D1032027
:109950008DF80800029808F007FA0220974981F86C
:10996000300001A9002010F07BFB9DF80400934912
:10997000C8719DF8050008729DF806004872694696
:10998000002010F007FC9DF8030000F5FA608B49F9
:1099900008609DF8010008719DF8020048719DF86B
:1099A000000088713EBD2DE9F04104468348C0792E
:1099B0004FF4616110FB01F08049097AC1EB01119C
:1099C00000EB81007D49497A0844C61705467B486B
:1099D000D0E9043004EB840101EBC402794901EBC6
:1099E0008201C96A5A1A60F10000143A70F100004D
:1099F00014D304EB840000EBC401724800EB810037
:109A0000476A3A4600232846314611F0BCFD511FF3
:109A100073F1000302D20120BDE8F0810020FBE7D2
:109A20001CB50024EAE02046FFF7BDFF002861D006
:109A300004EB840101EBC401634A02EB41105F4B6C
:109A4000624A60491839009404F043FC6048007889
:109A500048B104EB840101EBC4015B4A02EB411005
:109A600021460DF094FE5548006904EB840101EB9A
:109A7000C402544901EB8201C862514890F82000A9
:109A800068B34F4890F822000C2828DB4C4890F827
:109A900022001F2823DC04EB840000EBC4014948AA
:109AA00000EB8100007F012803D104208DF8040021
:109AB00010E004EB840000EBC401424800EB81009D
:109AC000007F022803D106208DF8040002E0042064
:109AD0008DF804008DF80540019808F045F93748E5
:109AE000006904EB840101EBC402364901EB8201F9
:109AF000886281E004EB840000EBC401314800EB94
:109B00008100806A00212D4BD3E90423801A9941FA
:109B100072D22A48D0E9043104EB840000EBC4027D
:109B2000284800EB8200806A181A61F100013C3875
:109B300071F1000160D326480078B8B3204890F84E
:109B40002000A0B31E4890F822000C284ADB1C48D5
:109B500090F822001F2845DC04EB840000EBC401D0
:109B6000184800EB8100008E05283BDA20460DF0F6
:109B700081FDE0B104EB840000EBC401114800EB6F
:109B80008100007F012803D104208DF8040024E027
:109B900004EB840000EBC4010A4800EB8100007F65
:109BA000022817D106208DF8040016E024E019E001
:109BB0000004004000080040660000206001002012
:109BC00038010020B0010020A80C00205003002024
:109BD0000100002004208DF804008DF80540019854
:109BE00008F0C2F8FE48006904EB840101EBC402EE
:109BF000FC4901EB82018862601CC4B2F948183844
:109C00000078A0423FF70FAF1CBD38B5002475E0C7
:109C100004EB4401F44800EB81100078012809D1DD
:109C200004EB4401F04800EB81104078022801D198
:109C3000192500E00F25EA48D0E90420521B70F1F5
:109C4000000059D3E648D0E90423681DC117801AE3
:109C5000994116D2E24804EB4402D0E90431E248CB
:109C600000EB8212D2E904021B1A61EB020104EB41
:109C70004402DD4800EB8210C088181A71F100011F
:109C80003AD3D748D0E90410D54BD3E90A238A1A2E
:109C900060EB03000D2300219A1A81411AD3D048AA
:109CA000D0E90410CE4AD2E90A32C91A60EB0200A8
:109CB000491E70F100001FD3C948D0E90410C84BF9
:109CC000D3E90A238A1A60EB0300082300219A1AB9
:109CD000814111D38DF8014010208DF800000098CB
:109CE00008F08AF8BE48D0E9041004EB4403BE4AE9
:109CF00002EB8312C2E90410601CC4B2BA480838EF
:109D00000078A04284DCB9480078012810D1B4481A
:109D1000D0E90410B54BD3E90223891A60EB0300A4
:109D2000C91E70F1000003D3B04948780CF03EFA28
:109D300038BD10B500242DE004EB4401AA4800EB27
:109D400081100078012823D104EB4401A64800EBE0
:109D5000811090ED262BB0EE420AF0EE620A04EB81
:109D60004401A14800EB811090ED222BB0EE421A85
:109D7000F0EE621A53EC102B51EC110B14F01AFE9A
:109D800004EB4403984A02EB831242F8880F5160B7
:109D9000601CC4B2944808380078A042CCDC10BDE6
:109DA00038B5934890F8200048B1914890F82200C7
:109DB0000C2804DB8E4890F822001F2806DD884816
:109DC000D0E904108A4AC2E9021038BD8448D0E9BB
:109DD0000430874AD2E902145A1A60EB04004FF4A7
:109DE000617300219A1A814105D240208DF800004C
:109DF000009807F078FF00BFE7E708B50121880762
:109E00000FF00BFB012815D17A480078401C7949E6
:109E100008700846007805280CDB00200870012037
:109E20008DF80000009807F05EFF00214FF08040A1
:109E30000EF0C4FE012188070FF000FB08BD08B535
:109E400001216D480FF0E9FA012814D16B48007820
:109E5000401C6A4908700846007805280BDB002082
:109E6000087003208DF80000009807F03CFF0021E7
:109E700061480EF0A3FE01215F480FF0DFFA08BD34
:109E800038B501215E480FF0C8FA01287DD1FFF7EF
:109E90003DFDFFF74EFFFFF7B8FE554890F8200054
:109EA00088B14F48407A0A2190FBF1F201FB120081
:109EB00048B94F48407C012805D002208DF80000A9
:109EC000009807F051FF4648D0E90410002359409C
:109ED0005840014312D042484FF46162D0E9044136
:109EE000204611F050FB00214A404B401A4305D157
:109EF00015208DF80000009807F0F5FE3848D0E9ED
:109F00000410002359405840014311D034480A221C
:109F1000D0E90441204611F036FB00214A404B4075
:109F20001A4305D150208DF80000009807F0DBFEA1
:109F30002B48D0E9041003235940014305D13020B8
:109F40008DF80000009807F0CEFEFFF769FD244869
:109F5000D0E90410002359405840014318D020484C
:109F60004FF49672D0E90441204611F00CFB002119
:109F70004A404B401A430BD11D4890F8200038B19D
:109F800005208DF80000009800E04DE007F0ECFEA1
:109F9000FFF706FF1B480078E8B911483C22002370
:109FA000D0E90441204611F0EEFA00214A404B402E
:109FB0001A4310D10A48D0E90410514050400143DF
:109FC00009D011480078032805DA14208DF8000024
:109FD000009807F088FE13208DF80000009815E027
:109FE00060010020B001002058030020180A002062
:109FF00038010020670000200004004064000020B9
:10A0000000080040010000200500002007F06BFE62
:10A0100020208DF80000009807F065FE12208DF8D2
:10A020000000009807F05FFE012102480FF006FAD9
:10A0300038BD0000000800402DE9F04389B0074614
:10A040000E469046202101A811F011FD0024A146E2
:10A050001D2E03DD002009B0BDE8F0832046611C01
:10A060008CB201A901F80080002507E07A5D204646
:10A07000611C8CB201A90A54681C85B2B542F5DB9B
:10A08000214601A802F08AF981462046611C8CB263
:10A0900001A901F800904FEA19222046611C8CB2F8
:10A0A00001A90A54E1B201A8FEF717FE0120D2E788
:10A0B00010B5002404E00020F9490855601C84B262
:10A0C000F84800888442F6DB0020F649088002F058
:10A0D00045F910BD1CB5012110200EF0BBF802207F
:10A0E000009001208DF804008DF8060003208DF803
:10A0F000050001208DF807006946EB480DF00CFEC5
:10A100000120EA4908601CBD7CB5E948847D012036
:10A11000E749487004EB840000EBC401E54800EB1C
:10A120008100408904EB840101EBC402E14901EBA9
:10A130008201097ACDE9001004EB840000EBC4052C
:10A14000DC4800EB8500C37904EB840000EBC40518
:10A15000D84800EB8500827904EB840000EBC4054D
:10A16000D44800EB85004179D3A011F083FADD4992
:10A17000D1E90401CE4AC2E902017CBD10B501203B
:10A18000CB494870D8A011F075FAD648D0E9041030
:10A19000C74AC2E9021010BD70B504460E464A20F7
:10A1A0002070532060700420A070E67004212046C7
:10A1B00002F0F4F805462571280A6071062070BD8A
:10A1C0002DE9F04104460F461646052E02DA00201E
:10A1D000BDE8F0814A202070532060700320A070F9
:10A1E000E7700421204602F0D9F805462571280AB7
:10A1F00060710620ECE770B5ADF5006D05464FF4D3
:10A200000061684611F033FC00260120A84948701F
:10A21000A5F1310009283BD2DFE800F00F0A051450
:10A22000191E262E3400684604F0DFFE06462FE095
:10A23000684605F09DF906462AE0684605F0F0FA02
:10A24000064625E0684604F0A7FD064620E068467D
:10A2500004F0C3FD06461BE04FF48062012168460E
:10A26000FFF7AEFF064613E04FF480620221684616
:10A27000FFF7A6FF06460BE001216846FFF78CFFBB
:10A28000064605E002216846FFF786FF064600BF46
:10A2900000BF00240DE000BF9448008800F040009B
:10A2A0000028F9D01DF804009049091D0880601CA1
:10A2B00084B2B442EFDB40207D4908700120487031
:10A2C0008848D0E904107A4AC2E902100DF5006D01
:10A2D00070BD1CB501207649487076481838C08A90
:10A2E00074491839097DCDE9001072481838C37CCB
:10A2F000827C417C70A011F0BDF97A49D1E904015A
:10A300006B4AC2E902011CBD2DE9F041E2B0802197
:10A3100042A811F0ACFB4FF4827101A811F0A7FB29
:10A3200040F201186248857D05EB850000EBC50011
:10A330006F4901EB4010477900240CE005EB8500E4
:10A3400000EBC5006A4901EB4010801D005D304400
:10A3500086B2601C84B205EB850000EBC500644941
:10A3600001EB40104079A042E8DC34460DE005EBFB
:10A37000850000EBC5005E4901EB40100E30005D2A
:10A38000A11B42AA5054601C84B205EB850000EB6F
:10A39000C500574901EB4010801DC05D3044A0420C
:10A3A000E5DC05EB850000EBC5000A4602EB40103A
:10A3B000801DC15D434601AA42A803F046FB01A9E6
:10A3C0004CA011F057F90A200DF0CCFA1A21474899
:10A3D0000EF0AEF94348D0E90410354AC2E9021044
:10A3E00062B0BDE8F08110B501203149487047A046
:10A3F00011F040F910BD10B590B02D488479082CAB
:10A4000000DB002404EB840000EBC402294800EBCD
:10A410008201342203A811F0F8FA0120244948707F
:10A42000BDF816009DF81410CDE900109DF813300A
:10A430009DF812209DF8111037A011F01BF9294842
:10A44000D0E904101A4AC2E9021010B010BD10B5CC
:10A450000120174948703BA011F00CF910BD10B550
:10A460000120134948703BA011F004F910BD10B54C
:10A4700001200F4948703BA011F0FCF810BD10B549
:10A4800001200B4948703FA011F0F4F810BD10B541
:10A490000120074948703FA011F0ECF810BD000002
:10A4A0001C2B0020200100200010024084024242A8
:10A4B00038010020B001002041542B51494F504534
:10A4C0004E3D312C302C22544350222C2225752E07
:10A4D00025752E25752E2575222C25752C302C32B0
:10A4E0000D0A0000600100202B2B2B0000440040CF
:10A4F000A80C002041542B514953454E4445583D2A
:10A50000302C222573220D0A0000000041542B43F9
:10A51000434C4B3F0D0A000041542B51494F5045CD
:10A520004E3D312C302C22544350222C2225752EA6
:10A5300025752E25752E2575222C25752C302C3150
:10A540000D0A000041542B51494143543D310D0A3D
:10A550000000000041542B514944454143543D31D2
:10A560000D0A000041542B5149435347503D312CB3
:10A57000312C22434D4E4554222C22222C22222CB7
:10A58000300D0A0041542B5149434C4F53453D3047
:10A590000D0A000041542B434F50533F0D0A000059
:10A5A00010B50120FE494870FEA011F063F810BDFF
:10A5B00010B50120FA494870FDA011F05BF810BDFC
:10A5C00010B50120F6494870FCA011F053F810BDF9
:10A5D00010B50120F2494870FBA011F04BF810BDF6
:10A5E00010B50120EE494870FAA011F043F810BDF3
:10A5F00010B50120EA494870F8A011F03BF810BDF1
:10A6000010B50120E6494870F7A011F033F810BDED
:10A6100010B50120E2494870F5A011F02BF810BDEB
:10A6200010B5DF4800780E285AD00ADC0E2872D206
:10A63000DFE800F0282B2E31343A3D4043464A4DA6
:10A640005053352859D00EDC322853D006DC202850
:10A6500049D030284AD031285DD14CE0332848D049
:10A66000342858D148E042282BD006DC362846D082
:10A67000372843D041284ED146E0502848D0FF2803
:10A6800049D10EE0FFF7C4FF46E0FFF7C1FF43E00A
:10A69000FFF7B6FF40E0FFF7ABFF3DE0FFF7A0FF9D
:10A6A0003AE0FFF795FF37E0FFF78AFF34E0FFF766
:10A6B0007FFF31E0FFF774FF2EE0FFF7E8FE2BE0AD
:10A6C00000BFFFF7DCFE27E0FFF7D1FE24E0FFF735
:10A6D000C6FE21E0FFF7BBFE1EE0FFF78CFE1BE08D
:10A6E000FFF781FE18E0FFF70FFE15E0FFF7F1FD21
:10A6F00012E000BF00BF00BF00BF00BF00BFA849FD
:10A700000878FFF778FD07E0FFF738FD04E002E086
:10A71000FFF7FAFC00E000BF00BF10BD0020A04919
:10A7200048700871322048717047F0B587B005460F
:10A73000002005900690B0A0006804900026002438
:10A7400007E004A8025D3046711CCEB22A54601C9A
:10A75000C4B2042CF5DB42F20F700090A7480389C5
:10A760000521426805A802F0F3FF002407E005A8D0
:10A77000025D3146701CC6B26A54601CC4B2052C1E
:10A78000F5DB11223046711CCEB22A549C488779E1
:10A790007807070E9A4800790A2190FBF1F047EA02
:10A7A0000010C7B29648007990FBF1F201FB12004D
:10A7B0003843C7B29248407A9149097ACDE90107F6
:10A7C00000918F48C3794279052105A803F052F81A
:10A7D000002407E005A8025D3046711CCEB22A5461
:10A7E000601CC4B2052CF5DB85490978A1F5FA6136
:10A7F000C8B201F033FE3146721CD6B26854502202
:10A800003046711CCEB22A5480223046711CCEB222
:10A810002A5400227A48417A007A8DE80700784865
:10A82000C3794279052105A803F024F8002407E044
:10A8300005A8025D3046711CCEB22A54601CC4B219
:10A84000052CF5DB1421E81C01F08CFD0446304694
:10A85000711CCEB22C5416223046711CCEB22A5432
:10A86000304607B0F0BD7FB504460020029003904B
:10A8700064A0006801900026002507E001A8425D61
:10A880003046711CCEB22254681CC5B2042DF5DBD3
:10A8900042F20F700090594803890521426802A8CE
:10A8A00002F056FF002507E002A8425D3046711C09
:10A8B000CEB22254681CC5B2052DF5DB022230460B
:10A8C000711CCEB22254F2223046711CCEB22254F8
:10A8D0000821E01C01F046FD05463046711CCEB251
:10A8E000255416223046711CCEB22254304604B094
:10A8F00070BD7FB5044600200290039041A000681F
:10A9000001900026002507E001A8425D3046711C39
:10A91000CEB22254681CC5B2042DF5DB42F20F7092
:10A920000090364803890521426802A802F010FF12
:10A93000002507E002A8425D3046711CCEB22254C9
:10A94000681CC5B2052DF5DB02223046711CCEB263
:10A950002254F0223046711CCEB222540821E01C51
:10A9600001F000FD05463046711CCEB2255416227A
:10A970003046711CCEB22254304604B070BD2DE971
:10A98000F043A1B00746802101A811F070F84FF004
:10A9900000080348857D0026B1461B48007835E055
:10A9A0003801002041542B43475245473F0D0A00D0
:10A9B00041542B435245473F0D0A000041542B435D
:10A9C00050494E3F0D0A000041542B43545A553D07
:10A9D000310D0A004154490D0A00000041542B4337
:10A9E00053510D0A00000000415445300D0A00008B
:10A9F00041540D0A00000000681468B0980100205E
:10AA000060010020680868B0770000203843FC49E6
:10AA100008700120FB494870012F06D0022F09D091
:10AA2000042F0CD0082F66D10EE001A8FFF761FFBC
:10AA3000804663E001A8FFF716FF80465EE001A8AC
:10AA4000FFF773FE804659E005EB850000EBC5007B
:10AA5000ED4901EB4010407905EB850101EBC501A3
:10AA6000E94A02EB41110979884201DB4FF0010903
:10AA7000B9F1000F3ED105EB850000EBC500E249BE
:10AA800001EB4010801D05EB850101EBC501DE4A9D
:10AA900002EB4111497910F8018000240CE005EB2C
:10AAA000850000EBC500D84901EB4010801D005D1A
:10AAB000304486B2601C84B205EB850000EBC50013
:10AAC000D14901EB40104079A042E8DC34460DE06A
:10AAD00005EB850000EBC500CB4901EB40100E30C3
:10AAE000005DA11B01AA5054601C84B206EB080053
:10AAF000A042EDDC02E04FF0010900BF00BFB9F158
:10AB0000010F02D121B0BDE8F08364200CF02AFFD0
:10AB100000240DE000BFBD48008800F04000002880
:10AB2000F9D001A8005DB949091D0880601C84B2F4
:10AB30004445EFDB5120B349087001204870B44808
:10AB4000D0E90410AF4AC2E9021000BFDAE73EB50F
:10AB5000AC48847DAFA207CA8DE807000C25A94840
:10AB6000407C48B90920A74908700121A5484174D3
:10AB7000C174FFF7D3FD27E1A248407C01287DD1B5
:10AB8000A048407820B9FFF7C9FDFFF749FD1BE158
:10AB90009C48407802285FD19A488078012840D1AB
:10ABA00098480078092811D19648C07C012807D11F
:10ABB00050209449087000204870FFF731FD03E1F0
:10ABC00002219048417401218174FDE08D48007894
:10ABD000502817D1012104EB840000EBC4029048F7
:10ABE00000EB82000171002104EB840000EBC40241
:10ABF0008B4800EB820001865120824908700120B9
:10AC00004870E1E07F4800784128B4D109207D49AF
:10AC10000870FFF783FD02217A48C174FFF700FD39
:10AC2000D2E0784880780028A5D1764800790628B7
:10AC30000CDC7448C078002802DCFFF7F1FCC3E0AC
:10AC40007048C078401E6F49C870BDE002216D4851
:10AC5000417400218174B7E06A48407801288AD1A4
:10AC60006848007850283ED16948D0E90420654BF7
:10AC7000D3E90213511A60EB030000E09BE00A39AC
:10AC800070F100009BD3022104EB840000EBC402AE
:10AC9000634800EB8200017104EB840000EBC40107
:10ACA0005F4800EB8100008E052811DA04EB840078
:10ACB00000EBC4015A4800EB8100008E401C81B2B9
:10ACC00004EB840000EBC402554800EB82000186CF
:10ACD00009204C490870FFF721FD02214948C17441
:10ACE000FFF79EFC70E04748007851283BD1484868
:10ACF000D0E90430434AD2E90212591A60EB02004B
:10AD0000C91E70F1000019D33D48007800F0010021
:10AD100018B90120FFF733FE10E03948007800F041
:10AD2000040018B90420FFF72AFE07E03448007831
:10AD300000F0080010B90820FFF721FE3448D0E9E0
:10AD40000410304AD2E90232C91A60EB0200491FEE
:10AD500070F1000038D341202A490870FFF7DEFC6B
:10AD6000FFF75EFC30E02748007841282CD12848C6
:10AD7000D0E90410234BD3E90223891A60EB0300C6
:10AD8000C91E70F100001FD31E480079022807DC9D
:10AD9000FFF746FC1B480079401C1A49087113E074
:10ADA000092018490870FFF7B9FC02211548C17441
:10ADB000FFF736FC08E01348407C022804D1114814
:10ADC000807C012800D000BF3EBD38B50D48407CD6
:10ADD00048B909200B49087001210A484174C1741F
:10ADE000FFF79CFCF5E00748407C01287AD1054834
:10ADF0004078B8B9FFF792FCFFF712FCE9E00000D9
:10AE00007700002038010020A80C002000440040FA
:10AE100060010020686868686868686868686868D1
:10AE2000B0010020FE484078022868D1FC488078B4
:10AE3000012848D1FA48007809281FD1F848C07C79
:10AE4000012807D13020F649087000204870FFF72C
:10AE5000E7FBBEE00221F248417401218174F14810
:10AE60000078012803D0F04800780128BAD14020AA
:10AE70008DF80000009806F036FFAAE0E848007858
:10AE8000302811D1E648C078002807DC3120E44999
:10AE90000870FFF743FCFFF7C3FB9AE0E048C07877
:10AEA000401EDF49C87094E0DD480078412899D100
:10AEB0000920DB490870FFF731FC0221D848C17432
:10AEC000FFF7AEFB85E0D648807800288AD1D448C9
:10AED000007906280DDCD248C078002803DCFFF793
:10AEE0009FFB76E06CE0CE48C078401ECC49C8702D
:10AEF0006FE00221CA4841740021817469E0C848AA
:10AF00004078012865D1C6480078302817D1C74855
:10AF1000D0E90420C249D1E90234D11A60EB04001F
:10AF2000143970F1000054D30920BD490870FFF7AF
:10AF3000F5FB0221BA48C174FFF772FB49E0B8483B
:10AF40000078402814D1B948D0E90420B44BD3E9A3
:10AF50000214531A60EB04005A1F70F1000038D33A
:10AF60004120AF490870FFF7D9FBFFF759FB30E0EC
:10AF7000AB48007841282CD1AC48D0E90420A8493E
:10AF8000D1E90231D31A60EB0100DA1E70F1000042
:10AF90001FD3A3480079022807DCFFF741FBA04834
:10AFA0000079401C9E49087113E009209C490870F3
:10AFB000FFF7B4FB02219A48C174FFF731FB08E0A8
:10AFC0009748407C022804D19548807C012800D015
:10AFD00000BF38BD10B502219148C17409209049C5
:10AFE000087000204870FFF71BFB10BD70B58C483F
:10AFF000847D407C80B909208949087001218848F6
:10B000004174FFF78BFB0A20854948710121844870
:10B01000C174FFF705FBA2E18148407C01287DD186
:10B020007F48407838B9FFF779FB0A207C4948719E
:10B03000FFF7F6FA93E17A48407802286FD1784812
:10B04000807801286CD176480078092811D174489D
:10B05000C07C012807D10D2071490870002048707C
:10B06000FFF7DEFA7BE102216D4841740121817412
:10B0700075E16B4800780D2828D101216848807D52
:10B0800000EB800202EBC002694800EB8200017114
:10B09000002104EB840000EBC402654800EB820051
:10B0A00001866448007848B104EB840101EBC401D7
:10B0B000614A02EB411021460CF0EBFA202058497E
:10B0C000087000204870FFF7ABFA48E15448007858
:10B0D00020280BD15548D0E90410514AC2E902108A
:10B0E0002120114608700120487038E14C48007852
:10B0F000212890D104EB840000EBC4004E4901EB01
:10B1000040104079401C04EB840101EBC4014A4A21
:10B1100002EB4111487104EB840002E016E159E0B2
:10B1200019E000EBC400114601EB4010407904EB3C
:10B13000840101EBC40102EB41110979884202DB71
:10B14000FFF748FF0BE120203549087000204870C8
:10B15000FFF766FA03E132488078002888D130484A
:10B1600040792F49097988420CDB2D48C0780028A6
:10B1700002DCFFF755FAF2E02948C078401E284962
:10B18000C870ECE0FFF726FF022104EB840000EB1F
:10B19000C402274800EB8200017104EB840000EB3D
:10B1A000C401234800EB8100008E05288DDA04EBF2
:10B1B000840000EBC4011E4800EB8100008E401C9F
:10B1C00081B204EB840000EBC402194800EB82005A
:10B1D0000186C4E012484078012886D110480078E2
:10B1E0000D2844D11148D0E904300D4AD2E90212A9
:10B1F0005B1A60EB020014229A1A70F1000035D33A
:10B20000FFF7E8FE022104EB840000EBC4020848CB
:10B2100000EB8200017104EB840000EBC4010DE03F
:10B220003801002003000020780000206001002089
:10B23000B001002001000020A80C0020FE4800EB17
:10B240008100008E052811DA04EB840000EBC401B4
:10B25000F94800EB8100008E401C81B204EB8400B1
:10B2600000EBC402F44800EB8200018677E0F3486B
:10B270000078212873D104EB840000EBC401EE4870
:10B2800000EB81004078012826D1ED48D0E9041078
:10B29000EA4AD2E90232CB1A60EB02000A229A1A79
:10B2A00070F100005BD304EB840101EBC401E54ABB
:10B2B00002EB41100422032102F099FA0546002D09
:10B2C00007DD2020DD49087000204870FFF7A8F94D
:10B2D00045E0FFF77FFE42E0D948D0E90410D74BA4
:10B2E000D3E902268B1A60EB06005A1E70F10000AB
:10B2F00035D304EB840000EBC400D24901EB4010CD
:10B300004079401C04EB840101EBC401CD4A02EBFF
:10B310004111487104EB840000EBC400114601EBBD
:10B320004010407904EB840101EBC40102EB4111B0
:10B330000979884202DBFFF74DFE10E02020BF496B
:10B34000087000204870FFF76BF908E0BB48407CAC
:10B35000022804D1B948807C012800D000BF70BD0C
:10B3600010B5B648407C50B90E20B4490870FFF7BC
:10B37000D5F9FFF755F90121B04841743EE0AF48D7
:10B38000407C012831D1AD48407820B9FFF7C6F99B
:10B39000FFF746F932E0A948407802282ED1A748A5
:10B3A0008078012805D10221A448417401218174CB
:10B3B00024E0A248807808BBA04840799F490979D9
:10B3C00088420CDB9D48C078002802DCFFF728F992
:10B3D00014E09A48C078401E9849C8700EE00221D7
:10B3E000964841740021817408E09448407C02280A
:10B3F00004D19248807C012800D000BF10BD10B558
:10B400008E48407C50B903208C490870FFF786F9BC
:10B41000FFF706F90121894841743EE08748407CE6
:10B42000012831D18548407820B9FFF777F9FFF737
:10B43000F7F832E08148407802282ED17F488078A2
:10B44000012805D102217D4841740121817424E045
:10B450007A48807808BB79484079784909798842E8
:10B460000CDB7648C078002802DCFFF7D9F814E03E
:10B470007248C078401E7149C8700EE002216F48C2
:10B4800041740021817408E06C48407C022804D19A
:10B490006A48807C012800D000BF10BD10B5674805
:10B4A000407C50B9012065490870FFF737F9FFF774
:10B4B000B7F801216148417460E06048407C012890
:10B4C00043D15E48407820B9FFF728F9FFF7A8F884
:10B4D00054E05A484078022850D1584880780128D2
:10B4E00017D1564800780C2809D10120534981F81A
:10B4F0002000022151484174012181743EE04F48EF
:10B500000078401C4D490870FFF708F9FFF788F8EC
:10B5100034E04A48807888BB4848407947490979EF
:10B5200088420CDB4548C078002802DCFFF778F839
:10B5300024E04248C078401E4049C8701EE0022105
:10B540003E4841740021817418E03C48407C022848
:10B5500014D13A48807C012810D03848807C68B9E2
:10B56000364890F82100012808DC00F070F83348D4
:10B5700090F82100401C314981F8210010BD08B528
:10B580002E48407C18B12D48407C022813D16846D3
:10B5900006F0CAFB01280ED19DF800002749087467
:10B5A0000021264841749DF80100244988719DF8C6
:10B5B0000110224881752148007C072817D2DFE856
:10B5C00000F01604070A0D101300FFF767FF0FE0E5
:10B5D000FFF715FF0CE0FFF7C3FE09E0FFF706FDDC
:10B5E00006E0FFF7F2FB03E0FFF7B1FA00E000BF6F
:10B5F00000BF08BD10B501201049087400210F4894
:10B6000041740175012181740021C17401200B492D
:10B61000087000204870087132204871012088703D
:10B620000020C87081F8220081F8230081F82000F2
:10B6300081F8210008E00000B0010020380100205E
:10B6400060010020A80C0020FFF799FF10BD10B585
:10B650000120FE49086032200CF084F90020FC49EA
:10B66000C1F884020A200CF07DF9FA4890F8210014
:10B67000401CC4B2FFF7BEFFF64880F8214010BD61
:10B6800008B512208DF80000009806F02CFB08BDCC
:10B690000220F049487001208870002008710120C4
:10B6A000C87070470220EB49487000208870084637
:10B6B0000079401C0871084640790979884213DBFB
:10B6C000E44800790A2803DC0120E249C8700EE052
:10B6D000E0480079322803DC0520DE49C87006E026
:10B6E0006420DC49C87002E00020DA49C870704765
:10B6F00010B5D9A1D94810F031F9044614B9FFF7B3
:10B70000D1FF01E0FFF7C4FFFEF7D2FCFFF737FFE0
:10B7100010BD2DE9F047002600270025A946D0A13D
:10B72000CE4810F01BF98046B8F1000F02D1FFF7A8
:10B73000B9FF38E0FFF7ACFF00242AE0C748005DFE
:10B7400030281ADBC548005D392816DC4FF00109A6
:10B7500045B9C248005D303806EB860100EB410078
:10B76000C6B214E0012D12D1BC48005D303807EBA1
:10B77000870100EB4100C7B209E0B9F1000F01D029
:10B78000681CC5B2012D00DD07E04FF00009601C08
:10B79000C4B2B54800888442D0DB00BFAD4880F811
:10B7A000226080F82370FEF783FCFFF7E8FEBDE817
:10B7B000F08710B5ADA1A94810F0D0F8044614B92F
:10B7C000FFF770FF01E0FFF763FFFEF771FCFFF783
:10B7D000D6FE10BD70B5A9A1A04810F0BFF8044670
:10B7E000A9A19E4810F0BAF805461CB915B9FFF793
:10B7F00059FF01E0FFF74CFFFEF75AFCFFF7BFFED1
:10B8000070BD70B5A3A1954810F0A8F80446A4A196
:10B81000924810F0A3F805461CB915B9FFF742FF8E
:10B8200001E0FFF735FFFEF743FCFFF7A8FE70BD10
:10B8300010B589A1894810F091F8044614B9FFF7B2
:10B8400031FF01E0FFF724FFFEF732FCFFF797FE20
:10B8500010BD10B580A1814810F080F8044614B9DD
:10B86000FFF720FF01E0FFF713FFFEF721FCFFF7D2
:10B8700086FE10BD10B578A1784810F06FF8044628
:10B8800014B9FFF70FFF05E00120724981F820008D
:10B89000FFF7FEFEFEF70CFCFFF771FE10BD10B5C2
:10B8A000FFF7F6FEFEF704FCFFF769FE10BD2DE979
:10B8B000F04F93B00020119000250026804681466D
:10B8C0000027824683460024109078A1634810F038
:10B8D00045F81290129830B91120764981F830005D
:10B8E000FFF7E0FE1BE11020724981F83000FFF7FE
:10B8F000CFFE00246FE01198A0B95848005D3028B1
:10B9000067DB5648005D392863DC01201190012572
:10B9100010905248005D303806EB860100EB410084
:10B92000C6B256E04D48005D302849DB4B48005D0B
:10B93000392845DC01201090072D3FD2DFE805F0C3
:10B940003E040D17212A34004448005D303806EBD0
:10B95000860100EB4100C6B231E04048005D30385E
:10B9600008EB880100EB410000F0FF0827E03B48AE
:10B97000005D303809EB890100EB410000F0FF0960
:10B980001DE03648005D303807EB870100EB4100D1
:10B99000C7B214E03148005D30380AEB8A0100EB91
:10B9A000410000F0FF0A0AE02C48005D30380BEB44
:10B9B0008B0100EB410000F0FF0B00E000BF08E04E
:10B9C000109830B1681CC5B2062D00DD07E00020DC
:10B9D0001090601CC4B22448008884428BDB00BFF6
:10B9E00002968DF80C808DF80D908DF80F708DF803
:10B9F00010A08DF811B002A800F099FD01200FF001
:10BA000022F8082F7DDA9DF80F008DF800009DF8D0
:10BA100010008DF801009DF811008DF802009DF8CE
:10BA20000F000C2801DB402000E000208DF803000F
:10BA3000694600200EF0AAFA01A900200EF0AAFB28
:10BA40009DF807000299884250D135E084024242B5
:10BA500000004242380100204F4B00001C2B002008
:10BA60002B4353513A000000200100202B43504942
:10BA70004E3A205245414459000000002B435245A4
:10BA8000473A20302C3100002B435245473A2030B2
:10BA90002C3500002B43475245473A20302C3100CB
:10BAA0002B43475245473A20302C35002B43434C1B
:10BAB0004B3A0000600100209DF805009DF80C1035
:10BAC000884201D0012000E000209DF806109DF87A
:10BAD0000D20914201D0012100E00021084328B946
:10BAE0009DF804009DF80E10884215D00298C0B24F
:10BAF0008DF807009DF80C008DF805009DF80D00ED
:10BB000000E009E08DF806009DF80E008DF80400B5
:10BB100001A900200EF0D8FA00200EF094FFFEF7E5
:10BB2000C7FAFFF72CFD13B0BDE8F08F10B5FBA1ED
:10BB3000FE480FF013FF04465CB9FDA1FB480FF06F
:10BB40000DFF044614B9FFF7ADFD0DE0FFF7A0FDB2
:10BB50000AE0F9A1F5480FF001FF044614B9FFF718
:10BB600097FD01E0FFF79EFDFEF7A2FAFFF707FD44
:10BB700010BD10B5AFF22011EC480FF0EFFE0446F7
:10BB80008CB9EDA1E9480FF0E9FE044614B9FFF7BE
:10BB900089FD0AE00920EA490870FEF7BFFD02218D
:10BBA000E748C17401E0FFF773FDFEF781FAFFF784
:10BBB000E6FC10BDF0B5ADF2044D002400254FF4B5
:10BBC000806101A80FF053FF0026DEA1D7480FF0D7
:10BBD000C5FE0746FFF75CFDFEF76AFA0DF2044D5D
:10BBE000F0BDF8B5D9A00068009000260027D8481D
:10BBF000007870B3FF22D7480188CC4800F004FCDD
:10BC000004461CB93720FEF7F6FA63E0C74800780F
:10BC100000EB4001C1EB8025CE480088C01E82B2F7
:10BC20000123C249284605F055FBCB480078401C4B
:10BC3000C94908703620FEF7DEFAC7480078C749C0
:10BC40000978884246DB04226946C54805F065FB51
:10BC500040E0FFE70022BF480188B44800F0D4FB71
:10BC600004461CB93520FEF7C6FA33E0012C03D197
:10BC70003120FEF7C0FA2DE0022C0FD10221AB4893
:10BC800003F053F8B748007820B1B74AB749B8482D
:10BC90000BF01AF93420FEF7AEFA1BE0032C11D199
:10BCA0000120AB490870A148C078AC490870002059
:10BCB000A9490870AF49087005F0E3FA3620FEF78D
:10BCC0009AFA07E0042C05D10120AB49087038200E
:10BCD000FEF791FA0CB1FE2C13D1A8A193480FF0F6
:10BCE0003DFE064694A191480FF038FE074606B97E
:10BCF0003FB1092092490870FEF710FD02219048DB
:10BD0000C174FE2C05D0A048D0E904108C4AC2E9C9
:10BD10000210FEF7CDF9F8BD10B5FFF7B9FCFEF73C
:10BD2000C7F910BD01460020804A525C682A23D121
:10BD30007E4B01F109029A5C022A0ED101F10A023E
:10BD40009A5CF02A01D1012016E0784B01F10A0239
:10BD50009A5CF22A10D102200EE0744B01F1090224
:10BD60009A5C112A01D1042006E0704B01F109020E
:10BD70009A5CC02A00D1082070472DE9F05F0026A8
:10BD8000002700244FF00109A2466D48857DA34697
:10BD9000704800880A2803DCFEF78AF9BDE8F09FA6
:10BDA0006248007868283BD16A480088172805DD7A
:10BDB0005E48407800F1050A4FF0020900242DE0AA
:10BDC00004FB0AF188B2FFF7ADFF0746082F22D126
:10BDD00005EB850000EBC5006C4901EB4010407994
:10BDE000401C05EB850101EBC501684A02EB4111DE
:10BDF000487105EB850000EBC500114601EB4010D2
:10BE0000407905EB850101EBC50102EB4111097990
:10BE1000884200DB00273E43601CC4B24C45CFDBA8
:10BE200045A142480FF09AFD804654A13F480FF0CB
:10BE300095FD8346B8F1000F02D1BBF1000F1CD075
:10BE4000002005EB850101EBC501504A02EB4111D1
:10BE500048714448007840B105EB850101EBC5010C
:10BE600002EB411029460BF092FC0920344908707E
:10BE7000FEF754FC02213248C174FEF719F901247F
:10BE800007E006EA040010B12046FEF778FD6006E0
:10BE9000040E102CF5DB00BF80E770B52848847DC8
:10BEA000002623A121480FF059FD054615B9FFF7DB
:10BEB000F9FB7EE020A11D480FF050FD05465DBB5B
:10BEC0002848007848B104EB840101EBC4012F4AF3
:10BED00002EB411021460BF0DCFB1E480088401E9F
:10BEE0001249085C162800D1012600202849087054
:10BEF000012104EB840000EBC4021C48183000EB65
:10BF000082000171002104EB840000EBC402174899
:10BF1000183000EB82003DE049E000002B51494F12
:10BF200050454E3A20302C30000000001C2B0020E1
:10BF3000434F4E4E45435400636C6F73656400007D
:10BF4000380100202B514955524300004A53030148
:10BF50000300002020010020750000207400002054
:10BF600000FF070801000020080A002098010020B7
:10BF70005003002076000020780000204E4F204320
:10BF8000415252494552000060010020A80C002097
:10BF90007700002001865120C349087001204870B5
:10BFA000C248D0E90410C04AC2E9021001E0FFF71C
:10BFB00079FBFEF77DF816B10120FEF7E0FCFFF7F4
:10BFC000DEFA70BD10B5B8480078202854D00BDCDC
:10BFD0000F2868D2DFE800F067292F2C31373A3D6F
:10BFE0003233404346494D0035284AD00EDC3228D2
:10BFF00044D006DC212847D0302837D0312852D110
:10C000003DE0332839D034284DD139E0502844D090
:10C0100006DC40283BD041283CD0422843D10FE0E9
:10C0200051283DD0FF283ED106E0FFF761FB3BE001
:10C03000FFF76FFB38E000BF00BF00BF00BF00BFCD
:10C04000FFF72DFC30E0FFF7B4FB2DE0FFF7C2FB5C
:10C050002AE0FFF7D6FB27E0FFF7EAFB24E0FFF733
:10C06000F8FB21E0FFF706FC1EE000BFFFF75EFDD6
:10C070001AE0FFF71CFC17E000BF00BF00BF00BFC5
:10C0800000BFFFF776FD0FE0FFF794FD0CE0FFF730
:10C09000A8FD09E0FFF740FE06E0FFF7FEFE03E023
:10C0A000FFF76BFE00E000BF00BF10BD70B5044697
:10C0B000FF257FA00FF0DEFA64200BF053FC214631
:10C0C0007FA00FF0D7FA64200BF04CFC1A217D48BA
:10C0D0000CF02EFB00BF40217A480CF0D9FB002861
:10C0E000F9D064200BF03EFC77A179480FF036FCC4
:10C0F0007849086008E074A175480FF02FFC754975
:10C1000008600A200BF02EFC724800680028F2D06C
:10C1100064200BF027FCFDF7CBFF6FA00FF0AAFA0D
:10C12000C8200BF01FFC70A169480FF017FC69498B
:10C1300008601FE068A00FF09DFAC8200BF012FC09
:10C1400069A163480FF00AFC6249086069A161486F
:10C1500000680FF003FC5F49086066A15D48006855
:10C16000401C0FF0FBFB5B49086008460068407804
:10C170003038C5B2002DDDD1FDF79AFF70BD70B526
:10C180000446FF251D20484981F82300084690F801
:10C190002000012800D070BD57A00FF06BFA4FF4BB
:10C1A000FA700BF0DFFB214660480FF063FA0A20BB
:10C1B0000BF0D8FB1A2143480CF0BAFA64200BF0BC
:10C1C000D1FB5A4890300FF055FA0A200BF0CAFB09
:10C1D000FDF76EFF00BFDEE730B5C1B00020409034
:10C1E0004FF4807168460FF042FC0024002512E0F5
:10C1F0003748025D4EA140A80FF048FA9DF8002193
:10C2000028466D1C0DF800209DF8012128466D1C64
:10C210000DF80020641C322CEADB00200DF805002C
:10C220006846FFF7ACFFFDF743FF41B030BD2DE995
:10C23000F041ADF5027D06460F464FF4007102A8AD
:10C240000FF015FC00200190002400254FF0FF089E
:10C2500000BF10E0325D36A101A80FF017FA9DF87B
:10C26000042028466D1C02A90A549DF80520284682
:10C270006D1C0A54641CBC42ECD3002002A9485532
:10C280002A480FF0F7F90A200BF06CFB1A210D4831
:10C290000CF04EFA0A200BF065FBFDF709FF0DF5D7
:10C2A000027DBDE8F081000038010020600100201F
:10C2B00041542B514953454E443D300D0A00000076
:10C2C000257300000044004053454E44204F4B006E
:10C2D0001C2B00206800002041542B514953454E2F
:10C2E000443D302C300D0A002B514953454E443A01
:10C2F000000000002C00000041542B51494F5045D4
:10C300004E3D312C302C22544350222C22313135D9
:10C310002E3233362E3135332E313730222C34380D
:10C320003530302C302C310D0A000000F4A4000808
:10C33000253032780000000070B505460C4645F205
:10C3400055500DF057F928460DF057F920460DF0DD
:10C3500057F90DF058F90DF05BF970BD10B50DF0FF
:10C3600052F910BD30B502460B460020002112E004
:10C37000555C684008240BE000F0800525B14506B7
:10C38000280E80F0E50001E04506280E651EECB29F
:10C39000002CF1DC491C9942EAD330BD70B502464D
:10C3A0000B464FF6FF70002110E0565C70400024F1
:10C3B00008E000F00105401015B14AF20106704096
:10C3C000661CB4B2082CF4DB4E1CB1B29942ECDB13
:10C3D00070BD30B502460B464FF0FF310FE012F84A
:10C3E000010B4140002408E001F001004042FE4DF5
:10C3F000284080EA5101601CC4B2082CF4DB581EAE
:10C40000031EECDAC84330BDF0B504460D461746AE
:10C41000052D01D20020F0BDFF2F07D020784A283B
:10C4200002D16078532801D0FE20F4E7A81E81B223
:10C430002046FFF7B3FF0646F1B2A81E205C8142FA
:10C4400004D1681E205CB0EB162F01D00020E2E77B
:10C45000FF2F01D0A078DEE70120DCE701460022B3
:10C4600004E0501CC2B2A1F10A00C1B20A29F8DAF4
:10C47000100741EA1060704730B5014600200122E4
:10C48000012313E0022B03DB4FF6FF7404EA0212D0
:10C490000A2491FBF4F504FB151404FB0204A0B27A
:10C4A0000A2491FBF4F4A1B25C1CA3B20029E9DCDC
:10C4B00030BD10B501460020012201230AE0022B05
:10C4C00002D302EB8204620001F00F0404FB0200BD
:10C4D00009095B1C0029F2D110BD70B5034600208C
:10C4E000012901D0022903D101F10C04E1B25B1E44
:10C4F0004C1C04EB4404052594FBF5F5541C022662
:10C5000006FB01442C441C4404EB93046425B3FB58
:10C51000F5F5641B4FF4C875B3FBF5F52C440725FE
:10C52000B4FBF5F605FB164000B9072070BD30B529
:10C53000044600252079012811D0207903280ED047
:10C54000207905280BD02079072808D020790828E1
:10C5500005D020790A2802D020790C2801D11F2586
:10C5600026E02079042808D02079062805D02079F3
:10C57000092802D020790B2801D11E2518E0207946
:10C58000022815D14FF4C8712068B0FBF1F201FB0D
:10C59000120050B1207800F0030040B964212068F7
:10C5A000B0FBF1F201FB120008B11D2500E01C25D3
:10C5B000E0790830E071E079182813DBE079183869
:10C5C000E0716079401C60716079A8420ADD012049
:10C5D00060712079401C207120790C2802DD2068D0
:10C5E000401C2060627921792068FFF776FFA071F6
:10C5F00030BD012101709FED7D0B80ED020B9FEDA1
:10C600007D0B80ED040B9FED790B80ED160B9FEDFC
:10C61000770B80ED0A0B9FED750B80ED100B9FEDF6
:10C62000730B80ED180B9FED750B80ED0C0B42F238
:10C63000107101879FED730B80ED060B9FED730B5F
:10C6400080ED120B9FED690B80ED080B9FED670BE2
:10C6500080ED140B0A2180F8681070479FED630B82
:10C6600080ED000B9FED610B80ED040B9FED5F0BE8
:10C6700080ED020B9FED5D0B80ED060B9FED5B0BDC
:10C6800080ED080B9FED590B80ED0A0B9FED570BCA
:10C6900080ED0C0B704700B5024601201070507001
:10C6A00000201071012090700020D07001201072C5
:10C6B00002F18800FFF7D2FF02F11800FFF799FF9F
:10C6C00000BD10B5034600201870002409E004EBFB
:10C6D000440203F1080101EB8210FFF7DCFF601C4C
:10C6E000C4B2062CF3DB10BD0FB42DED020B30B538
:10C6F0002DED108B91B0B0EE40CAF0EE60CA439DB4
:10C70000429C9DED2A1BB0EE410AF0EE610A9FEDBE
:10C71000371B53EC112B51EC100B12F05FFB25D0A3
:10C720009DED361BB0EE410AF0EE610A9FED2F1B26
:10C7300053EC112B51EC100B12F050FB16D09DED69
:10C740002E2BB0EE420AF0EE620A9DED302BB0EED9
:10C75000421AF0EE621A53EC102B51EC110B12F04E
:10C760003DFB01D1012000E0002030B9012011B0D3
:10C77000BDEC108B30BC5DF81CFB9DED281BB0EEB2
:10C78000410AF0EE610A9FED191B53EC112B51EC9D
:10C79000100B12F0E7FB03D29FED140B8DED280B6D
:10C7A0009DED321BB0EE410AF0EE610A53EC1C2BFA
:10C7B00051EC100B12F01EFE41EC190B9DED281BE5
:10C7C000B0EE410AF0EE610A53EC102B51EC190B5C
:10C7D00012F0C8FB23D39DED361BB0EE410AF0EEFC
:10C7E000610A53EC102B15E02083B8ED0000000027
:10C7F000000000000AD7A3703D0A973F0000000028
:10C80000000024402D431CEBE2361A3F00000000DC
:10C810000000E03F51EC190B12F0DEFC01D20220C7
:10C82000A5E79DED281BB0EE410AF0EE610A53EC3E
:10C83000102B51EC190B12F0DDFD41EC1A0B9DEDA4
:10C840002E2BB0EE420AF0EE620A9DED302BB0EED8
:10C85000421AF0EE621A53EC102B51EC110B12F04D
:10C86000BDFA10D19DED2E0BB0EE40BAF0EE60BADD
:10C870009DED300BB0EE408AF0EE608AB0EE4AFAE1
:10C88000F0EE6AFAC7E09DED2E2BB0EE420AF0EE14
:10C89000620A9DED302BB0EE421AF0EE621A53ECB4
:10C8A000102B51EC110B12F0A5FDCDE908019DED07
:10C8B000361BB0EE410AF0EE610A53EC102B9DEDF1
:10C8C000081B51EC110B12F031F99FEDFE0B53ECEC
:10C8D000102BCDE90A019DED0A0B51EC100B12F063
:10C8E00025F9CDE90C019DED0C0B53EC102B9FEDC0
:10C8F000F50B51EC100B12F071FBCDE908019DED29
:10C90000281BB0EE410AF0EE610A53EC102B9DEDAE
:10C91000081B51EC110B12F061FBCDE90A019DEDF2
:10C92000301BB0EE410AF0EE610A53EC102B9DED86
:10C930000A1B51EC110B12F085FC41EC180B9DED1C
:10C940000C0B53EC102B9FEDDF0B51EC100B12F086
:10C9500045FB53EC192BCDE908019DED080B51EC7B
:10C96000100B12F03BFBCDE90A019DED301BB0EE40
:10C97000410AF0EE610A53EC102B9DED0A1B51ECBD
:10C98000110B12F05FFC41EC1B0B53EC1B2B51EC19
:10C99000180B12F02FFD53EC1B2BCDE9020151ECCB
:10C9A000180B12F027FDCDE900019DED020B53ECB1
:10C9B000102B9DED000B51EC100B12F00FFB9FEDB7
:10C9C000C30B53EC102BCDE904019DED040B51EC8E
:10C9D000100B12F0ABF853EC1A2BCDE9080151EC17
:10C9E0001A0B12F0FBFACDE906019DED080B53EC92
:10C9F000102B9DED060B51EC100B11F0DBFF1FED22
:10CA00007D1BCDE90A019DED0A0B10F07DFAB0EE19
:10CA100040FAF0EE60FA53EC1B2B51EC180B11F0BE
:10CA2000C9FF53EC1A2BCDE908019DED080B51EC21
:10CA3000100B12F0D3FA9FEDA30B53EC102BCDE9A2
:10CA40000A019DED0A0B51EC100B12F06FF841EC4E
:10CA50001E0B9FED9C0B53EC102B51EC1F0B12F097
:10CA6000BDFA53EC182BCDE908019DED080B51ECF4
:10CA7000100B11F09FFFCDE90A019DED0A0B53EC5D
:10CA8000102B51EC1E0B12F051F841EC1D0B9FEDD9
:10CA9000911BB0EE4D0AF0EE6D0A10F035FA8DEDF7
:10CAA0000A0B9DED2A1BB0EE410AF0EE610A53EC31
:10CAB000102B9FED8A1B51EC110B12F037F8CDE9CA
:10CAC00008019DED0A0B53EC102B9DED080B51EC6A
:10CAD000100B12F083FACDE90E019DED2C1BB0EE88
:10CAE000410AF0EE610A53EC102B51EC1D0B12F0D1
:10CAF00075FA1FEDBA1BCDE908019DED080B10F08A
:10CB000003FA8DED0A0B9DED0E0B53EC102B9DEDF2
:10CB10000A0B51EC100B12F061FAC4E9000194ED1C
:10CB2000001BB0EE410AF0EE610A53EC1E2B51ECF3
:10CB3000100B12F053FAC5E90001002017E60FB4FC
:10CB40002DED020B30B52DED108B97B0499D489C13
:10CB50009DED301BB0EE410AF0EE610A1FEDDD1BCA
:10CB600053EC112B51EC100B12F038F906D10120C7
:10CB700017B0BDEC108B30BC5DF81CFB9DED3E0B7F
:10CB8000B0EE408AF0EE608A9DED3C0B8DED0C0B13
:10CB90009DED2E1BB0EE410AF0EE610A1FEDED1B7C
:10CBA00053EC112B51EC100B12F0DCF903D21FEDFA
:10CBB000F10B8DED2E0B9DED381BB0EE410AF0EE22
:10CBC000610A9DED2A1B53EC112B51EC100B12F056
:10CBD00011FC41EC190B9DED2E1BB0EE410AF0EE5D
:10CBE000610A53EC102B51EC190B12F0BBF90FD367
:10CBF0009DED0C0B53EC102B51EC190B12F0ECFAD1
:10CC000006D353EC182B51EC190B12F0E5FA01D2B4
:10CC10000220ADE79DED3E1BB0EE410AF0EE610A49
:10CC20009FED301B53EC112B51EC100B12F09AF9C5
:10CC300001D803209CE753EC192B51EC180B12F090
:10CC4000D9FB41EC1A0B53EC1A2B51EC1A0B12F0D6
:10CC5000C5F953EC182BCDE9020151EC180B12F079
:10CC6000BDF9CDE900019DED020B53EC102B9DEDBC
:10CC7000000B51EC100B12F0BDFB9FED1C1BCDE91E
:10CC800004019DED040B10F03FF98DED060B9FEDB7
:10CC90000D0B53EC102B9DED060B51EC100B12F00D
:10CCA0009DF9CDE90E0153EC182B51EC1A0B11F044
:10CCB0003DFFCDE904019DED040B0FF015FF8DED57
:10CCC000060B17E00000000000000040000000001C
:10CCD00000001040555555555555C53F0000000002
:10CCE0000000F03F00000000000000000000000015
:10CCF0000000E03F1FED0D0B53EC102B9DED060BDC
:10CD000051EC100B12F06AF9CDE910019DED3E1BBC
:10CD1000B0EE410AF0EE610A53EC102B9DED101BB2
:10CD200051EC110B12F05AF941EC1D0B53EC1A2B7C
:10CD30009DED0E0B51EC100B12F050F953EC182B2B
:10CD4000CDE9040151EC1D0B12F048F9CDE90201C7
:10CD50009DED040B53EC102B9DED020B51EC100BD1
:10CD600012F048FB1FED1F0B53EC102BCDE9060111
:10CD70009DED060B51EC100B12F030F941EC1C0B41
:10CD80009DED2E1BB0EE410AF0EE610A1FED2B1B4C
:10CD900053EC112B51EC100B12F01EFA7ED29DEDCC
:10CDA0002E1BB0EE410AF0EE610A53EC102B51EC51
:10CDB000180B12F01FFB41EC1B0B53EC1B2B51EC1F
:10CDC0001B0B12F00BF953EC182BCDE9020151ECBF
:10CDD000180B12F003F9CDE900019DED020B53ECA5
:10CDE000102B9DED000B51EC100B12F003FB1FED0F
:10CDF000411BCDE904019DED040B10F085F88DED8C
:10CE0000060B1FED500B53EC102B9DED060B51EC58
:10CE1000100B12F0E3F841EC1E0B53EC182B51EC05
:10CE20001B0B11F083FECDE904019DED040B0FF007
:10CE30005BFE8DED060B1FED5D0B53EC102B9DED96
:10CE4000060B51EC100B12F0C9F8CDE90A0153ECB6
:10CE5000182B9DED0A0B51EC100B12F0BFF8CDE929
:10CE6000080153EC1B2B51EC1E0B12F0B7F853ECDE
:10CE7000182BCDE904019DED080B51EC100B12F0BD
:10CE8000ADF8CDE902019DED040B53EC102B9DEDA7
:10CE9000020B51EC100B12F0ADFA00E00EE01FEDAA
:10CEA0006D0B53EC102BCDE906019DED060B51ECFB
:10CEB000100B12F093F841EC1F0B07E01FED77EB1E
:10CEC0001FED78FB1FED790B8DED080B53EC1F2B3D
:10CED00051EC1C0B12F08EFA41EC1C0B9DED080B73
:10CEE00053EC102B51EC1D0B12F084FA53EC1E2B5B
:10CEF000CDE906019DED060B51EC100B11F05AFD2A
:10CF000041EC1D0B53EC1D2B51EC1C0B11F00EFED4
:10CF1000CDE912011FED911B9DED120B0FF0F4FFF7
:10CF20008DED060B9DED301BB0EE410AF0EE610A6F
:10CF300053EC102B1FED971B51EC110B11F0F6FD6C
:10CF4000CDE904019DED060B53EC102B9DED040B78
:10CF500051EC100B12F042F8CDE914019DED321B9B
:10CF6000B0EE410AF0EE610A53EC102B9DED121B5E
:10CF700051EC110B12F032F81FEDA41BCDE90401A6
:10CF80009DED040B0FF0C0FF8DED060B9DED140B16
:10CF900053EC102B9DED060B51EC100B12F01EF80C
:10CFA000C4E9000194ED001BB0EE410AF0EE610A05
:10CFB00053EC1C2B51EC100B12F010F8C5E90001DA
:10CFC0000020D5E50FB42DED020B30B52DED108B03
:10CFD0009FB0B0EE40CAF0EE60CA519D509C9DEDEE
:10CFE000381BB0EE410AF0EE610A1FEDC21B53EC94
:10CFF000112B51EC100B11F0F1FE06D101201FB0E6
:10D00000BDEC108B30BC5DF81CFB9DED401BB0EE01
:10D01000410AF0EE610A53EC1C2B51EC100B12F09C
:10D02000E9F941EC1A0B1FEDD10B53EC102B51EC2D
:10D030001A0B11F097FF0CD39DED441BB0EE410A83
:10D04000F0EE610A53EC102B51EC1A0B12F0C4F8FD
:10D0500001D20220D3E79DED489B1FEDDE0B53EC80
:10D06000102B51EC190B11F07DFF01D80320C6E7FE
:10D070009DED4A8B9FEDFE0B0FF036FD8DED100BF5
:10D080009FEDFD0B53EC102B9DED100B51EC100B95
:10D0900011F04CFD53EC182BCDE912019DED120B54
:10D0A00051EC100B11F09AFFCDE914019DED140B1A
:10D0B00010F052FD8DED160B1FEDF80B53EC102BFD
:10D0C0009DED160B51EC100B12F0BCF853EC192B24
:10D0D000CDE918019DED180B51EC100B11F07EFFFE
:10D0E00041EC1F0B53EC1F2B51EC1A0B11F03AFFC4
:10D0F0000FD8602238A96846CDE918450EF085FCA6
:10D10000B0EE4C0AF0EE6C0A34A80FC8FFF717FD1A
:10D1100075E753EC1F2B51EC1A0B12F06BF941EC35
:10D120001B0B9FEDD30B0FF0DFFC8DED080B9FED7C
:10D13000D20B53EC102B9DED080B51EC100B11F0A2
:10D14000F5FC53EC182BCDE90A019DED0A0B51ECCF
:10D15000100B11F043FFCDE90C019DED0C0B10F00D
:10D160005FFD8DED0E0B53EC1B2B9DED0E0B51EC6B
:10D17000100B11F033FF9FEDBE0BCDE912010FF044
:10D18000B3FC8DED060B9FEDBC0B53EC102B9DED0E
:10D19000060B51EC100B11F0C9FC53EC182BCDE928
:10D1A00008019DED080B51EC100B11F017FFCDE9B4
:10D1B0000A019DED0A0B0FF043FE8DED0E0B53ECB3
:10D1C000192B9FEDAF0B51EC100B11F007FFCDE9C0
:10D1D0000C019DED0E0B53EC102B9DED0C0B51EC47
:10D1E000100B11F0FBFECDE910019DED120B53EC7D
:10D1F000102B9DED100B51EC100B11F0DBFB53ECE1
:10D200001B2BCDE914019DED140B51EC100B11F00B
:10D21000E5FE9FED970BCDE918010FF065FC8DED54
:10D22000060B9FED950B53EC102B9DED060B51EC6F
:10D23000100B11F07BFC53EC182B9FED910BCDE9FB
:10D240000A0151EC100B11F0C9FECDE908019DED6A
:10D250000A0B53EC102B9DED080B51EC100B11F049
:10D26000BDFECDE90C019DED0C0B10F075FC8DEDB4
:10D27000100B9FED850B53EC102B51EC180B11F09C
:10D2800055FC9FED830B53EC102BCDE908019DED70
:10D29000080B51EC100B11F0D5FF9FED750BCDE98C
:10D2A0000C010FF021FC8DED0A0B9DED0C0B53ECE6
:10D2B000102B9DED0A0B51EC100B11F08FFECDE9F8
:10D2C0000E019DED100B53EC102B9DED0E0B51EC50
:10D2D000100B12F08FF853EC192BCDE9140151EC1F
:10D2E000190B11F07BFE9FED660B53EC102BCDE973
:10D2F00010019DED100B51EC100B11F017FCCDE956
:10D3000012019DED140B53EC102B9DED120B51EC03
:10D31000100B11F063FECDE916019DED180B53ECD7
:10D32000102B9DED160B51EC100B11F043FB41EC53
:10D330001E0B9FED4F0B0FF0D7FB8DED0C0B9FEDF0
:10D340004E0B53EC102B9DED0C0B51EC100B11F010
:10D35000EDFB53EC182BCDE90E019DED0E0B51ECBE
:10D36000100B11F03BFECDE910019DED100B0FF0FD
:10D3700067FD8DED140B53EC1B2B9FED410B51EC16
:10D38000100B11F02BFECDE912019DED140B53ECA7
:10D39000102B9DED120B51EC100B11F0C7FB9FED04
:10D3A0003A0B53EC102BCDE9180151EC180B11F08E
:10D3B000BDFB9FED370B53EC102BCDE910019DED1C
:10D3C000100B51EC100B11F03DFF9FED290BCDE937
:10D3D00014010FF089FB8DED100B53EC192B9DED13
:10D3E000100B51EC100B11F0F9FDCDE912019DED80
:10D3F000140B53EC102B9DED120B51EC100B11F094
:10D40000EDFDCDE916019DED180B53EC102B9DEDB4
:10D41000160B51EC100B11F0CDFACDE91A019DED70
:10D420001A0B53EC102B51EC1E0B11F07FFB41EC4F
:10D430001D0B9FED191BB0EE4D0AF0EE6D0A0FF0BB
:10D4400063FD8DED180B9DED381BB0EE410AF0EE3B
:10D45000610A53EC102B9FED0E1B51EC110B11F0D8
:10D4600065FBCDE916019DED180B53EC102B17E071
:10D47000000000000000F0BF0000000000806640D7
:10D480000000000000000040000000000080564046
:10D49000000000000000F03F555555555555C53F5B
:10D4A0009DED160B51EC100B11F098FDCDE91C0110
:10D4B0009DED3A1BB0EE410AF0EE610A53EC102BE1
:10D4C00051EC1D0B11F08AFD9FEDFE1BCDE91601FD
:10D4D0009DED160B0FF018FD8DED180B9DED1C0B3F
:10D4E00053EC102B9DED180B51EC100B11F076FD49
:10D4F000C4E9000194ED001BB0EE410AF0EE610AB0
:10D5000053EC1E2B51EC100B11F068FDC5E9000126
:10D51000002074E50FB42DED020B30B52DED028B1C
:10D520009BB0B0EE408AF0EE608ADDE93E459DF8A2
:10D530008800012814D1602226A96846CDE9184543
:10D540000EF063FAB0EE480AF0EE680A22A80FC89F
:10D55000FFF7CAF81BB0BDEC028B30BC5DF81CFBBA
:10D560009DF8880002280FD1602226A96846CDE9DF
:10D5700018450EF04AFAB0EE480AF0EE680A22A802
:10D580000FC8FFF7DCFAE5E79DF8880003280FD104
:10D59000602226A96846CDE918450EF036FAB0EEAD
:10D5A000480AF0EE680A22A80FC8FFF70BFDD1E782
:10D5B0000120CFE70321017001218170002141701A
:10D5C00001717F21417100218171C17101210172BD
:10D5D00041F6907141814FF4967141620021816260
:10D5E000C162012141778177082101840121C17045
:10D5F000017700210186704710B5024600201070A7
:10D60000002317E003EB830101EBC30402F11801CF
:10D6100001EB8400FFF7CEFF03EB8300410003EB37
:10D62000830000EBC30402F1180000EB8400816268
:10D63000581CC3B2082BE5DB00205060108100238A
:10D6400005E0002102F10A00C154581CC3B2072BA7
:10D65000F7DBDA2050745F2191744321D1746B2180
:10D66000117540F62B10D08210BD0122027082701D
:10D6700042707822C270002104E00023021D53543E
:10D680004A1CD1B20829F8DB70470246002000216D
:10D6900004E00002535C18444B1CD9B20429F8DBA7
:10D6A00000EE100A704713B52DED020B02460B4633
:10D6B0006C46082B02D0012004B010BD002103E00D
:10D6C000605C5054481CC1B20829F9DB0020F3E724
:10D6D00090ED000B704730B50346080E1446551CFC
:10D6E000AAB21855C1F307451046541CA2B21D54E6
:10D6F000C1F307251046541CA2B21D541046541CF9
:10D70000A2B21954104630BD0021C17001704170A1
:10D71000817000228260C260704701210170002187
:10D7200041708170C1700121017101740022826019
:10D73000C260704730B50446002040EAC415E8B224
:10D7400040EA8115E8B240EA0215E8B2184330BD5C
:10D750002DE9F0430446894616461D46DDF81C8037
:10D76000300C2070300A6070A67041F2BF308045E6
:10D7700003D1E570280A20710FE041F2CD308045D9
:10D7800008D12F463846FEF794FE0746E770380A60
:10D79000207102E0280AE07025710020BDE8F083C6
:10D7A0002DE9F04304460D469046994614F808606A
:10D7B00046FA09F000F00307002F02DC0020BDE864
:10D7C000F083072D01D20020F9E7781EC7B206F0DA
:10D7D000CF0607FA09F03043C6B204F80860691FA3
:10D7E000E01CFEF7BFFDA91E60543846E7E72DE9AF
:10D7F000F043A1B004460F469046802101A80EF0E8
:10D8000036F90026002505E0A01D405D304486B2B3
:10D81000681C85B26079A842F6DC354607E004F161
:10D820000E00405DA91B01AA5054681C85B26179A5
:10D83000A01D405C3044A842F1DC6279A01D815CEF
:10D8400043463A4601A8FFF7ABFF8146354607E05D
:10D85000A81B01A9095C04F10E004155681C85B2A2
:10D860006179A01D405C3044A842F1DC484621B0FB
:10D87000BDE8F083F0B50446DDE90676059D00209D
:10D8800020700A2095FBF0FC00FB1C504FF00A0CA6
:10D8900095FBFCFC40EA0C1060700A2093FBF0FC46
:10D8A00000FB1C304FF00A0C93FBFCFC40EA0C1010
:10D8B000A0700A2092FBF0FC00FB1C204FF00A0C29
:10D8C00004E00000000000000000E03F92FBFCFCD0
:10D8D00040EA0C10E07026710520F0BD30B503461B
:10D8E0000A20B2FBF0F400FB142018700A20B2FBEF
:10D8F000F0F00A24B0FBF4F504FB15005870642026
:10D90000B2FBF0F0B0FBF4F504FB150098704FF497
:10D910007A70B2FBF0F0B0FBF4F504FB1500D870A0
:10D920000420087030BD2DE9F04F8DB005468946C2
:10D9300014469A4600200C908346002708900990D0
:10D9400006900790FDA0006804900020C9F8000030
:10D95000207928B194F88F000C3000F0FF0B04E020
:10D9600094F88F00C01D00F0FF0B8DF811B0002659
:10D9700005E004A8825D38467F1C2A54761C032EDD
:10D98000F7DB2379E278A1786078FFF7D3FE0B907C
:10D9900039467F1C0B986854CDF800A0A389052157
:10D9A00008A8A268FFF7D4FE002605E008A8825D5B
:10D9B00038467F1C2A54761C052EF7DBA27B38469E
:10D9C0007F1C2A544FF000080AE004F10F0010F801
:10D9D000082038467F1C2A5408F1010000F0FF0897
:10D9E00094F88F004045F0DC2079B8B1923420796A
:10D9F000E178A278CDE900210290637814F89229A9
:10DA0000052106A8FFF736FF002605E006A8825D7F
:10DA100038467F1C2A54761C052EF7DBE81C05903F
:10DA200059460598FEF79EFC0A9039467F1C0A98D5
:10DA30006854162238467F1C2A540020E855C9F83D
:10DA400000700C980DB0BDE8F08F2DE9F8438046CA
:10DA50000D461646994600200090B9EB450F01D8B7
:10DA6000BDE8F8830024002713E018F80720B4A1CC
:10DA700068460DF00BFE9DF800202046611C8CB21C
:10DA800032549DF801202046611C8CB23254781C1F
:10DA9000C7B2AF42E9D3002030552046E0E72DE978
:10DAA000F04F2DED048B81B0044689469346002546
:10DAB000AA46E0E00AEB4A0109F1080000EB8110F8
:10DAC00090ED261BB0EE410AF0EE610A9FED9E1B21
:10DAD00053EC112B51EC100B11F080FA41EC190BA7
