:020000040800F2
:1080000038760020898F0108ED8B0008EF8B00087F
:10801000F38B0008F78B0008FB8B000800000000C2
:10802000000000000000000000000000FF8B0008BE
:10803000018C000800000000038C0008058C00087B
:10804000A38F0108A38F0108A38F0108A38F010844
:10805000A38F0108A38F0108A38F0108A38F010834
:10806000A38F0108A38F0108A38F0108A38F010824
:10807000A38F0108A38F0108A38F0108A38F010814
:10808000A38F0108A38F0108A38F0108A38F010804
:10809000A38F0108A38F0108A38F0108A38F0108F4
:1080A000A38F0108A38F0108A38F0108A38F0108E4
:1080B000FB9E00083F9F0008819F0008A38F0108D6
:1080C000A38F0108A38F0108A38F0108A38F0108C4
:1080D000A38F0108158E0008338F0108531801087B
:1080E000A38F0108A38F0108A38F0108A38F0108A4
:1080F000A38F0108A38F0108A38F0108A38F010894
:10810000A38F010869410108A38F0108A38F01080B
:10811000A38F0108A38F0108A38F0108FB18010892
:10812000A38F0108A38F0108A38F0108A38F010863
:10813000A38F0108A38F0108A38F0108A38F010853
:10814000A38F0108A38F0108A38F0108A38F010843
:10815000A38F0108A38F0108A38F0108A38F010833
:10816000A38F0108A38F0108A38F0108A38F010823
:10817000A38F0108A38F0108A38F0108A38F010813
:10818000A38F0108A38F010800F002F800F075F832
:108190000AA090E8000C82448344AAF10107DA4562
:1081A00001D100F06AF8AFF2090EBAE80F0013F03F
:1081B000010F18BFFB1A43F001031847208E01007E
:1081C000408E01000A444FF0000C10F8013B13F000
:1081D000070408BF10F8014B1D1108BF10F8015B20
:1081E000641E05D010F8016B641E01F8016BF9D113
:1081F00013F0080F1EBF10F8014BAD1C0C1B09D16A
:108200006D1E58BF01F801CBFAD505E014F8016BDB
:1082100001F8016B6D1EF9D59142D6D3704700006D
:108220000023002400250026103A28BF78C1FBD87F
:10823000520728BF30C148BF0B607047662918F04D
:108240008A84642914F0D484752914F0D18478299F
:1082500014F00A85732915F02681002070471FB598
:1082600018F06FFC15F036F904000020002117F01B
:1082700099FDE0601FBD10B510BD15F033FA114631
:10828000FFF7EDFF00F0E0FA15F051FA03B4FFF745
:10829000F2FF03BC10F0D4FD30BF72B6704762B677
:1082A000704780F308887047FD48007820B1FD4A88
:1082B000FD49FE4810F03FF8642010F0A1FD0120B8
:1082C000FB4908604FF47A7010F09AFD00BF00BFC0
:1082D00000BF00BF00BFBFF34F8F00BF00BF00BF94
:1082E000F448006800F4E060F3490843001DF149D8
:1082F000086000BF00BF00BFBFF34F8F00BF00BFCB
:1083000000BF00BFFEE70120E84908700121E748EF
:1083100081720120E54908720121E44841723C2143
:10832000C18100228261C2610220DF4908704FF4DE
:108330006161DD48C163DA2181775F21C177432123
:1083400080F820106B2180F8211045F6F7714184E8
:10835000002141760320D44908760121D248C17614
:108360004FF461610167DA2180F852105F2180F8D3
:108370005310432180F854106B2180F8551042F2BD
:108380002C31A0F85610002180F84D10032180F800
:108390004C10012180F84F1041F23420C24948604E
:1083A00045F278600881DA2048745F21BE48817404
:1083B0004321C1746B21017540F62B10BA49C88264
:1083C000704710B5002404E00020BC490855601C2B
:1083D00084B2B4F5007FF7DBE8220021B7480BF048
:1083E00045FF10BD10B5002401224FF44831B348B9
:1083F0000BF0F0FE00BF06E0B048015DA948001D8B
:108400000155601CC4B2082CF6DB10BD10B5002469
:108410000020A34908700BE00AF092FE18B9012071
:108420009F49087006E0C82010F0EAFC601CC4B246
:10843000032CF1DB00BF9A48007820B9A0480078EF
:10844000401C9F49087010BD10B59548007820B1B8
:10845000944A954995480FF06EFF10BD10B52DED6B
:108460000A8B052101200DF02FFA08EE100AB8EE54
:10847000480A10EE100A18F0F3FA41EC1C0B9FEDBD
:10848000910B53EC102B17F0F5FF41EC1B0B9FEDFC
:108490008F0B53EC102B17F0EDFF41EC1A0B9FEDF7
:1084A0008D0B53EC102B17F08DFD41EC190B17F0D1
:1084B0009BFC08EE900AB2EE040A28EE800ABCEE9D
:1084C000C00A10EE100A7749C870BDEC0A8B10BDC7
:1084D000F0B52DED028B85B005460E4600200090CC
:1084E000052E03DA05B0BDEC028BF0BDFF227B4800
:1084F00001787B4804F0E0F8012800D0F2E7287802
:1085000008284CD10821BDF80020501C80B20090F2
:1085100001A881540321BDF80020501C80B20090B6
:1085200001A881540221BDF80020501C80B20090A7
:1085300001A881545D4890ED2A1BB0EE410AF0EE8F
:10854000610A9FED681B53EC112B51EC100B17F0D7
:1085500091FF41EC180B17F0F9FE84B222466946F0
:1085600001A805F067FFBDF8001001A804F06EF83F
:108570000446BDF80020501C80B2009001A884542D
:10858000210ABDF80020501C80B2009001A881543F
:10859000BDF80000C1B201A800F0E1FB4EE0287870
:1085A00009284BD10921BDF80020501C80B2009051
:1085B00001A881540321BDF80020501C80B2009016
:1085C00001A881540421BDF80020501C80B2009005
:1085D00001A88154354890ED281BB0EE410AF0EE19
:1085E000610A9FED401B53EC112B51EC100B17F05F
:1085F00041FF41EC180B17F0A9FE07463A466946C1
:1086000001A805F02AFFBDF8001001A804F01EF82B
:108610000446BDF80020501C80B2009001A884548C
:10862000210ABDF80020501C80B2009001A881549E
:10863000BDF80000C1B201A800F091FB2B48D0E9C1
:1086400004102A4AC2E90A1000BF4BE770B5A0B077
:1086500000260024002521480078052804DA00209F
:108660001E49087020B070BD7FE01D48005D0828DD
:1086700003D01B48005D092841D10026254609E0AA
:10868000601917490A5C3046711C8EB20DF8002043
:10869000681C85B204F108008542F1DB314627E011
:1086A00001000020B80A0020C8010020800300203B
:1086B000840242420CED00E00000FA05E40A0020CA
:1086C000050000206666666666660A4000000000D7
:1086D00000A0604000000000008000412800002051
:1086E000E40C00200000000000408F4090010020BA
:1086F0006846FFF7EDFE04F1080084B230E0A849B7
:10870000601C085C032803D0601C085C042826D188
:10871000A349A01C085C642800DDA3E700262546C9
:1087200009E060199E490A5C3046711C8EB20DF852
:108730000020681C85B29A49A01C085C2044401D9A
:10874000A842EEDC97484278314668460EF029FD93
:108750009349A01C085C401D204484B200E005E061
:1087600091480078844200DB00E07EE700BF0020F3
:108770008D49087000BF75E701B59DF8000013280A
:108780002DD00EDC10282ED006DC01281ED00228A9
:108790001FD003283AD11FE0112823D0122835D149
:1087A0000EE0302824D006DC142824D0152825D04B
:1087B00020282BD107E0402823D0502826D122E0C2
:1087C00003F05AF823E003F021FF20E003F040FD1E
:1087D0001DE009F01BF81AE0FFF738FF17E00CF076
:1087E000B7FB14E013E09DF801000DF0B9FC0EE0BA
:1087F00008F0A7FF0BE0FFF709FE08E0FFF724FEF3
:1088000005E0FFF751FDFFF729FE00E000BF00BFC4
:1088100008BD1CB50121102010F06AFF4020009017
:1088200001208DF804008DF8060003208DF8050066
:1088300001208DF8070069465C4810F0BBFC402120
:108840005A4810F035FD1CBD08B500BF58485949BD
:1088500008604FF4A06010F0B7FBA82010F06EFA8B
:108860004FF4165000F0D0F94FF4E13010F0F7FA61
:108870004FF4165005F0AEFF4F4805F0DEF8FFF755
:10888000C8FF42F2CF0140F2E73001F029F842F28E
:10889000CF01632000F0C9FF42F2CF0142F20F7016
:1088A00000F0EFFF42F2CF01632008F0FAFF00F082
:1088B000FAFB00F03BFCFFF7A9FD40F2E241062085
:1088C00003F092FE00F04EFF01F04DF83B4804F03B
:1088D00071F83B4805F01FF83A4805F055F8314863
:1088E00005F0A1F8384803F0DCFF09F028F8012171
:1088F000364811F0B1FB01F07EFC002034490860DD
:1089000002F0F5FF00F0C2FE0CF07CFF04202D49C0
:1089100008703048007868B10A46294927480FF0A6
:1089200037F848B9FFF7EFFC264A254923480FF0EE
:1089300002FD01E0FFF7E7FC30E0002000F0BBFEA5
:10894000044614B120460CF01EFF684609F06CFD89
:1089500010B10098FFF710FF12480078D8B91E48F0
:10896000D0E904100F4BD3E90223891A60EB03000E
:10897000491E70F100000ED3684609F0DEFD50B1CB
:108980009DF80100074948700020C87088709DF864
:1089900001000DF0E5FB0A2010F032FACDE70000EF
:1089A000E40C0020C80A002028000020001002402B
:1089B0000080000808ED00E0080A00208003002085
:1089C000C8010020B80A0020D80A00200008004092
:1089D0008402424201000020900100200CB50020DA
:1089E000019000907648006840F480307449086037
:1089F00000BF7348006800F4003000900198401CEC
:108A00000190009818B90198B0F5A04FF1D16C48C9
:108A1000006800F4003010B10120009001E0002057
:108A200000900098012846D165484030006840F029
:108A300080506349403108606248006840F440401B
:108A4000604908605E48083000685D490831086088
:108A50000846006840F4004008600846006840F49A
:108A6000A05008605848091F0860081F006840F0BF
:108A70008070091F086000BF5148006800F0007056
:108A80000028F9D040F20570504908604C48083081
:108A9000006820F003004A49083108600846006871
:108AA00040F00200086000BF45480830006800F050
:108AB0000C000828F8D10CBD10B54548006840F4FA
:108AC0007000434908603E48006840F001003C499E
:108AD000086000203A4908310860394800683D497B
:108AE0000840374908603C48091D0860081F0068B5
:108AF00020F48020091F0860002031490C310860F3
:108B0000FFF76CFF4FF0006031498039086010BDFD
:108B100070B500200022022300240221284D0835D0
:108B20002D6805F00C0020B1042806D0082834D1A7
:108B300007E02A4D2A4E356033E02A4D284E356035
:108B40002FE01F4D2D1D2D68C5F380541C4D2D1D8C
:108B50002D6805F03F0154B1224DB5FBF1F5184EDB
:108B6000361D3668C6F3881605FB06F209E01B4D74
:108B7000B5FBF1F5124E361D3668C6F3881605FBB7
:108B800006F20F4D2D1D2D68C5F301456D1C6B00C0
:108B9000B2FBF3F5124E356003E0104D104E356018
:108BA00000BF00BF064D08352D68C5F303150E4EF6
:108BB000705D0B4D2D68C540094E356070BD0000DD
:108BC000003802400070004008544007003C02405A
:108BD00088ED00E0FFFFF6FE103000240024F400D2
:108BE0001400002000127A0018000020704700BF17
:108BF000FEE700BFFEE700BFFEE700BFFEE77047ED
:108C0000704770477047000010B588B004460121D6
:108C1000084610F06DFD0121102010F0C3FD072261
:108C200009218C4810F051FB07220A21894810F0D5
:108C30004CFB4FF4C060069002208DF81C0003200E
:108C40008DF81D0000208DF81E0001208DF81F00FA
:108C500006A9804810F0AEFA4FF48070069001200B
:108C60008DF81C0003208DF81D0000208DF81E00DB
:108C700001208DF81F0006A9764810F09BFA4FF4EA
:108C80000060069001208DF81C0003208DF81D0067
:108C900000208DF81E0001208DF81F0006A96D48E8
:108CA00010F088FA02940020ADF80C00ADF80E0028
:108CB000ADF81000ADF814000C20ADF8120002A9B8
:108CC000654810F0D0FE0121634810F054FF4021A8
:108CD000614811F038F8012240F225515E4811F048
:108CE00000F825208DF8040003208DF805008DF88C
:108CF000060001208DF8070001A810F06AF9002095
:108D0000564908605649C1F8AC025649087008B087
:108D100010BD2DE9FF4107460C4615461E460021B1
:108D20004D4810F028FF0097ADF80440ADF806500C
:108D3000ADF808600020ADF80C000C20ADF80A007A
:108D40006946454810F08FFE0121434810F013FF9B
:108D500045488760868045800480BDE8FF8170B506
:108D600005460E4601203D49086000240CE000BF86
:108D70004021394810F0DAFF0028F9D0295D364843
:108D800010F024FF601CC4B2B442F0DB00BF4021ED
:108D9000314810F0CBFF0028F9D00020334908708B
:108DA0002E49086070BD2DE9F04107460D462F4859
:108DB00006780024002028700A2010F021F82B48A3
:108DC000007886420FD176B100BF04E02848005DEC
:108DD0003855601CC4B2B442F8DB244800782870CF
:108DE000002022490870BDE8F08110B1012800D0B0
:108DF00070471C49087020B90021184A0C321160D4
:108E000003E00121154A0C3211600021174A11704C
:108E100000BFEDE710B540F225510F4810F09CFF60
:108E2000B8B10121134811F017F900201249087058
:108E3000094810F0CFFEC4B20C480078402808DA88
:108E40000B480A490978445408480078401C0749EF
:108E5000087010BD0000024000100140A002404216
:108E60000000404204000020D80A00202800002012
:108E7000E40C0020000400407000002070B504469F
:108E800000224FF40071FE4810F014FA00224FF453
:108E90000061FB4810F00EFA00251FE0002280213F
:108EA000F74810F007FA04F0800028B101221102FF
:108EB000F34810F0FFF905E000224FF48071F0480C
:108EC00010F0F8F901228021ED4810F0F3F90120AB
:108ED0000FF04EFF6006040E681CC5B2082DDDDBE6
:108EE00001225102E64810F0E5F970BD70B5044664
:108EF00000224FF40071E24810F0DCF90122D102A7
:108F0000DF4810F0D7F900251FE000228021DC485F
:108F100010F0D0F904F0800028B101221102D848E5
:108F200010F0C8F905E000224FF48071D44810F029
:108F3000C1F901228021D24810F0BCF901200FF0C4
:108F400017FF6006040E681CC5B2082DDDDB012288
:108F50005102CB4810F0AEF970BD70B50446002246
:108F60004FF40071C64810F0A5F90122D102C4489F
:108F700010F0A0F900251FE000228021C04810F069
:108F800099F904F0800030B100224FF48071BC48A0
:108F900010F090F904E001221102B94810F08AF9AA
:108FA00001228021B64810F085F901200FF0E0FE83
:108FB0006006040E681CC5B2082DDDDB01225102DB
:108FC000AF4810F077F970BD10B564200FF018FFAE
:108FD00000224FF40071AA4810F06CF9012211032D
:108FE000A74810F067F900224FF48061A44810F000
:108FF00061F914200FF004FF01229102A04810F043
:1090000059F914200FF0FCFEE220FFF737FF05208E
:109010000FF0F6FE2C20FFF731FF05200FF0F0FED9
:109020002E20FFF72BFF05200FF0EAFE2F20FFF781
:1090300025FF05200FF0E4FE2420FFF71FFF81200D
:10904000FFF71CFF2A20FFF719FFA220FFF716FFEA
:10905000C820FFF713FFA020FFF710FF6020FFF7E5
:109060000DFFAF20FFF70AFF01225102844810F0E4
:1090700021F910BD1CB50121022010F039FB4FF47D
:109080008040009001208DF8040000208DF806003B
:1090900003208DF8050069467A4810F08BF801200E
:1090A000794908601CBD1CB50121102010F020FB7F
:1090B00001208DF8040000208DF806004BF680702A
:1090C000009001208DF8070002208DF80500694608
:1090D0006B4810F06FF800208DF804008DF8060042
:1090E0004FF48040009001208DF8070002208DF899
:1090F00005006946624810F05DF8FFF765FFFFF76D
:10910000B9FF1CBD70B505460C4600BF05F1AF01A7
:10911000C8B2FFF7B3FEC4F3031101F11000FFF76B
:10912000ADFE04F00F00FFF7A9FE70BD70B5002280
:109130004FF40071524810F0BDF80122110350485D
:1091400010F0B8F8002415E004F1B001C8B2FFF740
:1091500095FE1020FFF792FE0020FFF78FFE0025FE
:1091600004E00020FFF7C2FE681CC5B2842DF8DBC6
:10917000601CC4B2092CE7DB01225102404810F008
:1091800099F870BD012040490860704700203E49B1
:10919000086070472DE9F0410646884614460027CE
:1091A000002500BF15E070194146FFF7ABFF00270F
:1091B0000BE01CB90020FFF799FE04E0012C02D15E
:1091C0000020FFF7CAFE781CC7B2802FF1DB681CB5
:1091D000C5B2022DE7DBBDE8F08170B50446002280
:1091E0004FF40071264810F065F800250FE00121CA
:1091F000681CFFF787FF002605E02078FFF776FE62
:10920000641C701CC6B2802EF7DB681CC5B2082D2A
:10921000EDDB012251021A4810F04CF870BD2DE927
:10922000F0470746894614461D4600224FF4007158
:10923000134810F03FF801221103114810F03AF8DA
:1092400000261AE0B8194946FFF75CFF4FF0000806
:109250000EE01DB92078FFF749FE04E0012D02D190
:109260002078FFF77AFE641C08F1010000F0FF0887
:10927000B8F1100FEDDB701CC6B2022EE2DB05E088
:109280000010024000040240B88240420122510214
:10929000FA4810F00FF8BDE8F0872DE9F0470746CF
:1092A000894614461D4600224FF40071F34810F021
:1092B00001F800261AE0B8194946FFF723FF4FF0DE
:1092C00000080EE01DB92078FFF710FE04E0012D24
:1092D00002D12078FFF741FE641C08F1010000F084
:1092E000FF08B8F1080FEDDB701CC6B2022EE2DBFE
:1092F00001225102E1480FF0DDFFBDE8F0872DE9C2
:10930000F05F07460D4614461E4607F1AF0000F019
:10931000FF0900224FF40071D8480FF0CBFF05F091
:109320000F00401E00F0FF0AC5F3031000F1100B00
:109330004846FFF7A3FD5846FFF7A0FD5046FFF74C
:109340009DFD4FF000080CE01EB92078FFF7CEFD20
:1093500004E0012E02D12078FFF7FFFD641C08F124
:109360000108B8F1060FEFD301225102C3480FF0F4
:10937000A1FFBDE8F09F70B5044600251DE004F094
:10938000800028B10122D103BC480FF093FF05E013
:1093900000224FF40041B9480FF08CFF6006040E24
:1093A00000224FF40051B5480FF084FF0122510311
:1093B000B2480FF07FFF681CC5B2082DDFDB70BD1F
:1093C00070B5002401225103AC480FF073FF002553
:1093D00018E000224FF40051A8480FF06BFF600620
:1093E000040E4FF48041A5480FF046FF10B1601CF9
:1093F000C4B200E0E4B201225103A0480FF05AFFCA
:10940000681CC5B2082DE4DB204670BD2DE9F0478D
:1094100080460D4616461F46DDF8209000224FF488
:10942000805196480FF046FF0122510293480FF0F9
:1094300041FF00224FF4005190480FF03BFF032002
:10944000FFF799FF4046FFF796FF2846FFF793FF87
:109450003046FFF790FF002404E0FFF7B1FF3855D6
:10946000601CC4B24C45F8DB0122110383480FF0A5
:1094700021FFBDE8F0872DE9F04F8DB083460E4601
:1094800015461F4600243A4631465846FFF782FEED
:10949000ABE0285DB02838DB285DF72835DC601CA0
:1094A000285CA12831DB285DB0385E2110FB01F07B
:1094B00073490860601C285C00F2AD20096808440C
:1094C0006F49086008460068400108600846006867
:1094D000C0F3074808460088C0F30729084690F8FB
:1094E00000A0202005AB5246494600904046FFF7B9
:1094F0008DFF3B4605AA31465846FFF790FEA01C5B
:10950000C4B206F11000C6B26FE0285DA12837DBB7
:10951000285DA32834DC601C285CA12830DB285D92
:10952000A1385E2110FB01F055490860601C285CE1
:10953000A13809680844524908600846006840019B
:10954000086008460068C0F3074808460088C0F372
:109550000729084690F800A0202005AB524649464E
:1095600000904046FFF752FF3B4605AA3146584659
:10957000FFF755FEA01CC4B206F11000C6B234E0DD
:10958000285D20282FDB285D7E282CDC285D2038F4
:109590003B4908600846006800010860084600680A
:1095A000384908443649086008460068C0F307484F
:1095B00008460088C0F30729084690F800A010204C
:1095C00001AB5246494600904046FFF71FFF3B461D
:1095D00001AA31465846FFF760FE601CC4B206F18E
:1095E0000800C6B201E0601CC4B2285D00283FF745
:1095F00050AF0DB0BDE8F08F2DE9FE4F82460E460C
:1096000015469B46002433E0285D20282EDB285D8C
:109610007E282BDC285D2038194908600846006840
:10962000C0000860084600681749084414490860EB
:1096300008460068C0F3074708460088C0F30728BB
:10964000084690F80090082001AB4A464146009039
:109650003846FFF7DBFE5B4601AA31465046FFF76E
:109660004EFE601CC4B2B01DC6B201E0601CC4B2A4
:10967000285D0028C8DCBDE8FE8F00000010024015
:109680006C00002080CF0300C0BF03001CB5012187
:10969000102010F02DF83C20009000208DF80400E0
:1096A00003208DF8050001208DF8070069462C483D
:1096B0000FF080FD1CBD70B505460024042128482C
:1096C0000FF0DAFD70B914200FF09AFB00BF0421EF
:1096D00023480FF0D1FD0028F9D014200FF090FBA3
:1096E00001243AE008211E480FF0C6FD70B914208D
:1096F0000FF086FB00BF082119480FF0BDFD0028C0
:10970000F9D014200FF07CFB022426E0102114482D
:109710000FF0B2FD70B914200FF072FB00BF1021E2
:109720000F480FF0A9FD0028F9D014200FF068FBB6
:10973000032412E020210A480FF09EFD68B914208E
:109740000FF05EFB00BF202105480FF095FD0028BB
:10975000F9D014200FF054FB0424204670BD000003
:109760000010024000B585B00121080710F009F88B
:10977000012012F0B6FB002012F0B2FA49F699115E
:1097800088424DD001200FF050FE00BF41200FF065
:1097900005FE0028FAD04FF480700FF047FF01203B
:1097A0000FF05FFF11F0DEFC002011F0D8FD11F08A
:1097B00007FD002002907F200390FF20049002A864
:1097C00011F097FD01208DF806001B208DF8050093
:1097D0000F208DF8040000208DF8070001A911F07A
:1097E00023FE0F208DF802000B208DF801000320CE
:1097F0008DF8000017208DF803006946002011F055
:10980000B1FE11F06DFD49F69911002012F05BFADE
:10981000012011F0A4FD49F69911002012F053FA2D
:10982000002012F05EFB05B000BD7FB505460C467A
:10983000012102200FF0A5FF0295ADF804400020A1
:10984000ADF80600ADF80C0001A9FE4810F07BFB56
:1098500001221146FB4811F017F80021F94810F0D9
:10986000FBFB1D208DF8000001208DF80100032076
:109870008DF8020001208DF8030068460FF0A9FB67
:109880007FBD7FB505460C46012104200FF079FF0E
:109890000295ADF804400020ADF80600ADF80C00CC
:1098A00001A9E94810F04FFB01221146E64810F0EB
:1098B000EBFF0021E44810F0CFFB1E208DF80000E4
:1098C00001208DF8010003208DF8020001208DF8A1
:1098D000030068460FF07DFB0020DC4908707FBD67
:1098E0007FB505460C46012108460FF04AFF029558
:1098F000ADF804400020ADF80600ADF80C0001A959
:109900004FF0804010F01FFB01221146900710F02D
:10991000BBFF00214FF0804010F09EFB1C208DF813
:10992000000001208DF8010003208DF802000120C5
:109930008DF8030068460FF04CFB7FBD014601F037
:10994000030028B96420B1FBF0F200FB121030B91B
:109950004FF4C870B1FBF0F200FB121008B90120FF
:1099600070470020FCE70020B94908600871487181
:10997000C871087248720021B54A11615161916144
:10998000D161116251629162D1620120114681F868
:10999000300070473EB5AE48D0E90420521C40F17B
:1099A0000000AB49C1E90420084690F830000128C6
:1099B0000CD0D1E904414FF461620023204613F03A
:1099C00030F800214A404B401A430ED1A14890F88C
:1099D0002000012809D103208DF80800029808F022
:1099E00083FD02209A4981F8300001A9002011F07E
:1099F00085FD9DF804009649C8719DF80500087220
:109A00009DF8060048726946002011F011FE9DF88D
:109A1000030000F5FA608E4908609DF801000871A6
:109A20009DF8020048719DF8000088713EBD2DE947
:109A3000F0418748C0794FF4616110FB01F084491F
:109A4000097AC1EB011100EB81008149497A084490
:109A5000C6170546002439E07D48D0E9043004EB00
:109A6000840101EBC4027C4901EB8201C96A5B1AE3
:109A700060F1000014229A1A70F100001BD304EB6D
:109A8000840000EBC401744800EB8100476A3A4649
:109A900000232846314612F0C4FF511F73F1000322
:109AA00009D2012104EB840000EBC4026A4800EBF8
:109AB0008200417108E0002104EB840000EBC40245
:109AC000654800EB82004171601CC4B262481838DE
:109AD0000078A042C0DC0020BDE8F0817CB5FFF733
:109AE000A6FF0024F9E004EB840000EBC4015A480F
:109AF00000EB8100407900286AD004EB840101EB7F
:109B0000C401564A02EB4110514B554A524918398B
:109B1000009404F08EFD5348007848B104EB8401B2
:109B200001EBC4014D4A02EB411021460FF07DF8D4
:109B30004748006904EB840101EBC402464901EB8C
:109B40008201C862434890F8200068B3414890F809
:109B500022000C2828DB3F4890F822001F2823DC35
:109B600004EB840000EBC4013B4800EB8100007F64
:109B7000012803D104208DF8040010E004EB8400D8
:109B800000EBC401344800EB8100007F022803D1C0
:109B900006208DF8040002E004208DF804008DF802
:109BA0000540019808F0A0FC2948006904EB8401F5
:109BB00001EBC402284901EB82018862002104EB19
:109BC000840000EBC402244800EB8200417182E073
:109BD00004EB840000EBC4011F4800EB8100806AA5
:109BE00000211B4BD3E90423801A994173D21848F2
:109BF000D0E9043104EB840000EBC402164800EB0A
:109C00008200806A1A1A61F100013C3A71F1000188
:109C100061D31448007838B30E4890F82000C8B3D8
:109C20000C4890F822000C284BDB0A4890F82200E0
:109C30001F2846DC04EB840000EBC401064800EB5F
:109C4000810012E000040040000800407200002083
:109C50009001002068010020E0010020640D002038
:109C6000800300200100002035E0008E052828DA5E
:109C700020460EF04DFF68B104EB840000EBC401F8
:109C8000FE4800EB8100007F012804D104208DF8FC
:109C9000040011E015E004EB840000EBC401F74878
:109CA00000EB8100007F022803D106208DF804001C
:109CB00002E004208DF804008DF80540019808F0BA
:109CC00013FCEF48006904EB840101EBC402EB498B
:109CD00001EB82018862601CC4B2E8481838007841
:109CE000A0423FF700AF7CBDF8B500247FE004EB55
:109CF000840000EBC401E34800EB01100078012868
:109D00000BD104EB840000EBC401DE4800EB011032
:109D10004078022801D1192500E00F25D848D0E964
:109D20000420521B70F100005FD3D548D0E9042312
:109D3000E81CC117801A99411AD2D148D0E90421F0
:109D400004EB840000EBC403CE4800EB0310D0E921
:109D50000430D31A61EB000104EB840000EBC40271
:109D6000C84800EB0210C088181A71F100013CD3FA
:109D7000C348D0E90410C24AD2E90A36CA1A60EBD5
:109D800006000D2300219A1A81411AD3BC48D0E95C
:109D90000410BB4BD3E90A238A1A60EB0300521E5E
:109DA00070F1000021D3B648D0E90410B44BD3E9D8
:109DB0000A268B1A60EB06000021D3F108028141CC
:109DC00013D38DF8014010208DF80000009808F0A2
:109DD000D3FBAB48D0E9041004EB840202EBC403CC
:109DE000A84A02EB0312C2E90410601CC4B2A548E1
:109DF00008380078A0423FF77AAFA34800780128DE
:109E000010D19F48D0E904209F4BD3E90213511A87
:109E100060EB0300491F70F1000003D39A494878B2
:109E20000DF0DDFBF8BD10B5002435E004EB840037
:109E300000EBC401934800EB01100078012829D100
:109E400004EB840000EBC4018E4800EB011090EDA0
:109E5000262BB0EE420AF0EE620A04EB840000EB1F
:109E6000C401884800EB011090ED222BB0EE421A9D
:109E7000F0EE621A53EC102B51EC110B15F0E6FFCB
:109E800004EB840202EBC4037E4A02EB031242F8A5
:109E9000880F5160601CC4B27A4808380078A0422C
:109EA000C4DC10BD38B5794890F8200040B177483F
:109EB00090F822000D2803DB7548C0785A2806DA8E
:109EC0006F48D0E90410734AC2E9001038BD6C48ED
:109ED000D0E904306F4A12CA5A1A60EB04004FF4FA
:109EE000347300219A1A814105D240208DF8000078
:109EF000009808F0B8FA00BFE8E708B50121880724
:109F000010F0D9FC012815D163480078401C624943
:109F100008700846007805280CDB00200870012036
:109F20008DF80000009808F09EFA00214FF0804064
:109F300010F092F80121880710F0CEFC08BD08B59A
:109F40000121564810F0B7FC012814D1544800787C
:109F5000401C534908700846007805280BDB002098
:109F6000087003208DF80000009808F07CFA0021AA
:109F70004A4810F071F80121484810F0ADFC08BDC6
:109F800038B50121474810F096FC012874D1FFF73D
:109F900001FDFFF748FFFFF7A7FE3C4890F82000BF
:109FA00088B13748407A0A2190FBF1F201FB120098
:109FB00048B93648407C012805D002208DF80000C1
:109FC000009808F091FA2E48D0E904100023594077
:109FD0005840014312D02A484FF46162D0E904414D
:109FE000204612F01EFD00214A404B401A4305D185
:109FF00015208DF80000009808F035FA2048D0E9C7
:10A000000410002359405840014311D01C480A2233
:10A01000D0E90441204612F004FD00214A404B40A3
:10A020001A4305D150208DF80000009808F01BFA63
:10A030001348D0E9041003235940014305D13020CF
:10A040008DF80000009808F00EFAFFF747FD0C4865
:10A05000D0E9041000235940584001432FD008484C
:10A060004FF49672D0E90441204612F0DAFC002148
:10A070004A404B401A4317E056E00000E001002040
:10A080009001002088030020C80A002068010020F9
:10A09000B80A0020080000207300002000040040DF
:10A0A000700000200008004009D1224890F82000EC
:10A0B00028B105208DF80000009808F015FAFFF788
:10A0C000F1FE1D480078E8B91C483C220023D0E985
:10A0D0000441204612F0A5FC00214A404B401A439F
:10A0E00010D11648D0E9041051405040014309D026
:10A0F00013480078032805DA14208DF80000009832
:10A1000008F0B1F913208DF80000009808F0ABF9C1
:10A1100020208DF80000009808F0A5F912208DF895
:10A120000000009808F09FF90121064810F0D4FBC8
:10A1300038BD0000680100200100002090010020CF
:10A1400005000020000800402DE9F04389B00746D3
:10A150000E469046202101A812F0D7FE0024A14609
:10A160001D2E03DD002009B0BDE8F0832046611CF0
:10A170008CB201A901F80080002507E07A5D204635
:10A18000611C8CB201A90A54681C85B2B542F5DB8A
:10A19000214601A802F05AFA81462046611C8CB281
:10A1A00001A901F800904FEA19222046611C8CB2E7
:10A1B00001A90A54E1B201A8FEF7D1FD0120D2E7BE
:10A1C00010B5FC480078012804D1FB480178FB4811
:10A1D000FEF7C5FD002404E00020F8490855601C86
:10A1E00084B2F54800888442F6DB0020F2490880FA
:10A1F00002F00CFA10BD1CB5012110200FF078FA06
:10A200000220009001208DF804008DF80600032044
:10A210008DF8050001208DF807006946E8480EF02A
:10A22000C9FF0120E74908601CBD7CB5E648847D74
:10A230000120E549487004EB840000EBC401E348C9
:10A2400000EB8100408904EB840101EBC402DF498B
:10A2500001EB8201497ACDE9001004EB840000EBA8
:10A26000C405DA4800EB8500037A04EB840000EBB8
:10A27000C405D64800EB8500C27904EB840000EBEE
:10A28000C405D24800EB85008179D1A012F040FCD2
:10A29000DA49D1E90401CC4AC2E902017CBD10B51A
:10A2A0000120C9494870D6A012F032FCD348D0E949
:10A2B0000410C54AC2E9021010BD70B504460E462E
:10A2C0004A202070532060700420A070E6700421A2
:10A2D000204602F0BBF905462571280A6071062068
:10A2E00070BD2DE9F04104460F461646052E02DAF0
:10A2F0000020BDE8F0814A202070532060700320C8
:10A30000A070E7700421204602F0A0F905462571EF
:10A31000280A60710620ECE770B5ADF5006D0546C2
:10A320004FF40061684612F0F0FD00260120A649B6
:10A330004870A5F1310009283BD2DFE800F00F0A90
:10A340000514191E262E3400684605F0D4F806467A
:10A350002FE0684605F0BCFB06462AE0684605F09B
:10A360001BFD064625E0684604F057FF064620E040
:10A37000684604F073FF06461BE04FF4806201213B
:10A380006846FFF7AEFF064613E04FF480620221F5
:10A390006846FFF7A6FF06460BE001216846FFF777
:10A3A0008CFF064605E002216846FFF786FF064659
:10A3B00000BF00BF00240DE000BF9248008800F0FD
:10A3C00040000028F9D01DF804008E49091D0880BE
:10A3D000601C84B2B442EFDB40207B49087001204E
:10A3E00048708648D0E90410774AC2E902100DF59A
:10A3F000006D70BD1CB50120734948707348183852
:10A40000C08A72491839097DCDE900106F481838A3
:10A41000C37C827C417C6EA012F07AFB7749D1E943
:10A420000401694AC2E902011CBD2DE9F041E2B014
:10A43000802142A812F069FD4FF4827101A812F048
:10A4400064FD40F201186048857D05EB850000EB56
:10A45000C5006D4901EB4010477900240CE005EB85
:10A46000850000EBC500684901EB4010801D005DD0
:10A47000304486B2601C84B205EB850000EBC50059
:10A48000614901EB40104079A042E8DC34460DE020
:10A4900005EB850000EBC5005B4901EB40100E3079
:10A4A000005DA11B42AA5054601C84B205EB8500DC
:10A4B00000EBC500544901EB4010801DC05D3044E5
:10A4C000A042E5DC05EB850000EBC5000A4602EB87
:10A4D0004010801DC15D434601AA42A803F045FC1F
:10A4E00001A94AA012F014FB0A200EF089FC1A21DF
:10A4F00044480FF06BFB4148D0E90410324AC2E9EE
:10A50000021062B0BDE8F08110B501202E494870FC
:10A5100044A012F0FDFA3948D0E904102A4AC2E9F1
:10A52000021010BD10B590B027488479082C00DBCC
:10A53000002404EB840000EBC402244800EB8201F9
:10A54000342203A812F0AFFC01201F494870BDF867
:10A5500016009DF81510CDE900109DF814309DF8F7
:10A5600013209DF8121032A012F0D2FA2348D0E93D
:10A570000410154AC2E9021010B010BD10B5012038
:10A580001149487035A012F0C3FA1C48D0E90410F4
:10A590000D4AC2E9021010BD10B501200A494870E9
:10A5A00032A012F0B5FA1548D0E90410064AC2E903
:10A5B000021010BD100000204C010020D42B002000
:10A5C000001002408402424268010020E0010020A5
:10A5D00041542B51494F50454E3D312C302C225483
:10A5E0004350222C2225752E25752E25752E257576
:10A5F000222C25752C302C320D0A000090010020F1
:10A600002B2B2B0000440040640D002041542B51A3
:10A610004953454E4445583D302C222573220D0A9E
:10A620000000000041542B43434C4B3F0D0A0000F7
:10A6300041542B51494F50454E3D312C302C225422
:10A640004350222C2225752E25752E25752E257515
:10A65000222C25752C302C310D0A000041542B5131
:10A66000494143543D310D0A0000000041542B5133
:10A670004944454143543D310D0A000010B50120C5
:10A68000F7494870F7A012F043FAFE48D0E90410E9
:10A69000F34AC2E9021010BD10B50120F04948701C
:10A6A000F9A012F035FAF748D0E90410EC4AC2E9F3
:10A6B000021010BD10B50120E9494870F6A012F053
:10A6C00027FAF048D0E90410E54AC2E9021010BDAB
:10A6D00010B50120E2494870F2A012F019FA10BD3D
:10A6E00010B50120DE494870F1A012F011FAE548DA
:10A6F000D0E90410DA4AC2E9021010BD10B50120F9
:10A70000D7494870EDA012F003FADE48D0E90410F2
:10A71000D34AC2E9021010BD10B50120D0494870DB
:10A72000E9A012F0F5F9D748D0E90410CC4AC2E903
:10A73000021010BD10B50120C9494870E5A012F003
:10A74000E7F9D048D0E90410C54AC2E9021010BDAB
:10A7500010B50120C2494870E0A012F0D9F9C948EB
:10A76000D0E90410BE4AC2E9021010BD10B50120A4
:10A77000BB494870DCA012F0CBF9C248D0E9041004
:10A78000B74AC2E9021010BD10B50120B4494870A3
:10A79000D7A012F0BDF9BB48D0E90410B04AC2E915
:10A7A000021010BD10B5AE4800780E285AD00ADC51
:10A7B0000E2872D2DFE800F0282B2E31343A3D40CB
:10A7C00043464A4D5053352859D00EDC322853D0D9
:10A7D00006DC202849D030284AD031285DD14CE011
:10A7E000332848D0342858D148E042282BD006DC02
:10A7F000362846D0372843D041284ED146E050284D
:10A8000048D0FF2849D10EE0FFF7BEFF46E0FFF732
:10A81000BBFF43E0FFF7AAFF40E0FFF799FF3DE0F1
:10A82000FFF788FF3AE0FFF777FF37E0FFF766FFB3
:10A8300034E0FFF755FF31E0FFF74AFF2EE0FFF766
:10A8400039FF2BE000BFFFF727FF27E0FFF716FFD8
:10A8500024E0FFF7A1FE21E0FFF790FE1EE0FFF7E6
:10A8600061FE1BE0FFF750FE18E0FFF7DEFD15E08C
:10A87000FFF7C0FD12E000BF00BF00BF00BF00BF78
:10A8800000BF77490878FFF747FD07E0FFF707FDAE
:10A8900004E002E0FFF7C9FC00E000BF00BF10BD0C
:10A8A00000206F4948700871322048717047F0B538
:10A8B00087B005460020059006908FA000680490A0
:10A8C0000026002407E004A8025D3046711CCEB2C9
:10A8D0002A54601CC4B2042CF5DB42F20F700090C5
:10A8E000864803890521426805A803F0C1F80024C1
:10A8F00007E005A8025D3146701CC6B26A54601CB0
:10A90000C4B2052CF5DB11223046711CCEB22A549C
:10A910005C4887797807070E5A4800790A2190FB2E
:10A92000F1F047EA0010C7B25648007990FBF1F207
:10A9300001FB12003843C7B25248407A5149097AA4
:10A94000CDE9010700914F48C3794279052105A857
:10A9500003F020F9002407E005A8025D3046711CD1
:10A96000CEB22A54601CC4B2052CF5DB45490978E7
:10A97000A1F5FA61C8B201F0C9FE3146721CD6B227
:10A98000685450223046711CCEB22A548022304680
:10A99000711CCEB22A5400223A48417A007A8DE8DE
:10A9A00007003848C3794279052105A803F0F2F879
:10A9B000002407E005A8025D3046711CCEB22A547F
:10A9C000601CC4B2052CF5DB1421E81C01F022FE4A
:10A9D00004463046711CCEB22C5416223046711CEF
:10A9E000CEB22A54304607B0F0BD7FB504460020F1
:10A9F0000290039042A0006801900026002507E025
:10AA000001A8425D3046711CCEB22254681CC5B20A
:10AA1000042DF5DB42F20F700090384803890521C0
:10AA2000426802A803F024F8002507E002A8425D6E
:10AA30003046711CCEB22254681CC5B2052DF5DB20
:10AA400002223046711CCEB22254F2223046711CD2
:10AA5000CEB222540821E01C01F0DCFD054651E095
:10AA60006801002041542B5149435347503D312C3C
:10AA7000312C22434D4E4554222C22222C22222CB2
:10AA8000300D0A009001002041542B5149434C4F96
:10AA900053453D300D0A000041542B434F50533F66
:10AAA0000D0A000041542B43475245473F0D0A0011
:10AAB00041542B435245473F0D0A000041542B435C
:10AAC00050494E3F0D0A000041542B43545A553D06
:10AAD000310D0A004154490D0A00000041542B4336
:10AAE00053510D0A00000000415445300D0A00008A
:10AAF00041540D0A00000000681468B0C80100202D
:10AB0000680868B03046711CCEB225541622304613
:10AB1000711CCEB22254304604B070BD7FB50446DD
:10AB2000002002900390AFF22800006801900026F8
:10AB3000002507E001A8425D3046711CCEB22254C8
:10AB4000681CC5B2042DF5DB42F20F700090F84886
:10AB500003890521426802A802F08AFF002507E068
:10AB600002A8425D3046711CCEB22254681CC5B2A8
:10AB7000052DF5DB02223046711CCEB22254F022A4
:10AB80003046711CCEB222540821E01C01F042FD77
:10AB900005463046711CCEB2255416223046711C33
:10ABA000CEB22254304604B070BD2DE9F043A1B0BE
:10ABB0000746802101A812F0A8F94FF00008DD48EF
:10ABC000857D0026B146DC4800783843DA490870B4
:10ABD0000120D8494870012F06D0022F09D0042F38
:10ABE0000CD0082F66D10EE001A8FFF797FF804632
:10ABF00063E001A8FFF7F9FE80465EE001A8FFF7D9
:10AC000056FE804659E005EB850000EBC500CB49B8
:10AC100001EB4010407905EB850101EBC501C74A06
:10AC200002EB41110979884201DB4FF00109B9F1CA
:10AC3000000F3ED105EB850000EBC500BF4901EBDD
:10AC40004010801D05EB850101EBC501BB4A02EBFD
:10AC50004111497910F8018000240CE005EB8500D2
:10AC600000EBC500B54901EB4010801D005D30448C
:10AC700086B2601C84B205EB850000EBC500AF49CD
:10AC800001EB40104079A042E8DC34460DE005EBD2
:10AC9000850000EBC500A94901EB40100E30005DB6
:10ACA000A11B01AA5054601C84B206EB0800A0420C
:10ACB000EDDC02E04FF0010900BF00BFB9F1010F68
:10ACC00002D121B0BDE8F08364200EF099F8002491
:10ACD0000DE000BF9A48008800F040000028F9D03D
:10ACE00001A8005D9649091D0880601C84B2444596
:10ACF000EFDB51208F490870012048709148D0E95E
:10AD000004108C4AC2E9021000BFDAE73EB5894858
:10AD1000847D8DA207CA8DE807000C258548407CFC
:10AD200048B9092083490870012182484174C174DF
:10AD3000FFF7B6FD3FE17F48407C01287DD17D488B
:10AD4000407820B9FFF7ACFDFFF72CFD33E17948DF
:10AD50004078022861D177488078012842D175482F
:10AD60000078092811D17348C07C012807D15020F0
:10AD70007049087000204870FFF714FD1BE10221A4
:10AD80006C4841740121817415E16A4800785028AB
:10AD900019D1012104EB840000EBC402644818308F
:10ADA00000EB82000171002104EB840000EBC4027F
:10ADB0005F48183000EB8200018651205D49087021
:10ADC00001204870F7E05B4800784128B2D10920A3
:10ADD00058490870FFF764FD02215648C174FFF717
:10ADE000E1FCE8E0534880780028A3D1514800797D
:10ADF00006280CDC4F48C078002802DCFFF7D2FCA4
:10AE0000D9E04C48C078401E4A49C870D3E00221BE
:10AE10004848417400218174CDE0464840780128BB
:10AE200088D144480078502842D14648D0E90420CF
:10AE3000404BD3E90213511A00E0B3E060EB03008A
:10AE40000A3970F1000099D3022104EB840000EB71
:10AE5000C4023748183000EB8200017104EB840013
:10AE600000EBC4013248183000EB8100008E052849
:10AE700013DA04EB840000EBC4012D48183000EB1A
:10AE80008100008E401C81B204EB840000EBC40200
:10AE90002748183000EB82000186092025490870F8
:10AEA000FFF7FEFC02212348C174FFF77BFC82E020
:10AEB0002048007851284DD12248D0E904301D4A5D
:10AEC000D2E90212591A60EB0200C91E70F10000AB
:10AED00019D31948007800F0010018B90120FFF7D4
:10AEE00064FE10E01448007800F0040018B9042053
:10AEF000FFF75BFE07E01048007800F0080010B98B
:10AF00000820FFF752FE0F48D0E90410094AD2E9A1
:10AF10000232C91A60EB0200491F70F100004AD3E7
:10AF2000412004490870FFF7BBFCFFF73BFC42E0FF
:10AF3000C80100206801002083000020640D00206B
:10AF4000004400409001002068686868686868688C
:10AF500068686868FE48007841282CD1FD48D0E92F
:10AF60000410FB4BD3E90223891A60EB0300C91ECE
:10AF700070F100001FD3F6480079022807DCFFF7C4
:10AF800011FCF3480079401CF149087113E00920D5
:10AF9000EF490870FFF784FC0221ED48C174FFF708
:10AFA00001FC08E0EA48407C022804D1E848807CA3
:10AFB000012800D000BF3EBD08B5E548407C48B937
:10AFC0000920E34908700121E1484174C174FFF789
:10AFD00067FCE9E0DE48407C012873D1DC4840781A
:10AFE00020B9FFF75DFCFFF7DDFBDDE0D8484078D6
:10AFF00002286FD1D648807801284ED1D4480078F5
:10B00000092825D1D248C07C01280DD1D148D0E9EA
:10B010000410D14AC2E900103020CD490870002048
:10B020004870FFF7BFFBBFE00221C948417401210E
:10B030008174CA480078012803D0C94800780128E3
:10B04000C7D140208DF80000009807F00CFAABE063
:10B05000BF480078302811D1BD48C078002807DCEF
:10B060003120BB490870FFF71BFCFFF79BFB9BE0FF
:10B07000B748C078401EB649C87095E0B44800781B
:10B080004128A6D10920B2490870FFF709FC022126
:10B09000AF48C174FFF786FB86E0AD488078002892
:10B0A00097D1AB48007906280EDCA948C078002863
:10B0B00002DCFFF777FB77E0A548C078401EA44983
:10B0C000C87071E067E005E00221A14841740021E9
:10B0D000817469E09E484078012865D19C480078D9
:10B0E000302817D19B48D0E90430994AD2E902129E
:10B0F000591A60EB0200143970F1000054D3092092
:10B1000093490870FFF7CCFB02219148C174FFF707
:10B1100049FB49E08E480078402814D18D48D0E999
:10B1200004108B4AD2E90232CB1A60EB02005A1F9C
:10B1300070F1000038D3412085490870FFF7B0FB5B
:10B14000FFF730FB30E08248007841282CD181485D
:10B15000D0E904107E4BD3E90223891A60EB030087
:10B16000C91E70F100001FD379480079022807DC5E
:10B17000FFF718FB76480079401C7549087113E009
:10B18000092073490870FFF78BFB02217048C174D6
:10B19000FFF708FB08E06E48407C022804D16C48A9
:10B1A000807C012800D000BF08BD10B5022168488E
:10B1B000C17409206649087000204870FFF7F2FA50
:10B1C00010BD70B56248847D407C80B9092060491B
:10B1D000087001215E484174FFF762FB0A205C4958
:10B1E000487101215A48C174FFF7DCFAA4E15848BC
:10B1F000407C01287DD15648407838B9FFF750FB94
:10B200000A2053494871FFF7CDFA95E1504840783C
:10B2100002286FD14E48807801286CD14C480078C4
:10B22000092811D14A48C07C012807D10D2048497E
:10B23000087000204870FFF7B5FA7DE1022144480C
:10B2400041740121817477E1414800780D2828D1AB
:10B2500001213F48807D00EB800202EBC0024148A3
:10B2600000EB82000171002104EB840000EBC402BA
:10B270003C4800EB820001863B48007848B104EB73
:10B28000840101EBC401394A02EB411021460DF063
:10B290004EFC20202E49087000204870FFF782FAEB
:10B2A0004AE12B48007820280BD12A48D0E9041025
:10B2B000274AC2E902102120114608700120487077
:10B2C0003AE123480078212890D104EB840000EB78
:10B2D000C400264901EB40104079401C04EB840176
:10B2E00001EBC401214A02EB4111487104EB8400D7
:10B2F00002E018E16AE019E000EBC400114601EB3E
:10B300004010407904EB840101EBC40102EB4111D0
:10B310000979884202DBFFF748FF0DE120200C4944
:10B32000087000204870FFF73DFA05E10848807872
:10B33000002888D1064840790549097988421DDBF3
:10B340000348C078002813DCFFF72CFAF4E0000073
:10B350006801002090010020080000200300002068
:10B3600084000020E001002001000020640D002086
:10B37000F748C078401EF649C870DDE0FFF715FFBA
:10B38000022104EB840000EBC402F24800EB8200CF
:10B39000017104EB840000EBC401EE4800EB810076
:10B3A000008E05288CDA04EB840000EBC401E94828
:10B3B00000EB8100008E401C81B204EB840000EBA6
:10B3C000C402E44800EB82000186B5E0E048407822
:10B3D0000128A2D1DE4800780D2835D1DE48D0E919
:10B3E0000430DB4AD2E902125B1A60EB020014223D
:10B3F0009A1A70F1000026D3FFF7D7FE022104EB62
:10B40000840000EBC402D34800EB8200017104EB1E
:10B41000840000EBC401CF4800EB8100008E0528BA
:10B4200011DA04EB840000EBC401CA4800EB810090
:10B43000008E401C81B204EB840000EBC402C548BE
:10B4400000EB8200018677E0C1480078212873D1A3
:10B4500004EB840000EBC401BE4800EB810040789F
:10B46000012826D1BC48D0E90410B94AD2E90232F9
:10B47000CB1A60EB02000A229A1A70F100005BD32B
:10B4800004EB840101EBC401B44A02EB4110042235
:10B49000032102F03CFB0546002D07DD2020AC49CE
:10B4A000087000204870FFF77DF945E0FFF77DFE4A
:10B4B00042E0A948D0E90410A54BD3E902268B1A33
:10B4C00060EB06005A1E70F1000035D304EB8400D7
:10B4D00000EBC400A14901EB40104079401C04EB93
:10B4E000840101EBC4019D4A02EB4111487104EB58
:10B4F000840000EBC400114601EB4010407904EBDE
:10B50000840101EBC40102EB41110979884202DB9D
:10B51000FFF74BFE10E020208D4908700020487096
:10B52000FFF740F908E08A48407C022804D18848A7
:10B53000807C012800D000BF70BD10B58448407CDD
:10B5400050B90E2082490870FFF7AAF9FFF72AF9CF
:10B5500001217F4841745BE07D48407C01284ED149
:10B560007B48407820B9FFF79BF9FFF71BF94FE0C4
:10B5700077484078022826D175488078012805D17F
:10B580000221734841740121817441E07048807840
:10B5900000283DD16E4840796D49097988420CDB1D
:10B5A0006B48C078002802DCFFF7FCF830E0684800
:10B5B000C078401E6649C8702AE002216448417480
:10B5C0000021817424E062484078012820D162483B
:10B5D000D0E904105E4AD2E90232C91A60EB0200D7
:10B5E0000A3970F1000013D3022159484174002137
:10B5F00081740220564948700020887008E0544841
:10B60000407C022804D15248807C012800D000BF31
:10B6100010BD10B54E48407C50B903204C4908700D
:10B62000FFF73EF9FFF7BEF801214948417459E0A0
:10B630004748407C01284CD14548407820B9FFF765
:10B640002FF9FFF7AFF84DE041484078022823D1A9
:10B650003F488078012805D102213D4841740121ED
:10B6600081743FE03A48807890BB394800790528DA
:10B670000CDC3748C078002802DCFFF793F831E093
:10B680003348C078401E3249C8702BE00221304850
:10B6900041740021817425E02D484078012821D192
:10B6A0002D48D0E904302A49D1E902219B1A60EBE8
:10B6B00001000A229A1A70F1000013D302212448D3
:10B6C0004174002181740220214948700020887053
:10B6D00008E01F48407C022804D11D48807C0128D6
:10B6E00000D000BF10BD02201949487000208870AA
:10B6F00008460079401C087108464079097988425B
:10B7000013DB134800790A2803DC01201049C870B4
:10B710000EE00F480079322803DC05200C49C87080
:10B7200006E064200A49C87002E000200849C87099
:10B73000704710B50648407C90B901200449087054
:10B74000FFF7AEF8FFF72EF801210148417492E0AF
:10B7500068010020E001002090010020640D00201D
:10B76000F648407C01286AD1F448407820B9FFF7B8
:10B7700097F8FFF717F87EE0F0484078022838D1B4
:10B78000EE488078012817D1EC4800780C2809D1C0
:10B790000120EA4981F820000221E8484174012192
:10B7A000817468E0E5480078401CE4490870FFF7C0
:10B7B00077F8FEF7F7FF5EE0E048807800285AD17E
:10B7C000DE484079DD49097988420CDBDB48C078E6
:10B7D000002802DCFEF7E6FF4DE0D848C078401EA6
:10B7E000D649C87047E00221D448417400218174D1
:10B7F00041E0D248407801283DD1D148D0E9042029
:10B80000CE49D1E90231D31A60EB01000A229A1A1B
:10B8100070F100002FD3C94800790A2804DCFFF733
:10B8200062FFFEF7BFFF26E00221C44841740021F9
:10B8300081740220C1494870002088701BE0BF4815
:10B84000407C022817D1BD48807C012813D0BB481A
:10B85000807C80B9B94890F82100012809DC00F00B
:10B8600069F8B64890F82100401CB44981F82100DD
:10B8700001E000F03CF810BD08B5B048407C18B1BC
:10B88000AE48407C022813D1684606F00DFE012820
:10B890000ED19DF80000A94908740021A748417401
:10B8A0009DF80100A54988719DF80110A348817594
:10B8B000A248007C072817D2DFE800F01604070A28
:10B8C0000D101300FFF735FF0FE0FFF7A2FE0CE0AD
:10B8D000FFF733FE09E0FFF774FC06E0FFF76CFBAF
:10B8E00003E0FFF713FA00E000BF00BF08BD10B58A
:10B8F000012092490874002190484174017501218A
:10B9000081740021C17401208C49087000204870A6
:10B91000087132204871012088700020C87081F8B9
:10B92000220081F8230081F8200081F82100FFF730
:10B93000A3FF10BD10B501208249086032200DF030
:10B940005FFA00208049C1F884020A200DF058FAFD
:10B950007A4890F82100401CC4B206F0E6FDFFF7DB
:10B96000C6FF764880F8214010BD08B512208DF83A
:10B970000000009806F077FD08BD02206F4948706E
:10B9800001208870002008710120C870704710B530
:10B990006EA16F4811F030FA044614B9FFF7A3FE08
:10B9A00001E0FFF7EAFFFEF70BFCFFF765FF10BDB4
:10B9B0002DE9F047002600270025A94665A1644827
:10B9C00011F01AFA8046B8F1000F02D1FFF78BFE92
:10B9D00038E0FFF7D2FF00242AE05D48005D302800
:10B9E0001ADB5B48005D392816DC4FF0010945B9C8
:10B9F0005748005D303806EB860100EB4100C6B2C7
:10BA000014E0012D12D15248005D303807EB870158
:10BA100000EB4100C7B209E0B9F1000F01D0681C8A
:10BA2000C5B2012D00DD07E04FF00009601CC4B273
:10BA30004A4800888442D0DB00BF404880F822603A
:10BA400080F82370FEF7BCFBFFF716FFBDE8F08718
:10BA500010B543A13E4811F0CFF9044614B9FFF7E1
:10BA600042FE01E0FFF789FFFEF7AAFBFFF704FFA4
:10BA700010BD70B53EA1364811F0BEF904463FA195
:10BA8000334811F0B9F905461CB915B9FFF72BFE7B
:10BA900001E0FFF772FFFEF793FBFFF7EDFE70BDCD
:10BAA00070B539A12A4811F0A7F9044639A12848F0
:10BAB00011F0A2F905461CB915B9FFF714FE01E013
:10BAC000FFF75BFFFEF77CFBFFF7D6FE70BD10B5FE
:10BAD0001EA11F4811F090F9044614B9FFF703FEA8
:10BAE00001E0FFF74AFFFEF76BFBFFF7C5FE10BD55
:10BAF00010B516A1164811F07FF9044614B9FFF7E6
:10BB0000F2FD01E0FFF739FFFEF75AFBFFF7B4FE45
:10BB100010BD10B50DA10E4811F06EF9044614B910
:10BB2000FFF7E1FD05E00120044981F82000FFF75F
:10BB300024FFFEF745FBFFF79FFE10BD68010020C4
:10BB40009001002084024242000042424F4B00001C
:10BB5000D42B00202B4353513A0000004C0100200D
:10BB60002B4350494E3A20524541445900000000B1
:10BB70002B435245473A20302C3100002B4352458D
:10BB8000473A20302C3500002B43475245473A2096
:10BB9000302C31002B43475245473A20302C35009A
:10BBA00010B5FFF7EAFEFEF70BFBFFF765FE10BDD1
:10BBB0002DE9F04F93B000201190002500260027BA
:10BBC000804681468246834600241090F5A1F748BE
:10BBD00011F012F91290129830B91120F44981F83D
:10BBE0003000FFF780FDE0E01020F14981F83000DF
:10BBF000FFF7C3FE00246FE01198A0B9EB48005D89
:10BC0000302867DBE948005D392863DC01201190AA
:10BC100001251090E548005D303806EB860100EB09
:10BC20004100C6B256E0E148005D302849DBDF48FC
:10BC3000005D392845DC01201090072D3FD2DFE858
:10BC400005F03E040D16202A3400D848005D303837
:10BC500006EB860100EB4100C6B231E0D348005D3F
:10BC6000303807EB870100EB4100C7B228E0CF482E
:10BC7000005D303808EB880100EB410000F0FF0860
:10BC80001EE0CA48005D303809EB890100EB410035
:10BC900000F0FF0914E0C548005D30380AEB8A0166
:10BCA00000EB410000F0FF0A0AE0C048005D3038B8
:10BCB0000BEB8B0100EB410000F0FF0B00E000BF3D
:10BCC00008E0109830B1681CC5B2062D00DD07E011
:10BCD00000201090601CC4B2B648008884428BDB00
:10BCE00000BF02968DF80C708DF80D808DF80F90C6
:10BCF0008DF810A08DF811B002A800F070FD0120A1
:10BD000010F0EFF89DF80F008DF800009DF810007E
:10BD10008DF801009DF811008DF802009DF80F00CC
:10BD20000C2801DB402000E000208DF8030069466C
:10BD300000200FF079FB01A900200FF079FC9DF89D
:10BD400007000299884219D19DF805009DF80C1052
:10BD5000884201D0012000E000209DF806109DF8E7
:10BD60000D20914201D0012100E00021084328B9B3
:10BD70009DF804009DF80E10884213D00298C0B2BE
:10BD80008DF807009DF80C008DF805009DF80D005A
:10BD90008DF806009DF80E008DF8040001A9002022
:10BDA0000FF0E0FB002010F09CF8FEF709FAFFF717
:10BDB00063FD13B0BDE8F08F10B57FA17B4811F093
:10BDC0001BF804465CB980A1784811F015F80446C8
:10BDD00014B9FFF788FC0DE0FFF7CFFD0AE07CA166
:10BDE000724811F009F8044614B9FFF7C6FD01E0E6
:10BDF000FFF779FCFEF7E4F9FFF73EFD10BD10B543
:10BE0000AFF2B821694810F0F7FF04468CB970A171
:10BE1000664810F0F1FF044614B9FFF764FC0AE02D
:10BE200009206D490870FEF73BFD02216A48C17484
:10BE300001E0FFF7A2FDFEF7C3F9FFF71DFD10BDFE
:10BE4000F0B5ADF2044D002400254FF4806101A847
:10BE500011F05BF8002661A1544810F0CDFF0746B1
:10BE6000FFF78BFDFEF7ACF90DF2044DF0BDF8B510
:10BE70005CA000680090002600275B48007870B343
:10BE8000FF224C480188494800F016FC04461CB9C2
:10BE90003720FEF741FA63E04448007800EB4001A8
:10BEA000C1EB802543480088C01E82B201233F4970
:10BEB000284605F0C7FD4D480078401C4B490870E6
:10BEC0003620FEF729FA494800784949097888421E
:10BED00046DB04226946474805F0D7FD40E0FFE70E
:10BEE000002234480188314800F0E6FB04461CB9C2
:10BEF0003520FEF711FA33E0012C03D13120FEF793
:10BF00000BFA2DE0022C0FD10221284803F04EF944
:10BF10003948007820B1394A39493A480CF00BFACF
:10BF20003420FEF7F9F91BE0032C11D101202E4932
:10BF300008701E48C0782E49087000202B490870F0
:10BF40003149087005F055FD3620FEF7E5F907E0A8
:10BF5000042C05D101202D4908703820FEF7DCF9AA
:10BF60000CB1FE2C13D12AA1104810F045FF064653
:10BF700017A10E4810F040FF074606B93FB109204F
:10BF800015490870FEF78CFC02211348C174FE2C81
:10BF900005D00748D0E904100F4AC2E90210FEF7A5
:10BFA0000FF9F8BD2B43434C4B3A0000D42B002033
:10BFB000900100204C0100202B51494F50454E3A32
:10BFC00020302C3000000000434F4E4E45435400BB
:10BFD000636C6F7365640000680100202B51495544
:10BFE000524300004A530301030000208100002057
:10BFF0008000002000FF070801000020B80A002090
:10C00000C80100208003002082000020840000205E
:10C010004E4F2043415252494552000010B5FFF7A0
:10C02000ACFCFEF7CDF810BD01460020F74A525C8B
:10C03000682A23D1F54B01F109029A5C022A0ED13C
:10C0400001F10A029A5CF02A01D1012016E0EF4BBF
:10C0500001F10A029A5CF22A10D102200EE0EB4BA9
:10C0600001F109029A5C112A01D1042006E0E74B94
:10C0700001F109029A5CC02A00D1082070472DE91D
:10C08000F05F0026002700244FF00109A246E04897
:10C09000857DA346DF4800880A2803DCFEF790F878
:10C0A000BDE8F09FD948007868283BD1D94800887E
:10C0B000172805DDD548407800F1050A4FF0020940
:10C0C00000242DE004FB0AF188B2FFF7ADFF07461C
:10C0D000082F22D105EB850000EBC500CE4901EB0E
:10C0E00040104079401C05EB850101EBC501CA4AAF
:10C0F00002EB4111487105EB850000EBC5001146CC
:10C1000001EB4010407905EB850101EBC50102EB25
:10C1100041110979884200DB00273E43601CC4B20C
:10C120004C45CFDBAFF25811B84810F065FE8046A1
:10C13000AFF22411B54810F05FFE8346B8F1000F4E
:10C1400002D1BBF1000F1CD0002005EB850101EBF3
:10C15000C501B14A02EB41114871B048007840B1C5
:10C1600005EB850101EBC50102EB411029460CF0FE
:10C170005CFD0920A6490870FEF792FB0221A44845
:10C18000C174FEF71DF8012407E006EA040010B1AF
:10C190002046FEF70AFD6006040E102CF5DB00BFFA
:10C1A0007EE770B59A48847D0026AFF2E411974887
:10C1B00010F022FE054615B9FFF795FA3FE0AFF201
:10C1C000F011924810F018FE0546ADBB9348007878
:10C1D00048B104EB840101EBC4018F4A02EB41102A
:10C1E00021460CF0A4FC8B480088401E8749085C5F
:10C1F000162800D10126002089490870012104EB8E
:10C20000840000EBC402874800EB8200017100212A
:10C2100004EB840000EBC402824800EB820001863C
:10C2200051207B490870012048707F48D0E90410F4
:10C23000774AC2E9021002E0FFE7FFF754FAFDF780
:10C24000BFFF16B10120FEF7B0FCFFF715FB70BD74
:10C2500010B56F480078202854D00BDC0F2868D226
:10C26000DFE800F067292F2C31373A3D3233404365
:10C2700046494D0035284AD00EDC322844D006DC31
:10C28000212847D0302837D0312852D13DE03328FB
:10C2900039D034284DD139E0502844D006DC40282C
:10C2A0003BD041283CD0422843D10FE051283DD01B
:10C2B000FF283ED106E0FFF76AFB3BE0FFF778FB83
:10C2C00038E000BF00BF00BF00BF00BFFFF768FC41
:10C2D00030E0FFF7BDFB2DE0FFF7CBFB2AE0FFF7D7
:10C2E000DFFB27E0FFF7F3FB24E0FFF701FC21E091
:10C2F000FFF70FFC1EE000BFFFF75EFD1AE0FFF73F
:10C3000057FC17E000BF00BF00BF00BF00BFFFF732
:10C3100076FD0FE0FFF794FD0CE0FFF7A8FD09E0C4
:10C32000FFF77CFE06E0FFF73CFF03E0FFF7A7FE08
:10C3300000E000BF00BF10BD70B50446FF253BA064
:10C3400010F0E6FB64200CF05BFD21463BA010F0F2
:10C35000DFFB64200CF054FD1A2139480DF036FC47
:10C3600000BF402136480DF0E1FC0028F9D06420E0
:10C370000CF046FD33A1254810F03EFD334908601E
:10C3800008E030A1214810F037FD304908600A204C
:10C390000CF036FD2D4800680028F2D064200CF027
:10C3A0002FFDFDF70DFF2AA010F0B2FBC8200CF006
:10C3B00027FD2BA1154810F01FFD244908601FE040
:10C3C00023A010F0A5FBC8200CF01AFD24A10F48F3
:10C3D00010F012FD1D49086024A11C48006810F0EF
:10C3E0000BFD1A49086021A118480068401C10F094
:10C3F00003FD164908600846006840783038C5B229
:10C40000002DDDD1FDF7DCFE70BD0000D42B002037
:10C41000680100204C010020640D00200100002074
:10C4200083000020E00100209001002041542B51A6
:10C430004953454E443D300D0A000000257300006D
:10C440000044004053454E44204F4B0074000020F0
:10C4500041542B514953454E443D302C300D0A0078
:10C460002B514953454E443A000000002C00000077
:10C4700070B50446FF251D20474981F82300084672
:10C4800090F82000012800D070BD44A010F040FBBF
:10C490004FF4FA700CF0B4FC21464D4810F038FB14
:10C4A0000A200CF0ADFC1A214A480DF08FFB6420E5
:10C4B0000CF0A6FC484810F02BFB0A200CF0A0FC66
:10C4C000FDF77EFE00BFDFE730B5C1B00020409031
:10C4D0004FF48071684610F018FD0024002512E02A
:10C4E0003E48025D3EA140A810F01EFB9DF80021D1
:10C4F00028466D1C0DF800209DF8012128466D1C72
:10C500000DF80020641C322CEADB00200DF8050039
:10C510006846FFF7ADFFFDF753FE41B030BD2DE992
:10C52000F041ADF5027D06460F464FF4007102A8BA
:10C5300010F0EBFC00200190002400254FF0FF08D4
:10C5400000BF10E0325D26A101A810F0EDFA9DF8C1
:10C55000042028466D1C02A90A549DF8052028468F
:10C560006D1C0A54641CBC42ECD3002002A948553F
:10C57000174810F0CDFA0A200CF042FC1A21154899
:10C580000DF024FB0A200CF03BFCFDF719FE0DF525
:10C59000027DBDE8F08100006801002041542B516C
:10C5A000494F50454E3D312C302C22544350222CC3
:10C5B000223131352E3233362E3135332E3137306C
:10C5C000222C34383530302C302C310D0A0000004C
:10C5D0000CA600080044004088AA0008D42B0020C4
:10C5E000253032780000000070B505460C4645F253
:10C5F00055500EF04DFA28460EF04DFA20460EF03A
:10C600004DFA0EF04EFA0EF051FA70BD10B50EF064
:10C6100048FA10BD30B502460B460020002112E05A
:10C62000555C684008240BE000F0800525B1450604
:10C63000280E80F0E50001E04506280E651EECB2EC
:10C64000002CF1DC491C9942EAD330BD70B502469A
:10C650000B464FF6FF70002110E0565C704000243E
:10C6600008E000F00105401015B14AF201067040E3
:10C67000661CB4B2082CF4DB4E1CB1B29942ECDB60
:10C6800070BD30B502460B464FF0FF310FE012F897
:10C69000010B4140002408E001F001004042FA4D46
:10C6A000284080EA5101601CC4B2082CF4DB581EFB
:10C6B000031EECDAC84330BDF0B504460D461746FC
:10C6C000052D01D20020F0BDFF2F07D020784A2889
:10C6D00002D16078532801D0FE20F4E7A81E81B271
:10C6E0002046FFF7B3FF0646F1B2A81E205C814248
:10C6F00004D1681E205CB0EB162F01D00020E2E7C9
:10C70000FF2F01D0A078DEE70120DCE70146002200
:10C7100004E0501CC2B2A1F10A00C1B20A29F8DA41
:10C72000100741EA1060704730B501460020012231
:10C73000012313E0022B03DB4FF6FF7404EA02121D
:10C740000A2491FBF4F504FB151404FB0204A0B2C7
:10C750000A2491FBF4F4A1B25C1CA3B20029E9DC29
:10C7600030BD10B501460020012201230AE0022B52
:10C7700002D302EB8204620001F00F0404FB02000A
:10C7800009095B1C0029F2D110BD70B503460020D9
:10C79000012901D0022903D101F10C04E1B25B1E91
:10C7A0004C1C04EB4404052594FBF5F5541C0226AF
:10C7B00006FB01442C441C4404EB93046425B3FBA6
:10C7C000F5F5641B4FF4C875B3FBF5F52C4407254C
:10C7D000B4FBF5F605FB164000B9072070BD30B577
:10C7E000044600252079012811D0207903280ED095
:10C7F000207905280BD02079072808D0207908282F
:10C8000005D020790A2802D020790C2801D11F25D3
:10C8100026E02079042808D02079062805D0207940
:10C82000092802D020790B2801D11E2518E0207993
:10C83000022815D14FF4C8712068B0FBF1F201FB5A
:10C84000120050B1207800F0030040B96421206844
:10C85000B0FBF1F201FB120008B11D2500E01C2520
:10C86000E0790830E071E079182813DBE0791838B6
:10C87000E0716079401C60716079A8420ADD012096
:10C8800060712079401C207120790C2802DD20681D
:10C89000401C2060627921792068FFF776FFA07143
:10C8A00030BD4FF4165181600021818041800180AC
:10C8B0007047012101709FED750B80ED020B9FED1C
:10C8C000750B80ED040B9FED710B80ED160B9FED4A
:10C8D0006F0B80ED0A0B9FED6D0B80ED100B9FED44
:10C8E0006B0B80ED180B9FED6D0B80ED0C0B42F286
:10C8F000107101879FED6B0B80ED060B9FED6B0BAD
:10C9000080ED120B9FED610B80ED080B9FED5F0B2F
:10C9100080ED140B0A2180F8681070479FED5B0BC7
:10C9200080ED000B9FED590B80ED040B9FED570B35
:10C9300080ED020B9FED550B80ED060B9FED530B29
:10C9400080ED080B9FED510B80ED0A0B9FED4F0B17
:10C9500080ED0C0B704700B502460120107050703E
:10C9600000201071012090700020D0700120107202
:10C9700002F18800FFF7D2FF02F11800FFF799FFDC
:10C9800002F1C000FFF78DFF00BD024690688B6882
:10C9900098420DD190888B88984209D150884B8855
:10C9A000984205D110880B88984201D10120704728
:10C9B0000020FCE710B503460020187000240BE0AF
:10C9C00004EB840101EBC40203F1080101EB021046
:10C9D000FFF7C1FF601CC4B2062CF1DB10BD0FB421
:10C9E0002DED020B30B52DED108B8FB0B0EE40CA9F
:10C9F000F0EE60CA419D409C9DED281BB0EE410ABF
:10CA0000F0EE610A9FED211B53EC112B51EC100B42
:10CA100013F030FC30D09DED341BB0EE410AF0EE47
:10CA2000610A9FED1A1B53EC112B51EC100B13F004
:10CA300021FC21D09DED2C2BB0EE420AF0EE620AD3
:10CA40009DED2E2BB0EE421AF0EE621A53EC102B35
:10CA500051EC110B13F00EFC2CD19DED2E1BB0EE02
:10CA6000410AF0EE610A9FED091B53EC112B51ECCA
:10CA7000100B13F0FFFB1DD101200FB0BDEC108B8C
:10CA800030BC5DF81CFB00002083B8ED0000000006
:10CA9000000000000AD7A3703D0A973F0000000085
:10CAA000000024402D431CEBE2361A3F000000003A
:10CAB0000000E03F9DED261BB0EE410AF0EE610A5A
:10CAC0001FED0E1B53EC112B51EC100B13F096FCC9
:10CAD00003D21FED120B8DED260B9DED301BB0EE3A
:10CAE000410AF0EE610A53EC1C2B51EC100B13F0D1
:10CAF000CDFE41EC190B9DED261BB0EE410AF0EE88
:10CB0000610A53EC102B51EC190B13F077FC0CD38A
:10CB10009DED341BB0EE410AF0EE610A53EC102B90
:10CB200051EC190B13F0A4FD06D202200FB0BDEC9E
:10CB3000108B30BC5DF81CFB9DED261BB0EE410A4E
:10CB4000F0EE610A53EC102B51EC190B13F09EFE22
:10CB500041EC1B0B9DED2C2BB0EE420AF0EE620A6D
:10CB60009DED2E2BB0EE421AF0EE621A53EC102B14
:10CB700051EC110B13F07EFB10D19DED2C0BB0EEA0
:10CB800040AAF0EE60AA9DED2E0BB0EE408AF0EECA
:10CB9000608AB0EE4BFAF0EE6BFAC9E09DED2C2BFB
:10CBA000B0EE420AF0EE620A9DED2E2BB0EE421A74
:10CBB000F0EE621A53EC102B51EC110B13F066FEE1
:10CBC000CDE908019DED341BB0EE410AF0EE610A9B
:10CBD00053EC102B9DED081B51EC110B13F0F2F9E7
:10CBE000CDE90A019DED261BB0EE410AF0EE610A87
:10CBF00053EC102B9DED0A1B51EC110B13F03AFC7A
:10CC0000CDE908019DED2E1BB0EE410AF0EE610A60
:10CC100053EC102B9DED081B51EC110B13F05EFD36
:10CC200041EC180B53EC192B9DED0A0B51EC100B3A
:10CC300013F020FCCDE908019DED2E1BB0EE410A5A
:10CC4000F0EE610A53EC102B9DED081B51EC110B1B
:10CC500013F044FD41EC1A0B9DED342BB0EE420A6B
:10CC6000F0EE620A9DED342BB0EE421AF0EE621A3D
:10CC700053EC102B51EC110B13F0FCFB53EC1A2B63
:10CC8000CDE9080151EC180B13F000FE53EC1A2B00
:10CC9000CDE9020151EC180B13F0F8FDCDE90001CC
:10CCA0009DED020B53EC102B9DED000B51EC100B86
:10CCB00013F0E0FB9FEDFE0B53EC102BCDE90401CC
:10CCC0009DED040B51EC100B13F07CF9CDE906013E
:10CCD0009DED080B53EC102B9DED060B51EC100B4A
:10CCE00013F0B4F841EC1D0B1FED901BB0EE4D0A94
:10CCF000F0EE6D0A11F054FB8DED060B53EC1B2B7F
:10CD00009DED060B51EC100B13F0B4FBCDE90801BF
:10CD10009DED341BB0EE410AF0EE610A53EC102B8E
:10CD20009DED081B51EC110B13F04CF941EC1F0B5E
:10CD300053EC1A2B51EC180B13F088F853EC1B2B07
:10CD4000CDE906019DED060B51EC100B13F092FBA3
:10CD50009FEDD90B53EC102BCDE908019DED080B8D
:10CD600051EC100B13F02EF941EC1E0B9FEDD20B82
:10CD700053EC102B51EC1F0B13F07CFB53EC182BD6
:10CD8000CDE906019DED060B51EC100B13F05EF89A
:10CD9000CDE908019DED080B53EC102B51EC1E0B57
:10CDA00013F010F941EC1D0B9FEDC51BB0EE4D0AC1
:10CDB000F0EE6D0A11F0F4FA8DED080B9DED281BD5
:10CDC000B0EE410AF0EE610A53EC102B9FEDBE1B52
:10CDD00051EC110B13F0F6F8CDE906019DED080BAF
:10CDE00053EC102B9DED060B51EC100B13F042FB96
:10CDF000CDE90C019DED2A1BB0EE410AF0EE610A6F
:10CE000053EC102B51EC1D0B13F034FB1FEDD91B11
:10CE1000CDE906019DED060B11F0C2FA8DED080B70
:10CE20009DED0C0B53EC102B9DED080B51EC100BF2
:10CE300013F020FBC4E9000194ED001BB0EE410AA1
:10CE4000F0EE610A53EC1E2B51EC100B13F012FBA9
:10CE5000C5E90001002069E60FB42DED020B30B5E5
:10CE60002DED108B97B0499D489C9DED301BB0EE89
:10CE7000410AF0EE610A1FEDFB1B53EC112B51EC44
:10CE8000100B13F0F7F906D1012017B0BDEC108B91
:10CE900030BC5DF81CFB9DED3E0BB0EE408AF0EE21
:10CEA000608A9DED3C0B8DED0C0B9DED2E1BB0EEC5
:10CEB000410AF0EE610A9FED861B53EC112B51ECF9
:10CEC000100B13F09BFA03D29FED810B8DED2E0B0F
:10CED0009DED381BB0EE410AF0EE610A9DED2A1B74
:10CEE00053EC112B51EC100B13F0D0FC41EC190B4F
:10CEF0009DED2E1BB0EE410AF0EE610A53EC102BB3
:10CF000051EC190B13F07AFA0FD39DED0C0B53EC87
:10CF1000102B51EC190B13F0ABFB06D353EC182B71
:10CF200051EC190B13F0A4FB01D20220ADE79DEDEB
:10CF30003E1BB0EE410AF0EE610A9FED651B53EC1B
:10CF4000112B51EC100B13F059FA01D803209CE778
:10CF500053EC192B51EC180B13F098FC41EC1A0B05
:10CF600053EC1A2B51EC1A0B13F084FA53EC182BD8
:10CF7000CDE9020151EC180B13F07CFACDE9000168
:10CF80009DED020B53EC102B9DED000B51EC100BA3
:10CF900013F07CFC9FED501BCDE904019DED040BCB
:10CFA00011F0FEF98DED060B9FED430B53EC102BAA
:10CFB0009DED060B51EC100B13F05CFACDE90E0160
:10CFC00053EC182B51EC1A0B12F0FCFFCDE90401C5
:10CFD0009DED040B10F0D4FF8DED060B9FED360B8D
:10CFE00053EC102B9DED060B51EC100B13F042FA95
:10CFF000CDE910019DED3E1BB0EE410AF0EE610A55
:10D0000053EC102B9DED101B51EC110B13F032FA69
:10D0100041EC1D0B53EC1A2B9DED0E0B51EC100B3C
:10D0200013F028FA53EC182BCDE9040151EC1D0B39
:10D0300013F020FACDE902019DED040B53EC102B07
:10D040009DED020B51EC100B13F020FC9FED220B19
:10D0500053EC102BCDE906019DED060B51EC100BA6
:10D0600013F008FA41EC1C0B9DED2E1BB0EE410AAB
:10D07000F0EE610A9FED161B53EC112B51EC100BD7
:10D0800013F0F6FA7DD29DED2E1BB0EE410AF0EEC4
:10D09000610A53EC102B51EC180B13F0F7FB41EC29
:10D0A0001B0B53EC1B2B51EC1B0B13F0E3F917E09C
:10D0B00000000000000010400000000000000040E0
:10D0C000555555555555C53F000000000000F03F2F
:10D0D0000000000000000000000000000000E03F31
:10D0E00053EC182BCDE9020151EC180B13F0C2F9E7
:10D0F000CDE900019DED020B53EC102B9DED000BD3
:10D1000051EC100B13F0C2FB1FED0D1BCDE9040118
:10D110009DED040B11F044F98DED060B1FED1A0B7C
:10D1200053EC102B9DED060B51EC100B13F0A2F9F4
:10D1300041EC1E0B53EC182B51EC1B0B12F042FF71
:10D14000CDE904019DED040B10F01AFF8DED060BE7
:10D150001FED270B53EC102B9DED060B51EC100B24
:10D1600013F088F9CDE90A0153EC182B9DED0A0B59
:10D1700051EC100B13F07EF9CDE9080153EC1B2B99
:10D1800000E028E051EC1E0B13F074F953EC182B5F
:10D19000CDE904019DED080B51EC100B13F06AF979
:10D1A000CDE902019DED040B53EC102B9DED020B1C
:10D1B00051EC100B13F06AFB1FED390B53EC102BE5
:10D1C000CDE906019DED060B51EC100B13F052F961
:10D1D00041EC1F0B07E01FED42EB1FED43FB1FED82
:10D1E000440B8DED080B53EC1F2B51EC1C0B13F073
:10D1F0004DFB41EC1C0B9DED080B53EC102B51EC3F
:10D200001D0B13F043FB53EC1E2BCDE906019DEDE6
:10D21000060B51EC100B12F019FE41EC1D0B53ECF8
:10D220001D2B51EC1C0B12F0CDFECDE912011FEDB0
:10D230005C1B9DED120B11F0B3F88DED060B9DED0F
:10D24000301BB0EE410AF0EE610A53EC102B1FEDDB
:10D25000621B51EC110B12F0B5FECDE904019DEDFE
:10D26000060B53EC102B9DED040B51EC100B13F03F
:10D2700001F9CDE914019DED321BB0EE410AF0EE4B
:10D28000610A53EC102B9DED121B51EC110B13F0A6
:10D29000F1F81FED6F1BCDE904019DED040B11F0BA
:10D2A0007FF88DED060B9DED140B53EC102B9DEDCF
:10D2B000060B51EC100B13F0DDF8C4E9000194EDFE
:10D2C000001BB0EE410AF0EE610A53EC1C2B51EC4E
:10D2D000100B13F0CFF8C5E900010020D5E50FB41D
:10D2E0002DED020B30B52DED108B9FB0B0EE40CA86
:10D2F000F0EE60CA519D509C9DED381BB0EE410A86
:10D30000F0EE610A1FED8E1B53EC112B51EC100B4C
:10D3100012F0B0FF06D101201FB0BDEC108B30BC65
:10D320005DF81CFB9DED401BB0EE410AF0EE610A7A
:10D3300053EC1C2B51EC100B13F0A8FA41EC1A0B18
:10D340001FED9D0B53EC102B51EC1A0B13F056F8FC
:10D350000CD39DED441BB0EE410AF0EE610A53EC94
:10D36000102B51EC1A0B13F083F901D20220D3E7F2
:10D370009DED489B1FEDAA0B53EC102B51EC190BA4
:10D3800013F03CF801D80320C6E79DED4A8B9FEDD2
:10D39000FE0B10F0F5FD8DED100B9FEDFD0B53EC2A
:10D3A000102B9DED100B51EC100B12F00BFE53ECFB
:10D3B000182BCDE912019DED120B51EC100B13F05F
:10D3C00059F8CDE914019DED140B11F011FE8DED0E
:10D3D000160B1FEDC30B53EC102B9DED160B51ECF0
:10D3E000100B13F07BF953EC192BCDE918019DEDCF
:10D3F000180B51EC100B13F03DF841EC1F0B53ECE4
:10D400001F2B51EC1A0B12F0F9FF0FD8602238A92C
:10D410006846CDE918450FF046FDB0EE4C0AF0EE37
:10D420006C0A34A80FC8FFF717FD75E753EC1F2BE4
:10D4300051EC1A0B13F02AFA41EC1B0B9FEDD20BA7
:10D4400010F09EFD8DED080B9FEDD10B53EC102BD2
:10D450009DED080B51EC100B12F0B4FD53EC182BA2
:10D46000CDE90A019DED0A0B51EC100B13F002F807
:10D47000CDE90C019DED0C0B11F01EFE8DED0E0B98
:10D4800053EC1B2B9DED0E0B51EC100B12F0F2FF29
:10D490009FEDBD0BCDE9120110F072FD8DED060B75
:10D4A0009FEDBB0B53EC102B9DED060B51EC100BBD
:10D4B00012F088FD53EC182BCDE908019DED080B07
:10D4C00051EC100B12F0D6FFCDE90A019DED0A0BCD
:10D4D00010F002FF8DED0E0B53EC192B9FEDAE0BF0
:10D4E00051EC100B12F0C6FFCDE90C019DED0E0BB7
:10D4F00053EC102B9DED0C0B51EC100B12F0BAFFFE
:10D50000CDE910019DED120B53EC102B9DED100B8E
:10D5100051EC100B12F09AFC53EC1B2BCDE91401CB
:10D520009DED140B51EC100B12F0A4FF9FED960B28
:10D53000CDE9180110F024FD8DED060B9FED940B45
:10D5400053EC102B9DED060B51EC100B12F03AFD35
:10D5500053EC182B9FED900BCDE90A0151EC100B09
:10D5600012F088FFCDE908019DED0A0B53EC102B5A
:10D570009DED080B51EC100B12F07CFFCDE90C0176
:10D580009DED0C0B11F034FD8DED100B9FED840B18
:10D5900053EC102B51EC180B12F014FD9FED820B85
:10D5A00053EC102BCDE908019DED080B51EC100B4D
:10D5B00013F094F89FED740BCDE90C0110F0E0FC32
:10D5C0008DED0A0B9DED0C0B53EC102B9DED0A0B12
:10D5D00051EC100B12F04EFFCDE90E019DED100B3A
:10D5E00053EC102B9DED0E0B51EC100B13F04EF97C
:10D5F00053EC192BCDE9140151EC190B12F03AFF41
:10D600009FED650B53EC102BCDE910019DED100B38
:10D6100051EC100B12F0D6FCCDE912019DED140B6C
:10D6200053EC102B9DED120B51EC100B12F022FF5E
:10D63000CDE916019DED180B53EC102B9DED160B4B
:10D6400051EC100B12F002FC41EC1E0B9FED4E0B47
:10D6500010F096FC8DED0C0B9FED4D0B53EC102B49
:10D660009DED0C0B51EC100B12F0ACFC53EC182B95
:10D67000CDE90E019DED0E0B51EC100B12F0FAFEF0
:10D68000CDE910019DED100B10F026FE8DED140B71
:10D6900053EC1B2B9FED400B51EC100B12F0EAFEEC
:10D6A000CDE912019DED140B53EC102B9DED120BE7
:10D6B00051EC100B12F086FC9FED390B53EC102B44
:10D6C000CDE9180151EC180B12F07CFC9FED360BE4
:10D6D00053EC102BCDE910019DED100B51EC100B0C
:10D6E00012F0FCFF9FED280BCDE9140110F048FC6F
:10D6F0008DED100B53EC192B9DED100B51EC100B15
:10D7000012F0B8FECDE912019DED140B53EC102B75
:10D710009DED120B51EC100B12F0ACFECDE9160191
:10D720009DED180B53EC102B9DED160B51EC100BCF
:10D7300012F08CFBCDE91A019DED1A0B53EC102B66
:10D7400051EC1E0B12F03EFC41EC1D0B9FED181B23
:10D75000B0EE4D0AF0EE6D0A10F022FE8DED180BC2
:10D760009DED381BB0EE410AF0EE610A53EC102B30
:10D770009FED0D1B51EC110B12F024FCCDE91601AD
:10D780009DED180B18E00000000000000000F0BF45
:10D790000000000000806640000000000000004023
:10D7A0000000000000805640000000000000F03F34
:10D7B000555555555555C53F53EC102B9DED160B42
:10D7C00051EC100B12F056FECDE91C019DED3A1BF9
:10D7D000B0EE410AF0EE610A53EC102B51EC1D0B38
:10D7E00012F048FE9FEDFE1BCDE916019DED160BD4
:10D7F00010F0D6FD8DED180B9DED1C0B53EC102B8E
:10D800009DED180B51EC100B12F034FEC4E9000131
:10D8100094ED001BB0EE410AF0EE610A53EC1E2BB2
:10D8200051EC100B12F026FEC5E90001002073E553
:10D830000FB42DED020B30B52DED028B9BB0B0EE89
:10D84000408AF0EE608ADDE93E459DF888000128B7
:10D8500014D1602226A96846CDE918450FF023FBB4
:10D86000B0EE480AF0EE680A22A80FC8FFF7B7F832
:10D870001BB0BDEC028B30BC5DF81CFB9DF8880032
:10D8800002280FD1602226A96846CDE918450FF07D
:10D890000AFBB0EE480AF0EE680A22A80FC8FFF7AC
:10D8A000DBFAE5E79DF8880003280FD1602226A95E
:10D8B0006846CDE918450FF0F6FAB0EE480AF0EEEA
:10D8C000680A22A80FC8FFF70AFDD1E70120CFE7B9
:10D8D00003210170012181700021417001714171AA
:10D8E0007F2181710021C17101720121417241F6D4
:10D8F000907141814FF49671416200218162C16251
:10D90000012141778177082101840121C1700177CC
:10D9100000210186704710B50246002010700023D8
:10D9200017E003EB830101EBC30402F1180101EBE3
:10D930008400FFF7CDFF03EB8300410003EB83007E
:10D9400000EBC30402F1180000EB84008162581C54
:10D95000C3B2082BE5DB002050601081002305E0F6
:10D96000002102F10A00C154581CC3B2072BF7DB97
:10D97000DA2050745F2191744321D1746B211175A9
:10D9800040F62B10D08210BD0122027082704270CE
:10D990007822C270002104E00023021D53544A1C67
:10D9A000D1B20829F8DB704702460020002104E0CC
:10D9B0000002535C18444B1CD9B20429F8DB00EE7A
:10D9C000100A704713B52DED020B02460B466C464C
:10D9D000082B02D0012004B010BD002103E0605CE0
:10D9E0005054481CC1B20829F9DB0020F3E790ED40
:10D9F000000B704730B50346080E1446551CAAB2FA
:10DA00001855C1F307451046541CA2B21D54C1F36A
:10DA100007251046541CA2B21D541046541CA2B235
:10DA20001954104630BD0021C170017041708170E1
:10DA300000228260C26001717047012101700021E3
:10DA400041708170C17001210171017400228260F6
:10DA5000C260704730B50446002040EAC415E8B201
:10DA600040EA8115E8B240EA0215E8B2184330BD39
:10DA70002DE9F0430446894616461D46DDF81C8014
:10DA8000300C2070300A6070A67041F2BF308045C3
:10DA900003D1E570280A20710FE041F2CD308045B6
:10DAA00008D12F463846FEF75CFE0746E770380A75
:10DAB000207102E0280AE07025710020BDE8F083A3
:10DAC0002DE9F04304460D469046994614F8086047
:10DAD00046FA09F000F00307002F02DC0020BDE841
